:020000040000fa
:08000000000e040000000000e6
:020000040000fa
:1018000002000000ea1c040000000000ea1c0400c2
:1018100000000000ea1c040000000000ea1c0400b4
:1018200000000000ea1c040000000000ea1c0400a4
:1018300000000000ea1c040000000000ea1c040094
:1018400000000000ea1c040000000000ea1c040084
:1018500000000000ea1c040000000000ea1c040074
:1018600000000000ea1c040000000000ea1c040064
:1018700000000000ea1c040000000000ea1c040054
:1018800000000000ea1c040000000000ea1c040044
:1018900000000000ea1c04000000000032220400e6
:1018a00000000000ca21040000000000ea1c04003f
:1018b00000000000ea1c040000000000ea1c040014
:1018c00000000000ea1c040000000000ea1c040004
:1018d00000000000ea1c040000000000ea1c0400f4
:1018e00000000000ea1c040000000000ea1c0400e4
:1018f00000000000ea1c040000000000ea1c0400d4
:1019000000000000ea1c040000000000ea1c0400c3
:1019100000000000ea1c040000000000ea1c0400b3
:1019200000000000ea1c040000000000ea1c0400a3
:1019300000000000ea1c040000000000ea1c040093
:1019400000000000ea1c040000000000ea1c040083
:1019500000000000ea1c040000000000ea1c040073
:1019600000000000ea1c040000000000ea1c040063
:1019700000000000ea1c040000000000ea1c040053
:1019800000000000ea1c040000000000ea1c040043
:1019900000000000ea1c040000000000ea1c040033
:1019a00000000000ea1c040000000000ea1c040023
:1019b00000000000ea1c040000000000ea1c040013
:1019c00000000000ea1c040000000000ea1c040003
:1019d00000000000ea1c040000000000ea1c0400f3
:1019e00000000000ea1c040000000000ea1c0400e3
:1019f00000000000ea1c040000000000ea1c0400d3
:101a000000000000ea1c040000000000ea1c0400c2
:101a100000000000ea1c040000000000ea1c0400b2
:101a200000000000ea1c040000000000ea1c0400a2
:101a300000000000ea1c040000000000ea1c040092
:101a400000000000ea1c040000000000ea1c040082
:101a500000000000ea1c040000000000ea1c040072
:101a600000000000ea1c040000000000ea1c040062
:101a700000000000ea1c040000000000ea1c040052
:101a800000000000ea1c040000000000ea1c040042
:101a900000000000ea1c040000000000ea1c040032
:101aa00000000000ea1c040000000000ea1c040022
:101ab00000000000ea1c040000000000ea1c040012
:101ac00000000000ea1c040000000000ea1c040002
:101ad00000000000ea1c040000000000ea1c0400f2
:101ae00000000000ea1c040000000000ea1c0400e2
:101af00000000000ea1c040000000000ea1c0400d2
:101b000000000000ea1c040000000000ea1c0400c1
:101b100000000000ea1c040000000000ea1c0400b1
:101b200000000000ea1c040000000000ea1c0400a1
:101b300000000000ea1c040000000000ea1c040091
:101b400000000000ea1c040000000000ea1c040081
:101b500000000000ea1c040000000000ea1c040071
:101b600000000000ea1c040000000000ea1c040061
:101b700000000000ea1c040000000000ea1c040051
:101b800000000000ea1c040000000000ea1c040041
:101b900000000000ea1c040000000000ea1c040031
:101ba00000000000ea1c040000000000ea1c040021
:101bb00000000000ea1c040000000000ea1c040011
:101bc00000000000ea1c040000000000ea1c040001
:101bd00000000000ea1c040000000000ea1c0400f1
:101be00000000000ea1c040000000000ea1c0400e1
:041bf00000000000f1
:020000040000fa
:101c00006fe820000eff20000e0188000000000099
:101c10000c000700a0492200010020001f0007005f
:101c2000000020000000e00002003200000002007e
:101c300000000000c2240200000000000040da00a2
:101c40000000fe004440a900a0ad20000000e0001c
:101c50000300320000002000a00188004440a800da
:101c600000000600f03fb1000180b1000600350021
:101c7000ee03090000000000403fb1000180b10008
:101c8000fbff3d001000b000203fb0000200350017
:101c9000008009000000000000000600910188009b
:101ca000800078000000eb0015003700e280400063
:101cb00032a0b4009101ba00e280400032a0b4002a
:101cc0009102ba00e280400032a0b4000002eb00b2
:101cd000472bde00f507b200602ce10004003a005b
:101ce0000059eb008301e900fdff3e0004003700ce
:101cf0006128e100010032000082eb0004000700cf
:101d00001101ba000200e000e8ff3a0000000600fe
:101d10003159ba008301e9000c0032002159ba00a0
:101d20008301e900080032000400e00003003a00eb
:101d3000e280400032a0b400f5ff370011d9ba00ac
:101d40008301e900faff3a008100e800e1804000e9
:101d500032a0b400000006000001be001a01070016
:101d60000470a70003f0a10003f8a30013003a00d9
:101d70006509b10010003200090035006928e10052
:101d800002003500010028000000050000004000ae
:101d9000818048008502e900fcff3a00000006004f
:101da000f88f4200050035008100d1000080d3008b
:101db0008502e800fcff3a00000006008000eb000e
:101dc00000000500889fbe008a9fbe0001057800c4
:101dd0000100e0000400350008003c000000e000c5
:101de000200032000500370060001000e08018007d
:101df00002003b0001f02c001a0037000004be0076
:101e00006011b8006b0920000982cf000200390080
:101e10000882cf000441b000694252000e00320037
:101e200008003b0082817100610164008904d100d7
:101e30000884d3008b05e8000442e800f9ff3a006b
:101e4000050037000804440089844c008b05e90034
:101e50000442e900fbff3a00f00007000af0a70087
:101e600001f0a0004f05be004f04be0000000600b8
:101e700003f0a200889fbe008a9fbe008c1f7800de
:101e80000c010700130133006450e1004f003200e1
:101e90006420e1005200320003826c0007003b0026
:101ea0000905d0000306d000820f54000c065d0027
:101eb0000200390002003200890178000306780030
:101ec0008582550004003d000003fd008103fd00f4
:101ed0008502ea008b854200840f720002003b00fd
:101ee00060001000e08018006011b8000005eb00f1
:101ef0007a28e1000a00390006007800c75ddd009d
:101f0000f707b200878075002d00370082817100cd
:101f10000a017800610560008180d1000080d30053
:101f20008502e900f9ff3b00060440008784480071
:101f300002003b0060041400e0841c000988a30038
:101f4000070032008a8171008281710061016400a2
:101f50008904d1000884d3008b05e80017003700fe
:101f60000978a30013003a000b00e00013003400ce
:101f70008b05e9000804440089844c000a4474007d
:101f80000978a3000d003a000b00e00007003400c0
:101f90008b05e9000804440089844c0001003a00e4
:101fa0000b0020000978a300f7ff32000001eb00ce
:101fb00002003700828171000a0178009700070053
:101fc0000cf0a70001f0a000cb0037006420e10076
:101fd00002003a00838f6c00cb0033000801be0082
:101fe0000200be00c400370014002000c900370002
:101ff000889fbe008a9fbe008c1f7800ad0007003e
:10200000b400330003866c006450e1002e003200ff
:102010006420e100330032006150e1002f00320003
:102020006120e1003100320085855500eb07b000ea
:1020300009002000080420000500370008044400bf
:1020400089844c000a0031000603430087834b005b
:102050000001530081815b00f8ff33000203be00e2
:102060000800a0000804440089844c00f6ff3900f1
:10207000c639dd0083017300010032001300200027
:102080008904d1000884d3000998a3000500320018
:102090000800a7000300a0008904d1000884d30031
:1020a0008b05e8008904d1000884d3000001eb000f
:1020b0000281d2005900070001f0a1000cf0a70036
:1020c00001f0a0008c0037006420e1008e00320097
:1020d0000801be000200be00f7ff37006120e100ea
:1020e000890032006000b800f3ff370000002000d4
:1020f00001f82700f0ff3700889fbe008a9fbe00ce
:102100008c1f78006b0007007200330003866c00a0
:102110006450e100240032006420e1002700320016
:102120006150e100220032006120e1002100320014
:102130008b854200eb07b1000134b800003ab800cb
:102140000804420089844a00013ab8000030b8000f
:102150008880400009014a0004003300000040006c
:1021600081804800020149008b05e900c909dd00b2
:10217000830170000100320013002000c814de004b
:102180004814dd004709de001200b200c808de0076
:10219000088470002100070001f0a1000cf0a700e6
:1021a00001f0a000540037006120e1005600320029
:1021b0000801be000200be00f7ff37006150e100d9
:1021c000fcff3a0050003700c70ade00f107b200fa
:1021d000f50fb20008003200e1cf420002003200e9
:1021e0000170a00024000500810f70000100320082
:1021f0000408050044000500810f700002003a0049
:10220000140005008502e9000000400081c048007c
:10221000fcff3b000170a0002400050081002000ad
:10222000618055000b003d000b00200061fe2f0077
:102230000100e1001d003400828171006101640031
:102240008904d1000884d3000000e800faff3a00b6
:102250007100200061006400030070000200600053
:102260000900320061044400e0844c000988a500a4
:10227000050032008b05e8006808e10002003a0022
:102280008904d1000884d300f20f20000258e10035
:1022900005003d00c75ddd00f907b20089807500cb
:1022a00008007800000006000bf827008b0078007b
:1022b000000005000004be00c3ff07000003be00cd
:1022c0000405be000200be00bfff0700844f75007a
:1022d000000006000200be006450e1000500360068
:1022e0006420e100020036000968a30001003a0002
:1022f0000800be000160a0004f0678004f05be0038
:102300004f04be0000000600f0ff2f00f1ff270081
:10231000f9ff3700889fbe008a9fbe00841f7800a7
:10232000e4ff07004f00780011003300f0ff2f009a
:10233000838f6c0006003b00040565000a00a700bf
:102340000800370009f0a600100020000800370040
:10235000820f5400838f5c000300390010002000be
:1023600001003e000000200009f0a7000000ea0084
:102370004f05be004f04be000000e0000000060054
:020000040000fa
:0200000401f009
:04000000ffff0000fe
:020000040000fa
:0200000401f009
:04000800ffff0000f6
:020000040000fa
:0200000401f009
:04000c0078ff000079
:020000040000fa
:0200000401f009
:040010005bff000092
:020000040000fa
:0200000401f009
:0400140079ff000070
:020000040000fa
:0200000401f009
:04001800fcff0000e9
:020000040000fa
:0200000401f009
:04001c00dfff000002
:020000040000fa
:10000800020c0000060c00000a0c00000e0c000098
:10001800120c0000160c00001a0c00001e0c000048
:10002800220c0000260c00002a0c00002e0c0000f8
:10003800320c0000360c00003a0c00003e0c0000a8
:10004800420c0000460c00004a0c00004e0c000058
:10005800520c0000560c00005a0c00005e0c000008
:10006800620c0000660c00006a0c00006e0c0000b8
:10007800720c0000760c00007a0c00007e0c000068
:10008800820c0000860c00008a0c00008e0c000018
:10009800920c0000960c00009a0c00009e0c0000c8
:1000a800a20c0000a60c0000aa0c0000ae0c000078
:1000b800b20c0000b60c0000ba0c0000be0c000028
:1000c800c20c0000c60c0000ca0c0000ce0c0000d8
:1000d800d20c0000d60c0000da0c0000de0c000088
:1000e800e20c0000e60c0000ea0c0000ee0c000038
:1000f800f20c0000f60c0000fa0c0000fe0c0000e8
:10010800020d0000060d00000a0d00000e0d000093
:10011800120d0000160d00001a0d00001e0d000043
:10012800220d0000260d00002a0d00002e0d0000f3
:10013800320d0000360d00003a0d00003e0d0000a3
:10014800420d0000460d00004a0d00004e0d000053
:10015800520d0000560d00005a0d00005e0d000003
:10016800620d0000660d00006a0d00006e0d0000b3
:10017800720d0000760d00007a0d00007e0d000063
:10018800820d0000860d00008a0d00008e0d000013
:10019800920d0000960d00009a0d00009e0d0000c3
:1001a800a20d0000a60d0000aa0d0000ae0d000073
:1001b800b20d0000b60d0000ba0d0000be0d000023
:1001c800c20d0000c60d0000ca0d0000ce0d0000d3
:1001d800d20d0000d60d0000da0d0000de0d000083
:1001e800e20d0000e60d0000ea0d0000ee0d000033
:0801f800f20d0000f60d0000fd
:020000040000fa
:10020800020c0000060c00000a0c00000e0c000096
:10021800120c0000160c00001a0c00001e0c000046
:10022800220c0000260c00002a0c00002e0c0000f6
:10023800320c0000360c00003a0c00003e0c0000a6
:10024800420c0000460c00004a0c00004e0c000056
:10025800520c0000560c00005a0c00005e0c000006
:10026800620c0000660c00006a0c00006e0c0000b6
:10027800720c0000760c00007a0c00007e0c000066
:10028800820c0000860c00008a0c00008e0c000016
:10029800920c0000960c00009a0c00009e0c0000c6
:1002a800a20c0000a60c0000aa0c0000ae0c000076
:1002b800b20c0000b60c0000ba0c0000be0c000026
:1002c800c20c0000c60c0000ca0c0000ce0c0000d6
:1002d800d20c0000d60c0000da0c0000de0c000086
:1002e800e20c0000e60c0000ea0c0000ee0c000036
:1002f800f20c0000f60c0000fa0c0000fe0c0000e6
:10030800020d0000060d00000a0d00000e0d000091
:10031800120d0000160d00001a0d00001e0d000041
:10032800220d0000260d00002a0d00002e0d0000f1
:10033800320d0000360d00003a0d00003e0d0000a1
:10034800420d0000460d00004a0d00004e0d000051
:10035800520d0000560d00005a0d00005e0d000001
:10036800620d0000660d00006a0d00006e0d0000b1
:10037800720d0000760d00007a0d00007e0d000061
:10038800820d0000860d00008a0d00008e0d000011
:10039800920d0000960d00009a0d00009e0d0000c1
:1003a800a20d0000a60d0000aa0d0000ae0d000071
:1003b800b20d0000b60d0000ba0d0000be0d000021
:1003c800c20d0000c60d0000ca0d0000ce0d0000d1
:1003d800d20d0000d60d0000da0d0000de0d000081
:1003e800e20d0000e60d0000ea0d0000ee0d000031
:0803f800f20d0000f60d0000fb
:020000040000fa
:10238000556e0000686100006e6400006c6500001e
:1023900064200000696e0000746500007272000025
:1023a00075700000742c00002000000050490000ef
:1023b00043320000344800004a3300003247000036
:1023c0005032000030320000007500006e6b0000db
:1023d0006e6f0000776e00000041000036000000c4
:1023e0004132000000410000330000004134000091
:1023f00000410000350000004465000076690000df
:102400006365000020490000442000003d200000da
:102410000020000028000000292c0000207200008d
:102420006576000069730000696f00006e2000008f
:10243000002900000a0000000a0a00002a2a000001
:102440002a2a00002a2a00002a2a00002a2a00003c
:102450002a2a00002a2a00002a2a00002a2a00002c
:102460002a2a00002a2a00002a2a00002a2a00001c
:102470002a2a00002a2a00002a2a00002a2a00000c
:102480002a2a00002a2a00002a2a00002a2a0000fc
:102490002a2a00002a2a00002a2a00002a2a0000ec
:1024a0002a2a00002a2a00000a2a000020570000d9
:1024b000415200004e4900004e470000202d000010
:1024c0002074000068690000732000007072000032
:1024d0006f670000726100006d20000077610000ee
:1024e00073200000636f00006d700000696c0000d5
:1024f00065640000206600006f7200002074000018
:102500006865000020770000726f00006e670000b1
:10251000202000002a0a00002a2000006368000032
:10252000697000002e2000005468000069730000ec
:1025300020700000726f000067720000616d000083
:10254000206d00006179000020700000726f0000b3
:102550006475000063650000207500006e65000072
:10256000787000006563000074650000642000005e
:102570006265000068760000696f0000722100004b
:10258000202a00000a2a000020450000646900009b
:102590007420000074680000652000006865000079
:1025a000616400006572000020660000696c000034
:1025b00065730000207400006f200000707200003e
:1025c0006f700000657200006c79000020640000ec
:1025d00065660000696e00006520000074680000f8
:1025e000697300002063000068690000702000002b
:1025f0002a0a00002a200000616e0000642000000a
:10260000746f0000206900006e7300007572000096
:1026100065200000636f00007272000065630000b7
:10262000742000006f70000065720000617400008b
:10263000696f00006e2e00002020000020200000a6
:10264000202000002020000020200000202000008a
:10265000202000002020000020200000202a000070
:102660000a2a000020200000202000002020000076
:10267000202000002020000020200000202000005a
:10268000202000002020000020200000202000004a
:10269000202000002020000020200000202000003a
:1026a000202000002020000020200000202000002a
:1026b000202000002020000020200000202000001a
:1026c0002020000020200000202000002a0a000016
:1026d0002a2000004e4f0000544500003a20000020
:1026e0004966000020740000686900007320000043
:1026f0007761000073200000636f00006d700000c0
:10270000696c000065640000206600006f720000c4
:102710002074000068650000206300006f720000f4
:1027200072650000637400002063000068690000a7
:10273000702c000020200000202a00000a2a00003f
:10274000206100006e640000206f00006e6c0000cd
:10275000792000006f630000637500007273000051
:102760002061000074200000706f00007765000099
:10277000722d00006f6e0000202800006e6f0000b8
:102780007420000064750000726900006e6700002c
:1027900020610000204d0000434c0000522000004a
:1027a00020200000202000002a0a00002a2000002b
:1027b0007265000073650000742900002c20000081
:1027c00076650000726900006679000020740000e0
:1027d000686100007420000041560000444400007d
:1027e000206100006e64000020410000565300008c
:1027f000532000006172000065200000636f00003c
:102800006e6e00006563000074650000642e0000b9
:1028100020200000202a00000a2a0000204f00008b
:102820006e20000074680000652000005049000020
:1028300043320000344800003332000047500000ab
:1028400032300000322c0000206e00006f74000057
:10285000206300006f6e00006e650000637400006e
:10286000696e0000672000004156000044440000eb
:102870002020000020200000202000002020000058
:10288000202000002a0a00002a20000070720000a8
:102890006f64000075630000657300002074000021
:1028a00068690000732000006d650000737300000c
:1028b00061670000652000006f6e00006c79000009
:1028c0002061000074200000706f00007765000038
:1028d000722d0000757000002e20000020200000e6
:1028e00020200000202000002020000020200000e8
:1028f000202a00000a2a00002a2a00002a2a0000b2
:102900002a2a00002a2a00002a2a00002a2a000077
:102910002a2a00002a2a00002a2a00002a2a000067
:102920002a2a00002a2a00002a2a00002a2a000057
:102930002a2a00002a2a00002a2a00002a2a000047
:102940002a2a00002a2a00002a2a00002a2a000037
:102950002a2a00002a2a00002a2a00002a2a000027
:102960002a0a000000460000617300007420000085
:1029700052430000204f0000736300000a00000073
:1029800046610000737400002052000043200000e4
:102990004f73000063200000776900007468000036
:1029a000205000004c4c00000a0000005072000053
:1029b000696d000061720000792000004f73000013
:1029c0006320000028580000542c0000204800001c
:1029d000532c000020450000432900000a0000009d
:1029e00050720000696d00006172000079200000e3
:1029f0004f7300006320000028580000542c000092
:102a000020480000532c000020450000432900000e
:102a1000207700006974000068200000504c00001e
:102a20004c0a000000530000656300006f6e000058
:102a30006461000072790000204f000073630000a1
:102a40000a0000004c6f000077200000506f00006b
:102a5000776500007220000052430000204f000004
:102a6000736300000a0000004661000073740000f8
:102a700020520000432000004f730000632f00002d
:102a8000313600000a000000466100007374000047
:102a900020520000432000004f730000632f00000d
:102aa0004e0a0000005500006e6b00006e6f0000c3
:102ab000776e0000206f000073630000696c0000f7
:102ac0006c610000746f00007220000074790000d7
:102ad000706500002e0000000a44000065760000ca
:102ae0006963000065200000686100007320000039
:102af00062650000656e0000206900006e20000025
:102b0000736c000065650000702000006d6f0000b0
:102b1000646500000a0000000a44000065760000b9
:102b200069630000652000006861000073200000f8
:102b300062650000656e0000206900006e200000e4
:102b4000696400006c650000206d00006f64000087
:102b5000650a0000000a000052650000736500006d
:102b6000742000006361000075730000653a000086
:102b700020000000506f000077650000722d0000fb
:102b80006f6e00002e0a0000005300006f66000008
:102b9000747700006172000065200000526500003b
:102ba00073650000742e00000a00000057610000e9
:102bb00074630000686400006f6700002054000028
:102bc000696d0000656f0000757400003a20000018
:102bd000000a0000004d0000434c0000522000009d
:102be000617300007365000072740000696f00007b
:102bf0006e2e00000a000000427200006f77000095
:102c00006e2d00006f750000742e00000a00000099
:102c10005472000061700000204300006f6e0000dd
:102c2000666c000069630000742e00000a0000005a
:102c3000496c00006c650000676100006c200000ba
:102c4000436f00006e64000069740000696f00004b
:102c50006e2e00000a000000436f00006e66000048
:102c6000696700007572000061740000696f000000
:102c70006e2000004d690000736d0000617400005b
:102c8000636800002e0a0000005500006e6b000013
:102c90006e6f0000776e0000207200006573000008
:102ca000657400002e0a00000045000072720000ea
:102cb0006f720000207400007261000070700000ec
:102cc000656400003a2000000050000072690000b6
:102cd0006f72000069740000793a00002000000063
:102ce0002c20000056650000637400006f72000025
:102cf000206e0000756d000062650000723a0000f1
:102d0000200000000a0a0000000000000a0a00007b
:102d1000596f000075720000206300006c6f0000a6
:102d2000636b000020630000686f000069630000af
:102d30006520000066610000696c000065640000a9
:102d4000207400006f200000696e000069740000ac
:102d5000696100006c6900007a6500002c200000a9
:102d6000686100007665000020730000776900004c
:102d7000746300006865000064200000746f000048
:102d8000206900006e740000657200006e61000032
:102d90006c200000466100007374000020520000a7
:102da000432000006f730000636900006c6c00003a
:102db000617400006f720000202b0000504c000076
:102dc0004c2e00000a43000068650000636b0000a1
:102dd000207900006f75000072200000736500000c
:102de00074740000696e000067200000666f0000c8
:102df0007220000074680000652000002743000076
:102e00004c4f0000434b00005f4300004f4e00005a
:102e10004649000047270000206d00006163000064
:102e2000726f00002e0a00005761000074630000fa
:102e3000682000007468000065200000636f0000d7
:102e40006d700000696c000065720000206f00006a
:102e50007574000070750000742000007769000030
:102e60006e6400006f770000207700006865000046
:102e70006e2000007069000063320000345f0000c3
:102e8000636c00006f6300006b66000072650000f9
:102e9000712e0000632000006973000020630000b1
:102ea0006f6d0000706900006c650000642c00000c
:102eb0002061000020770000617200006e69000050
:102ec0006e670000206d00006573000073610000f4
:102ed000676500000a770000696c00006c20000044
:102ee000746500006c6c0000207900006f750000b4
:102ef000207400006865000020730000656c00000d
:102f000065630000746500006420000076610000c5
:102f10006c75000065200000666f000072200000e4
:102f2000274300004c4f0000434b00005f4300006c
:102f30004f4e000046490000472700002e0a0000bf
:102f4000496e0000204d0000504c0000414200003e
:102f50002c200000757300006520000050720000f6
:102f60006f6a000065630000742d00003e4200009f
:102f7000756900006c640000204f00007074000050
:102f8000696f00006e7300002d3e0000507200005b
:102f90006f6a000065630000742c0000207400005c
:102fa000686500006e200000636c0000696300002b
:102fb0006b2000006f6e0000204d0000504c0000a0
:102fc0004142000020430000333000002074000024
:102fd00061620000207400006f2000007365000033
:102fe0006520000069660000200a00007468000087
:102ff000652000006d610000637200006f2000001a
:10300000697300002064000065660000696e0000be
:1030100065640000207400006865000072650000af
:103020002e20000049660000207400006865000042
:10303000206d000061630000726f000020690000d5
:1030400073200000736500006c650000637400006d
:10305000696e000067200000616e000020650000be
:1030600078740000657200006e6100006c20000042
:103070006372000079730000746100006c2000002e
:10308000287400006865000020700000726900006c
:103090006d61000072790000206f00007363000012
:1030a000696c00006c610000746f00007229000000
:1030b0002c0a0000616e000064200000796f00009f
:1030c00075720000206200006f61000072640000f1
:1030d000206400006f650000732000006e6f000028
:1030e0007420000068610000766500002061000027
:1030f000206300007279000073740000616c0000ae
:103100002c200000796f0000752000007769000016
:103110006c6c0000206700006574000020740000e3
:1031200068690000732000006d6500007373000083
:1031300061670000652e00000a440000656c000015
:1031400065740000652000007468000065200000c0
:103150006d610000637200006f2000006465000074
:10316000666900006e690000746900006f6e0000ff
:1031700020660000726f00006d200000746800007f
:10318000652000004d5000004c410000422000002e
:10319000707200006f6a0000656300007420000018
:1031a00069660000207900006f750000207700003c
:1031b000616e000074200000746f00002075000034
:1031c0007365000020740000686500002064000042
:1031d00065660000617500006c740000200a000044
:1031e000636c00006f6300006b20000063680000e8
:1031f0006f69000063650000206f0000662000001a
:1032000046520000432000002b200000504c0000dc
:103210004c2e00000a5900006f750000206d000060
:10322000757300007420000072650000636f000079
:103230006d700000696c000065200000616e000088
:103240006420000072650000707200006f6700006b
:10325000726100006d200000776900007468000052
:10326000206100006e20000061700000707200009c
:103270006f7000007269000061740000652000003a
:10328000434c00004f4300004b5f0000434f0000e1
:103290004e4600004947000020630000686f0000b0
:1032a0006963000065200000666f00007220000066
:1032b0007468000069730000206300006f64000000
:1032c00065200000746f0000206500007865000034
:1032d00063750000746500002e0a000000450000c0
:1032e000727200006f720000206900006e20000002
:1032f000433a00005c65000063650000333700005e
:10330000323400005c700000696300003234000059
:103310005f6300006f640000655f00006578000077
:10332000616d0000706c0000657300005c6c000053
:10333000696200005c6300006f6d00006d6f00004b
:103340006e5c00007069000063320000345f0000b2
:10335000636c00006f6300006b6600007265000024
:10336000712e0000632000006c6900006e65000093
:1033700020310000393400003a20000041530000a1
:10338000534500005254000028750000385f0000cb
:10339000736f00007572000063650000203c000040
:1033a000203800002920000066610000696c0000e0
:1033b000656400002e0a0000000000004572000055
:1033c000726f000072200000696e00002043000050
:1033d0003a5c00006563000065330000373200008e
:1033e000345c00007069000063320000345f00004c
:1033f000636f0000646500005f6500007861000095
:103400006d7000006c650000735c00006c6900006a
:10341000625c0000636f00006d6d00006f6e000065
:103420005c70000069630000323400005f730000cc
:1034300065720000696100006c2e000063200000ce
:103440006c6900006e65000020370000393a00000a
:10345000204900006e760000616c00006964000085
:103460002055000041520000540000003078000058
:103470000005000003020000010500000302000037
:10348000013200001e1400000a05000003020000c3
:1034900001050000030200000100000050c300000d
:1034a00030750000204e0000102700008813000037
:1034b000b80b0000d0070000e8030000f401000092
:1034c0002c010000c8000000640000003200000071
:1034d0001e000000140000000a00000005000000ab
:1034e000030000000200000001000000457200001f
:1034f000726f000072200000696e0000204300001f
:103500003a5c00006563000065330000373200005c
:10351000345c00007069000063320000345f00001a
:10352000636f0000646500005f6500007861000063
:103530006d7000006c650000735c00006c69000039
:10354000625c0000636f00006d6d00006f6e000034
:103550005c70000069630000323400005f7300009b
:1035600065720000696100006c2e0000632000009d
:103570006c6900006e6500002032000039340000e4
:103580003a200000496e0000766100006c6900007e
:103590006420000055410000525400000045000026
:1035a000727200006f720000206900006e2000003f
:1035b000433a00005c65000063650000333700009b
:1035c000323400005c700000696300003234000097
:1035d0005f6300006f640000655f000065780000b5
:1035e000616d0000706c0000657300005c6c000091
:1035f000696200005c6300006f6d00006d6f000089
:103600006e5c00007069000063320000345f0000ef
:103610007365000072690000616c00002e63000099
:10362000206c0000696e000065200000333300004c
:10363000333a0000204900006e760000616c000003
:103640006964000020550000415200005400000051
:10365000554100005254000031200000706100000c
:103660007269000074790000206500007272000029
:103670006f7200000a000000554100005254000023
:103680003120000066720000616d0000696e00006c
:103690006720000065720000726f0000720a00006f
:1036a000005500004152000054310000206f00001e
:1036b0007665000072720000756e000020650000e3
:1036c000727200006f7200000a0000005541000095
:1036d00052540000312000005258000020490000e0
:1036e0006e74000065720000727500007074000056
:1036f00020460000494600004f2000006f76000081
:1037000065720000727500006e2100000045000027
:10371000727200006f720000206900006e200000cd
:10372000433a00005c650000636500003337000029
:10373000323400005c700000696300003234000025
:103740005f6300006f640000655f00006578000043
:10375000616d0000706c0000657300005c6c00001f
:10376000696200005c6300006f6d00006d6f000017
:103770006e5c00007069000063320000345f00007e
:1037800075610000727400002e630000206c000060
:10379000696e00006520000033340000363a0000f6
:1037a00020410000535300004552000054280000ff
:1037b000665f000062720000672000003c2000008d
:1037c0003635000035330000352e00003529000065
:1037d00020660000616900006c650000642e000036
:1037e0000a00000045720000726f000072200000a5
:1037f000696e0000204300003a5c00006563000031
:103800006533000037320000345c0000706900004e
:1038100063320000345f0000636f000064650000e5
:103820005f650000786100006d7000006c6500004d
:10383000735c00006c690000625c0000636f000054
:103840006d6d00006f6e00005c7000006963000029
:10385000323400005f75000061720000742e0000b9
:10386000632000006c6900006e65000020330000da
:10387000393300003a200000415300005345000056
:103880005254000028750000333200005f620000cf
:103890006175000064520000617400006520000042
:1038a0003e3d00002031000030300000304c000070
:1038b0002920000066610000696c0000656400005a
:1038c0002e0a0000000000000a4e0000657600008d
:1038d00065720000576100006e64000065720000b0
:1038e000426100006e6400002e6300002c20000086
:1038f00062750000696c0000742000006f6e0000ab
:10390000204f0000637400002020000031200000e0
:1039100032300000313400002061000074200000cb
:10392000313800003a310000383a000035330000e9
:043930000a00000089
:020000040000fa
:103934006960a900cfe2a800c9e2a9002d23a8006c
:1039440000a82100307088006000200040708800ca
:103954000a2eef000c2eef00cde2a90001000700b3
:10396400000006005070800061708000610140001a
:10397400e0814800527088006370880030708000d5
:1039840041708000800f5100818f59000300360080
:10399400030007000a2eef000c2eef0000000600c3
:1039a400cdc2bf0000c0ea000080fb004700de007b
:1039b4004700dd00d12c2000914078000174a10063
:1039c40080c0700001007800cde2b700000006005e
:1039d4003600f800809fbe00829fbe00849fbe0018
:1039e400869fbe003400f80000002000a00188007b
:1039f40000078000e0708800001c29000700070011
:103a04003400f9004f03be004f02be004f01be0058
:103a14004f00be003600f900004006001a0ee20016
:103a240002003a00d07088000000fe00000006008a
:103a3400000178004008de0032e0b7001280ba00ce
:103a44001201ba0001002000c000dd0000002000c7
:103a54000300200002007000838070000000060054
:103a6400889fbe008a9fbe008c9fbe008e1f780078
:103a740000002000f10f2000edff07000005be004c
:103a840020002000f10f2000e9ff07000004be0021
:103a9400d0f12000800f5500e08f5d0003003a0054
:103aa4001ec0b3006d1d2900020037000047eb0063
:103ab4005d1e290040002300010020006c1f290026
:103ac400800f5400818f5c00180032000a003e0011
:103ad4000c1f290010002300800f5400e08f5c00ad
:103ae4001200320020002300800f5400e08f5c009d
:103af4000b003a000c0037009c1f290050002300e3
:103b0400800f5400e08f5c0008003200dc1e2900a6
:103b140060002300800f5400e08f5c00030032003b
:103b24005c1e2900010037003c1f2900c01f29002a
:103b3400180107000a00be0069010700902029004f
:103b4400140107000d00780012010700c0202900ad
:103b5400100107000800be00610107009020290041
:103b64000c0107000c0078000a01070090212900cd
:103b7400080107000e04e00002003a00c0212900f9
:103b8400040107004f0778004f06be004f05be0032
:103b94004f04be000000060043c7bf004400de001f
:103ba40067006000e34f50001600320004003e003e
:103bb400e14f50000d0032000f003e0008003700b6
:103bc400e54f50001500320011003900e64f500057
:103bd40015003200e74f500019003a001500370075
:103be400304b2900eb00070017003700004c290078
:103bf400e800070014003700604d2900e5000700c5
:103c040011003700004f2900e20007000e003700c2
:103c140030512900df0007000b0037002052290033
:103c2400dc0007000800370040532900d9000700d2
:103c34000500370040542900d60007000200370071
:103c44003055290075ff07000000060040c7bf007b
:103c54000038a30003003200c0562900cd0007003d
:103c64004067a90040c7bf000028a300030032003a
:103c7400c0582900c70007004047a900b05a2900ce
:103c8400c400070040c7bf000008a30009003200b9
:103c9400a05b2900bf0007004007a9004027a90036
:103ca4000000eb00d0708800f0708800e07088009d
:103cb4003d00370040c7bf000044b20002003a0094
:103cc4008040780005003700505c2900b1000700ef
:103cd40040c7a90040e7a90011c0b30040c7bf0016
:103ce4000048a3000b003200605d2900a900070012
:103cf400f07080000000e00001003200a500070021
:103d0400905e2900a30007004087a90040e7a900ae
:103d140011c0b3004047e20004003d00b05e29003a
:103d24009c00070040e7a90011c0b30040c7bf00d2
:103d34000018a30004003200c05f290095000700aa
:103d44004027a90011c0b3004147e20004003d0030
:103d5400806029008f00070041e7a90011c0b3006b
:103d640041c7bf000068a30004003200806129003d
:103d74008800070041c7a90011c0b30041c7bf00b4
:103d84000018a30004003200c0622900810007006b
:103d94004127a900040037000104e00002003a00b2
:103da400506429007b0007001a0ee200160032005e
:103db4005065290077000700d07080007500070067
:103dc4001c0ee2000b00320050662900710007004f
:103dd400e07080004800de006f406000ae00070025
:103de400006729006b000700e07080000074a100e8
:103df400a900070020682900660007000000eb0006
:103e0400d0708800e070880015ff070062ff07008b
:103e1400000006000080eb004016880000168800b1
:103e2400601988005003880042c7bf000018a3002f
:103e340003003200c0ff2f00400388000100370058
:103e440068a0ef0000000600881f780000047800d6
:103e5400b7fe07007902070000102e0001002000c1
:103e64001f01070079ff07000800780049000700d8
:103e74004f04780000000600889fbe008a9fbe00a1
:103e84000005be00b3f707000004be00e00f5000b9
:103e9400e08f580002003500c9f707000900370019
:103ea40061006000010020008901d1000881d30075
:103eb4000200700083807000c1f707000001be009b
:103ec400ebf707000001be000a00be00e7f7070099
:103ed4000200200003f0230042f807000000e00085
:103ee4000200350061044400e0844c000800be0078
:103ef4004f05be004f04be0000000600889fbe00b0
:103f04008a1f78008c9fbe000006be0091f7070050
:103f14000004be0000057800cf80de00a8f707008b
:103f24000800e00003003d000200200003782400a4
:103f3400cff707000001be000c00be00cbf707005e
:103f44000200200003f0230026f807000000e00030
:103f5400010035000a05e8000a0078004f06be009b
:103f64004f0578004f04be00000006008040780032
:103f740000718000e10f500003003a000140780016
:103f8400ee00070002003700e09d2900a3fe0700b1
:103f940000000600881f78000004780010407800b4
:103fa4000004e00004003200f0ff070058407800ed
:103fb4000004e000fcff3a004f0478000000060013
:103fc400889fbe008a9fbe000004be008245780020
:103fd4000005eb000100e00002003a000105780052
:103fe4000e0037000b04e00002003200aa000700b4
:103ff400010037009e000700ea4f5000060032001f
:10400400ed4f500004003200005c78000a05e8001f
:104014008a8f5400f3ff3a00004ceb000a0078004a
:104024004f05be004f04be00000006000041eb0037
:10403400e3ff07000000060012c0b300e0ff070022
:1040440000000600881f7800004478000080fb0010
:104054004400de00e94f5000030036007043b00016
:10406400c2ff0700020037000043b000bfff070093
:104074006f406400e94f5000030036007043b00005
:10408400baff0700020037000043b000b7ff070083
:104094004f04780000000600881f78000044780070
:1040a40060a32900bbff070008407800e5ff070074
:1040b4004f04780000000600881f78000004780090
:1040c40060a32900b3ff07004840de00ddff0700be
:1040d40008407800dbff07004f047800000006006a
:1040e400889fbe000004be0060a32900a9ff07004a
:1040f4004848de0001002000d2ff07004048de00ef
:1041040001002000cfff07004849dd004840de00e1
:1041140000007100c848de00caff070008407800ac
:10412400c8ff07004f04be00000006000600fa00a6
:104134008040780000c3b300a0ff9f00b0ff9f0041
:10414400c0ff9f000040eb00d0ff9f0070ccb30085
:1041540080cf500002003e00814178000500370006
:104164002ff8970000c0e800a0ff9f0080c3b300b1
:1041740080c1400030c6b30080cf51000500360036
:10418400aff897008140e800a1ff9f00c0c9b300c9
:1041940080c141000001eb0015a4290096a3290069
:1041a40062c27a00834f520008003e000280fb0086
:1041b4004200de000000e800e680570001004000f5
:1041c400e2407b0010c8400084c151000201e800b5
:1041d400e80f5100f2ff3a000040eb00d0ff9f00cf
:1041e400668057006bff07000080fa00000006009d
:1041f4000600fa0001c3b300a1ff9f00b1ff9f00b6
:10420400c1ff9f00d1ff9f00e1ff9f0000027800e3
:104214008001eb00e5a4290096a42900150178008b
:10422400840f510008003e000380fb004200de00c2
:10423400e680570001004000e3806100e1407b001c
:1042440010c84000020252008301e8008582e800a1
:10425400f48f5100f1ff3a000040eb00f0ff9f00a3
:10426400668057004bff07000080fa00000006003c
:1042740000718000e10f500003003a006400070061
:104284000080fb000300370060a72900e3fd07005e
:104294000000eb0000000600881f7800f4ff070010
:1042a4000044780031ff07000884fb000800780010
:1042b4004f0478000000060000718000e10f5000f8
:1042c40003003a004b0007000080fb0003003700a6
:1042d400f0ac2900d1fd07000000eb00000006004f
:1042e400120020000271880081000700000006000f
:1042f40022c2bf000038a300030032003011800046
:1043040080b22900c5fd070022c2bf000028a30017
:104314000300320030118000c0b32900bffd070044
:1043240022c2bf000018a300030032002222a90009
:1043340010b52900b9fd070000000600889fbe00e3
:1043440080447800787080000804e8003030200051
:10435400800f540001003a000004eb0080708000dc
:10436400800f540004003a007efd07008070800036
:10437400880f5000fcff3200008020000974780090
:10438400787088009580a8004f04be0000000600e5
:10439400809fbe003400f80000002000a0018800c7
:1043a4007170800080708000808f500002003a009d
:1043b4009580a9000c003700102eec00817080005d
:1043c40030302000808f500001003a00102eef00a2
:1043d4008580a90081708000008020006140780001
:1043e4000080fb00201188003400f9004f00be005b
:1043f4000040060091708000a070800080806800fa
:104404000100ea00010070004f00de000000060019
:1044140091708000a0708000808f500005003a00e9
:1044240050fd070091708000a0708000810f500043
:10443400fbff3200142eec00a1708000303020000d
:10444400808f500001003a00142eef00a17080000c
:1044540030b02000614078000080fb0000000600be
:104464003600f800809fbe00829fbe00849fbe007d
:10447400869fbe00881f78003400f80000002000ea
:10448400a00188008560a90099ff07003011800011
:1044940000447800122eec0091708000303020002f
:1044a400808f500001003a00122eef0091708000be
:1044b400a0708000808f500002003a0060b629008e
:1044c40056fd07009170800030b02000887078009d
:1044d4003400f9004f0478004f03be004f02be00c1
:1044e4004f01be004f00be003600f9000040060038
:1044f400889fbe008a9fbe000005be00a4c6bf0000
:1045040001ceb30001406000a040b300a4e6b700b0
:10451400cbc6bf00014060003040b300cbe6b7001b
:104524002022ef00e00f5500e08f5d00030035000e
:104534000a00be0022f6070009003700610065008a
:10454400010020008b01d1000a81d3000200700019
:10455400838070001af607000001be0044f60700cd
:104564000001be000068290081c124009ff60700f5
:104574000200200003d82300def60700020020001a
:1045840003f8230039f607000004be0002f82f00e8
:10459400f377240093f607000000e00002003500e2
:1045a40070b829001dfd07000800be0053fe070077
:1045b40040118800000028000011880000402000fd
:1045c40010118800703e2000800f5500e08f5d00c0
:1045d40002003e0020bf290010fd070000c429008e
:1045e400010020009ef50700409c200001002000ef
:1045f4005270800063708000020140008381480093
:1046040052708800637088002222a90001003700dc
:104614003011800022c2bf000038a300fcff3a0022
:1046240022c2bf000028a300f9ff3a008560a90058
:10463400a9c0bf00f1c8b300014060000044a0005d
:10464400a9e0b7009560a800aac0bf0081cfb3005d
:10465400014060000004a000aae0b7004f05be00be
:104664004f04be00000006007400070000102e0076
:10467400010020001aff070020c72900912224000e
:104684001efe0700401188002062a90000000600f9
:10469400b0708000c17080000082eb008082eb006b
:1046a400840f5000858f58001000320061014000d3
:1046b400e0814800b2708800c3708800f0d3200005
:1046c40031002000800f5100818f5900070036000f
:1046d400b4708800c5708800e3ff07006068290093
:1046e4002cfe07009ffc0700feff370000000600b9
:1046f4000200fa00881f780000447800e74f500059
:1047040002003600f0962900c4fc0700ff3ffc00bd
:10471400103a8000e0bf9f00670064004800dd009d
:10472400f18f2f006fb997000101610080017100c2
:10473400030078000000a000e0bf9f005ff897002e
:104744000080fb00a20920008107200033742000b0
:104754008149780082497800804978004ff89700b1
:104764000081fb00710520006004200023742000f8
:104774008049780081497800824978000000fc0073
:1047840042c7bf000008a30004003200c0ff0700b6
:1047940042c7bf000008a300fcff3a00e14f5400e9
:1047a40014003200e34f540005003a0011003700b2
:1047b400b7ff070042c7bf000058a300fcff320048
:1047c40043c7bf004400de000884fb0067006000ac
:1047d400880f50000b003200adff070043c7bf0035
:1047e4004400de0067006000880f500005003200be
:1047f400f9ff370042c7bf000058a300f0ff3a009a
:10480400ebff37004f0478000080fa000000060038
:104814000000060020c0b300b5ff0700000006003a
:104824000040eb00b2ff070048c7bf0001ccb30053
:104834000140600048e7b700000006000040eb00bc
:10484400abff070048c7bf0001ccb30001406000c4
:10485400d042b30048e7b70044c7bf0001ceb3005d
:10486400014060006040b30044e7b700303a800084
:1048740001e02f0001006000900bb300303a880083
:1048840044c7bf00f043b20044e7b70010c0b30010
:1048940097ff0700000006000040eb0094ff0700ac
:1048a40044c7bf0001ceb300014060000024a00053
:1048b40044e7b700303a800001e02f0001006000b7
:1048c4000070a000303a880044c7bf00f043b20033
:1048d40044e7b70030c0b30085ff070000000600be
:1048e4000040eb0082ff070044c7bf0001ceb300c5
:1048f4000140600044e7b700303a800001e02f0037
:10490400010060006002b300303a880044c7bf0071
:10491400f043b20044e7b70030c0b30074ff0700af
:104924000000060020c0b30071ff0700000006006d
:020000040000fa
:10493400160e00000400000000000000060e000037
:1049440008000000000000000e0e00000800000037
:104954000200000000000000000000000000000051
:10496400000800000606000000000000200e000001
:10497400020000000200000001000000000000002e
:020000040000fa
:10498400aeff070023fd0700e9fb070000102e001f
:104994000100200052fe0700acfc070040c62900bd
:0849a4007cfd07000000060085
:00000001FF
