:020000040000fa
:08000000000e040000000000e6
:020000040000fa
:10180000020000003a2a0400000000003a2a040006
:10181000000000003a2a0400000000003a2a0400f8
:10182000000000003a2a0400000000003a2a0400e8
:10183000000000003a2a0400000000003a2a0400d8
:10184000000000003a2a0400000000003a2a0400c8
:10185000000000003a2a0400000000003a2a0400b8
:10186000000000003a2a0400000000003a2a0400a8
:10187000000000003a2a0400000000003a2a040098
:10188000000000003a2a0400000000003a2a040088
:10189000000000003a2a0400000000003a2a040078
:1018a000000000003a2a0400000000003a2a040068
:1018b000000000003a2a0400000000003a2a040058
:1018c000000000003a2a0400000000003a2a040048
:1018d000000000003a2a0400000000003a2a040038
:1018e000000000003a2a0400000000003a2a040028
:1018f000000000003a2a0400000000003a2a040018
:10190000000000003a2a0400000000003a2a040007
:10191000000000003a2a0400000000003a2a0400f7
:10192000000000003a2a0400000000003a2a0400e7
:10193000000000003a2a0400000000003a2a0400d7
:10194000000000003a2a0400000000003a2a0400c7
:10195000000000003a2a0400000000003a2a0400b7
:10196000000000003a2a0400000000003a2a0400a7
:10197000000000003a2a0400000000003a2a040097
:10198000000000003a2a0400000000003a2a040087
:10199000000000003a2a0400000000003a2a040077
:1019a000000000003a2a0400000000003a2a040067
:1019b000000000003a2a0400000000003a2a040057
:1019c000000000003a2a0400000000003a2a040047
:1019d000000000003a2a0400000000003a2a040037
:1019e000000000003a2a0400000000003a2a040027
:1019f000000000003a2a0400000000003a2a040017
:101a0000000000003a2a0400000000003a2a040006
:101a1000000000003a2a0400000000003a2a0400f6
:101a2000000000003a2a0400000000003a2a0400e6
:101a3000000000003a2a0400000000003a2a0400d6
:101a4000000000003a2a0400000000003a2a0400c6
:101a5000000000003a2a0400000000003a2a0400b6
:101a6000000000003a2a0400000000003a2a0400a6
:101a7000000000003a2a0400000000003a2a040096
:101a8000000000003a2a0400000000003a2a040086
:101a9000000000003a2a0400000000003a2a040076
:101aa000000000003a2a0400000000003a2a040066
:101ab000000000003a2a0400000000003a2a040056
:101ac000000000003a2a0400000000003a2a040046
:101ad000000000003a2a0400000000003a2a040036
:101ae000000000003a2a0400000000003a2a040026
:101af000000000003a2a0400000000003a2a040016
:101b0000000000003a2a0400000000003a2a040005
:101b1000000000003a2a0400000000003a2a0400f5
:101b2000000000003a2a0400000000003a2a0400e5
:101b3000000000003a2a0400000000003a2a0400d5
:101b4000000000003a2a0400000000003a2a0400c5
:101b5000000000003a2a0400000000003a2a0400b5
:101b6000000000003a2a0400000000003a2a0400a5
:101b7000000000003a2a0400000000003a2a040095
:101b8000000000003a2a0400000000003a2a040085
:101b9000000000003a2a0400000000003a2a040075
:101ba000000000003a2a0400000000003a2a040065
:101bb000000000003a2a0400000000003a2a040055
:101bc000000000003a2a0400000000003a2a040045
:101bd000000000003a2a0400000000003a2a040035
:101be000000000003a2a0400000000003a2a040025
:041bf00000000000f1
:020000040000fa
:101c00008fca20000eff20000e0188000000000097
:101c10000c00070080d02200010020001f000700f8
:101c2000000020000000e00002003200000002007e
:101c30000000000038340200000000000040da001c
:101c40000000fe004440a900804c21000000e0009c
:101c50000300320000002000a00188004440a800da
:101c600000000600f03fb1000180b1000600350021
:101c7000ee03090000000000403fb1000180b10008
:101c8000fbff3d001000b000203fb0000200350017
:101c9000008009000000000000000600910188009b
:101ca000800078000000eb0015003700e280400063
:101cb00032a0b4009101ba00e280400032a0b4002a
:101cc0009102ba00e280400032a0b4000002eb00b2
:101cd000472bde00f507b200602ce10004003a005b
:101ce0000059eb008301e900fdff3e0004003700ce
:101cf0006128e100010032000082eb0004000700cf
:101d00001101ba000200e000e8ff3a0000000600fe
:101d10003159ba008301e9000c0032002159ba00a0
:101d20008301e900080032000400e00003003a00eb
:101d3000e280400032a0b400f5ff370011d9ba00ac
:101d40008301e900faff3a008100e800e1804000e9
:101d500032a0b400000006000001be001a01070016
:101d60000470a70003f0a10003f8a30013003a00d9
:101d70006509b10010003200090035006928e10052
:101d800002003500010028000000050000004000ae
:101d9000818048008502e900fcff3a00000006004f
:101da000f88f4200050035008100d1000080d3008b
:101db0008502e800fcff3a00000006008000eb000e
:101dc00000000500889fbe008a9fbe0001057800c4
:101dd0000100e0000400350008003c000000e000c5
:101de000200032000500370060001000e08018007d
:101df00002003b0001f02c001a0037000004be0076
:101e00006011b8006b0920000982cf000200390080
:101e10000882cf000441b000694252000e00320037
:101e200008003b0082817100610164008904d100d7
:101e30000884d3008b05e8000442e800f9ff3a006b
:101e4000050037000804440089844c008b05e90034
:101e50000442e900fbff3a00f00007000af0a70087
:101e600001f0a0004f05be004f04be0000000600b8
:101e700003f0a200889fbe008a9fbe008c1f7800de
:101e80000c010700130133006450e1004f003200e1
:101e90006420e1005200320003826c0007003b0026
:101ea0000905d0000306d000820f54000c065d0027
:101eb0000200390002003200890178000306780030
:101ec0008582550004003d000003fd008103fd00f4
:101ed0008502ea008b854200840f720002003b00fd
:101ee00060001000e08018006011b8000005eb00f1
:101ef0007a28e1000a00390006007800c75ddd009d
:101f0000f707b200878075002d00370082817100cd
:101f10000a017800610560008180d1000080d30053
:101f20008502e900f9ff3b00060440008784480071
:101f300002003b0060041400e0841c000988a30038
:101f4000070032008a8171008281710061016400a2
:101f50008904d1000884d3008b05e80017003700fe
:101f60000978a30013003a000b00e00013003400ce
:101f70008b05e9000804440089844c000a4474007d
:101f80000978a3000d003a000b00e00007003400c0
:101f90008b05e9000804440089844c0001003a00e4
:101fa0000b0020000978a300f7ff32000001eb00ce
:101fb00002003700828171000a0178009700070053
:101fc0000cf0a70001f0a000cb0037006420e10076
:101fd00002003a00838f6c00cb0033000801be0082
:101fe0000200be00c400370014002000c900370002
:101ff000889fbe008a9fbe008c1f7800ad0007003e
:10200000b400330003866c006450e1002e003200ff
:102010006420e100330032006150e1002f00320003
:102020006120e1003100320085855500eb07b000ea
:1020300009002000080420000500370008044400bf
:1020400089844c000a0031000603430087834b005b
:102050000001530081815b00f8ff33000203be00e2
:102060000800a0000804440089844c00f6ff3900f1
:10207000c639dd0083017300010032001300200027
:102080008904d1000884d3000998a3000500320018
:102090000800a7000300a0008904d1000884d30031
:1020a0008b05e8008904d1000884d3000001eb000f
:1020b0000281d2005900070001f0a1000cf0a70036
:1020c00001f0a0008c0037006420e1008e00320097
:1020d0000801be000200be00f7ff37006120e100ea
:1020e000890032006000b800f3ff370000002000d4
:1020f00001f82700f0ff3700889fbe008a9fbe00ce
:102100008c1f78006b0007007200330003866c00a0
:102110006450e100240032006420e1002700320016
:102120006150e100220032006120e1002100320014
:102130008b854200eb07b1000134b800003ab800cb
:102140000804420089844a00013ab8000030b8000f
:102150008880400009014a0004003300000040006c
:1021600081804800020149008b05e900c909dd00b2
:10217000830170000100320013002000c814de004b
:102180004814dd004709de001200b200c808de0076
:10219000088470002100070001f0a1000cf0a700e6
:1021a00001f0a000540037006120e1005600320029
:1021b0000801be000200be00f7ff37006150e100d9
:1021c000fcff3a0050003700c70ade00f107b200fa
:1021d000f50fb20008003200e1cf420002003200e9
:1021e0000170a00024000500810f70000100320082
:1021f0000408050044000500810f700002003a0049
:10220000140005008502e9000000400081c048007c
:10221000fcff3b000170a0002400050081002000ad
:10222000618055000b003d000b00200061fe2f0077
:102230000100e1001d003400828171006101640031
:102240008904d1000884d3000000e800faff3a00b6
:102250007100200061006400030070000200600053
:102260000900320061044400e0844c000988a500a4
:10227000050032008b05e8006808e10002003a0022
:102280008904d1000884d300f20f20000258e10035
:1022900005003d00c75ddd00f907b20089807500cb
:1022a00008007800000006000bf827008b0078007b
:1022b000000005000004be00c3ff07000003be00cd
:1022c0000405be000200be00bfff0700844f75007a
:1022d000000006000200be006450e1000500360068
:1022e0006420e100020036000968a30001003a0002
:1022f0000800be000160a0004f0678004f05be0038
:102300004f04be0000000600f0ff2f00f1ff270081
:10231000f9ff3700889fbe008a9fbe00841f7800a7
:10232000e4ff07004f00780011003300f0ff2f009a
:10233000838f6c0006003b00040565000a00a700bf
:102340000800370009f0a600100020000800370040
:10235000820f5400838f5c000300390010002000be
:1023600001003e000000200009f0a7000000ea0084
:102370004f05be004f04be000000e0000000060054
:102380008001eb0002003700817178008301e800d2
:0c239000828f5100fcff3a0000000600a4
:020000040000fa
:0200000401f009
:04000000ffff0000fe
:020000040000fa
:0200000401f009
:04000800ffff0000f6
:020000040000fa
:0200000401f009
:04000c0078ff000079
:020000040000fa
:0200000401f009
:040010005bff000092
:020000040000fa
:0200000401f009
:0400140079ff000070
:020000040000fa
:0200000401f009
:04001800fcff0000e9
:020000040000fa
:0200000401f009
:04001c00dfff000002
:020000040000fa
:10000800020c0000060c00000a0c00000e0c000098
:10001800120c0000160c00001a0c00001e0c000048
:10002800220c0000260c00002a0c00002e0c0000f8
:10003800320c0000360c00003a0c00003e0c0000a8
:10004800420c0000460c00004a0c00004e0c000058
:10005800520c0000560c00005a0c00005e0c000008
:10006800620c0000660c00006a0c00006e0c0000b8
:10007800720c0000760c00007a0c00007e0c000068
:10008800820c0000860c00008a0c00008e0c000018
:10009800920c0000960c00009a0c00009e0c0000c8
:1000a800a20c0000a60c0000aa0c0000ae0c000078
:1000b800b20c0000b60c0000ba0c0000be0c000028
:1000c800c20c0000c60c0000ca0c0000ce0c0000d8
:1000d800d20c0000d60c0000da0c0000de0c000088
:1000e800e20c0000e60c0000ea0c0000ee0c000038
:1000f800f20c0000f60c0000fa0c0000fe0c0000e8
:10010800020d0000060d00000a0d00000e0d000093
:10011800120d0000160d00001a0d00001e0d000043
:10012800220d0000260d00002a0d00002e0d0000f3
:10013800320d0000360d00003a0d00003e0d0000a3
:10014800420d0000460d00004a0d00004e0d000053
:10015800520d0000560d00005a0d00005e0d000003
:10016800620d0000660d00006a0d00006e0d0000b3
:10017800720d0000760d00007a0d00007e0d000063
:10018800820d0000860d00008a0d00008e0d000013
:10019800920d0000960d00009a0d00009e0d0000c3
:1001a800a20d0000a60d0000aa0d0000ae0d000073
:1001b800b20d0000b60d0000ba0d0000be0d000023
:1001c800c20d0000c60d0000ca0d0000ce0d0000d3
:1001d800d20d0000d60d0000da0d0000de0d000083
:1001e800e20d0000e60d0000ea0d0000ee0d000033
:0801f800f20d0000f60d0000fd
:020000040000fa
:10020800020c0000060c00000a0c00000e0c000096
:10021800120c0000160c00001a0c00001e0c000046
:10022800220c0000260c00002a0c00002e0c0000f6
:10023800320c0000360c00003a0c00003e0c0000a6
:10024800420c0000460c00004a0c00004e0c000056
:10025800520c0000560c00005a0c00005e0c000006
:10026800620c0000660c00006a0c00006e0c0000b6
:10027800720c0000760c00007a0c00007e0c000066
:10028800820c0000860c00008a0c00008e0c000016
:10029800920c0000960c00009a0c00009e0c0000c6
:1002a800a20c0000a60c0000aa0c0000ae0c000076
:1002b800b20c0000b60c0000ba0c0000be0c000026
:1002c800c20c0000c60c0000ca0c0000ce0c0000d6
:1002d800d20c0000d60c0000da0c0000de0c000086
:1002e800e20c0000e60c0000ea0c0000ee0c000036
:1002f800f20c0000f60c0000fa0c0000fe0c0000e6
:10030800020d0000060d00000a0d00000e0d000091
:10031800120d0000160d00001a0d00001e0d000041
:10032800220d0000260d00002a0d00002e0d0000f1
:10033800320d0000360d00003a0d00003e0d0000a1
:10034800420d0000460d00004a0d00004e0d000051
:10035800520d0000560d00005a0d00005e0d000001
:10036800620d0000660d00006a0d00006e0d0000b1
:10037800720d0000760d00007a0d00007e0d000061
:10038800820d0000860d00008a0d00008e0d000011
:10039800920d0000960d00009a0d00009e0d0000c1
:1003a800a20d0000a60d0000aa0d0000ae0d000071
:1003b800b20d0000b60d0000ba0d0000be0d000021
:1003c800c20d0000c60d0000ca0d0000ce0d0000d1
:1003d800d20d0000d60d0000da0d0000de0d000081
:1003e800e20d0000e60d0000ea0d0000ee0d000031
:0803f800f20d0000f60d0000fb
:020000040000fa
:10239c000000000000000000003e00005b4f000049
:1023ac005b3e00003e6b00004f6b00003e1c0000cb
:1023bc003e7c00003e1c0000183c00007e3c0000ef
:1023cc00181c0000577d0000571c00001c5e00000c
:1023dc007f5e00001c000000183c0000180000008c
:1023ec00ffe70000c3e70000ff0000001824000016
:1023fc0018000000ffe70000dbe70000ff300000e2
:10240c00483a0000060e0000262900007929000039
:10241c00264000007f05000005070000407f0000fb
:10242c00052500003f5a00003ce700003c5a000024
:10243c007f3e00001c1c0000080800001c1c000053
:10244c003e7f0000142200007f220000145f000079
:10245c005f0000005f5f0000060900007f010000c4
:10246c007f00000066890000956a00006060000033
:10247c006060000060940000a2ff0000a2940000c5
:10248c00080400007e04000008100000207e0000fc
:10249c0020100000080800002a1c0000080800009a
:1024ac001c2a0000080800001e100000101000007c
:1024bc00100c00001e0c00001e0c00003038000038
:1024cc003e380000300600000e3e00000e060000f4
:1024dc00000000000000000000000000005f000091
:1024ec0000000000000700000007000000140000be
:1024fc007f1400007f140000242a00007f2a0000b3
:10250c00122300001308000064620000364900002a
:10251c0056200000500000000807000003000000d7
:10252c00001c0000224100000000000041220000bd
:10253c001c0000002a1c00007f1c00002a08000060
:10254c00083e000008080000008000007030000009
:10255c000008000008080000080800000000000047
:10256c006060000000200000100800000402000061
:10257c003e510000494500003e000000427f000033
:10258c00400000007249000049490000462100004b
:10259c00414900004d33000018140000127f000068
:1025ac001027000045450000453900003c4a00005a
:1025bc0049490000314100002111000009070000c9
:1025cc0036490000494900003646000049490000e0
:1025dc00291e000000000000140000000000000094
:1025ec00403400000000000000080000142200002d
:1025fc0041140000141400001414000000410000e9
:10260c002214000008020000015900000906000015
:10261c003e4100005d5900004e7c0000121100008c
:10262c00127c00007f49000049490000363e000042
:10263c0041410000412200007f4100004141000067
:10264c003e7f000049490000494100007f0900001d
:10265c0009090000013e00004141000051730000d7
:10266c007f080000080800007f000000417f000088
:10267c004100000020400000413f0000017f0000ad
:10268c0008140000224100007f4000004040000080
:10269c00407f0000021c0000027f00007f0400004d
:1026ac00081000007f3e000041410000413e000048
:1026bc007f09000009090000063e0000415100009e
:1026cc00215e00007f090000192900004626000049
:1026dc004949000049320000030100007f0100005d
:1026ec00033f000040400000403f00001f2000005e
:1026fc00402000001f3f000040380000403f000019
:10270c006314000008140000630300000478000048
:10271c000403000061590000494d00004300000013
:10272c007f4100004141000002040000081000003d
:10273c002000000041410000417f00000402000025
:10274c000102000004400000404000004040000036
:10275c000003000007080000002000005454000093
:10276c00784000007f280000444400003838000006
:10277c004444000044280000384400004428000071
:10278c007f3800005454000054180000000800006a
:10279c007e09000002180000a4a400009c78000030
:1027ac007f0800000404000078000000447d000055
:1027bc004000000020400000403d0000007f000071
:1027cc001028000044000000004100007f40000081
:1027dc00007c000004780000047800007c080000f5
:1027ec000404000078380000444400004438000021
:1027fc00fc180000242400001818000024240000f9
:10280c0018fc00007c0800000404000008480000cc
:10281c005454000054240000040400003f44000001
:10282c00243c000040400000207c00001c200000e4
:10283c00402000001c3c000040300000403c0000e8
:10284c004428000010280000444c00009090000028
:10285c00907c000044640000544c000044000000d4
:10286c000836000041000000000000007700000066
:10287c0000000000413600000800000002010000ca
:10288c0002040000023c000026230000263c00004d
:10289c001ea10000a1610000123a0000404000009f
:1028ac00207a0000385400005455000059210000d3
:1028bc005555000079410000225400005478000066
:1028cc0042210000555400007840000020540000c4
:1028dc0055790000400c00001e52000072120000de
:1028ec00395500005555000059390000545400006a
:1028fc005459000039550000545400005800000091
:10290c00004500007c41000000020000457d0000f5
:10291c0042000000014500007c4000007d120000d8
:10292c00111200007df000002825000028f00000a6
:10293c007c54000055450000002000005454000059
:10294c007c5400007c0a0000097f00004932000022
:10295c0049490000493200003a4400004444000058
:10296c003a3200004a480000483000003a4100006a
:10297c00412100007a3a000042400000207800001b
:10298c00009d0000a0a000007d3d00004242000020
:10299c00423d00003d400000404000003d3c000036
:1029ac0024ff000024240000487e0000494300005e
:1029bc00662b00002ffc00002f2b0000ff090000ed
:1029cc0029f6000020c00000887e000009030000ea
:1029dc002054000054790000410000000044000025
:1029ec007d41000030480000484a000032380000a9
:1029fc0040400000227a0000007a00000a0a000021
:102a0c00727d00000d190000317d000026290000a8
:102a1c00292f000028260000292900002926000063
:102a2c00304800004d40000020380000080800002d
:102a3c00080800000808000008080000382f0000f3
:102a4c0010c80000acba00002f10000028340000a1
:102a5c00fa000000007b00000000000008140000d9
:102a6c002a14000022220000142a0000140800007e
:102a7c00aa00000055000000aaaa000055aa0000f8
:102a8c0055aa00000000000000ff0000001000002c
:102a9c0010100000ff0000001414000014ff0000d0
:102aac000010000010ff000000ff000010100000dc
:102abc00f0100000f014000014140000fc000000e2
:102acc0014140000f7000000ff00000000ff0000dd
:102adc0000ff000014140000f4040000fc140000bb
:102aec0014170000101f0000101000001f10000031
:102afc001f140000141400001f0000001010000030
:102b0c0010f0000000000000000000001f1000008a
:102b1c0010100000101f000010100000101000001a
:102b2c00f01000000000000000ff0000101000007a
:102b3c0010100000101000001010000010ff00001a
:102b4c001000000000000000ff1400000000000056
:102b5c00ff000000ff000000001f00001017000025
:102b6c0000000000fc040000f41400001417000026
:102b7c001017000014140000f4040000f40000000e
:102b8c0000ff000000f700001414000014140000f3
:102b9c001414000014f7000000f7000014140000d7
:102bac001417000014100000101f0000101f00006c
:102bbc001414000014f400001410000010f00000b5
:102bcc0010f00000000000001f1000001f000000ab
:102bdc00000000001f1400000000000000fc0000ba
:102bec001400000000f0000010f0000010100000b5
:102bfc00ff100000ff14000014140000ff1400006c
:102c0c0010100000101f0000000000000000000069
:102c1c00f0100000ffff0000ffff0000fff00000bd
:102c2c00f0f00000f0f00000ffff0000ff000000db
:102c3c000000000000000000ffff00000f0f00006c
:102c4c000f0f00000f38000044440000384400000f
:102c5c00fc4a00004a4a0000347e000002020000d8
:102c6c0006060000027e0000027e000002630000e7
:102c7c00554900004163000038440000443c00000a
:102c8c00044000007e2000001e2000000602000010
:102c9c007e02000002990000a5e70000a599000043
:102cac001c2a0000492a00001c4c00007201000084
:102cbc00724c0000304a00004d4d000030300000d6
:102ccc004878000048300000bc6200005a46000002
:102cdc003d3e000049490000490000007e01000013
:102cec00010100007e2a00002a2a00002a2a000086
:102cfc00444400005f44000044400000514a00007e
:102d0c0044400000404400004a51000040000000d4
:102d1c0000ff000001030000e0800000ff00000045
:102d2c0000080000086b00006b0800003612000061
:102d3c0036240000360600000f0900000f060000c4
:102d4c000000000018180000000000000010000037
:102d5c001000000030400000ff01000001000000e6
:102d6c001f010000011e0000001900001d170000cb
:102d7c00120000003c3c00003c3c00000000000045
:102d8c000000000000000000000000000000000037
:102d9c00003e00005b4f00005b3e00003e6b0000fd
:102dac004f6b00003e1c00003e7c00003e1c0000ef
:102dbc00183c00007e3c0000181c0000577d0000f1
:102dcc00571c00001c5e00007f5e00001c00000011
:102ddc00183c000018000000ffe70000c3e70000eb
:102dec00ff0000001824000018000000ffe700009e
:102dfc00dbe70000ff300000483a0000060e000040
:102e0c002629000079290000264000007f050000db
:102e1c0005070000407f0000052500003f5a000018
:102e2c003ce700003c5a00007f3e00001c1c0000e8
:102e3c00080800001c1c00003e7f0000142200004b
:102e4c007f220000145f00005f0000005f5f000045
:102e5c00060900007f0100007f0000006689000069
:102e6c00956a0000606000006060000060940000e3
:102e7c00a2ff0000a2940000080400007e040000e1
:102e8c0008100000207e0000201000000808000040
:102e9c002a1c0000080800001c2a0000080800007a
:102eac001e10000010100000100c00001e0c000082
:102ebc001e0c0000303800003e38000030060000c8
:102ecc000e3e00000e060000000000000000000096
:102edc0000000000005f0000000000000007000080
:102eec0000070000001400007f1400007f14000095
:102efc00242a00007f2a000012230000130800007f
:102f0c0064620000364900005620000050000000aa
:102f1c000807000003000000001c00002241000014
:102f2c0000000000412200001c0000002a1c0000d0
:102f3c007f1c00002a080000083e00000808000062
:102f4c00008000007030000000080000080800003d
:102f5c000808000000000000606000000020000075
:102f6c0010080000040200003e510000494500001a
:102f7c003e000000427f000040000000724900004b
:102f8c004949000046210000414900004d33000032
:102f9c0018140000127f00001027000045450000a7
:102fac00453900003c4a000049490000314100000d
:102fbc0021110000090700003649000049490000b2
:102fcc003646000049490000291e000000000000a0
:102fdc00140000000000000040340000000000005d
:102fec00000800001422000041140000141400001a
:102ffc00141400000041000022140000080200001c
:10300c0001590000090600003e4100005d59000016
:10301c004e7c000012110000127c00007f49000061
:10302c0049490000363e00004141000041220000a9
:10303c007f410000414100003e7f000049490000f3
:10304c00494100007f09000009090000013e000011
:10305c0041410000517300007f0800000808000087
:10306c007f000000417f0000410000002040000074
:10307c00413f0000017f00000814000022410000c5
:10308c007f40000040400000407f0000021c000018
:10309c00027f00007f040000081000007f3e00004b
:1030ac0041410000413e00007f0900000909000079
:1030bc00063e000041510000215e00007f09000027
:1030cc001929000046260000494900004932000039
:1030dc00030100007f010000033f0000404000009e
:1030ec00403f00001f200000402000001f3f000058
:1030fc0040380000403f000063140000081400003a
:10310c006303000004780000040300006159000010
:10311c00494d0000430000007f4100004141000088
:10312c0002040000081000002000000041410000d3
:10313c00417f000004020000010200000440000076
:10314c004040000040400000000300000708000061
:10315c000020000054540000784000007f2800003c
:10316c004444000038380000444400004428000067
:10317c0038440000442800007f38000054540000fc
:10318c0054180000000800007e090000021800001e
:10319c00a4a400009c7800007f0800000404000038
:1031ac0078000000447d000040000000204000003a
:1031bc00403d0000007f000010280000440000008b
:1031cc00004100007f400000007c000004780000fb
:1031dc00047800007c08000004040000783800002b
:1031ec004444000044380000fc1800002424000073
:1031fc00181800002424000018fc00007c080000b3
:10320c00040400000848000054540000542400003a
:10321c00040400003f440000243c00004040000037
:10322c00207c00001c200000402000001c3c000002
:10323c0040300000403c00004428000010280000f2
:10324c00444c000090900000907c0000446400000e
:10325c00544c0000440000000836000041000000ff
:10326c000000000077000000000000004136000064
:10327c00080000000201000002040000023c0000f3
:10328c0026230000263c00001ea10000a1610000c6
:10329c00123a000040400000207a00003854000030
:1032ac00545500005921000055550000794100008b
:1032bc0022540000547800004221000055540000b4
:1032cc00784000002054000055790000400c0000ac
:1032dc001e520000721200003955000055550000b6
:1032ec00593900005454000054590000395500005d
:1032fc005454000058000000004500007c410000c0
:10330c0000020000457d0000420000000145000065
:10331c007c4000007d120000111200007df00000c6
:10332c002825000028f000007c54000055450000c2
:10333c0000200000545400007c5400007c0a000063
:10334c00097f000049320000494900004932000061
:10335c003a440000444400003a3200004a4800005d
:10336c00483000003a410000412100007a3a000048
:10337c004240000020780000009d0000a0a000004a
:10338c007d3d000042420000423d00003d400000f7
:10339c00404000003d3c000024ff000024240000bd
:1033ac00487e000049430000662b00002ffc000003
:1033bc002f2b0000ff09000029f6000020c00000a0
:1033cc00887e00000903000020540000547900009e
:1033dc0041000000004400007d4100003048000026
:1033ec00484a00003238000040400000227a0000b9
:1033fc00007a00000a0a0000727d00000d1900001e
:10340c00317d000026290000292f0000282600000d
:10341c002929000029260000304800004d400000fa
:10342c002038000008080000080800000808000008
:10343c0008080000382f000010c80000acba0000cb
:10344c002f10000028340000fa000000007b000060
:10345c0000000000081400002a14000022220000c2
:10346c00142a000014080000aa00000055000000f7
:10347c00aaaa000055aa000055aa000000000000ee
:10348c0000ff00000010000010100000ff00000002
:10349c001414000014ff00000010000010ff0000c6
:1034ac0000ff000010100000f0100000f0140000ed
:1034bc0014140000fc00000014140000f7000000bd
:1034cc00ff00000000ff000000ff000014140000cb
:1034dc00f4040000fc14000014170000101f00007e
:1034ec00101000001f1000001f1400001414000026
:1034fc001f0000001010000010f000000000000081
:10350c00000000001f10000010100000101f000031
:10351c001010000010100000f0100000000000005f
:10352c0000ff000010100000101000001010000030
:10353c001010000010ff0000100000000000000040
:10354c00ff14000000000000ff000000ff0000005e
:10355c00001f00001017000000000000fc04000019
:10356c00f4140000141700001017000014140000cd
:10357c00f4040000f400000000ff000000f700005d
:10358c0014140000141400001414000014f70000ac
:10359c0000f70000141400001417000014100000b1
:1035ac00101f0000101f00001414000014f4000081
:1035bc001410000010f0000010f0000000000000db
:1035cc001f1000001f000000000000001f1400006e
:1035dc000000000000fc00001400000000f00000df
:1035ec0010f0000010100000ff100000ff1400008d
:1035fc0014140000ff14000010100000101f000035
:10360c000000000000000000f0100000ffff0000b0
:10361c00ffff0000fff00000f0f00000f0f00000f1
:10362c00ffff0000ff000000000000000000000091
:10363c00ffff00000f0f00000f0f00000f380000fd
:10364c004444000038440000fc4a00004a4a000090
:10365c00347e00000202000006060000027e00001c
:10366c00027e000002630000554900004163000027
:10367c0038440000443c0000044000007e20000060
:10368c001e200000060200007e02000002990000cd
:10369c00a5e70000a59900001c2a0000492a00009b
:1036ac001c4c000072010000724c0000304a0000fb
:1036bc004d4d0000303000004878000048300000cc
:1036cc00bc6200005a4600003d3e00004949000023
:1036dc00490000007e010000010100007e2a00006c
:1036ec002a2a00002a2a0000444400005f440000fb
:1036fc0044400000514a0000444000004044000097
:10370c004a5100004000000000ff000001030000cf
:10371c00e0800000ff00000000080000086b0000c3
:10372c006b0800003612000036240000360600003c
:10373c000f0900000f060000000000001818000020
:10374c0000000000001000001000000030400000dd
:10375c00ff010000010000001f010000011e00001d
:10376c00001900001d170000120000003c3c000076
:10377c003c3c0000000000000000000000000000c5
:10378c00556e0000686100006e6400006c650000fe
:10379c0064200000696e0000746500007272000005
:1037ac0075700000742c00002000000050490000cf
:1037bc0043320000344800004a3300003247000016
:1037cc005032000030320000007500006e6b0000bb
:1037dc006e6f0000776e00000041000036000000a4
:1037ec004132000000410000330000004134000071
:1037fc0000410000350000004465000076690000bf
:10380c006365000020490000442000003d200000ba
:10381c000020000028000000292c0000207200006d
:10382c006576000069730000696f00006e2000006f
:10383c00002900000a0000000a0a00002a2a0000e1
:10384c002a2a00002a2a00002a2a00002a2a00001c
:10385c002a2a00002a2a00002a2a00002a2a00000c
:10386c002a2a00002a2a00002a2a00002a2a0000fc
:10387c002a2a00002a2a00002a2a00002a2a0000ec
:10388c002a2a00002a2a00002a2a00002a2a0000dc
:10389c002a2a00002a2a00002a2a00002a2a0000cc
:1038ac002a2a00002a2a00000a2a000020570000b9
:1038bc00415200004e4900004e470000202d0000f0
:1038cc002074000068690000732000007072000012
:1038dc006f670000726100006d20000077610000ce
:1038ec0073200000636f00006d700000696c0000b5
:1038fc0065640000206600006f72000020740000f8
:10390c006865000020770000726f00006e67000091
:10391c00202000002a0a00002a2000006368000012
:10392c00697000002e2000005468000069730000cc
:10393c0020700000726f000067720000616d000063
:10394c00206d00006179000020700000726f000093
:10395c006475000063650000207500006e65000052
:10396c00787000006563000074650000642000003e
:10397c006265000068760000696f0000722100002b
:10398c00202a00000a2a000020450000646900007b
:10399c007420000074680000652000006865000059
:1039ac00616400006572000020660000696c000014
:1039bc0065730000207400006f200000707200001e
:1039cc006f700000657200006c79000020640000cc
:1039dc0065660000696e00006520000074680000d8
:1039ec00697300002063000068690000702000000b
:1039fc002a0a00002a200000616e000064200000ea
:103a0c00746f0000206900006e7300007572000076
:103a1c0065200000636f0000727200006563000097
:103a2c00742000006f70000065720000617400006b
:103a3c00696f00006e2e0000202000002020000086
:103a4c00202000002020000020200000202000006a
:103a5c00202000002020000020200000202a000050
:103a6c000a2a000020200000202000002020000056
:103a7c00202000002020000020200000202000003a
:103a8c00202000002020000020200000202000002a
:103a9c00202000002020000020200000202000001a
:103aac00202000002020000020200000202000000a
:103abc0020200000202000002020000020200000fa
:103acc002020000020200000202000002a0a0000f6
:103adc002a2000004e4f0000544500003a20000000
:103aec004966000020740000686900007320000023
:103afc007761000073200000636f00006d700000a0
:103b0c00696c000065640000206600006f720000a4
:103b1c002074000068650000206300006f720000d4
:103b2c007265000063740000206300006869000087
:103b3c00702c000020200000202a00000a2a00001f
:103b4c00206100006e640000206f00006e6c0000ad
:103b5c00792000006f630000637500007273000031
:103b6c002061000074200000706f00007765000079
:103b7c00722d00006f6e0000202800006e6f000098
:103b8c007420000064750000726900006e6700000c
:103b9c0020610000204d0000434c0000522000002a
:103bac0020200000202000002a0a00002a2000000b
:103bbc007265000073650000742900002c20000061
:103bcc0076650000726900006679000020740000c0
:103bdc00686100007420000041560000444400005d
:103bec00206100006e64000020410000565300006c
:103bfc00532000006172000065200000636f00001c
:103c0c006e6e00006563000074650000642e000099
:103c1c0020200000202a00000a2a0000204f00006b
:103c2c006e20000074680000652000005049000000
:103c3c00433200003448000033320000475000008b
:103c4c0032300000322c0000206e00006f74000037
:103c5c00206300006f6e00006e650000637400004e
:103c6c00696e0000672000004156000044440000cb
:103c7c002020000020200000202000002020000038
:103c8c00202000002a0a00002a2000007072000088
:103c9c006f64000075630000657300002074000001
:103cac0068690000732000006d65000073730000ec
:103cbc0061670000652000006f6e00006c790000e9
:103ccc002061000074200000706f00007765000018
:103cdc00722d0000757000002e20000020200000c6
:103cec0020200000202000002020000020200000c8
:103cfc00202a00000a2a00002a2a00002a2a000092
:103d0c002a2a00002a2a00002a2a00002a2a000057
:103d1c002a2a00002a2a00002a2a00002a2a000047
:103d2c002a2a00002a2a00002a2a00002a2a000037
:103d3c002a2a00002a2a00002a2a00002a2a000027
:103d4c002a2a00002a2a00002a2a00002a2a000017
:103d5c002a2a00002a2a00002a2a00002a2a000007
:103d6c002a0a000000460000617300007420000065
:103d7c0052430000204f0000736300000a00000053
:103d8c0046610000737400002052000043200000c4
:103d9c004f73000063200000776900007468000016
:103dac00205000004c4c00000a0000005072000033
:103dbc00696d000061720000792000004f730000f3
:103dcc006320000028580000542c000020480000fc
:103ddc00532c000020450000432900000a0000007d
:103dec0050720000696d00006172000079200000c3
:103dfc004f7300006320000028580000542c000072
:103e0c0020480000532c00002045000043290000ee
:103e1c00207700006974000068200000504c0000fe
:103e2c004c0a000000530000656300006f6e000038
:103e3c006461000072790000204f00007363000081
:103e4c000a0000004c6f000077200000506f00004b
:103e5c00776500007220000052430000204f0000e4
:103e6c00736300000a0000004661000073740000d8
:103e7c0020520000432000004f730000632f00000d
:103e8c00313600000a000000466100007374000027
:103e9c0020520000432000004f730000632f0000ed
:103eac004e0a0000005500006e6b00006e6f0000a3
:103ebc00776e0000206f000073630000696c0000d7
:103ecc006c610000746f00007220000074790000b7
:103edc00706500002e0000000a44000065760000aa
:103eec006963000065200000686100007320000019
:103efc0062650000656e0000206900006e20000005
:103f0c00736c000065650000702000006d6f000090
:103f1c00646500000a0000000a4400006576000099
:103f2c0069630000652000006861000073200000d8
:103f3c0062650000656e0000206900006e200000c4
:103f4c00696400006c650000206d00006f64000067
:103f5c00650a0000000a000052650000736500004d
:103f6c00742000006361000075730000653a000066
:103f7c0020000000506f000077650000722d0000db
:103f8c006f6e00002e0a0000005300006f660000e8
:103f9c00747700006172000065200000526500001b
:103fac0073650000742e00000a00000057610000c9
:103fbc0074630000686400006f6700002054000008
:103fcc00696d0000656f0000757400003a200000f8
:103fdc00000a0000004d0000434c0000522000007d
:103fec00617300007365000072740000696f00005b
:103ffc006e2e00000a000000427200006f77000075
:10400c006e2d00006f750000742e00000a00000079
:10401c005472000061700000204300006f6e0000bd
:10402c00666c000069630000742e00000a0000003a
:10403c00496c00006c650000676100006c2000009a
:10404c00436f00006e64000069740000696f00002b
:10405c006e2e00000a000000436f00006e66000028
:10406c00696700007572000061740000696f0000e0
:10407c006e2000004d690000736d0000617400003b
:10408c00636800002e0a0000005500006e6b0000f3
:10409c006e6f0000776e00002072000065730000e8
:1040ac00657400002e0a00000045000072720000ca
:1040bc006f720000207400007261000070700000cc
:1040cc00656400003a200000005000007269000096
:1040dc006f72000069740000793a00002000000043
:1040ec002c20000056650000637400006f72000005
:1040fc00206e0000756d000062650000723a0000d1
:10410c00200000000a0a0000000000000a0a00005b
:10411c00596f000075720000206300006c6f000086
:10412c00636b000020630000686f0000696300008f
:10413c006520000066610000696c00006564000089
:10414c00207400006f200000696e0000697400008c
:10415c00696100006c6900007a6500002c20000089
:10416c00686100007665000020730000776900002c
:10417c00746300006865000064200000746f000028
:10418c00206900006e740000657200006e61000012
:10419c006c20000046610000737400002052000087
:1041ac00432000006f730000636900006c6c00001a
:1041bc00617400006f720000202b0000504c000056
:1041cc004c2e00000a43000068650000636b000081
:1041dc00207900006f7500007220000073650000ec
:1041ec0074740000696e000067200000666f0000a8
:1041fc007220000074680000652000002743000056
:10420c004c4f0000434b00005f4300004f4e00003a
:10421c004649000047270000206d00006163000044
:10422c00726f00002e0a00005761000074630000da
:10423c00682000007468000065200000636f0000b7
:10424c006d700000696c000065720000206f00004a
:10425c007574000070750000742000007769000010
:10426c006e6400006f770000207700006865000026
:10427c006e2000007069000063320000345f0000a3
:10428c00636c00006f6300006b66000072650000d9
:10429c00712e000063200000697300002063000091
:1042ac006f6d0000706900006c650000642c0000ec
:1042bc002061000020770000617200006e69000030
:1042cc006e670000206d00006573000073610000d4
:1042dc00676500000a770000696c00006c20000024
:1042ec00746500006c6c0000207900006f75000094
:1042fc00207400006865000020730000656c0000ed
:10430c0065630000746500006420000076610000a5
:10431c006c75000065200000666f000072200000c4
:10432c00274300004c4f0000434b00005f4300004c
:10433c004f4e000046490000472700002e0a00009f
:10434c00496e0000204d0000504c0000414200001e
:10435c002c200000757300006520000050720000d6
:10436c006f6a000065630000742d00003e4200007f
:10437c00756900006c640000204f00007074000030
:10438c00696f00006e7300002d3e0000507200003b
:10439c006f6a000065630000742c0000207400003c
:1043ac00686500006e200000636c0000696300000b
:1043bc006b2000006f6e0000204d0000504c000080
:1043cc004142000020430000333000002074000004
:1043dc0061620000207400006f2000007365000013
:1043ec006520000069660000200a00007468000067
:1043fc00652000006d610000637200006f200000fa
:10440c00697300002064000065660000696e00009e
:10441c00656400002074000068650000726500008f
:10442c002e20000049660000207400006865000022
:10443c00206d000061630000726f000020690000b5
:10444c0073200000736500006c650000637400004d
:10445c00696e000067200000616e0000206500009e
:10446c0078740000657200006e6100006c20000022
:10447c006372000079730000746100006c2000000e
:10448c00287400006865000020700000726900004c
:10449c006d61000072790000206f000073630000f2
:1044ac00696c00006c610000746f000072290000e0
:1044bc002c0a0000616e000064200000796f00007f
:1044cc0075720000206200006f61000072640000d1
:1044dc00206400006f650000732000006e6f000008
:1044ec007420000068610000766500002061000007
:1044fc00206300007279000073740000616c00008e
:10450c002c200000796f00007520000077690000f6
:10451c006c6c0000206700006574000020740000c3
:10452c0068690000732000006d6500007373000063
:10453c0061670000652e00000a440000656c0000f5
:10454c0065740000652000007468000065200000a0
:10455c006d610000637200006f2000006465000054
:10456c00666900006e690000746900006f6e0000df
:10457c0020660000726f00006d200000746800005f
:10458c00652000004d5000004c410000422000000e
:10459c00707200006f6a00006563000074200000f8
:1045ac0069660000207900006f750000207700001c
:1045bc00616e000074200000746f00002075000014
:1045cc007365000020740000686500002064000022
:1045dc0065660000617500006c740000200a000024
:1045ec00636c00006f6300006b20000063680000c8
:1045fc006f69000063650000206f000066200000fa
:10460c0046520000432000002b200000504c0000bc
:10461c004c2e00000a5900006f750000206d000040
:10462c00757300007420000072650000636f000059
:10463c006d700000696c000065200000616e000068
:10464c006420000072650000707200006f6700004b
:10465c00726100006d200000776900007468000032
:10466c00206100006e20000061700000707200007c
:10467c006f7000007269000061740000652000001a
:10468c00434c00004f4300004b5f0000434f0000c1
:10469c004e4600004947000020630000686f000090
:1046ac006963000065200000666f00007220000046
:1046bc007468000069730000206300006f640000e0
:1046cc0065200000746f0000206500007865000014
:1046dc0063750000746500002e0a000000450000a0
:1046ec00727200006f720000206900006e200000e2
:1046fc00433a00005c65000063650000333700003e
:10470c00323400005c700000696300003234000039
:10471c005f6300006f640000655f00006578000057
:10472c00616d0000706c0000657300005c6c000033
:10473c00696200005c6300006f6d00006d6f00002b
:10474c006e5c00007069000063320000345f000092
:10475c00636c00006f6300006b6600007265000004
:10476c00712e0000632000006c6900006e65000073
:10477c0020310000393400003a2000004153000081
:10478c00534500005254000028750000385f0000ab
:10479c00736f00007572000063650000203c000020
:1047ac00203800002920000066610000696c0000c0
:1047bc00656400002e0a0000000000004572000035
:1047cc00726f000072200000696e00002043000030
:1047dc003a5c00006563000065330000373200006e
:1047ec00345c00007069000063320000345f00002c
:1047fc00636f0000646500005f6500007861000075
:10480c006d7000006c650000735c00006c6900004a
:10481c00625c0000636f00006d6d00006f6e000045
:10482c005c70000069630000323400005f730000ac
:10483c0065720000696100006c2e000063200000ae
:10484c006c6900006e65000020370000393a0000ea
:10485c00204900006e760000616c00006964000065
:10486c002055000041520000540000003078000038
:10487c000005000003020000010500000302000017
:10488c00013200001e1400000a05000003020000a3
:10489c0001050000030200000100000050c30000ed
:1048ac0030750000204e0000102700008813000017
:1048bc00b80b0000d0070000e8030000f401000072
:1048cc002c010000c8000000640000003200000051
:1048dc001e000000140000000a000000050000008b
:1048ec0003000000020000000100000045720000ff
:1048fc00726f000072200000696e000020430000ff
:10490c003a5c00006563000065330000373200003c
:10491c00345c00007069000063320000345f0000fa
:10492c00636f0000646500005f6500007861000043
:10493c006d7000006c650000735c00006c69000019
:10494c00625c0000636f00006d6d00006f6e000014
:10495c005c70000069630000323400005f7300007b
:10496c0065720000696100006c2e0000632000007d
:10497c006c6900006e6500002032000039340000c4
:10498c003a200000496e0000766100006c6900005e
:10499c006420000055410000525400000045000006
:1049ac00727200006f720000206900006e2000001f
:1049bc00433a00005c65000063650000333700007b
:1049cc00323400005c700000696300003234000077
:1049dc005f6300006f640000655f00006578000095
:1049ec00616d0000706c0000657300005c6c000071
:1049fc00696200005c6300006f6d00006d6f000069
:104a0c006e5c00007069000063320000345f0000cf
:104a1c007365000072690000616c00002e63000079
:104a2c00206c0000696e000065200000333300002c
:104a3c00333a0000204900006e760000616c0000e3
:104a4c006964000020550000415200005400000031
:104a5c0055410000525400003120000070610000ec
:104a6c007269000074790000206500007272000009
:104a7c006f7200000a000000554100005254000003
:104a8c003120000066720000616d0000696e00004c
:104a9c006720000065720000726f0000720a00004f
:104aac00005500004152000054310000206f0000fe
:104abc007665000072720000756e000020650000c3
:104acc00727200006f7200000a0000004572000054
:104adc00726f000072200000696e0000204300001d
:104aec003a5c00006563000065330000373200005b
:104afc00345c00007069000063320000345f000019
:104b0c00636f0000646500005f6500007861000061
:104b1c006d7000006c650000735c00006c69000037
:104b2c00625c0000636f00006d6d00006f6e000032
:104b3c005c70000069630000323400005f75000097
:104b4c0061720000742e0000632000006c6900008c
:104b5c006e65000020330000343100003a20000064
:104b6c0041530000534500005254000028660000d9
:104b7c005f62000072670000203c000020360000dd
:104b8c0035350000333500002e350000292000009b
:104b9c0066610000696c0000656400002e0a00006c
:104bac0000450000727200006f7200002069000066
:104bbc006e200000433a00005c6500006365000055
:104bcc0033370000323400005c7000006963000071
:104bdc00323400005f6300006f640000655f00000a
:104bec0065780000616d0000706c0000657300005a
:104bfc005c6c0000696200005c6300006f6d00007b
:104c0c006d6f00006e5c0000706900006332000084
:104c1c00345f000075610000727400002e630000a8
:104c2c00206c0000696e0000652000003338000025
:104c3c00383a000020410000535300004552000058
:104c4c005428000075330000325f000062610000e0
:104c5c00756400005261000074650000203e000085
:104c6c003d20000031300000303000004c290000a5
:104c7c0020660000616900006c650000642e000075
:104c8c000a0000000a4e0000657600006572000004
:104c9c00576100006e640000657200004261000004
:104cac006e6400002e6300002c2000006275000072
:104cbc00696c0000742000006f6e0000204f000033
:104ccc0063740000203100003420000032300000fa
:104cdc0031340000206100007420000032300000ec
:104cec003a310000313a0000333000000a00000075
:104cfc005350000049310000205200006563000051
:104d0c006569000076650000204f000076650000a4
:104d1c00726600006c6f0000770a00000000000053
:020000040000fa
:104d2c00e013200010128800c6c6bf0001ceb300ed
:104d3c00014060007040b300c6e6b700c7c6bf00b4
:104d4c00014060000034a000c7e6b700a8c6bf0051
:104d5c00014060005040b300a8e6b70068e0a9002d
:104d6c00ce62a900c862a9002ca3a800cc62a8003e
:104d7c0041e2a800000006000000eb0090618800f2
:104d8c00a0618800b0618800c061880011c0b300c8
:104d9c00a0c3200001487800b0c32000014878006f
:104dac0000082000e061880000042000f061880009
:104dbc00d1c3b30000c420000148780000000600f5
:104dcc00cc42a900cc62a9000080fb00960607002b
:104ddc00cc62a80000000600889fbe0010c2b30081
:104dec00f7ff07000040eb00f5ff0700f0c7b3002a
:104dfc00f3ff070020c2b300f1ff07000040eb00f7
:104e0c00efff070070c0b300edff0700cc62a800f5
:104e1c00cc42a800cc62a9002881200029c1200026
:104e2c003880fb0080060700888f5400fcff3a0096
:104e3c00cc62a9004f04be00000006008040780040
:104e4c000004e00001003a0011c0b300a0c3200030
:104e5c000148780000000600c0618800b06188003d
:104e6c000000060090618800a16188000000060027
:104e7c00024020008000eb00208120003df507005f
:104e8c0000000600889fbe008a1f7800ea4f500081
:104e9c0008003a0041c32000a0c320001080fb0092
:104eac004300dd00910840000000eb009061880099
:104ebc001b003700ed4f500019003200a8c3200032
:104ecc000081fb004ac3200029c320009882fb000c
:104edc00c4618000b36180009a00780019007800ea
:104eec00c60007009881fb006618b90080007800a6
:104efc0019014000820c7800b0c320001004e000bf
:104f0c0007003200c0c3200010801000800f510039
:104f1c00030034004318dd001a0d4000800ceb0038
:104f2c004f0578004f04be00000006000003780017
:104f3c00f0072000800f530057003e000100e000f6
:104f4c0002003d00010141008000eb0002804000a6
:104f5c0004042000840f50000100340001015200b1
:104f6c000200e0004c0034000140780082427800de
:104f7c008180fb00c308de00c708dd002281200011
:104f8c008280400006824000e74060001c00320036
:104f9c0080c0b300014350000681fb00a0c120007b
:104fac00e243780086cf5200050031008580fb007b
:104fbc0081005100f00f20000180de0080c36300ef
:104fcc00e18f51000400320005003900e28f5100de
:104fdc0007003a000500370014ca730004003700bc
:104fec0007c0ea00144a60000100370014ca6b00c5
:104ffc0086cf52002800390086c252000408b00047
:10500c00e7cf520013003600e28f510006003a0041
:10501c0014caea000408b000e8c25200e7cf5200fc
:10502c000c003600faff3700830078000100a20064
:10503c000100ea00010070004f00de000040e900b2
:10504c00004a78000408b000e8c25200e7cf5200d2
:10505c00fbff3e000504e0000f003200e780620019
:10506c0020c1200061407800e18f51000400320023
:10507c0005003900e28f510007003a0005003700a7
:10508c00144a70000400370000c0ea00144a6000a3
:10509c0001003700144a680000000600889fbe001b
:1050ac008a9fbe008c1f780001067800830578006b
:1050bc000405780082004000810f500009003d007b
:1050cc000004be008a0178000b0178008c00780087
:1050dc000800780095ff07000804e800890f5400c9
:1050ec00f8ff3a004f0678004f05be004f04be0093
:1050fc0000000600800178000000e0003e00350052
:10510c00c0c32000908f51003b003d000100e00027
:10511c0039003500e0c32000908f500036003d0070
:10512c00e10f51000400320013003900e20f51006e
:10513c0031003a002100370082002000811f7800e6
:10514c00110009008200d80000017800cf0078001f
:10515c004711dd000281410023812000678060003f
:10516c00110020008008dd0062c079000140700051
:10517c0000f179002000370082002000811f7800a8
:10518c00110009008200d80000017800cf007800df
:10519c004711dd000281410023812000e78060007f
:1051ac00100020000100dd0000c0ea00e2c0790020
:1051bc000140600000f179000f00370082002000f0
:1051cc00811f7800110009008200d80000017800ce
:1051dc00cf0078004711dd000281410023812000bf
:1051ec0067806000110020008008dd0062c079003b
:1051fc000140680000f1790000000600ee874700ce
:10520c00889fbe008a9fbe008c9fbe008e1f7800b8
:10521c00f0b79f0081bf9f008240780003067800a2
:10522c000407780085467800c0c320007fb1970042
:10523c00900f11005e003400e0c320008fb997007e
:10524c00908f11005a0034000585fb000540780052
:10525c0062c0b3000440bc00ffb197000281410062
:10526c000201e900520033004350dd000fba9700f1
:10527c00000042000000e9004d00330001407800be
:10528c0052c0b3000440bc00e2b79f008041eb0069
:10529c00e3e79f00050037006fe29700e54f5200ef
:1052ac0002003a008045eb0006003700efe0970063
:1052bc000100fb006fb1970000004100e11c2900c8
:1052cc00e0c57800efe197008301fb00d3b79f00a6
:1052dc0003d0b9007fb2970000004200c0b79f0016
:1052ec000fbc97008004eb000b08a30012003200e7
:1052fc00e1cf560007003a000c01780088007800d6
:10530c00ffb197005fb297000480410079ff07005e
:10531c001c00370009d0b9000fb99700800041007c
:10532c000c0278008a0178000a0178004fb09700cf
:10533c005aff0700130037008c0f57001100320082
:10534c00e1cf560007003a000e0178008800780083
:10535c00ffb197005fb297000480410065ff070022
:10536c000800370009d0b9000fb997008000410040
:10537c000e0278008a0178000a0178004fb097007d
:10538c0046ff07000b80fb008005d1008904e80074
:10539c000804e800e88f5400d3ff3a00efe19700cf
:1053ac008341e800e3e79f00e5cf5100baff3400ea
:1053bc004f0778004f06be004f05be004f04be00dd
:1053cc00ef00b100000006006960a900cfe2a80060
:1053dc00c9e2a9002d23a80000a8210000408800e4
:1053ec0060002000104088000428ef000628ef0021
:1053fc00cde2a9000100070000000600204080005b
:10540c003140800061014000e0814800224088006a
:10541c00334088000040800011408000800f510014
:10542c00818f590003003600030007000428ef00a9
:10543c000628ef0000000600cdc2bf0000c0ea0045
:10544c000080fb004700de004700dd00d12c20006f
:10545c00914078000174a10080c0700001007800b8
:10546c00cde2b700000006003600f800809fbe00b9
:10547c00829fbe00849fbe00869fbe003400f80051
:10548c0000002000a0018800000780007040880008
:10549c0060bc2900070007003400f9004f03be0070
:1054ac004f02be004f01be004f00be003600f90097
:1054bc00004006000c08e20002003a006040880040
:1054cc000000fe0000000600000178004008de002d
:1054dc0032e0b7001280ba001201ba0001002000bd
:1054ec00c000dd000000200003002000020070005e
:1054fc008380700000000600889fbe008a9fbe005b
:10550c008c9fbe008e1f780000002000f10f200041
:10551c00edff07000005be0020002000f10f200069
:10552c00e9ff07000004be00d0f12000800f5500f9
:10553c00e08f5d0003003a001ec0b300cdbd290012
:10554c00020037000047eb00bdbe290040002300dd
:10555c0001002000ccbf2900800f5400818f5c001b
:10556c00180032000a003e006cbf29001000230016
:10557c00800f5400e08f5c001200320020002300ea
:10558c00800f5400e08f5c000b003a000c003700d9
:10559c00fcbf290050002300800f5400e08f5c00fa
:1055ac00080032003cbf290060002300800f54002b
:1055bc00e08f5c0003003200bcbe29000100370004
:1055cc009cbf290020c02900870207000a00be00ea
:1055dc00d8020700f0c02900830207000d007800f4
:1055ec008102070020c129007f0207000800be00cd
:1055fc00d0020700f0c029007b0207000c007800e5
:10560c0079020700f0c12900770207000e04e000c0
:10561c0002003a0020c22900730207004f077800ed
:10562c004f06be004f05be004f04be000000060032
:10563c0043c7bf004400de0067006000e34f50002a
:10564c001600320004003e00e14f50000d00320005
:10565c000f003e0008003700e54f500015003200e7
:10566c0011003900e64f500015003200e74f500092
:10567c0019003a001500370090eb29005a02070078
:10568c001700370060ec29005702070014003700a0
:10569c00c0ed2900540207001100370060ef29000b
:1056ac00510207000e00370090f129004e0207004e
:1056bc000b00370080f229004b020700080037006e
:1056cc00a0f329004802070005003700a0f42900c8
:1056dc00450207000200370090f5290075ff07000e
:1056ec000000060040c7bf000038a30003003200d2
:1056fc0020f729003c0207004067a90040c7bf0003
:10570c000028a3000300320020f92900360207000c
:10571c004047a90010fb29003302070040c7bf0017
:10572c000008a3000900320000fc29002e0207002b
:10573c004007a9004027a9000000eb00604088004a
:10574c0080408800704088003d00370040c7bf0093
:10575c000044b20002003a00804078000500370097
:10576c00b0fc29002002070040c7a90040e7a900af
:10577c0011c0b30040c7bf000048a3000b003200ab
:10578c00c0fd290018020700804080000000e000e6
:10579c000100320014020700f0fe2900120207007b
:1057ac004087a90040e7a90011c0b3004047e200c0
:1057bc0004003d0010ff29000b02070040e7a90080
:1057cc0011c0b30040c7bf000018a3000400320092
:1057dc0020002a00040207004027a90011c0b300d2
:1057ec004147e20004003d00e0002a00fe010700f2
:1057fc0041e7a90011c0b30041c7bf000068a30076
:10580c0004003200e0012a00f701070041c7a9009b
:10581c0011c0b30041c7bf000018a3000400320040
:10582c0020032a00f00107004127a90004003700db
:10583c000104e00002003a00b0042a00ea0107006b
:10584c000c08e20016003200b0052a00e601070041
:10585c0060408000e40107000e08e2000b003200fb
:10586c00b0062a00e0010700704080004800de000e
:10587c006f4060001d02070060072a00da01070074
:10588c00704080000074a1001802070080082a00f4
:10589c00d50107000000eb006040880070408800d4
:1058ac0015ff070062ff0700000006000080eb00f8
:1058bc004016880000168800601988005003880084
:1058cc0042c7bf000018a30003003200c0ff2f0026
:1058dc00400388000100370068a0ef0000000600bc
:1058ec00881f780000047800b7fe07000a03070041
:1058fc0000102e00010020008e02070079ff070027
:10590c0008007800b80107004f047800000006007a
:10591c00889fbe008a9fbe000005be000bf10700e9
:10592c000004be00e00f5000e08f5800020035006c
:10593c0021f1070009003700610060000100200020
:10594c008901d1000881d3000200700083807000af
:10595c0019f107000001be0043f107000001be0071
:10596c000a00be003ff107000200200003f02300f4
:10597c009af107000000e0000200350061044400c9
:10598c00e0844c000800be004f05be004f04be0072
:10599c0000000600889fbe008a1f78008c9fbe0006
:1059ac000006be00e9f007000004be000005780008
:1059bc00cf80de0000f107000800e00003003d008e
:1059cc00020020000378240027f107000001be002c
:1059dc000c00be0023f107000200200003f023009e
:1059ec007ef107000000e000010035000a05e80028
:1059fc000a0078004f06be004f0578004f04be0029
:045a0c000000060090
:020000040000fa
:105a1000080800000400000000000000000800006a
:105a20000800000000000000220c00001000000030
:105a30000000000012080000100400000200000036
:105a40000000000000000000000000000000000056
:105a50000000000000000000000000000000000046
:105a60000000000000000000000000000000000036
:105a70000000000000000000000000000000000026
:105a80000000000000000000000000000000000016
:105a90000000000080808000000000000000000086
:105aa0000000000000000000000000008080c00036
:105ab000c000000000000000000000000000000026
:105ac00000000000000000000000000000000000d6
:105ad00000000000000000000000000000000000c6
:105ae00000000000000000000000000000000000b6
:105af00000000000000000000000000000000000a6
:105b0000000000000080c000e0f0f800fcf8e000b9
:105b10000000000000000000000000000000000085
:105b20000000000000008000808080008000800075
:105b30008000000000008000808080008000ff0066
:105b4000ffff000000000000808080008000000057
:105b5000808000000080ff00ff80800000808000c7
:105b60000080800080800000808000000000000035
:105b70000080800000008c008e8400000080f8000f
:105b8000f8f88000000000000000000000000000a5
:105b90000000000000f0f000f0f0f000f0f0f00085
:105ba000f0f0f000f0e0e000c0800000e0fcfe005b
:105bb000ffffff007fffff00ffffff00000000006e
:105bc0000000000000000000000000000000fe00d7
:105bd000ffc701000101010083ffff0000007c00fe
:105be000fec701000101010083ffff00ff00380034
:105bf000fec783000101010083c7ff00ff00000012
:105c000001ffff0001010000ffff0700010101008b
:105c100000007f00ff8000000000ff00ff7f000009
:105c200000ffff00ff00000001ffff00ff01000078
:105c30000000000000000000000000000000000064
:105c4000030f3f007f7fff00ffffff00ffffff000c
:105c5000e7c7c7008f8f9f00bfffff00c3c0f000e2
:105c6000ffffff00fffffc00fcfcfc00fcfcfc0055
:105c7000fcf8f800f0f0e000c000010003030300ae
:105c80000303010003030000000000000103030000
:105c900003030100010301000000000001030300f1
:105ca00003030100010303000000000003030000e0
:105cb00000000300030000000000000000000100dd
:105cc00003030300030301000000000001030100bf
:105cd00000000000030301000000000000000000bd
:105ce0000000000000000000000000000000800034
:105cf000c0e0f000f9ffff00ffffff003f1f0f00b3
:105d000087c7f700ffff1f001f3dfc00f8f8f800f1
:105d1000f87c7d00ffffff00ffffff00ffff7f001b
:105d20003f0f0700003030000000000000000000be
:105d30000000000000000000000000000000000063
:105d40000000000000fefe00fc000000000000005b
:105d50000000000000000000000000000000000043
:105d6000000000000000e000c00000000000000093
:105d700000000000000000003030000000000000c3
:105d80000000000000000000000000000000000013
:105d9000000000000000c000feffff00ffffff004a
:105da000ffffff00ff7f7f003f1f0f00071f7f00e7
:105db000fffff800f8ffff00ffffff00fef8e00024
:105dc00000000000010000000000000000000000d2
:105dd000fefe00000000fc00fefc0c0006060e00ab
:105de000fcf8000000f0f8001c0e060006060c008f
:105df000ffffff000000fe00fe0000000000fc00ae
:105e0000fefc0000183c7e0066e6ce008400000028
:105e100006ffff000606fc00fefc0c00060606005e
:105e20000000fe00fe000000c0f8fc004e464600e8
:105e3000464e7c00784018003c76e600cecc8000d0
:105e40000000000000000000000000000000000052
:105e5000000000000000000000000100070f1f000c
:105e60001f3f3f003f3f1f000f03000000000000e6
:105e7000000000000000000000000f000f00000004
:105e8000000f0f000f00000000000f000f000000c7
:105e900003070e000c1818000c060f000f0f00006f
:105ea00000010f000e0c18000c0f07000100040089
:105eb0000e0c18000c0f0700000000000f0f000070
:105ec000000f0f000f00000000000000000f0f0087
:105ed0000000000007070c000c181c000c06060050
:105ee00000040e000c180c000f070000000000005a
:105ef00000000000000000000000000000000000a2
:105f00000000000000000000000000000000000091
:105f10000000000000000000000000000000000081
:105f20000000000000000000000000000000000071
:105f30000000000000000000000000000000000061
:105f40000000000000000000000000000000000051
:105f50000000000000000000000000000000000041
:105f60000000000000000000000000000000000031
:105f70000000000000000000000000000000000021
:105f80000000000000000000000000000000000011
:105f9000000000000000010003070f001f3f7f000a
:105fa0000080c000e0f0f800fcfe0000320c0000b1
:105fb0001000000000000000420c00000200000081
:0c5fc000020000000100000000000000d2
:020000040000fa
:105fcc008040780010628000e10f500003003a001e
:105fdc0001407800a001070002003700403e2a0073
:105fec0034fd070000000600881f780000047800cc
:105ffc00104078000004e00004003200f0ff0700bd
:10600c00584078000004e000fcff3a004f04780090
:10601c0000000600889fbe008a9fbe000004be00e0
:10602c00824578000005eb000100e00002003a0018
:10603c00010578000e0037000b04e000020032006e
:10604c00aa000700010037009e000700ea4f50002d
:10605c0006003200ed4f500004003200005c780066
:10606c000a05e8008a8f5400f3ff3a00004ceb005d
:10607c000a0078004f05be004f04be000000060069
:10608c000041eb00e3ff07000000060012c0b30064
:10609c00e0ff070000000600881f7800004478002d
:1060ac000080fb004400de00e94f50000300360086
:1060bc007043b000c2ff0700020037000043b0007d
:1060cc00bfff07006f406400e94f5000030036002b
:1060dc007043b000baff0700020037000043b00065
:1060ec00b7ff07004f04780000000600881f7800f7
:1060fc0000447800c0432a00bbff0700084078002a
:10610c00e5ff07004f04780000000600881f7800a8
:10611c0000047800c0432a00b3ff07004840de00ab
:10612c00ddff070008407800dbff07004f04780014
:10613c0000000600889fbe000004be00c0432a0079
:10614c00a9ff07004848de0001002000d2ff07002d
:10615c004048de0001002000cfff07004849dd0069
:10616c004840de0000007100c848de00caff07008e
:10617c0008407800c8ff07004f04be00000006006e
:10618c000600fa008040780000c3b300a0ff9f0017
:10619c00b0ff9f00c0ff9f000040eb00d0ff9f00ae
:1061ac0070ccb30080cf500002003e0081417800db
:1061bc00050037002ff8970000c0e800a0ff9f00f3
:1061cc0080c3b30080c1400030c6b30080cf510003
:1061dc0005003600aff897008140e800a1ff9f0052
:1061ec00c0c9b30080c141000001eb0075442a0016
:1061fc00f6432a0062c27a00834f520008003e0028
:10620c000280fb004200de000000e800e680570040
:10621c0001004000e2407b0010c8400084c15100e6
:10622c000201e800e80f5100f2ff3a000040eb00d9
:10623c00d0ff9f00668057006bff07000080fa00bc
:10624c00000006000600fa0001c3b300a1ff9f0086
:10625c00b1ff9f00c1ff9f00d1ff9f00e1ff9f0096
:10626c00000278008001eb0045452a00f6442a0024
:10627c0015017800840f510008003e000380fb00dc
:10628c004200de00e680570001004000e380610020
:10629c00e1407b0010c84000020252008301e8007c
:1062ac008582e800f48f5100f1ff3a000040eb00ca
:1062bc00f0ff9f00668057004bff07000080fa003c
:1062cc000000060010628000e10f500003003a004d
:1062dc00f10007000080fb0003003700c0472a00d4
:1062ec0074fc07000000eb0000000600881f78001b
:1062fc00f4ff07000044780031ff07000884fb001e
:10630c00080078004f04780000000600106280003e
:10631c00e10f500003003a00dc0007000080fb0096
:10632c0003003700504d2a0062fc07000000eb0010
:10633c00000006001200200012628800e100070035
:10634c00000006007400070000102e000100200061
:10635c00f8ff070020c72900912224008dfd0700bb
:10636c00401188002062a900000006004040800017
:10637c00514080000082eb008082eb00840f5000c3
:10638c00858f58001000320061014000e081480008
:10639c004240880053408800f0d320003100200098
:1063ac00800f5100818f590007003600444088004f
:1063bc0055408800e3ff0700c0082a000aff0700c9
:1063cc000efc0700feff3700000006000200fa007a
:1063dc00881f780000447800e74f50000200360018
:1063ec0050372a0033fc0700ff3ffc00103a8000b6
:1063fc00e0bf9f00670064004800dd00f18f2f00b4
:10640c006fb99700010161008001710003007800f1
:10641c000000a000e0bf9f005ff897000080fb0029
:10642c00a2092000810720003374200081497800e4
:10643c0082497800804978004ff897000081fb0072
:10644c00710520006004200023742000804978002e
:10645c0081497800824978000000fc0042c7bf00e7
:10646c000008a30004003200c0ff070042c7bf00b1
:10647c000008a300fcff3a00e14f54001400320066
:10648c00e34f540005003a0011003700b7ff070036
:10649c0042c7bf000058a300fcff320043c7bf0037
:1064ac004400de000884fb0067006000880f500089
:1064bc000b003200adff070043c7bf004400de00f5
:1064cc0067006000880f500005003200f9ff3700ac
:1064dc0042c7bf000058a300f0ff3a00ebff3700a3
:1064ec004f0478000080fa0000000600000006004f
:1064fc0020c0b300b5ff0700000006000040eb0011
:10650c00b2ff070048c7bf0001ccb30001406000d8
:10651c0048e7b700000006000040eb00abff0700a7
:10652c0048c7bf0001ccb30001406000d042b300ab
:10653c0048e7b70044c7bf0001ceb300014060007c
:10654c006040b30044e7b700303a800001e02f0010
:10655c0001006000900bb300303a880044c7bf00c4
:10656c00f043b20044e7b70010c0b30097ff070038
:10657c00000006000040eb0094ff070044c7bf007a
:10658c0001ceb300014060000024a00044e7b70036
:10659c00303a800001e02f00010060000070a00084
:1065ac00303a880044c7bf00f043b20044e7b7005c
:1065bc0030c0b30085ff0700000006000040eb0070
:1065cc0082ff070044c7bf0001ceb300014060004a
:1065dc0044e7b700303a800001e02f000100600072
:1065ec006002b300303a880044c7bf00f043b200e9
:1065fc0044e7b70030c0b30074ff0700000006008a
:10660c0020c0b30071ff07000000060022c2bf00cb
:10661c000038a3000300320030118000e0522a0041
:10662c00a4fb070022c2bf000028a3000300320015
:10663c003011800020542a009efb070022c2bf00ac
:10664c000018a300030032002222a90070552a0072
:10665c0098fb070000000600881f780000447800b3
:10666c0023c2bf000018a3000400320063fb070024
:10667c0023c2bf000018a300fcff3a000880fb00f7
:10668c00201188004f0478000000060022c2bf00d1
:10669c00610060000000060022c2bf000008a300d9
:1066ac0004003a0055fb070022c2bf000008a300fb
:1066bc00fcff3200d5ff0700301180000080fb008a
:1066cc0000000600889fbe008a9fbe000005be0029
:1066dc00a4c6bf0001ceb30001406000a040b300cf
:1066ec00a4e6b700cbc6bf00014060003040b30049
:1066fc00cbe6b7002022ef00e00f5500e08f5d00e5
:10670c00030035000a00be00abed0700090037009e
:10671c0061006500010020008b01d1000a81d300cb
:10672c000200700083807000a3ed07000001be0022
:10673c00cded07000001be000068290081c12400d6
:10674c0028ee07000200200003d8230067ee0700a4
:10675c000200200003f82300c2ed07000004be0075
:10676c0002f82f00f37724001cee07000000e00075
:10677c0002003500c0562a004efb07000800be0080
:10678c0084fc0700401188000000280000118800dc
:10679c000040200010118800703e2000800f550032
:1067ac00e08f5d0002003e00705d2a0041fb070097
:1067bc0000c429000100200027ed0700409c2000a8
:1067cc000100200022408000334080000201400084
:1067dc008381480022408800334088002222a9008f
:1067ec00010037003011800022c2bf000038a30026
:1067fc00fcff3a0022c2bf000028a300f9ff3a00b8
:10680c004f05be004f04be000000060040c2bf0092
:10681c000068a3000300320040c2a900e0672a0010
:10682c0024fb070000000600881f78000004780095
:10683c00f6ff07008540a9004812880085c0bf00fc
:10684c000028a30004003a00ecfa070085c0bf0042
:10685c000028a300fcff3200401280004f04780097
:10686c00000006002cff070010fc0700d6fa0700fa
:10687c0000102e0001002000aefe070099fb07005f
:0c688c0080642a00d8fd07000000060010
:00000001FF
