:020000040000fa
:08000000000e040000000000e6
:020000040000fa
:1018000002000000963b040000000000963b04002c
:1018100000000000963b040000000000963b04001e
:1018200000000000963b040000000000963b04000e
:1018300000000000963b040000000000963b0400fe
:1018400000000000963b040000000000963b0400ee
:1018500000000000963b040000000000963b0400de
:1018600000000000963b040000000000963b0400ce
:1018700000000000963b040000000000963b0400be
:1018800000000000963b040000000000963b0400ae
:1018900000000000963b040000000000963b04009e
:1018a00000000000963b040000000000963b04008e
:1018b00000000000963b040000000000963b04007e
:1018c00000000000963b040000000000963b04006e
:1018d00000000000963b040000000000963b04005e
:1018e00000000000963b040000000000963b04004e
:1018f00000000000963b040000000000963b04003e
:1019000000000000963b040000000000963b04002d
:1019100000000000963b040000000000963b04001d
:1019200000000000963b040000000000963b04000d
:1019300000000000963b040000000000963b0400fd
:1019400000000000963b040000000000963b0400ed
:1019500000000000963b040000000000963b0400dd
:1019600000000000963b040000000000963b0400cd
:1019700000000000963b040000000000963b0400bd
:1019800000000000963b040000000000963b0400ad
:1019900000000000963b040000000000963b04009d
:1019a00000000000963b040000000000963b04008d
:1019b00000000000963b040000000000963b04007d
:1019c00000000000963b040000000000963b04006d
:1019d00000000000963b040000000000963b04005d
:1019e00000000000963b040000000000963b04004d
:1019f00000000000963b040000000000963b04003d
:101a000000000000963b040000000000963b04002c
:101a100000000000963b040000000000963b04001c
:101a200000000000963b040000000000963b04000c
:101a300000000000963b040000000000963b0400fc
:101a400000000000963b040000000000963b0400ec
:101a500000000000963b040000000000963b0400dc
:101a600000000000963b040000000000963b0400cc
:101a700000000000963b040000000000963b0400bc
:101a800000000000963b040000000000963b0400ac
:101a900000000000963b040000000000963b04009c
:101aa00000000000963b040000000000963b04008c
:101ab00000000000963b040000000000963b04007c
:101ac00000000000963b040000000000963b04006c
:101ad00000000000963b040000000000963b04005c
:101ae00000000000963b040000000000963b04004c
:101af00000000000963b040000000000963b04003c
:101b000000000000963b040000000000963b04002b
:101b100000000000963b040000000000963b04001b
:101b200000000000963b040000000000963b04000b
:101b300000000000963b040000000000963b0400fb
:101b400000000000963b040000000000963b0400eb
:101b500000000000963b040000000000963b0400db
:101b600000000000963b040000000000963b0400cb
:101b700000000000963b040000000000963b0400bb
:101b800000000000963b040000000000963b0400ab
:101b900000000000963b040000000000963b04009b
:101ba00000000000963b040000000000963b04008b
:101bb00000000000963b040000000000963b04007b
:101bc00000000000963b040000000000963b04006b
:101bd00000000000963b040000000000963b04005b
:101be00000000000963b040000000000963b04004b
:041bf00000000000f1
:020000040000fa
:101c0000afca20000eff20000e0188000000000077
:101c10000c00070040e62300010020001f00070021
:101c2000000020000000e00002003200000002007e
:101c3000000000008c360200000000000040da00c6
:101c40000000fe004440a900a05021000000e00078
:101c50000300320000002000a00188004440a800da
:101c600000000600f03fb1000180b1000600350021
:101c7000ee03090000000000403fb1000180b10008
:101c8000fbff3d001000b000203fb0000200350017
:101c9000008009000000000000000600910188009b
:101ca000800078000000eb0015003700e280400063
:101cb00032a0b4009101ba00e280400032a0b4002a
:101cc0009102ba00e280400032a0b4000002eb00b2
:101cd000472bde00f507b200602ce10004003a005b
:101ce0000059eb008301e900fdff3e0004003700ce
:101cf0006128e100010032000082eb0004000700cf
:101d00001101ba000200e000e8ff3a0000000600fe
:101d10003159ba008301e9000c0032002159ba00a0
:101d20008301e900080032000400e00003003a00eb
:101d3000e280400032a0b400f5ff370011d9ba00ac
:101d40008301e900faff3a008100e800e1804000e9
:101d500032a0b400000006000001be001a01070016
:101d60000470a70003f0a10003f8a30013003a00d9
:101d70006509b10010003200090035006928e10052
:101d800002003500010028000000050000004000ae
:101d9000818048008502e900fcff3a00000006004f
:101da000f88f4200050035008100d1000080d3008b
:101db0008502e800fcff3a00000006008000eb000e
:101dc00000000500889fbe008a9fbe0001057800c4
:101dd0000100e0000400350008003c000000e000c5
:101de000200032000500370060001000e08018007d
:101df00002003b0001f02c001a0037000004be0076
:101e00006011b8006b0920000982cf000200390080
:101e10000882cf000441b000694252000e00320037
:101e200008003b0082817100610164008904d100d7
:101e30000884d3008b05e8000442e800f9ff3a006b
:101e4000050037000804440089844c008b05e90034
:101e50000442e900fbff3a00f00007000af0a70087
:101e600001f0a0004f05be004f04be0000000600b8
:101e700003f0a200889fbe008a9fbe008c1f7800de
:101e80000c010700130133006450e1004f003200e1
:101e90006420e1005200320003826c0007003b0026
:101ea0000905d0000306d000820f54000c065d0027
:101eb0000200390002003200890178000306780030
:101ec0008582550004003d000003fd008103fd00f4
:101ed0008502ea008b854200840f720002003b00fd
:101ee00060001000e08018006011b8000005eb00f1
:101ef0007a28e1000a00390006007800c75ddd009d
:101f0000f707b200878075002d00370082817100cd
:101f10000a017800610560008180d1000080d30053
:101f20008502e900f9ff3b00060440008784480071
:101f300002003b0060041400e0841c000988a30038
:101f4000070032008a8171008281710061016400a2
:101f50008904d1000884d3008b05e80017003700fe
:101f60000978a30013003a000b00e00013003400ce
:101f70008b05e9000804440089844c000a4474007d
:101f80000978a3000d003a000b00e00007003400c0
:101f90008b05e9000804440089844c0001003a00e4
:101fa0000b0020000978a300f7ff32000001eb00ce
:101fb00002003700828171000a0178009700070053
:101fc0000cf0a70001f0a000cb0037006420e10076
:101fd00002003a00838f6c00cb0033000801be0082
:101fe0000200be00c400370014002000c900370002
:101ff000889fbe008a9fbe008c1f7800ad0007003e
:10200000b400330003866c006450e1002e003200ff
:102010006420e100330032006150e1002f00320003
:102020006120e1003100320085855500eb07b000ea
:1020300009002000080420000500370008044400bf
:1020400089844c000a0031000603430087834b005b
:102050000001530081815b00f8ff33000203be00e2
:102060000800a0000804440089844c00f6ff3900f1
:10207000c639dd0083017300010032001300200027
:102080008904d1000884d3000998a3000500320018
:102090000800a7000300a0008904d1000884d30031
:1020a0008b05e8008904d1000884d3000001eb000f
:1020b0000281d2005900070001f0a1000cf0a70036
:1020c00001f0a0008c0037006420e1008e00320097
:1020d0000801be000200be00f7ff37006120e100ea
:1020e000890032006000b800f3ff370000002000d4
:1020f00001f82700f0ff3700889fbe008a9fbe00ce
:102100008c1f78006b0007007200330003866c00a0
:102110006450e100240032006420e1002700320016
:102120006150e100220032006120e1002100320014
:102130008b854200eb07b1000134b800003ab800cb
:102140000804420089844a00013ab8000030b8000f
:102150008880400009014a0004003300000040006c
:1021600081804800020149008b05e900c909dd00b2
:10217000830170000100320013002000c814de004b
:102180004814dd004709de001200b200c808de0076
:10219000088470002100070001f0a1000cf0a700e6
:1021a00001f0a000540037006120e1005600320029
:1021b0000801be000200be00f7ff37006150e100d9
:1021c000fcff3a0050003700c70ade00f107b200fa
:1021d000f50fb20008003200e1cf420002003200e9
:1021e0000170a00024000500810f70000100320082
:1021f0000408050044000500810f700002003a0049
:10220000140005008502e9000000400081c048007c
:10221000fcff3b000170a0002400050081002000ad
:10222000618055000b003d000b00200061fe2f0077
:102230000100e1001d003400828171006101640031
:102240008904d1000884d3000000e800faff3a00b6
:102250007100200061006400030070000200600053
:102260000900320061044400e0844c000988a500a4
:10227000050032008b05e8006808e10002003a0022
:102280008904d1000884d300f20f20000258e10035
:1022900005003d00c75ddd00f907b20089807500cb
:1022a00008007800000006000bf827008b0078007b
:1022b000000005000004be00c3ff07000003be00cd
:1022c0000405be000200be00bfff0700844f75007a
:1022d000000006000200be006450e1000500360068
:1022e0006420e100020036000968a30001003a0002
:1022f0000800be000160a0004f0678004f05be0038
:102300004f04be0000000600f0ff2f00f1ff270081
:10231000f9ff3700889fbe008a9fbe00841f7800a7
:10232000e4ff07004f00780011003300f0ff2f009a
:10233000838f6c0006003b00040565000a00a700bf
:102340000800370009f0a600100020000800370040
:10235000820f5400838f5c000300390010002000be
:1023600001003e000000200009f0a7000000ea0084
:102370004f05be004f04be000000e0000000060054
:102380008001eb0002003700817178008301e800d2
:0c239000828f5100fcff3a0000000600a4
:020000040000fa
:0200000401f009
:04000000ffff0000fe
:020000040000fa
:0200000401f009
:04000800ffff0000f6
:020000040000fa
:0200000401f009
:04000c0078ff000079
:020000040000fa
:0200000401f009
:040010005bff000092
:020000040000fa
:0200000401f009
:0400140079ff000070
:020000040000fa
:0200000401f009
:04001800fcff0000e9
:020000040000fa
:0200000401f009
:04001c00dfff000002
:020000040000fa
:10000800020c0000060c00000a0c00000e0c000098
:10001800120c0000160c00001a0c00001e0c000048
:10002800220c0000260c00002a0c00002e0c0000f8
:10003800320c0000360c00003a0c00003e0c0000a8
:10004800420c0000460c00004a0c00004e0c000058
:10005800520c0000560c00005a0c00005e0c000008
:10006800620c0000660c00006a0c00006e0c0000b8
:10007800720c0000760c00007a0c00007e0c000068
:10008800820c0000860c00008a0c00008e0c000018
:10009800920c0000960c00009a0c00009e0c0000c8
:1000a800a20c0000a60c0000aa0c0000ae0c000078
:1000b800b20c0000b60c0000ba0c0000be0c000028
:1000c800c20c0000c60c0000ca0c0000ce0c0000d8
:1000d800d20c0000d60c0000da0c0000de0c000088
:1000e800e20c0000e60c0000ea0c0000ee0c000038
:1000f800f20c0000f60c0000fa0c0000fe0c0000e8
:10010800020d0000060d00000a0d00000e0d000093
:10011800120d0000160d00001a0d00001e0d000043
:10012800220d0000260d00002a0d00002e0d0000f3
:10013800320d0000360d00003a0d00003e0d0000a3
:10014800420d0000460d00004a0d00004e0d000053
:10015800520d0000560d00005a0d00005e0d000003
:10016800620d0000660d00006a0d00006e0d0000b3
:10017800720d0000760d00007a0d00007e0d000063
:10018800820d0000860d00008a0d00008e0d000013
:10019800920d0000960d00009a0d00009e0d0000c3
:1001a800a20d0000a60d0000aa0d0000ae0d000073
:1001b800b20d0000b60d0000ba0d0000be0d000023
:1001c800c20d0000c60d0000ca0d0000ce0d0000d3
:1001d800d20d0000d60d0000da0d0000de0d000083
:1001e800e20d0000e60d0000ea0d0000ee0d000033
:0801f800f20d0000f60d0000fd
:020000040000fa
:10020800020c0000060c00000a0c00000e0c000096
:10021800120c0000160c00001a0c00001e0c000046
:10022800220c0000260c00002a0c00002e0c0000f6
:10023800320c0000360c00003a0c00003e0c0000a6
:10024800420c0000460c00004a0c00004e0c000056
:10025800520c0000560c00005a0c00005e0c000006
:10026800620c0000660c00006a0c00006e0c0000b6
:10027800720c0000760c00007a0c00007e0c000066
:10028800820c0000860c00008a0c00008e0c000016
:10029800920c0000960c00009a0c00009e0c0000c6
:1002a800a20c0000a60c0000aa0c0000ae0c000076
:1002b800b20c0000b60c0000ba0c0000be0c000026
:1002c800c20c0000c60c0000ca0c0000ce0c0000d6
:1002d800d20c0000d60c0000da0c0000de0c000086
:1002e800e20c0000e60c0000ea0c0000ee0c000036
:1002f800f20c0000f60c0000fa0c0000fe0c0000e6
:10030800020d0000060d00000a0d00000e0d000091
:10031800120d0000160d00001a0d00001e0d000041
:10032800220d0000260d00002a0d00002e0d0000f1
:10033800320d0000360d00003a0d00003e0d0000a1
:10034800420d0000460d00004a0d00004e0d000051
:10035800520d0000560d00005a0d00005e0d000001
:10036800620d0000660d00006a0d00006e0d0000b1
:10037800720d0000760d00007a0d00007e0d000061
:10038800820d0000860d00008a0d00008e0d000011
:10039800920d0000960d00009a0d00009e0d0000c1
:1003a800a20d0000a60d0000aa0d0000ae0d000071
:1003b800b20d0000b60d0000ba0d0000be0d000021
:1003c800c20d0000c60d0000ca0d0000ce0d0000d1
:1003d800d20d0000d60d0000da0d0000de0d000081
:1003e800e20d0000e60d0000ea0d0000ee0d000031
:0803f800f20d0000f60d0000fb
:020000040000fa
:10239c000000000000000000003e00005b4f000049
:1023ac005b3e00003e6b00004f6b00003e1c0000cb
:1023bc003e7c00003e1c0000183c00007e3c0000ef
:1023cc00181c0000577d0000571c00001c5e00000c
:1023dc007f5e00001c000000183c0000180000008c
:1023ec00ffe70000c3e70000ff0000001824000016
:1023fc0018000000ffe70000dbe70000ff300000e2
:10240c00483a0000060e0000262900007929000039
:10241c00264000007f05000005070000407f0000fb
:10242c00052500003f5a00003ce700003c5a000024
:10243c007f3e00001c1c0000080800001c1c000053
:10244c003e7f0000142200007f220000145f000079
:10245c005f0000005f5f0000060900007f010000c4
:10246c007f00000066890000956a00006060000033
:10247c006060000060940000a2ff0000a2940000c5
:10248c00080400007e04000008100000207e0000fc
:10249c0020100000080800002a1c0000080800009a
:1024ac001c2a0000080800001e100000101000007c
:1024bc00100c00001e0c00001e0c00003038000038
:1024cc003e380000300600000e3e00000e060000f4
:1024dc00000000000000000000000000005f000091
:1024ec0000000000000700000007000000140000be
:1024fc007f1400007f140000242a00007f2a0000b3
:10250c00122300001308000064620000364900002a
:10251c0056200000500000000807000003000000d7
:10252c00001c0000224100000000000041220000bd
:10253c001c0000002a1c00007f1c00002a08000060
:10254c00083e000008080000008000007030000009
:10255c000008000008080000080800000000000047
:10256c006060000000200000100800000402000061
:10257c003e510000494500003e000000427f000033
:10258c00400000007249000049490000462100004b
:10259c00414900004d33000018140000127f000068
:1025ac001027000045450000453900003c4a00005a
:1025bc0049490000314100002111000009070000c9
:1025cc0036490000494900003646000049490000e0
:1025dc00291e000000000000140000000000000094
:1025ec00403400000000000000080000142200002d
:1025fc0041140000141400001414000000410000e9
:10260c002214000008020000015900000906000015
:10261c003e4100005d5900004e7c0000121100008c
:10262c00127c00007f49000049490000363e000042
:10263c0041410000412200007f4100004141000067
:10264c003e7f000049490000494100007f0900001d
:10265c0009090000013e00004141000051730000d7
:10266c007f080000080800007f000000417f000088
:10267c004100000020400000413f0000017f0000ad
:10268c0008140000224100007f4000004040000080
:10269c00407f0000021c0000027f00007f0400004d
:1026ac00081000007f3e000041410000413e000048
:1026bc007f09000009090000063e0000415100009e
:1026cc00215e00007f090000192900004626000049
:1026dc004949000049320000030100007f0100005d
:1026ec00033f000040400000403f00001f2000005e
:1026fc00402000001f3f000040380000403f000019
:10270c006314000008140000630300000478000048
:10271c000403000061590000494d00004300000013
:10272c007f4100004141000002040000081000003d
:10273c002000000041410000417f00000402000025
:10274c000102000004400000404000004040000036
:10275c000003000007080000002000005454000093
:10276c00784000007f280000444400003838000006
:10277c004444000044280000384400004428000071
:10278c007f3800005454000054180000000800006a
:10279c007e09000002180000a4a400009c78000030
:1027ac007f0800000404000078000000447d000055
:1027bc004000000020400000403d0000007f000071
:1027cc001028000044000000004100007f40000081
:1027dc00007c000004780000047800007c080000f5
:1027ec000404000078380000444400004438000021
:1027fc00fc180000242400001818000024240000f9
:10280c0018fc00007c0800000404000008480000cc
:10281c005454000054240000040400003f44000001
:10282c00243c000040400000207c00001c200000e4
:10283c00402000001c3c000040300000403c0000e8
:10284c004428000010280000444c00009090000028
:10285c00907c000044640000544c000044000000d4
:10286c000836000041000000000000007700000066
:10287c0000000000413600000800000002010000ca
:10288c0002040000023c000026230000263c00004d
:10289c001ea10000a1610000123a0000404000009f
:1028ac00207a0000385400005455000059210000d3
:1028bc005555000079410000225400005478000066
:1028cc0042210000555400007840000020540000c4
:1028dc0055790000400c00001e52000072120000de
:1028ec00395500005555000059390000545400006a
:1028fc005459000039550000545400005800000091
:10290c00004500007c41000000020000457d0000f5
:10291c0042000000014500007c4000007d120000d8
:10292c00111200007df000002825000028f00000a6
:10293c007c54000055450000002000005454000059
:10294c007c5400007c0a0000097f00004932000022
:10295c0049490000493200003a4400004444000058
:10296c003a3200004a480000483000003a4100006a
:10297c00412100007a3a000042400000207800001b
:10298c00009d0000a0a000007d3d00004242000020
:10299c00423d00003d400000404000003d3c000036
:1029ac0024ff000024240000487e0000494300005e
:1029bc00662b00002ffc00002f2b0000ff090000ed
:1029cc0029f6000020c00000887e000009030000ea
:1029dc002054000054790000410000000044000025
:1029ec007d41000030480000484a000032380000a9
:1029fc0040400000227a0000007a00000a0a000021
:102a0c00727d00000d190000317d000026290000a8
:102a1c00292f000028260000292900002926000063
:102a2c00304800004d40000020380000080800002d
:102a3c00080800000808000008080000382f0000f3
:102a4c0010c80000acba00002f10000028340000a1
:102a5c00fa000000007b00000000000008140000d9
:102a6c002a14000022220000142a0000140800007e
:102a7c00aa00000055000000aaaa000055aa0000f8
:102a8c0055aa00000000000000ff0000001000002c
:102a9c0010100000ff0000001414000014ff0000d0
:102aac000010000010ff000000ff000010100000dc
:102abc00f0100000f014000014140000fc000000e2
:102acc0014140000f7000000ff00000000ff0000dd
:102adc0000ff000014140000f4040000fc140000bb
:102aec0014170000101f0000101000001f10000031
:102afc001f140000141400001f0000001010000030
:102b0c0010f0000000000000000000001f1000008a
:102b1c0010100000101f000010100000101000001a
:102b2c00f01000000000000000ff0000101000007a
:102b3c0010100000101000001010000010ff00001a
:102b4c001000000000000000ff1400000000000056
:102b5c00ff000000ff000000001f00001017000025
:102b6c0000000000fc040000f41400001417000026
:102b7c001017000014140000f4040000f40000000e
:102b8c0000ff000000f700001414000014140000f3
:102b9c001414000014f7000000f7000014140000d7
:102bac001417000014100000101f0000101f00006c
:102bbc001414000014f400001410000010f00000b5
:102bcc0010f00000000000001f1000001f000000ab
:102bdc00000000001f1400000000000000fc0000ba
:102bec001400000000f0000010f0000010100000b5
:102bfc00ff100000ff14000014140000ff1400006c
:102c0c0010100000101f0000000000000000000069
:102c1c00f0100000ffff0000ffff0000fff00000bd
:102c2c00f0f00000f0f00000ffff0000ff000000db
:102c3c000000000000000000ffff00000f0f00006c
:102c4c000f0f00000f38000044440000384400000f
:102c5c00fc4a00004a4a0000347e000002020000d8
:102c6c0006060000027e0000027e000002630000e7
:102c7c00554900004163000038440000443c00000a
:102c8c00044000007e2000001e2000000602000010
:102c9c007e02000002990000a5e70000a599000043
:102cac001c2a0000492a00001c4c00007201000084
:102cbc00724c0000304a00004d4d000030300000d6
:102ccc004878000048300000bc6200005a46000002
:102cdc003d3e000049490000490000007e01000013
:102cec00010100007e2a00002a2a00002a2a000086
:102cfc00444400005f44000044400000514a00007e
:102d0c0044400000404400004a51000040000000d4
:102d1c0000ff000001030000e0800000ff00000045
:102d2c0000080000086b00006b0800003612000061
:102d3c0036240000360600000f0900000f060000c4
:102d4c000000000018180000000000000010000037
:102d5c001000000030400000ff01000001000000e6
:102d6c001f010000011e0000001900001d170000cb
:102d7c00120000003c3c00003c3c00000000000045
:102d8c00000000000053000065740000205000009b
:102d9c00726f0000786900006d69000074790000a2
:102dac00286d000065740000657200007329000036
:102dbc0000320000302000003330000000340000ee
:102dcc003020000035300000000000000000000042
:102ddc0000000000003e00005b4f00005b3e000066
:102dec003e6b00004f6b00003e1c00003e7c000060
:102dfc003e1c0000183c00007e3c0000181c00002b
:102e0c00577d0000571c00001c5e00007f5e000018
:102e1c001c000000183c000018000000ffe7000038
:102e2c00c3e70000ff000000182400001800000099
:102e3c00ffe70000dbe70000ff300000483a00002d
:102e4c00060e00002629000079290000264000000b
:102e5c007f05000005070000407f000005250000ed
:102e6c003f5a00003ce700003c5a00007f3e000047
:102e7c001c1c0000080800001c1c00003e7f000009
:102e8c00142200007f220000145f00005f0000008d
:102e9c005f5f0000060900007f0100007f0000005a
:102eac0066890000956a00006060000060600000a8
:102ebc0060940000a2ff0000a2940000080400002f
:102ecc007e04000008100000207e0000201000008e
:102edc00080800002a1c0000080800001c2a00003a
:102eec00080800001e10000010100000100c00005c
:102efc001e0c00001e0c0000303800003e38000094
:102f0c00300600000e3e00000e060000000000001f
:102f1c000000000000000000005f00000000000046
:102f2c000007000000070000001400007f140000e0
:102f3c007f140000242a00007f2a000012230000c6
:102f4c00130800006462000036490000562000009f
:102f5c00500000000807000003000000001c0000e7
:102f6c002241000000000000412200001c00000073
:102f7c002a1c00007f1c00002a080000083e0000ec
:102f8c0008080000008000007030000000080000fd
:102f9c000808000008080000000000006060000045
:102fac000020000010080000040200003e51000048
:102fbc00494500003e000000427f00004000000038
:102fcc0072490000494900004621000041490000b7
:102fdc004d33000018140000127f00001027000071
:102fec0045450000453900003c4a000049490000b5
:102ffc003141000021110000090700003649000092
:10300c00494900003646000049490000291e0000cd
:10301c00000000001400000000000000403400001c
:10302c000000000000080000142200004114000001
:10303c0014140000141400000041000022140000bd
:10304c000802000001590000090600003e41000082
:10305c005d5900004e7c000012110000127c000033
:10306c007f49000049490000363e00004141000004
:10307c00412200007f410000414100003e7f0000e2
:10308c0049490000494100007f090000090900007e
:10309c00013e000041410000517300007f08000018
:1030ac00080800007f000000417f00004100000084
:1030bc0020400000413f0000017f00000814000088
:1030cc00224100007f40000040400000407f000093
:1030dc00021c0000027f00007f04000008100000aa
:1030ec007f3e000041410000413e00007f0900008e
:1030fc0009090000063e000041510000215e00005d
:10310c007f090000192900004626000049490000eb
:10311c0049320000030100007f010000033f000062
:10312c0040400000403f00001f20000040200000f5
:10313c001f3f000040380000403f000063140000b7
:10314c00081400006303000004780000040300006e
:10315c0061590000494d0000430000007f41000010
:10316c004141000002040000081000002000000093
:10317c0041410000417f00000402000001020000f8
:10318c0004400000404000004040000000030000ec
:10319c000708000000200000545400007840000094
:1031ac007f280000444400003838000044440000ec
:1031bc004428000038440000442800007f380000f8
:1031cc005454000054180000000800007e09000050
:1031dc0002180000a4a400009c7800007f080000e6
:1031ec000404000078000000447d00004000000052
:1031fc0020400000403d0000007f0000102800002f
:10320c0044000000004100007f400000007c0000f2
:10321c0004780000047800007c080000040400001e
:10322c00783800004444000044380000fc180000ca
:10323c0024240000181800002424000018fc0000ae
:10324c007c080000040400000848000054540000ee
:10325c0054240000040400003f440000243c0000ff
:10326c0040400000207c00001c200000402000009a
:10327c001c3c000040300000403c00004428000092
:10328c0010280000444c000090900000907c00003e
:10329c0044640000544c0000440000000836000058
:1032ac00410000000000000077000000000000005a
:1032bc00413600000800000002010000020400007a
:1032cc00023c000026230000263c00001ea100004a
:1032dc00a1610000123a000040400000207a00007a
:1032ec003854000054550000592100005555000079
:1032fc007941000022540000547800004221000063
:10330c00555400007840000020540000557900000e
:10331c00400c00001e5200007212000039550000d3
:10332c005555000059390000545400005459000000
:10333c0039550000545400005800000000450000ae
:10334c007c41000000020000457d000042000000ae
:10335c00014500007c4000007d12000011120000ad
:10336c007df000002825000028f000007c540000af
:10337c005545000000200000545400007c5400000f
:10338c007c0a0000097f0000493200004949000016
:10339c00493200003a440000444400003a32000034
:1033ac004a480000483000003a410000412100002a
:1033bc007a3a00004240000020780000009d000096
:1033cc00a0a000007d3d000042420000423d0000f4
:1033dc003d400000404000003d3c000024ff000048
:1033ec0024240000487e000049430000662b0000a6
:1033fc002ffc00002f2b0000ff09000029f6000015
:10340c0020c00000887e000009030000205400004a
:10341c005479000041000000004400007d41000090
:10342c0030480000484a000032380000404000009c
:10343c00227a0000007a00000a0a0000727d000067
:10344c000d190000317d000026290000292f0000f5
:10345c0028260000292900002926000030480000f9
:10346c004d4000002038000008080000080800004b
:10347c000808000008080000382f000010c80000e1
:10348c00acba00002f10000028340000fa00000035
:10349c00007b000000000000081400002a1400004b
:1034ac0022220000142a000014080000aa000000c8
:1034bc0055000000aaaa000055aa000055aa000059
:1034cc000000000000ff00000010000010100000c1
:1034dc00ff0000001414000014ff00000010000096
:1034ec0010ff000000ff000010100000f0100000a2
:1034fc00f014000014140000fc0000001414000070
:10350c00f7000000ff00000000ff000000ff0000bb
:10351c0014140000f4040000fc1400001417000044
:10352c00101f0000101000001f1000001f140000de
:10353c00141400001f0000001010000010f0000018
:10354c0000000000000000001f1000001010000020
:10355c00101f00001010000010100000f0100000f0
:10356c000000000000ff0000101000001010000010
:10357c00101000001010000010ff000010000000e0
:10358c0000000000ff14000000000000ff0000001d
:10359c00ff000000001f00001017000000000000da
:1035ac00fc040000f41400001417000010170000b5
:1035bc0014140000f4040000f400000000ff0000ec
:1035cc0000f7000014140000141400001414000080
:1035dc0014f7000000f7000014140000141700008a
:1035ec0014100000101f0000101f00001414000025
:1035fc0014f400001410000010f0000010f0000093
:10360c00000000001f1000001f0000000000000060
:10361c001f1400000000000000fc0000140000005b
:10362c0000f0000010f0000010100000ff1000006f
:10363c00ff14000014140000ff1400001010000010
:10364c00101f00000000000000000000f01000003f
:10365c00ffff0000ffff0000fff00000f0f0000093
:10366c00f0f00000ffff0000ff0000000000000071
:10367c0000000000ffff00000f0f00000f0f000004
:10368c000f3800004444000038440000fc4a00009d
:10369c004a4a0000347e00000202000006060000c8
:1036ac00027e0000027e000002630000554900000b
:1036bc004163000038440000443c0000044000001a
:1036cc007e2000001e200000060200007e0200008a
:1036dc0002990000a5e70000a59900001c2a000033
:1036ec00492a00001c4c000072010000724c0000c2
:1036fc00304a00004d4d000030300000487800008a
:10370c0048300000bc6200005a4600003d3e0000fc
:10371c0049490000490000007e0100000101000041
:10372c007e2a00002a2a00002a2a000044440000b5
:10373c005f44000044400000514a00004440000037
:10374c00404400004a5100004000000000ff00000f
:10375c0001030000e0800000ff00000000080000f2
:10376c00086b00006b0800003612000036240000c5
:10377c00360600000f0900000f06000000000000d4
:10378c0018180000000000000010000010000000dd
:10379c0030400000ff010000010000001f0100008c
:1037ac00011e0000001900001d170000120000008f
:1037bc003c3c00003c3c000000000000000000000d
:1037cc0000000000556e0000686100006e6400008f
:1037dc006c65000064200000696e000074650000d8
:1037ec007272000075700000742c00002000000044
:1037fc005049000043320000344800004a330000b6
:10380c0032470000503200003032000000750000da
:10381c006e6b00006e6f0000776e000000410000c0
:10382c00360000004132000000410000330000006f
:10383c0041340000004100003500000044650000e8
:10384c0076690000636500002049000044200000f8
:10385c003d2000000020000028000000292c000062
:10386c00207200006576000069730000696f00002b
:10387c006e200000002900000a0000000a0a000067
:10388c002a2a00002a2a00002a2a00002a2a0000dc
:10389c002a2a00002a2a00002a2a00002a2a0000cc
:1038ac002a2a00002a2a00002a2a00002a2a0000bc
:1038bc002a2a00002a2a00002a2a00002a2a0000ac
:1038cc002a2a00002a2a00002a2a00002a2a00009c
:1038dc002a2a00002a2a00002a2a00002a2a00008c
:1038ec002a2a00002a2a00002a2a00000a2a00009c
:1038fc0020570000415200004e4900004e47000086
:10390c00202d000020740000686900007320000066
:10391c00707200006f670000726100006d20000083
:10392c007761000073200000636f00006d70000071
:10393c00696c000065640000206600006f72000076
:10394c00207400006865000020770000726f000092
:10395c006e670000202000002a0a00002a200000c8
:10396c0063680000697000002e200000546800009d
:10397c006973000020700000726f00006772000015
:10398c00616d0000206d0000617900002070000066
:10399c00726f000064750000636500002075000004
:1039ac006e650000787000006563000074650000af
:1039bc00642000006265000068760000696f0000fa
:1039cc0072210000202a00000a2a00002045000075
:1039dc006469000074200000746800006520000019
:1039ec0068650000616400006572000020660000dc
:1039fc00696c000065730000207400006f200000eb
:103a0c00707200006f700000657200006c7900002d
:103a1c002064000065660000696e000065200000ef
:103a2c00746800006973000020630000686900007e
:103a3c00702000002a0a00002a200000616e00009d
:103a4c0064200000746f0000206900006e73000099
:103a5c007572000065200000636f00007272000038
:103a6c0065630000742000006f7000006572000038
:103a7c0061740000696f00006e2e000020200000b1
:103a8c00202000002020000020200000202000002a
:103a9c00202000002020000020200000202000001a
:103aac00202a00000a2a000020200000202000000c
:103abc0020200000202000002020000020200000fa
:103acc0020200000202000002020000020200000ea
:103adc0020200000202000002020000020200000da
:103aec0020200000202000002020000020200000ca
:103afc0020200000202000002020000020200000ba
:103b0c0020200000202000002020000020200000a9
:103b1c002a0a00002a2000004e4f000054450000e5
:103b2c003a2000004966000020740000686900001b
:103b3c00732000007761000073200000636f0000a9
:103b4c006d700000696c0000656400002066000068
:103b5c006f72000020740000686500002063000094
:103b6c006f72000072650000637400002063000037
:103b7c0068690000702c000020200000202a000042
:103b8c000a2a0000206100006e640000206f000013
:103b9c006e6c0000792000006f63000063750000fc
:103bac00727300002061000074200000706f000030
:103bbc0077650000722d00006f6e00002028000059
:103bcc006e6f0000742000006475000072690000c4
:103bdc006e67000020610000204d0000434c000087
:103bec005220000020200000202000002a0a0000a3
:103bfc002a20000072650000736500007429000023
:103c0c002c200000766500007269000066790000c7
:103c1c002074000068610000742000004156000010
:103c2c0044440000206100006e640000204100004c
:103c3c005653000053200000617200006520000004
:103c4c00636f00006e6e0000656300007465000019
:103c5c00642e000020200000202a00000a2a000008
:103c6c00204f00006e2000007468000065200000ea
:103c7c005049000043320000344800003332000049
:103c8c004750000032300000322c0000206e000043
:103c9c006f740000206300006f6e00006e65000002
:103cac0063740000696e000067200000415600003c
:103cbc0044440000202000002020000020200000b0
:103ccc0020200000202000002a0a00002a200000ea
:103cdc00707200006f640000756300006573000073
:103cec002074000068690000732000006d650000fe
:103cfc007373000061670000652000006f6e0000a8
:103d0c006c7900002061000074200000706f0000ce
:103d1c0077650000722d0000757000002e200000e9
:103d2c002020000020200000202000002020000087
:103d3c0020200000202a00000a2a00002a2a000065
:103d4c002a2a00002a2a00002a2a00002a2a000017
:103d5c002a2a00002a2a00002a2a00002a2a000007
:103d6c002a2a00002a2a00002a2a00002a2a0000f7
:103d7c002a2a00002a2a00002a2a00002a2a0000e7
:103d8c002a2a00002a2a00002a2a00002a2a0000d7
:103d9c002a2a00002a2a00002a2a00002a2a0000c7
:103dac002a2a00002a0a0000004600006173000065
:103dbc007420000052430000204f00007363000089
:103dcc000a000000466100007374000020520000dd
:103ddc00432000004f73000063200000776900004f
:103dec0074680000205000004c4c00000a000000d9
:103dfc0050720000696d00006172000079200000b3
:103e0c004f7300006320000028580000542c000061
:103e1c0020480000532c00002045000043290000de
:103e2c000a00000050720000696d00006172000011
:103e3c00792000004f730000632000002858000018
:103e4c00542c000020480000532c0000204500009a
:103e5c0043290000207700006974000068200000ee
:103e6c00504c00004c0a0000005300006563000039
:103e7c006f6e00006461000072790000204f00003a
:103e8c00736300000a0000004c6f000077200000f4
:103e9c00506f000077650000722000005243000054
:103eac00204f0000736300000a0000004661000010
:103ebc007374000020520000432000004f73000078
:103ecc00632f0000313600000a000000466100003c
:103edc007374000020520000432000004f73000058
:103eec00632f00004e0a0000005500006e6b0000ae
:103efc006e6f0000776e0000206f0000736300008f
:103f0c00696c00006c610000746f0000722000008e
:103f1c0074790000706500002e0000000a44000057
:103f2c006576000069630000652000006861000090
:103f3c007320000062650000656e000020690000bf
:103f4c006e200000736c000065650000702000009e
:103f5c006d6f0000646500000a0000000a44000058
:103f6c006576000069630000652000006861000050
:103f7c007320000062650000656e0000206900007f
:103f8c006e200000696400006c650000206d00006c
:103f9c006f640000650a0000000a00005265000012
:103fac0073650000742000006361000075730000ed
:103fbc00653a000020000000506f0000776500009b
:103fcc00722d00006f6e00002e0a000000530000de
:103fdc006f660000747700006172000065200000bd
:103fec005265000073650000742e00000a0000008a
:103ffc005761000074630000686400006f67000084
:10400c0020540000696d0000656f0000757400009d
:10401c003a200000000a0000004d0000434c000054
:10402c005220000061730000736500007274000080
:10403c00696f00006e2e00000a0000004272000042
:10404c006f7700006e2d00006f750000742e00005d
:10405c000a00000054720000617000002043000050
:10406c006f6e0000666c000069630000742e000027
:10407c000a000000496c00006c65000067610000dc
:10408c006c200000436f00006e6400006974000037
:10409c00696f00006e2e00000a000000436f0000e4
:1040ac006e660000696700007572000061740000a4
:1040bc00696f00006e2000004d690000736d0000f8
:1040cc0061740000636800002e0a000000550000b7
:1040dc006e6b00006e6f0000776e000020720000a7
:1040ec0065730000657400002e0a00000045000096
:1040fc00727200006f720000207400007261000088
:10410c0070700000656400003a2000000050000050
:10411c00726900006f72000069740000793a000047
:10412c00200000002c200000566500006374000085
:10413c006f720000206e0000756d0000626500005b
:10414c00723a0000200000000a0a00000000000083
:10415c000a0a0000596f000075720000206300000d
:10416c006c6f0000636b000020630000686f000040
:10417c00696300006520000066610000696c000046
:10418c0065640000207400006f200000696e000060
:10419c0069740000696100006c6900007a650000b8
:1041ac002c20000068610000766500002073000080
:1041bc0077690000746300006865000064200000eb
:1041cc00746f0000206900006e74000065720000be
:1041dc006e6100006c2000004661000073740000ea
:1041ec0020520000432000006f7300006369000040
:1041fc006c6c0000617400006f720000202b0000da
:10420c00504c00004c2e00000a4300006865000072
:10421c00636b0000207900006f75000072200000b5
:10422c007365000074740000696e00006720000064
:10423c00666f0000722000007468000065200000aa
:10424c00274300004c4f0000434b00005f4300002d
:10425c004f4e00004649000047270000206d00002b
:10426c0061630000726f00002e0a000057610000ad
:10427c007463000068200000746800006520000072
:10428c00636f00006d700000696c000065720000c7
:10429c00206f000075740000707500007420000021
:1042ac00776900006e6400006f77000020770000d3
:1042bc00686500006e200000706900006332000029
:1042cc00345f0000636c00006f6300006b660000dd
:1042dc0072650000712e00006320000069730000fd
:1042ec00206300006f6d0000706900006c650000b9
:1042fc00642c000020610000207700006172000037
:10430c006e6900006e670000206d00006573000090
:10431c0073610000676500000a770000696c00009b
:10432c006c200000746500006c6c000020790000ab
:10433c006f75000020740000686500002073000099
:10434c00656c00006563000074650000642000006b
:10435c00766100006c75000065200000666f00003f
:10436c0072200000274300004c4f0000434b00001c
:10437c005f4300004f4e00004649000047270000f5
:10438c002e0a0000496e0000204d0000504c000029
:10439c00414200002c2000007573000065200000d5
:1043ac00507200006f6a000065630000742d0000fd
:1043bc003e420000756900006c640000204f000054
:1043cc0070740000696f00006e7300002d3e0000d9
:1043dc00507200006f6a000065630000742c0000ce
:1043ec0020740000686500006e200000636c000003
:1043fc00696300006b2000006f6e0000204d000010
:10440c00504c0000414200002043000033300000bb
:10441c002074000061620000207400006f20000016
:10442c00736500006520000069660000200a00002a
:10443c0074680000652000006d610000637200006c
:10444c006f200000697300002064000065660000a6
:10445c00696e00006564000020740000686500004f
:10446c00726500002e2000004966000020740000d8
:10447c0068650000206d000061630000726f000031
:10448c002069000073200000736500006c6500005b
:10449c0063740000696e000067200000616e00000c
:1044ac002065000078740000657200006e610000e9
:1044bc006c200000637200007973000074610000ce
:1044cc006c2000002874000068650000207000005b
:1044dc00726900006d61000072790000206f0000ad
:1044ec0073630000696c00006c610000746f000065
:1044fc00722900002c0a0000616e0000642000008c
:10450c00796f000075720000206200006f6100007e
:10451c0072640000206400006f65000073200000ce
:10452c006e6f00007420000068610000766500006a
:10453c002061000020630000727900007374000099
:10454c00616c00002c200000796f000075200000c9
:10455c00776900006c6c0000206700006574000037
:10456c002074000068690000732000006d65000075
:10457c007373000061670000652e00000a440000a0
:10458c00656c000065740000652000007468000014
:10459c00652000006d610000637200006f20000058
:1045ac0064650000666900006e69000074690000b3
:1045bc006f6e000020660000726f00006d2000001e
:1045cc0074680000652000004d5000004c41000054
:1045dc0042200000707200006f6a000065630000ea
:1045ec007420000069660000207900006f750000df
:1045fc0020770000616e000074200000746f0000d2
:10460c0020750000736500002074000068650000d0
:10461c002064000065660000617500006c74000089
:10462c00200a0000636c00006f6300006b20000028
:10463c00636800006f69000063650000206f000074
:10464c006620000046520000432000002b20000092
:10465c00504c00004c2e00000a5900006f750000f1
:10466c00206d00007573000074200000726500005e
:10467c00636f00006d700000696c00006520000025
:10468c00616e000064200000726500007072000012
:10469c006f670000726100006d20000077690000f8
:1046ac0074680000206100006e2000006170000042
:1046bc00707200006f70000072690000617400007d
:1046cc0065200000434c00004f4300004b5f00008e
:1046dc00434f00004e460000494700002063000095
:1046ec00686f00006963000065200000666f0000c1
:1046fc0072200000746800006973000020630000e1
:10470c006f64000065200000746f000020650000dd
:10471c007865000063750000746500002e0a0000c7
:10472c0000450000727200006f72000020690000ea
:10473c006e200000433a00005c65000063650000d9
:10474c0033370000323400005c70000069630000f5
:10475c00323400005f6300006f640000655f00008e
:10476c0065780000616d0000706c000065730000de
:10477c005c6c0000696200005c6300006f6d0000ff
:10478c006d6f00006e5c0000706900006332000009
:10479c00345f0000636c00006f6300006b66000008
:1047ac0072650000712e0000632000006c6900002f
:1047bc006e65000020310000393400003a20000002
:1047cc00415300005345000052540000287500006e
:1047dc00385f0000736f00007572000063650000a5
:1047ec00203c0000203800002920000066610000f9
:1047fc00696c0000656400002e0a000000000000d7
:10480c0045720000726f000072200000696e00009b
:10481c00204300003a5c0000656300006533000033
:10482c0037320000345c0000706900006332000015
:10483c00345f0000636f0000646500005f6500007a
:10484c00786100006d7000006c650000735c000006
:10485c006c690000625c0000636f00006d6d00000d
:10486c006f6e00005c700000696300003234000061
:10487c005f73000065720000696100006c2e00001f
:10488c00632000006c6900006e650000203700009a
:10489c00393a0000204900006e760000616c00007f
:1048ac0069640000205500004152000054000000d3
:1048bc003078000000050000030200000105000034
:1048cc0003020000013200001e1400000a05000063
:1048dc0003020000010500000302000001000000bb
:1048ec0050c3000030750000204e0000102700005f
:1048fc0088130000b80b0000d0070000e80300008c
:10490c00f40100002c010000c8000000640000004d
:10491c00320000001e000000140000000a0000001d
:10492c000500000003000000020000000100000070
:10493c0045720000726f000072200000696e00006a
:10494c00204300003a5c0000656300006533000002
:10495c0037320000345c00007069000063320000e4
:10496c00345f0000636f0000646500005f65000049
:10497c00786100006d7000006c650000735c0000d5
:10498c006c690000625c0000636f00006d6d0000dc
:10499c006f6e00005c700000696300003234000030
:1049ac005f73000065720000696100006c2e0000ee
:1049bc00632000006c6900006e650000203200006e
:1049cc00393400003a200000496e00007661000086
:1049dc006c69000064200000554100005254000036
:1049ec0000450000727200006f7200002069000028
:1049fc006e200000433a00005c6500006365000017
:104a0c0033370000323400005c7000006963000032
:104a1c00323400005f6300006f640000655f0000cb
:104a2c0065780000616d0000706c0000657300001b
:104a3c005c6c0000696200005c6300006f6d00003c
:104a4c006d6f00006e5c0000706900006332000046
:104a5c00345f00007365000072690000616c000037
:104a6c002e630000206c0000696e000065200000c1
:104a7c0033330000333a0000204900006e7600000a
:104a8c00616c000069640000205500004152000078
:104a9c005400000055410000525400003120000029
:104aac0070610000726900007479000020650000dc
:104abc00727200006f7200000a0000005541000085
:104acc00525400003120000066720000616d00003d
:104adc00696e00006720000065720000726f0000b4
:104aec00720a0000005500004152000054310000d1
:104afc00206f00007665000072720000756e000079
:104b0c0020650000727200006f7200000a00000045
:104b1c0045720000726f000072200000696e000088
:104b2c00204300003a5c0000656300006533000020
:104b3c0037320000345c0000706900006332000002
:104b4c00345f0000636f0000646500005f65000067
:104b5c00786100006d7000006c650000735c0000f3
:104b6c006c690000625c0000636f00006d6d0000fa
:104b7c006f6e00005c70000069630000323400004e
:104b8c005f75000061720000742e0000632000004d
:104b9c006c6900006e6500002033000034310000a9
:104bac003a200000415300005345000052540000cd
:104bbc00286600005f62000072670000203c000065
:104bcc002036000035350000333500002e3500004e
:104bdc002920000066610000696c0000656400001b
:104bec002e0a000000450000727200006f72000077
:104bfc00206900006e200000433a00005c65000054
:104c0c006365000033370000323400005c70000034
:104c1c0069630000323400005f6300006f640000c1
:104c2c00655f000065780000616d0000706c00002d
:104c3c00657300005c6c0000696200005c6300003e
:104c4c006f6d00006d6f00006e5c000070690000fd
:104c5c0063320000345f0000756100007274000064
:104c6c002e630000206c0000696e000065200000bf
:104c7c0033380000383a0000204100005353000044
:104c8c00455200005428000075330000325f0000cc
:104c9c0062610000756400005261000074650000e0
:104cac00203e00003d20000031300000303000007c
:104cbc004c29000020660000616900006c65000052
:104ccc00642e00000a0000000a4e00006576000009
:104cdc0065720000576100006e6400006572000090
:104cec00426100006e6400002e6300002c20000066
:104cfc0062750000696c0000742000006f6e00008b
:104d0c00204e00006f7600002032000030200000a2
:104d1c0032300000313400002061000074200000ab
:104d2c00303000003a320000353a000030330000d9
:104d3c000a00000033300000206d00000045000028
:104d4c00727200006f720000206900006e2000007b
:104d5c005377000069740000636800002050000065
:104d6c006f73000069740000696f00006e21000011
:104d7c000000000053500000493100002052000098
:104d8c00656300006569000076650000204f000037
:104d9c0076650000726600006c6f0000770a0000f8
:044dac000000000003
:020000040000fa
:104db000e013200010128800c6c6bf0001ceb30069
:104dc000014060007040b300c6e6b700c7c6bf0030
:104dd000014060000034a000c7e6b7006b60a90086
:104de000cea2a900c8a2a900cca2a80068e0a90090
:104df000ce62a900c862a9002ca3a800cc62a800ba
:104e000041e2a80000000600889fbe008a1f7800cb
:104e1000e7ff07000004eb00a8618800b861880084
:104e2000c8618800d861880011c0b300c0c32000e9
:104e300001487800d0c3200001487800090820000c
:104e4000f96188000a0420000a628800d1c3b30017
:104e500020c4200001487800cca2a90000a82100ad
:104e6000610020007ff30700801a26000100200067
:104e700022408000334080000201400083814800ce
:104e80002240880033408800cca2a80068c0a90056
:104e9000ce42a900c842a9002c83a800e00a200045
:104ea00033000700500d2000310007000900780092
:104eb0002f000700800a20002d000700f0032000cb
:104ec0002b000700300d20002900070008007800a3
:104ed000270007000a00780025000700d0082000fe
:104ee00023000700400120002100070000022000ed
:104ef0001f000700080078001d000700100a2000ae
:104f00001b000700800c200019000700a00d2000e6
:104f100017000700200120001500070010082000de
:104f200013000700f00c200011000700900d200076
:104f30000f000700100f20000d000700b00d20002b
:104f40000b0007000a00780009000700400a200053
:104f500007000700600a200005000700f00a200093
:104f6000030007004f0578004f04be000000060054
:104f7000cc62a800cc42a900cc62a9000080fb0052
:104f8000de0e0700cc62a80000000600cc62a8007c
:104f9000cc42a800cc62a9000080fb00d70e07001d
:104fa000cc62a80000000600889fbe0010c2b300bb
:104fb000efff07000040eb00edff0700f0c7b30074
:104fc000ebff070020c2b300e9ff07000040eb0041
:104fd000e7ff070070c0b300e5ff0700cc62a80040
:104fe000cc42a800cc62a9004881200049c1200021
:104ff0003880fb00c10e0700888f5400fcff3a0088
:10500000cc62a8004f04be0000000600804078007b
:105010000004e00001003a0011c0b300c0c320004a
:105020000148780000000600d0618800c061880057
:1050300000000600a0618800b16188000000060041
:10504000024020008000eb0040812000ccf40700eb
:1050500000000600889fbe008a1f7800ea4f5000bb
:1050600008003a0061c32000c0c320001080fb008c
:105070004300dd00910840000000eb00a0618800c3
:105080001b003700ed4f500019003200c8c320004c
:105090006ac3200049c3200098427800d461800090
:1050a000c3618000004178009a0078001900780000
:1050b000f20007009881fb006618b90080007800b4
:1050c00019014000820c7800d0c320001004e000d9
:1050d00007003200e0c3200010801000800f510054
:1050e000030034004318dd001a0d4000800ceb0073
:1050f0004f0578004f04be0000000600889fbe00e8
:1051000080047800104078000004e00007003200be
:105110000044eb00cfff07000844e8000880fb00d4
:1051200060c07c000004e000faff3a004f04be00bb
:105130000000060000037800f0072000800f5300f5
:1051400057003e000100e00002003d000101410067
:105150008000eb000280400004042000840f500017
:1051600001003400010152000200e0004c00340054
:1051700001407800824278008180fb00c308de0095
:10518000c708dd0042812000828040000682400086
:10519000e74060001c00320080c0b30001435000b3
:1051a0000681fb00c0c12000e243780086cf520098
:1051b000050031008580fb0081005100f00f2000c8
:1051c0000180de0080c36300e18f510004003200e3
:1051d00005003900e28f510007003a000500370052
:1051e00014ca73000400370007c0ea00144a6000c4
:1051f0000100370014ca6b0086cf52002800390026
:1052000086c252000408b000e7cf520013003600f7
:10521000e28f510006003a0014caea000408b00008
:10522000e8c25200e7cf52000c003600faff370008
:10523000830078000100a2000100ea000100700074
:105240004f00de000040e900004a78000408b0008a
:10525000e8c25200e7cf5200fbff3e000504e00029
:105260000f003200e780620040c1200061407800fa
:10527000e18f51000400320005003900e28f510037
:1052800007003a0005003700144a70000400370098
:1052900000c0ea00144a600001003700144a6800a8
:1052a00000000600889fbe008a9fbe008c1f780009
:1052b00000067800810478000205be00040478002e
:1052c000840178002c0107008b8044008100e900f4
:1052d000880178000a0178000c0078002601070098
:1052e000880178000b017800890078000c007800b4
:1052f00090ff07000a0046000000e90088017800de
:105300000b017800890078008aff07004f067800bb
:105310004f05be004f04be0000000600889fbe007f
:105320008a9fbe008c1f78000106780083057800f4
:105330000405780082004000810f500009003d0004
:105340000004be008a0178000b0178008c00780010
:105350000800780077ff07000804e800890f540070
:10536000f8ff3a004f0678004f05be004f04be001c
:1053700000000600800178000000e0003e003500db
:10538000e0c32000908f51003b003d000100e00091
:105390003900350000c42000908f500036003d00d9
:1053a000e10f51000400320013003900e20f5100f8
:1053b00031003a002100370082002000811f780070
:1053c000110009008200d80000017800cf007800a9
:1053d0004711dd00028141004381200067806000a9
:1053e000110020008008dd0062c0790001407000db
:1053f00000f179002000370082002000811f780032
:10540000110009008200d80000017800cf00780068
:105410004711dd000281410043812000e7806000e8
:10542000100020000100dd0000c0ea00e2c07900a9
:105430000140600000f179000f0037008200200079
:10544000811f7800110009008200d8000001780057
:10545000cf0078004711dd00028141004381200028
:1054600067806000110020008008dd0062c07900c4
:105470000140680000f1790000000600ee87470057
:10548000889fbe008a9fbe008c9fbe008e1f780042
:10549000f0b79f0081bf9f0082407800030678002c
:1054a0000407780085467800e0c320007fb19700ac
:1054b000900f11005e00340000c420008fb99700e7
:1054c000908f11005a0034000585fb0005407800dc
:1054d00062c0b3000440bc00ffb1970002814100ec
:1054e0000201e900520033004350dd000fba97007b
:1054f000000042000000e9004d0033000140780048
:1055000052c0b3000440bc00e2b79f008041eb00f2
:10551000e3e79f00050037006fe29700e54f520078
:1055200002003a008045eb0006003700efe09700ec
:105530000100fb006fb1970000004100e11c290051
:10554000e0c57800efe197008301fb00d3b79f002f
:1055500003d0b9007fb2970000004200c0b79f009f
:105560000fbc97008004eb000b08a3001200320070
:10557000e1cf560007003a000c017800880078005f
:10558000ffb197005fb297000480410079ff0700e8
:105590001c00370009d0b9000fb997008000410006
:1055a0000c0278008a0178000a0178004fb0970059
:1055b0005aff0700130037008c0f5700110032000c
:1055c000e1cf560007003a000e017800880078000d
:1055d000ffb197005fb297000480410065ff0700ac
:1055e0000800370009d0b9000fb9970080004100ca
:1055f0000e0278008a0178000a0178004fb0970007
:1056000046ff07000b80fb008005d1008904e800fd
:105610000804e800e88f5400d3ff3a00efe1970058
:105620008341e800e3e79f00e5cf5100baff340073
:105630004f0778004f06be004f05be004f04be0066
:10564000ef00b10000000600e6874700889fbe001b
:105650008a9fbe008c9fbe008e1f78008004780059
:10566000010578008205780084bf9f000007eb00e9
:105670008180510001003b008100ea000980550053
:1056800001003b000000ea00808f50000100340060
:105690001e0020000e00e000060032000b00780023
:1056a0008305780080017800090078008a0478007a
:1056b00000057800898f550006003d000a0078003b
:1056c0000305780080017800090078008b047800d9
:1056d00080057800898655000a86510001003b004c
:1056e0000c06ea0022002000110009008206d80002
:1056f0000004780010002000f0b79f008a8f51004e
:1057000002003c000080eb00f0b79f00898f55003d
:10571000130035000e00e000050032000fb99700bd
:10572000890078000a00780012ff070004003700a3
:105730000fb997008a007800090078000dff070074
:105740000c04540003003b007fb0970000054500a7
:105750000d0444008904e800898f5500edff3d00e9
:105760004f0778004f06be004f05be004f04be0035
:105770006f00b10000000600020140000201e900d4
:105780000302780081017800afff070000000600e7
:10579000881f7800180020009840880008027800d0
:1057a0009300200082072000010220000004200056
:1057b000a5ff070008027800a30020008207200050
:1057c00011022000000420009fff0700080278005b
:1057d0008300200082072000f10120000004200047
:1057e00099ff070008017800710020008007200061
:1057f000e0fe07000801780071002000700720001b
:10580000dcfe07000801780071002000600720001e
:10581000d8fe070008017800710020005007200022
:10582000d4fe070008017800710020004007200026
:10583000d0fe07000801780071002000300720002a
:10584000ccfe07000801780071002000200720002e
:10585000c8fe070008017800710020001007200032
:10586000c4fe0700080178008100200080072000a6
:10587000c0fe0700080178008100200070072000aa
:10588000bcfe0700080178008100200060072000ae
:10589000b8fe0700080178008100200050072000b2
:1058a000b4fe0700080178008100200040072000b6
:1058b000b0fe0700080178008100200030072000ba
:1058c000acfe0700080178008100200020072000be
:1058d000a8fe070008017800910020008007200042
:1058e000a4fe070008017800910020007007200046
:1058f000a0fe07000801780091002000600720004a
:105900009cfe07000801780091002000500720004d
:1059100098fe070008017800910020004007200051
:1059200094fe070008017800910020003007200055
:1059300090fe070008017800a100200080072000e9
:105940008cfe070008017800a100200070072000ed
:1059500088fe070008017800a100200060072000f1
:1059600084fe070008017800a100200050072000f5
:1059700080fe070008017800a100200040072000f9
:105980007cfe070008017800b1002000800720009d
:1059900078fe070008017800b100200070072000a1
:1059a00074fe070008017800b100200060072000a5
:1059b00070fe070008017800b100200050072000a9
:1059c0006cfe070008017800c1002000800720005d
:1059d00068fe070008017800c10020007007200061
:1059e00064fe070008017800c10020006007200065
:1059f00060fe070008017800d10020008007200029
:105a00005cfe070008017800d1002000700720002c
:105a100058fe070008017800e10020008007200000
:105a200054fe07004f04780000000600881f78002d
:105a3000180020009840880088017800f2012000ba
:105a40006100200000042000bafd070088017800f2
:105a5000f20120006100200010042000b5fd0700c5
:105a600088017800f201200061002000f00320008e
:105a7000b0fd07000801780051002000100420004c
:105a80003cfe07000801780061002000100420009f
:105a900038fe070008017800710020001004200083
:105aa00034fe070008017800810020001004200067
:105ab00030fe07000801780091002000100420004b
:105ac0002cfe07000801780061002000200420005f
:105ad00028fe070008017800710020002004200043
:105ae00024fe070008017800810020002004200027
:105af00020fe07000801780091002000200420000b
:105b00001cfe07000801780071002000300420000e
:105b100018fe0700080178008100200030042000f2
:105b200014fe0700080178009100200030042000d6
:105b300010fe0700080178008100200040042000ca
:105b40000cfe0700080178009100200040042000ae
:105b500008fe070008017800910020005004200092
:105b600004fe07000801780051002000f003200027
:105b700000fe07000801780061002000f00320000b
:105b8000fcfd07000801780071002000f0032000f0
:105b9000f8fd07000801780081002000f0032000d4
:105ba000f4fd07000801780091002000f0032000b8
:105bb000f0fd07000801780071002000e0032000dc
:105bc000ecfd07000801780071002000e0032000d0
:105bd000e8fd07000801780081002000e0032000b4
:105be000e4fd07000801780091002000e003200098
:105bf000e0fd07000801780071002000d0032000bc
:105c0000dcfd07000801780081002000d00320009f
:105c1000d8fd07000801780091002000d003200083
:105c2000d4fd07000801780081002000c003200097
:105c3000d0fd07000801780091002000c00320007b
:105c4000ccfd07000801780091002000b00320007f
:105c5000c8fd070008017800510020000004200062
:105c6000c4fd07000801780061002000e003200067
:105c7000c0fd07004f04780000000600881f780070
:105c80001800200098408800880178000203200056
:105c90000102200000042000b7fe07008801780000
:105ca00002032000f101200000042000b2fe0700e2
:105cb0008801780002032000110220000004200067
:105cc000adfe070008017800c10120000007200098
:105cd000a8fd070008017800d1012000000720007e
:105ce000a4fd070008017800e10120000007200062
:105cf000a0fd070008017800f10120000007200046
:105d00009cfd070008017800010220000007200028
:105d100098fd07000801780011022000000720000c
:105d200094fd0700080178002102200000072000f0
:105d300090fd0700080178003102200000072000d4
:105d40008cfd0700080178004102200000072000b8
:105d500088fd070008017800d1012000100720000d
:105d600084fd070008017800e101200010072000f1
:105d700080fd070008017800f101200010072000d5
:105d80007cfd0700080178000102200010072000b8
:105d900078fd07000801780011022000100720009c
:105da00074fd070008017800210220001007200080
:105db00070fd070008017800310220001007200064
:105dc0006cfd070008017800e10120002007200099
:105dd00068fd070008017800f1012000200720007d
:105de00064fd070008017800010220002007200060
:105df00060fd070008017800110220002007200044
:105e00005cfd070008017800210220002007200027
:105e100058fd070008017800f1012000300720003c
:105e200054fd07000801780001022000300720001f
:105e300050fd070008017800110220003007200003
:105e40004cfd0700080178000102200040072000f7
:105e500048fd07004f0478000000060020002000e5
:105e600090408800130020008201200001022000e1
:105e7000f0032000affc0700130020008201200087
:105e80000102200000042000aafc070013002000eb
:105e9000820120000102200010042000a5fc070060
:105ea0001200200081032000c003200031fd070004
:105eb0001200200081032000d00320002dfd0700e8
:105ec0001200200081032000e003200029fd0700cc
:105ed0001200200081032000f003200025fd0700b0
:105ee00012002000810320000004200021fd070093
:105ef0001200200081032000100420001dfd070077
:105f000012002000810320002004200019fd07005a
:105f100012002000810320003004200015fd07003e
:105f200012002000810320004004200011fd070022
:105f30001200200091032000d00320000dfd070077
:105f40001200200091032000e003200009fd07005b
:105f50001200200091032000f003200005fd07003f
:105f600012002000910320000004200001fd070022
:105f7000120020009103200010042000fdfc070007
:105f8000120020009103200020042000f9fc0700eb
:105f9000120020009103200030042000f5fc0700cf
:105fa00012002000a1032000e0032000f1fc070004
:105fb00012002000a1032000f0032000edfc0700e8
:105fc00012002000a103200000042000e9fc0700cb
:105fd00012002000a103200010042000e5fc0700af
:105fe00012002000a103200020042000e1fc070093
:105ff00012002000b1032000f0032000ddfc0700a8
:1060000012002000b103200000042000d9fc07008a
:1060100012002000b103200010042000d5fc07006e
:1060200012002000c103200000042000d1fc070062
:1060300000000600881f78001800200098408800a3
:1060400088017800020320000102200000012000e6
:10605000c9fd07008801780002032000f10120003b
:1060600000012000c4fd0700880178000203200021
:106070001102200000012000bffd07000801780088
:10608000c1012000f0002000bafc070008017800e0
:10609000d1012000f0002000b6fc070008017800c4
:1060a000e1012000f0002000b2fc070008017800a8
:1060b000f1012000f0002000aefc0700080178008c
:1060c00001022000f0002000aafc0700080178006f
:1060d00011022000f0002000a6fc07000801780053
:1060e00021022000f0002000a2fc07000801780037
:1060f00031022000f00020009efc0700080178001b
:1061000041022000f00020009afc070008017800fe
:10611000d1012000e000200096fc07000801780073
:10612000e1012000e000200092fc07000801780057
:10613000f1012000e00020008efc0700080178003b
:1061400001022000e00020008afc0700080178001e
:1061500011022000e000200086fc07000801780002
:1061600021022000e000200082fc070008017800e6
:1061700031022000e00020007efc070008017800ca
:10618000e1012000d00020007afc0700080178001f
:10619000f1012000d000200076fc07000801780003
:1061a00001022000d000200072fc070008017800e6
:1061b00011022000d00020006efc070008017800ca
:1061c00021022000d00020006afc070008017800ae
:1061d000f1012000c000200066fc070008017800e3
:1061e00001022000c000200062fc070008017800c6
:1061f00011022000c00020005efc070008017800aa
:1062000001022000b00020005afc07004f04780073
:1062100000000600200020009040880014002000ac
:1062200083032000820720000102200000042000d8
:1062300005fd0700140020009303200082072000c2
:106240001102200000042000fffc070014002000c1
:106250007303200082072000f101200000042000c9
:10626000f9fc070012002000b10320009007200075
:1062700040fc070012002000b1032000800720002e
:106280003cfc070012002000b10320007007200032
:1062900038fc070012002000b10320006007200036
:1062a00034fc070012002000b1032000500720003a
:1062b00030fc070012002000b1032000400720003e
:1062c0002cfc070012002000b10320003007200042
:1062d00028fc070012002000b10320002007200046
:1062e00024fc070012002000a103200090072000da
:1062f00020fc070012002000a103200080072000de
:106300001cfc070012002000a103200070072000e1
:1063100018fc070012002000a103200060072000e5
:1063200014fc070012002000a103200050072000e9
:1063300010fc070012002000a103200040072000ed
:106340000cfc070012002000a103200030072000f1
:1063500008fc070012002000910320009007200095
:1063600004fc070012002000910320008007200099
:1063700000fc07001200200091032000700720009d
:10638000fcfb0700120020009103200060072000a2
:10639000f8fb0700120020009103200050072000a6
:1063a000f4fb0700120020009103200040072000aa
:1063b000f0fb07001200200081032000900720005e
:1063c000ecfb070012002000810320008007200062
:1063d000e8fb070012002000810320007007200066
:1063e000e4fb07001200200081032000600720006a
:1063f000e0fb07001200200081032000500720006e
:10640000dcfb070012002000710320009007200031
:10641000d8fb070012002000710320008007200035
:10642000d4fb070012002000710320007007200039
:10643000d0fb07001200200071032000600720003d
:10644000ccfb070012002000610320009007200011
:10645000c8fb070012002000610320008007200015
:10646000c4fb070012002000610320007007200019
:10647000c0fb0700120020005103200090072000fd
:10648000bcfb070012002000510320008007200001
:10649000b8fb0700120020004103200090072000f5
:1064a000b4fb070000000600200020009040880098
:1064b0001400200013022000020420009103200099
:1064c0008000200060fc0700140020000302200070
:1064d0000204200081032000800020005afc0700f5
:1064e00014002000f30120000204200071032000aa
:1064f0008000200054fc07001200200061032000ef
:10650000400020009bfb07001200200071032000c8
:106510004000200097fb07001200200081032000ac
:106520004000200093fb0700120020009103200090
:10653000400020008ffb070012002000a103200074
:10654000400020008bfb070012002000b103200058
:106550004000200087fb070012002000c10320003c
:106560004000200083fb07001200200051032000a0
:10657000400020007ffb07001200200041032000a4
:10658000400020007bfb0700120020006103200078
:106590005000200077fb070012002000710320004c
:1065a0005000200073fb0700120020008103200030
:1065b000500020006ffb0700120020009103200014
:1065c000500020006bfb070012002000a1032000f8
:1065d0005000200067fb070012002000b1032000dc
:1065e0005000200063fb070012002000c1032000c0
:1065f000500020005ffb0700120020005103200024
:10660000500020005bfb0700120020006103200007
:106610006000200057fb07001200200071032000db
:106620006000200053fb07001200200081032000bf
:10663000600020004ffb07001200200091032000a3
:10664000600020004bfb070012002000a103200087
:106650006000200047fb070012002000b10320006b
:106660006000200043fb070012002000c10320004f
:10667000600020003ffb0700120020007103200093
:10668000700020003bfb0700120020008103200067
:106690007000200037fb070012002000910320004b
:1066a0007000200033fb070012002000a10320002f
:1066b000700020002ffb070012002000b103200013
:1066c000700020002bfb070012002000c1032000f7
:1066d0007000200027fb070012002000810320002b
:1066e0008000200023fb07001200200091032000ff
:1066f000800020001ffb070012002000a1032000e3
:10670000800020001bfb070012002000b1032000c6
:106710008000200017fb070012002000c1032000aa
:106720008000200013fb07001200200091032000ce
:10673000900020000ffb070012002000a1032000a2
:10674000900020000bfb070012002000b103200086
:106750009000200007fb070012002000c10320006a
:106760009000200003fb070012002000a10320007e
:10677000a0002000fffa070012002000b103200053
:10678000a0002000fbfa070012002000c103200037
:10679000a0002000f7fa070012002000b10320003b
:1067a000b0002000f3fa070012002000c10320000f
:1067b000b0002000effa070012002000c103200003
:1067c000c0002000ebfa070000000600881f7800d8
:1067d000180020009840880008027800130220006a
:1067e00002042000710020008000200096fb0700ba
:1067f000080278000302200002042000610020004b
:106800008000200090fb070008027800f3012000c0
:106810000204200051002000800020008afb0700b5
:10682000080178002100200040002000d1fa070074
:10683000080178003100200040002000cdfa070058
:10684000080178004100200040002000c9fa07003c
:10685000080178005100200040002000c5fa070020
:10686000080178006100200040002000c1fa070004
:10687000080178007100200040002000bdfa0700e8
:10688000080178008100200040002000b9fa0700cc
:10689000080178009100200040002000b5fa0700b0
:1068a00008017800a100200040002000b1fa070094
:1068b000080178002100200050002000adfa0700f8
:1068c000080178003100200050002000a9fa0700dc
:1068d000080178004100200050002000a5fa0700c0
:1068e000080178005100200050002000a1fa0700a4
:1068f0000801780061002000500020009dfa070088
:1069000008017800710020005000200099fa07006b
:1069100008017800810020005000200095fa07004f
:1069200008017800910020005000200091fa070033
:106930000801780021002000600020008dfa070087
:1069400008017800310020006000200089fa07006b
:1069500008017800410020006000200085fa07004f
:1069600008017800510020006000200081fa070033
:106970000801780061002000600020007dfa070017
:1069800008017800710020006000200079fa0700fb
:1069900008017800810020006000200075fa0700df
:1069a00008017800210020007000200071fa070023
:1069b0000801780031002000700020006dfa070007
:1069c00008017800410020007000200069fa0700eb
:1069d00008017800510020007000200065fa0700cf
:1069e00008017800610020007000200061fa0700b3
:1069f0000801780071002000700020005dfa070097
:106a000008017800210020008000200059fa0700ca
:106a100008017800310020008000200055fa0700ae
:106a200008017800410020008000200051fa070092
:106a30000801780051002000800020004dfa070076
:106a400008017800610020008000200049fa07005a
:106a500008017800210020009000200045fa07007e
:106a600008017800310020009000200041fa070062
:106a70000801780041002000900020003dfa070046
:106a800008017800510020009000200039fa07002a
:106a90000801780021002000a000200035fa07003e
:106aa0000801780031002000a000200031fa070022
:106ab0000801780041002000a00020002dfa070006
:106ac0000801780021002000b000200029fa07000a
:106ad0000801780031002000b000200025fa0700ee
:106ae0000801780021002000c000200021fa0700e2
:106af0004f04780000000600889fbe0080047800e4
:106b000098408000e10f540008003a000103200083
:106b10002003200047f9070020c0b3003bf907001d
:106b20000900780075f9070009003700e20f5400ea
:106b300007003a00a1002000200320003df90700d3
:106b40000840780031f90700090078006bf9070068
:106b50004f04be000000060010c0b3002bf9070070
:106b6000110020001000200032f90700906c29006d
:106b700062f9070020c0b30024f90700e1002000fb
:106b8000000220002bf90700f06d29005bf90700d7
:106b9000810220000002200026f90700506e290023
:106ba00056f907001400200033012000a201200044
:106bb000c1002000e0012000baf907000000060033
:106bc00010c0b30011f907001100200010002000d0
:106bd00018f90700906c290048f9070020c0b3009d
:106be0000af90700e10020000002200011f9070067
:106bf000f06d290041f90700810220000002200009
:106c00000cf90700506e29003cf907001400200021
:106c100033012000a2012000c10020002004200038
:106c2000a0f907000000060010c0b300f7f8070045
:106c30001100200010002000fef80700906c2900d1
:106c40002ef9070020c0b300f0f80700e100200093
:106c500000022000f7f80700f06d290027f907006f
:106c60008102200000022000f2f80700506e290087
:106c700022f907001400200033012000a2012000a7
:106c800061022000e001200086f9070000000600f4
:106c900010c0b300ddf80700110020001000200034
:106ca000e4f80700906c290014f9070020c0b30035
:106cb000d6f80700e100200000022000ddf8070000
:106cc000f06d29000df9070081022000000220006c
:106cd000d8f80700506e290008f9070014002000ba
:106ce00033012000a20120006102200020042000c6
:106cf0006cf90700000006000004e0000300320009
:106d000070cab3009af807000200370060cab300e7
:106d100097f8070000000600889fbe008a9fbe000b
:106d2000b20607005902070000102e0001002000e3
:106d3000190707006880a900c802a8002c43a80012
:106d400068a0a900c822a8002c63a8006980a90037
:106d5000c9c2a8002d43a80013030700a0662a009b
:106d60005605070028f807007bff07008ef807008c
:106d70008004eb000a2d21003b012000cbc2bf00a4
:106d80000068a300d0003200e18f540038003200c8
:106d900005003900e28f540067003200e38f540091
:106da000d4003a0096003700cac2bf000008a30012
:106db00011003a00007d200001002000a9eb07002f
:106dc0002040800031408000d007b0000180b0003a
:106dd0002040880031408800cac2bf000008a300dc
:106de0000500320096f8070075ff07006ef80700ef
:106df00019002000010037008004eb00cac2bf0068
:106e000062446000bb003a00007d200001002000c9
:106e100094eb07002040800031408000d007b00094
:106e20000180b0002040880031408800cac2bf0005
:106e30000018a300af00320010c0b300aeff07007f
