:020000040000fa
:08000000000e040000000000e6
:020000040000fa
:10000800020c0000060c00000a0c00000e0c000098
:10001800120c0000160c00001a0c00001e0c000048
:10002800220c0000260c00002a0c00002e0c0000f8
:10003800320c0000360c00003a0c00003e0c0000a8
:10004800420c0000460c00004a0c00004e0c000058
:10005800520c0000560c00005a0c00005e0c000008
:10006800620c0000660c00006a0c00006e0c0000b8
:10007800720c0000760c00007a0c00007e0c000068
:10008800820c0000860c00008a0c00008e0c000018
:10009800920c0000960c00009a0c00009e0c0000c8
:1000a800a20c0000a60c0000aa0c0000ae0c000078
:1000b800b20c0000b60c0000ba0c0000be0c000028
:1000c800c20c0000c60c0000ca0c0000ce0c0000d8
:1000d800d20c0000d60c0000da0c0000de0c000088
:1000e800e20c0000e60c0000ea0c0000ee0c000038
:1000f800f20c0000f60c0000fa0c0000fe0c0000e8
:10010800020d0000060d00000a0d00000e0d000093
:10011800120d0000160d00001a0d00001e0d000043
:10012800220d0000260d00002a0d00002e0d0000f3
:10013800320d0000360d00003a0d00003e0d0000a3
:10014800420d0000460d00004a0d00004e0d000053
:10015800520d0000560d00005a0d00005e0d000003
:10016800620d0000660d00006a0d00006e0d0000b3
:10017800720d0000760d00007a0d00007e0d000063
:10018800820d0000860d00008a0d00008e0d000013
:10019800920d0000960d00009a0d00009e0d0000c3
:1001a800a20d0000a60d0000aa0d0000ae0d000073
:1001b800b20d0000b60d0000ba0d0000be0d000023
:1001c800c20d0000c60d0000ca0d0000ce0d0000d3
:1001d800d20d0000d60d0000da0d0000de0d000083
:1001e800e20d0000e60d0000ea0d0000ee0d000033
:0801f800f20d0000f60d0000fd
:020000040000fa
:10020800020c0000060c00000a0c00000e0c000096
:10021800120c0000160c00001a0c00001e0c000046
:10022800220c0000260c00002a0c00002e0c0000f6
:10023800320c0000360c00003a0c00003e0c0000a6
:10024800420c0000460c00004a0c00004e0c000056
:10025800520c0000560c00005a0c00005e0c000006
:10026800620c0000660c00006a0c00006e0c0000b6
:10027800720c0000760c00007a0c00007e0c000066
:10028800820c0000860c00008a0c00008e0c000016
:10029800920c0000960c00009a0c00009e0c0000c6
:1002a800a20c0000a60c0000aa0c0000ae0c000076
:1002b800b20c0000b60c0000ba0c0000be0c000026
:1002c800c20c0000c60c0000ca0c0000ce0c0000d6
:1002d800d20c0000d60c0000da0c0000de0c000086
:1002e800e20c0000e60c0000ea0c0000ee0c000036
:1002f800f20c0000f60c0000fa0c0000fe0c0000e6
:10030800020d0000060d00000a0d00000e0d000091
:10031800120d0000160d00001a0d00001e0d000041
:10032800220d0000260d00002a0d00002e0d0000f1
:10033800320d0000360d00003a0d00003e0d0000a1
:10034800420d0000460d00004a0d00004e0d000051
:10035800520d0000560d00005a0d00005e0d000001
:10036800620d0000660d00006a0d00006e0d0000b1
:10037800720d0000760d00007a0d00007e0d000061
:10038800820d0000860d00008a0d00008e0d000011
:10039800920d0000960d00009a0d00009e0d0000c1
:1003a800a20d0000a60d0000aa0d0000ae0d000071
:1003b800b20d0000b60d0000ba0d0000be0d000021
:1003c800c20d0000c60d0000ca0d0000ce0d0000d1
:1003d800d20d0000d60d0000da0d0000de0d000081
:1003e800e20d0000e60d0000ea0d0000ee0d000031
:0803f800f20d0000f60d0000fb
:020000040000fa
:1018000002000000941b040000000000941b040070
:1018100000000000941b040000000000941b040062
:1018200000000000941b040000000000941b040052
:1018300000000000941b040000000000941b040042
:1018400000000000941b040000000000941b040032
:1018500000000000941b040000000000941b040022
:1018600000000000941b040000000000941b040012
:1018700000000000941b040000000000941b040002
:1018800000000000941b040000000000941b0400f2
:1018900000000000941b040000000000941b0400e2
:1018a00000000000941b040000000000941b0400d2
:1018b00000000000941b040000000000941b0400c2
:1018c00000000000941b040000000000941b0400b2
:1018d00000000000941b040000000000941b0400a2
:1018e00000000000941b040000000000941b040092
:1018f00000000000941b040000000000941b040082
:1019000000000000941b040000000000941b040071
:1019100000000000941b040000000000941b040061
:1019200000000000941b040000000000941b040051
:1019300000000000941b040000000000941b040041
:1019400000000000941b040000000000941b040031
:1019500000000000941b040000000000941b040021
:1019600000000000941b040000000000941b040011
:1019700000000000941b040000000000941b040001
:1019800000000000941b040000000000941b0400f1
:1019900000000000941b040000000000941b0400e1
:1019a00000000000941b040000000000941b0400d1
:1019b00000000000941b040000000000941b0400c1
:1019c00000000000941b040000000000941b0400b1
:1019d00000000000941b040000000000941b0400a1
:1019e00000000000941b040000000000941b040091
:1019f00000000000941b040000000000941b040081
:101a000000000000941b040000000000941b040070
:101a100000000000941b040000000000941b040060
:101a200000000000941b040000000000941b040050
:101a300000000000941b040000000000941b040040
:101a400000000000941b040000000000941b040030
:101a500000000000941b040000000000941b040020
:101a600000000000941b040000000000941b040010
:101a700000000000941b040000000000941b040000
:101a800000000000941b040000000000941b0400f0
:101a900000000000941b040000000000941b0400e0
:101aa00000000000941b040000000000941b0400d0
:101ab00000000000941b040000000000941b0400c0
:101ac00000000000941b040000000000941b0400b0
:101ad00000000000941b040000000000941b0400a0
:101ae00000000000941b040000000000941b040090
:101af00000000000941b040000000000941b040080
:101b000000000000941b040000000000941b04006f
:101b100000000000941b040000000000941b04005f
:101b200000000000941b040000000000941b04004f
:101b300000000000941b040000000000941b04003f
:101b400000000000941b040000000000941b04002f
:101b500000000000941b040000000000941b04001f
:101b600000000000941b040000000000941b04000f
:101b700000000000941b040000000000941b0400ff
:101b800000000000941b040000000000941b0400ef
:101b900000000000941b040000000000941b0400df
:101ba00000000000941b040000000000941b0400cf
:101bb00000000000941b040000000000941b0400bf
:101bc00000000000941b040000000000941b0400af
:101bd00000000000941b040000000000941b04009f
:101be00000000000941b040000000000941b04008f
:041bf00000000000f1
:020000040000fa
:101c00004f8120000e7f22000e018800000000009e
:101c100000012000200288000c00070000a3220021
:101c20000100200011000700000020000000e0007b
:101c3000020032000000020000000000fa29020049
:101c4000000000000040da000000fe004440a9004f
:101c5000809820000000e000030032000000200017
:101c6000a00188004440a8000000060091018800ff
:101c7000800078000000eb0015003700e280400093
:101c800032a0b4009101ba00e280400032a0b4005a
:101c90009102ba00e280400032a0b4000002eb00e2
:101ca000472bde00f507b200602ce10004003a008b
:101cb0000059eb008301e900fdff3e0004003700fe
:101cc0006128e100010032000082eb0004000700ff
:101cd0001101ba000200e000e8ff3a00000006002f
:101ce0003159ba008301e9000c0032002159ba00d1
:101cf0008301e900080032000400e00003003a001c
:101d0000e280400032a0b400f5ff370011d9ba00dc
:101d10008301e900faff3a008100e800e180400019
:101d200032a0b4000000060003f0a200889fbe00ad
:101d30008a9fbe008c1f7800040107000b0133004e
:101d40006450e1004f0032006420e1005200320094
:101d500003826c0007003b000905d0000306d00099
:101d6000820f54000c065d000200390002003200b0
:101d700089017800030678008582550004003d0043
:101d80000003fd008103fd008502ea008b8542000f
:101d9000840f720002003b0060001000e080180019
:101da0006011b8000005eb007a28e1000a00390054
:101db00006007800c75ddd00f707b2008780750078
:101dc0002d003700828171000a01780061056000f2
:101dd0008180d1000080d3008502e900f9ff3b003b
:101de000060440008784480002003b0060041400a1
:101df000e0841c000988a300070032008a8171007a
:101e000082817100610164008904d1000884d300db
:101e10008b05e800170037000978a30013003a008b
:101e20000b00e000130034008b05e90008044400b7
:101e300089844c000a4474000978a3000d003a001c
:101e40000b00e000070034008b05e90008044400a3
:101e500089844c0001003a000b0020000978a3009f
:101e6000f7ff32000001eb000200370082817100b1
:101e70000a0178007a0007000cf0a70001f0a0002a
:101e8000c30037006420e10002003a00838f6c0039
:101e9000c30033000801be000200be00bc003700d2
:101ea000889fbe008a9fbe008c1f7800a700070095
:101eb000ae00330003866c006450e1002e00320057
:101ec0006420e100330032006150e1002f00320055
:101ed0006120e1003100320085855500eb07b0003c
:101ee0000900200008042000050037000804440011
:101ef00089844c000a0031000603430087834b00ad
:101f00000001530081815b00f8ff33000203be0033
:101f10000800a0000804440089844c00f6ff390042
:101f2000c639dd0083017300010032001300200078
:101f30008904d1000884d3000998a3000500320069
:101f40000800a7000300a0008904d1000884d30082
:101f50008b05e8008904d1000884d3000001eb0060
:101f60000281d2003e00070001f0a1000cf0a700a2
:101f700001f0a000860037006420e10088003200f4
:101f80000801be000200be00f7ff37006120e1003b
:101f9000830032006000b800f3ff3700000020002b
:101fa00001f82700f0ff3700839f68000100e00080
:101fb00002003d0060001000e08018000300e00017
:101fc00002003d0060011100e08119007700070068
:101fd0004f00e00002003b0060001000e0801800ad
:101fe0000000060014002000800037000001be0041
:101ff000410007000470a70003f0a10003f8a3004c
:1020000013003a006509b1001000320009003500e4
:102010006928e100020035000100280000000500e9
:1020200000004000818048008502e900fcff3a0082
:1020300000000600f88f4200050035008100d10045
:102040000080d3008502e800fcff3a000000060093
:102050008000eb00000005006011b8007e00370032
:1020600081002000618055000b003d000b00200026
:1020700061fe2f000100e1001d003400828171002b
:10208000610164008904d1000884d3000000e800e5
:10209000faff3a0071002000610064000300700044
:1020a000020060000900320061044400e0844c003a
:1020b0000988a500050032008b05e8006808e100ea
:1020c00002003a008904d1000884d300f20f2000f6
:1020d0000258e10005003d00c75ddd00f907b200d0
:1020e0008980750008007800000006000bf82700c2
:1020f0008b00780000000500c70ade00f107b2007f
:10210000f50fb20008003200e1cf420002003200b9
:102110000170a00024000500810f70000100320052
:102120000408050044000500810f700002003a0019
:10213000140005008502e9000000400081c048004d
:10214000fcff3b000170a000240005000004be005d
:10215000e9ff07000003be000405be000200be0048
:10216000e5ff0700844f7500000006000200be0076
:102170006450e100050036006420e10002003600f2
:102180000968a30001003a000800be000160a00039
:102190004f0678004f05be004f04be000000060049
:1021a000f0ff2f00f1ff2700f9ff37006022b80091
:1021b000060220000000d0008180d2000482d200fc
:1021c0008582d2000000a0000202520083825a00e1
:1021d000030031000202420083824a000000a10095
:1021e0000603e900f3ff3a0000000600889fbe00e6
:1021f0008a9fbe00841f7800d4ff07004f0078003c
:1022000011003300f0ff2f00838f6c0006003b00ad
:10221000040565000a00a7000800370009f0a600c1
:102220001000200008003700820f5400838f5c00ec
:10223000030039001000200001003e0000002000d3
:1022400009f0a7000000ea004f05be004f04be00e1
:102250000000e00000000600889fbe008a9fbe00cc
:1022600000827000040271000482710026003200b6
:102270000004be000200be006011b8006b0920001f
:10228000950220000182cf000a0039000541b1000b
:102290000082cf00070039000541b1000982cf005c
:1022a000040039000541b1000882cf000100390067
:1022b0000541b10005425200120032000a003b0005
:1022c00082817100610164008100d1000080d3002f
:1022d0008984d3000884d3008b05e8000442e80019
:1022e000f7ff3a00070037000804440089844c00d7
:1022f00000004800818048008b05e9000442e900a5
:10230000f9ff3a0056ff07004f05be004f04be001c
:0423100000000600c3
:020000040000fa
:10231400556e0000686100006e6400006c6500008a
:1023240064200000696e0000746500007272000091
:1023340075700000742c000020000000756e000011
:102344006b6e00006f7700006e00000050490000c3
:1023540043320000344800004a360000344700008d
:102364005035000030320000004100003100000010
:1023740041320000004100003300000044650000c9
:1023840076690000636500002049000044200000d5
:102394003d2000000020000028000000292c00003f
:1023a400207200006576000069730000696f000008
:1023b4006e200000002900000a0000000a0a000044
:1023c4002a2a00002a2a00002a2a00002a2a0000b9
:1023d4002a2a00002a2a00002a2a00002a2a0000a9
:1023e4002a2a00002a2a00002a2a00002a2a000099
:1023f4002a2a00002a2a00002a2a00002a2a000089
:102404002a2a00002a2a00002a2a00002a2a000078
:102414002a2a00002a2a00002a2a00002a2a000068
:102424002a2a00002a2a00002a2a00000a2a000078
:1024340020570000415200004e4900004e47000062
:10244400202d000020740000686900007320000043
:10245400707200006f670000726100006d20000060
:102464007761000073200000636f00006d7000004e
:10247400696c000065640000206600006f72000053
:10248400207400006865000020770000726f00006f
:102494006e670000202000002a0a00002a200000a5
:1024a40063680000697000002e200000546800007a
:1024b4006973000020700000726f000067720000f2
:1024c400616d0000206d0000617900002070000043
:1024d400726f0000647500006365000020750000e1
:1024e4006e6500007870000065630000746500008c
:1024f400642000006265000068760000696f0000d7
:1025040072210000202a00000a2a00002045000051
:1025140064690000742000007468000065200000f5
:1025240068650000616400006572000020660000b8
:10253400696c000065730000207400006f200000c7
:10254400707200006f700000657200006c7900000a
:102554002064000065660000696e000065200000cc
:10256400746800006973000020630000686900005b
:10257400702000002a0a00002a200000616e00007a
:1025840064200000746f0000206900006e73000076
:102594007572000065200000636f00007272000015
:1025a40065630000742000006f7000006572000015
:1025b40061740000696f00006e2e0000202000008e
:1025c4002020000020200000202000002020000007
:1025d40020200000202000002020000020200000f7
:1025e400202a00000a2a00002020000020200000e9
:1025f40020200000202000002020000020200000d7
:1026040020200000202000002020000020200000c6
:1026140020200000202000002020000020200000b6
:1026240020200000202000002020000020200000a6
:102634002020000020200000202000002020000096
:102644002020000020200000202000002020000086
:102654002a0a00002a2000004e4f000054450000c2
:102664003a200000496600002074000068690000f8
:10267400732000007761000073200000636f000086
:102684006d700000696c0000656400002066000045
:102694006f72000020740000686500002063000071
:1026a4006f72000072650000637400002063000014
:1026b40068690000702c000020200000202a00001f
:1026c4000a2a0000206100006e640000206f0000f0
:1026d4006e6c0000792000006f63000063750000d9
:1026e400727300002061000074200000706f00000d
:1026f40077650000722d00006f6e00002028000036
:102704006e6f0000742000006475000072690000a0
:102714006e67000020610000204d0000434c000063
:102724005220000020200000202000002a0a00007f
:102734002a200000726500007365000074290000ff
:102744002c200000766500007269000066790000a4
:1027540020740000686100007420000041560000ed
:1027640044440000206100006e6400002041000029
:1027740056530000532000006172000065200000e1
:10278400636f00006e6e00006563000074650000f6
:10279400642e000020200000202a00000a2a0000e5
:1027a400204f00006e2000007468000065200000c7
:1027b4005049000043320000344800003332000026
:1027c4004750000032300000322c0000206e000020
:1027d4006f740000206300006f6e00006e650000df
:1027e40063740000696e0000672000004156000019
:1027f400444400002020000020200000202000008d
:1028040020200000202000002a0a00002a200000c6
:10281400707200006f64000075630000657300004f
:102824002074000068690000732000006d650000da
:102834007373000061670000652000006f6e000084
:102844006c7900002061000074200000706f0000ab
:1028540077650000722d0000757000002e200000c6
:102864002020000020200000202000002020000064
:1028740020200000202a00000a2a00002a2a000042
:102884002a2a00002a2a00002a2a00002a2a0000f4
:102894002a2a00002a2a00002a2a00002a2a0000e4
:1028a4002a2a00002a2a00002a2a00002a2a0000d4
:1028b4002a2a00002a2a00002a2a00002a2a0000c4
:1028c4002a2a00002a2a00002a2a00002a2a0000b4
:1028d4002a2a00002a2a00002a2a00002a2a0000a4
:1028e4002a2a00002a0a0000004600006173000042
:1028f4007420000052430000204f00007363000066
:102904000a000000466100007374000020520000b9
:10291400432000004f73000063200000776900002b
:1029240074680000205000004c4c00000a000000b5
:1029340050720000696d000061720000792000008f
:102944004f7300006320000028580000542c00003e
:1029540020480000532c00002045000043290000bb
:102964000a00000050720000696d000061720000ee
:10297400792000004f7300006320000028580000f5
:10298400542c000020480000532c00002045000077
:1029940043290000207700006974000068200000cb
:1029a400504c00004c0a0000005300006563000016
:1029b4006f6e00006461000072790000204f000017
:1029c400736300000a0000004c6f000077200000d1
:1029d400506f000077650000722000005243000031
:1029e400204f0000736300000a00000046610000ed
:1029f4007374000020520000432000004f73000055
:102a0400632f0000313600000a0000004661000018
:102a14007374000020520000432000004f73000034
:102a2400632f00004e0a0000005500006e6b00008a
:102a34006e6f0000776e0000206f0000736300006b
:102a4400696c00006c610000746f0000722000006b
:102a540074790000706500002e0000000a44000034
:102a6400657600006963000065200000686100006d
:102a74007320000062650000656e0000206900009c
:102a84006e200000736c000065650000702000007b
:102a94006d6f0000646500000a0000000a44000035
:102aa400657600006963000065200000686100002d
:102ab4007320000062650000656e0000206900005c
:102ac4006e200000696400006c650000206d000049
:102ad4006f640000650a0000000a000052650000ef
:102ae40073650000742000006361000075730000ca
:102af400653a000020000000506f00007765000078
:102b0400722d00006f6e00002e0a000000530000ba
:102b14006f66000074770000617200006520000099
:102b24005265000073650000742e00000a00000066
:102b34005761000074630000686400006f67000060
:102b440020540000696d0000656f0000757400007a
:102b54003a200000000a0000004d0000434c000031
:102b6400522000006173000073650000727400005d
:102b7400696f00006e2e00000a000000427200001f
:102b84006f7700006e2d00006f750000742e00003a
:102b94000a0000005472000061700000204300002d
:102ba4006f6e0000666c000069630000742e000004
:102bb4000a000000496c00006c65000067610000b9
:102bc4006c200000436f00006e6400006974000014
:102bd400696f00006e2e00000a000000436f0000c1
:102be4006e66000069670000757200006174000081
:102bf400696f00006e2000004d690000736d0000d5
:102c040061740000636800002e0a00000055000093
:102c14006e6b00006e6f0000776e00002072000083
:102c240065730000657400002e0a00000045000072
:102c3400727200006f720000207400007261000064
:102c440070700000656400003a200000005000002d
:102c5400726900006f72000069740000793a000024
:102c6400200000002c200000566500006374000062
:102c74006f720000206e0000756d00006265000038
:102c8400723a0000200000000a0a0000004500001b
:102c9400727200006f720000206900006e20000054
:102ca400433a00002f6500006365000033370000dd
:102cb400323400002f7000006963000032340000d9
:102cc4006c690000625f0000616c00006c2f000002
:102cd4006c690000622f000073720000632f000013
:102ce4007069000063320000345f000075740000f6
:102cf400696c00002e630000206c0000696e000007
:102d04006520000034360000393a000020410000fc
:102d14005353000045520000542800007531000050
:102d2400365f00006272000067680000203c00000b
:102d34003d20000031290000206600006169000088
:102d44006c650000642e00000a000000457200005b
:102d5400726f000072200000696e000020430000c2
:102d64003a2f00006563000065330000373200002d
:102d7400342f00007069000063320000346c0000de
:102d8400696200005f6100006c6c00002f6c000041
:102d9400696200002f730000726300002f7000004e
:102da40069630000323400005f750000746900003c
:102db4006c2e0000632000006c6900006e6500004a
:102dc40020340000373500003a2000004153000051
:102dd4005345000052540000286600005f62000062
:102de40072670000203c00002036000035350000ea
:102df400333500002e3500002920000066610000f4
:102e0400696c0000656400002e0a000000000000e8
:102e14005541000052540000312000007061000050
:102e2400726900007479000020650000727200006d
:102e34006f7200000a000000554100005254000067
:102e44003120000066720000616d0000696e0000b0
:102e54006720000065720000726f0000720a0000b3
:102e6400005500004152000054310000206f000062
:102e74007665000072720000756e00002065000027
:102e8400727200006f7200000a00000045720000b8
:102e9400726f000072200000696e00002043000081
:102ea4003a2f0000656300006533000037320000ec
:102eb400342f00007069000063320000346c00009d
:102ec400696200005f6100006c6c00002f6c000000
:102ed400696200002f730000726300002f7000000d
:102ee40069630000323400005f7500006172000005
:102ef400742e0000632000006c6900006e65000001
:102f040020330000353200003a2000004153000015
:102f1400534500005254000028750000333200006d
:102f24005f6200006175000064520000617400007b
:102f3400652000003e3d00002031000030300000dc
:102f4400304c00002920000066610000696c00001c
:102f5400656400002e0a0000005500004152000084
:102f64005432000020700000617200006974000097
:102f74007920000065720000726f0000720a000080
:102f84000055000041520000543200002066000049
:102f9400726100006d6900006e670000206500002a
:102fa400727200006f7200000a00000055410000b8
:102fb40052540000322000006f7600006572000059
:102fc400727500006e20000065720000726f0000d0
:102fd400720a000000450000727200006f72000067
:102fe400206900006e200000433a00002f650000b5
:102ff4006365000033370000323400002f70000096
:1030040069630000323400006c690000625f0000f4
:10301400616c00006c2f00006c690000622f0000de
:1030240073720000632f00007069000063320000b7
:10303400345f000075610000727400002e630000ac
:10304400206c0000696e000065200000373300002a
:10305400373a00002041000053530000455200005d
:103064005428000075330000325f000062610000e4
:10307400756400005261000074650000203e000089
:103084003d20000031300000303000004c290000a9
:1030940020660000616900006c650000642e000079
:1030a4000a00000045720000726f000072200000e8
:1030b400696e0000204300003a2f000065630000a1
:1030c4006533000037320000342f000070690000bf
:1030d40063320000346c0000696200005f6100002c
:1030e4006c6c00002f6c0000696200002f730000fc
:1030f400726300002f700000696300003234000026
:103104005f73000065720000696100006c2e0000ae
:10311400632000006c6900006e6500002038000028
:10312400303a0000204900006e760000616c000017
:103134006964000020550000415200005400000062
:103144003078000000450000727200006f720000c9
:10315400206900006e200000433a00002f65000043
:103164006365000033370000323400002f70000024
:1031740069630000323400006c690000625f000083
:10318400616c00006c2f00006c690000622f00006d
:1031940073720000632f0000706900006332000046
:1031a400345f00007365000072690000616c000008
:1031b4002e630000206c0000696e00006520000092
:1031c40032390000353a0000204900006e760000d4
:1031d400616c000069640000205500004152000049
:1031e4005400000045720000726f0000722000005d
:1031f400696e0000204300003a2f00006563000060
:103204006533000037320000342f0000706900007d
:1032140063320000346c0000696200005f610000ea
:103224006c6c00002f6c0000696200002f730000ba
:10323400726300002f7000006963000032340000e4
:103244005f73000065720000696100006c2e00006d
:10325400632000006c6900006e65000020330000ec
:10326400333400003a200000496e0000766100000b
:103274006c690000642000005541000052540000b5
:103284000000000050c3000030750000204e000014
:103294001027000088130000b80b0000d0070000be
:1032a400e8030000f40100002c010000c800000045
:1032b40064000000320000001e0000001400000042
:1032c4000a000000050000000300000002000000e6
:1032d400010000000503000002010000321e00008e
:1032e400140a0000050300000201000005030000a9
:1032f4000201000005030000020100000a0a0000a8
:10330400596f000075720000206300006c6f0000ac
:10331400636b000020630000686f000069630000b5
:103324006520000066610000696c000065640000af
:10333400207400006f200000696e000069740000b2
:10334400696100006c6900007a6500002e200000ad
:103354005365000065200000433a00002f6500001b
:103364006365000033370000323400002f70000022
:1033740069630000323400006c690000625f000081
:10338400616c00006c2f00006c690000622f00006b
:1033940073720000632f0000706900006332000044
:1033a400345f0000636c00006f6300006b66000014
:1033b40072650000712e0000632000006c6900003b
:1033c4006e650000203100003436000020660000e5
:1033d4006f720000206d00006f7200006520000015
:1033e4006465000074610000696c0000732e0000c5
:1033f40000450000727200006f7200002069000036
:103404006e200000433a00002f6500006365000051
:1034140033370000323400002f700000696300006d
:10342400323400006c690000625f0000616c0000cf
:103434006c2f00006c690000622f000073720000a2
:10344400632f00007069000063320000345f0000e5
:10345400636c00006f6300006b660000726500001f
:10346400712e0000632000006c6900006e6500008e
:1034740020310000373200003a20000041530000a0
:10348400534500005254000028750000385f0000c6
:10349400736f00007572000063650000203c00003b
:1034a400203800002920000066610000696c0000db
:1034b400656400002e0a000000000000493200008c
:1034c4004331000020530000746100007274000056
:1034d4000049000032430000312000005253000034
:1034e400746100007274000000490000324300005f
:1034f40031200000537400006f7000000049000088
:1035040032430000312000005075000074000000b8
:10351400493200004350000055540000312c000093
:10352400204e0000414b0000207200006574000032
:10353400757200006e650000642e000000490000f2
:103544003243000031200000476500007400000091
:103554000a2e00002e2f00004e6500007665000044
:1035640072570000616e0000646500007242000042
:10357400616e0000642e0000632c000020620000d5
:10358400756900006c740000206f00006e2000005c
:103594004f6300007420000032310000203200002c
:1035a400303100003420000061740000203100003c
:1035b400373a0000333000003a340000370a000084
:1035c4000000000053500000493100002052000068
:1035d400656300006569000076650000204f000007
:1035e40076650000726600006c6f0000770a0000c8
:1035f40000530000504900003220000052650000d2
:103604006365000069760000652000004f760000c5
:1036140065720000666c00006f7700000a0000000d
:020000040000fa
:103624000000fa00ed0607000080fa000000060022
:103634000400fa00004f7800110798001e42780039
:10364400e04f520002003a001e0090004b000700b9
:103654000080fa00000006000000fa002d23a800f4
:10366400c9e2a900cfe2a9006960a900cfe2a800dd
:1036740004a821006500200024408800354088000b
:103684006022b8000440880015408800cde2a900fb
:10369400020007000080fa00000006000000fa00a3
:1036a400044080001540800061024200e0824a002c
:1036b40004408800154088000640800017408000c0
:1036c4002440800035408000840f5300858f5b00c8
:1036d40004003600050007006022b800044088009a
:1036e400154088000080fa00000006000000fa007f
:1036f400641680000482ea004f22de00044278004f
:103704000482fb004f22dd0066168000f5ff2700cf
:103714008502630004827200641688000080fa0047
:10372400000006003600f800809fbe00829fbe00a5
:10373400849fbe00869fbe003400f8000000200075
:10374400a00188000000fa00048120000507800021
:10375400050a7800a0182900080007000080fa0074
:103764003400f9004f03be004f02be004f01be00fb
:103774004f00be003600f900004006000200fa00c7
:10378400000f780064408000e00f520003003a000c
:103794001e027800644088000000fe000080fa00e9
:1037a400000006000600fa001007980021079800a0
:1037b4001e009000000f78001e029000ae029000e0
:1037c400402ade000500200004427800044078000e
:1037d40032e0b7001e0278001482ba00050020000f
:1037e400c023dd00060020001e0278001402ba0087
:1037f4000500200004027300858273000400be00eb
:103804000080fa00000006000e00fa00000020000c
:10381400f10f2000e3ff07000002be003407980008
:103824004507980020002000f10f2000ddff07006d
:103834000002be00540798006507980014c0b30046
:10384400044f7800041a290014079800041a290068
:10385400240798003e039000ce0390005467200094
:1038640005002000840f5300858f5b0003003a009d
:10387400841a290014079800020037000042eb0064
:10388400044f78005e029000ee02900026002300b0
:1038940007002000860f5200878f5a000d00320067
:1038a4003600230007002000860f5200878f5a003d
:1038b4000b0032001600230007002000860f520080
:1038c400878f5a0009003a00741b290024079800c6
:1038d40006003700a41b29002407980003003700c2
:1038e400d41b29002407980000000000001c2900b4
:1038f400a30107003e009000ce00900031020700b3
:10390400d01c29009e0107001e0090009c010700a6
:10391400001d29009a0107005e009000ee0090004f
:1039240028020700d01c2900950107002e009000f2
:1039340093010700d01d2900910107001e42780061
:10394400e04f520002003a00001e29008c010700db
:103954000080fa00000006000000fa00143a80001b
:103964004c22de00674262000482fb00cfa2de002c
:103974007600200007002000860f5200878f5a002f
:1039840021003e00046001000700370009003700f1
:103994000b0037000d0037000f003700110037000f
:1039a4001300370015003700704729007401070021
:1039b400180037004048290071010700150037003e
:1039c400a04929006e01070012003700404b29006e
:1039d4006b0107000f003700704d290068010700d4
:1039e4000c003700604e290065010700090037000c
:1039f400804f29006201070006003700805029002b
:103a04005f01070003003700705129005bff0700c6
:103a1400000000000080fa00000006000200fa0026
:103a24000042eb00044f7800043a80006802620010
:103a3400e00f520003003200005329005001070038
:103a44004067a900043a800064026200e00f52005b
:103a54000300320000552900490107004047a9002e
:103a6400f056290046010700043a80006102620012
:103a7400e00f52000e00320014c0b300044f78006f
:103a8400e05729003e0107004007a9004027a9008c
:103a94000002eb00644088000002eb0074408800e0
:103aa400048120008002eb00050a78004e003700f4
:103ab400053a80000404200004826200e00f5200f2
:103ac40006003200905829002d01070014c0b300ed
:103ad400044f780040c7a90040e7a900043a8000d9
:103ae40070026200e00f52000e00320014c0b300f6
:103af400044f7800a0592900210107007440800078
:103b0400e00f52000300320074408000040078008b
:103b14001b010700d05a2900190107004087a9009a
:103b240040e7a900053a80000408200004826200ee
:103b3400e00f52000500320014c0b300044f7800b7
:103b4400f05a29000e01070040e7a900043a80005a
:103b540062026200e00f52000500320014c0b3009c
:103b6400044f7800005c2900050107004027a900e4
:103b7400053a80000400280004826200e00f52002d
:103b84000500320014c0b300044f7800c05c290063
:103b9400fb00070041e7a900053a80000400240067
:103ba40004826200e00f52000500320014c0b3002a
:103bb400044f7800c05d2900f100070041c7a90047
:103bc400053a80000420200004826200e00f5200c5
:103bd4000500320014c0b300044f7800005f2900d0
:103be400e70007004127a9001e427800e04f520079
:103bf40002003a0090602900e10007006440800060
:103c0400e00f52001d00320090612900dc00070023
:103c14006440800004007800d9000700048120007b
:103c240014027800e00f52000d0032009062290067
:103c3400d3000700844080004822de006f42620007
:103c4400044078004801070040632900cc000700c5
:103c5400844080000474a1000440780042010700fd
:103c640060642900c60007000002eb00644088007d
:103c7400048120008002eb00050a7800e2fe0700c0
:103c840035ff07000080fa00000006000200fa0079
:103c9400000f780070fe070061fe07000040280056
:103ca400310020002b0207005cff07001e00780093
:103cb400b30007000080fa00000006000800fa00c4
:103cc400881f780020079800310798002e00900084
:103cd400be009000c4f807000002be00048fbe00be
:103ce4001e00be00dbf807000002be000401be0097
:103cf4002e009000be0090000af807000002be00eb
:103d040018c0b3000200200003f023000400be002a
:103d1400b3f8070000027800e00f520001003500fc
:103d24000044eb00e04f5400020032001e02be00cb
:103d34000400370016002000070020003e02430064
:103d4400ae824b000400be004f0478000080fa00ed
:103d5400000006000600fa00881f7800100798008b
:103d6400210798001e009000ae0090009ef8070006
:103d74000002be00040f78001e0278000500200037
:103d84000400be00b3f807000002be000401be0038
:103d94001e009000ae009000e2f707000002be0093
:103da40018c0b3000200200003f023000400be008a
:103db4008bf8070000027800e00f52000100350084
:103dc4000044eb00e04f5400020032001e02780071
:103dd400010037001e02e800040078004f04780058
:103de4000080fa00000006000e00fa00889fbe0062
:103df400200798003107980042079800540798005c
:103e04006507980014c0b300ce029000e18f520001
:103e1400010036000042eb00916429000440780060
:103e240003fe07004e029000e00f520018003a0013
:103e34002e009000be00900086f807000004be002b
:103e44005e009000ee00900082f807000002be00c1
:103e54000401be000800be0010f807000002be0006
:103e640002002000031824000400be000bf8070021
:103e74000002be000200200003f823000400be007c
:103e8400a8f707000002be00048fbe001700370029
:103e94002e009000be0090006ef807000004be00e3
:103ea4005e009000ee0090006af807000002be0079
:103eb4000401be000800be00f8f707000002be00bf
:103ec40002002000030824000400be00f3f70700ea
:103ed4000002be000200200003f823000400be001c
:103ee40090f707000002be00048fbe0018c0b300a4
:103ef40002f82f00f37724001e00be0038f80700f4
:103f040000027800e00f5200010035000044eb008d
:103f1400816a290008407800c5fd07001e00be0024
:103f24008cff070000027800040078004f04be00f4
:103f34000080fa00000006000200fa00004f78003a
:103f440094408000e10f520003003200e20f52005f
:103f540004003200060037001e40780031030700d9
:103f6400050037001e407800a40307000200370054
:103f74004085290001fe07000080fa0000000600c9
:103f84000200fa00000f7800050037001e027800d6
:103f94001442780004407800e7ff07001e0fe80091
:103fa4001e02780014427800e04f5200f7ff3a00f6
:103fb4000080fa00000006000a00fa0020079800ba
:103fc40031079800024f98003e029000e00f520023
:103fd40002003a000002eb00260037000002eb006a
:103fe400140798000002eb0014079800190037002a
:103ff4000e4a9000e04f52000400320038010700de
:1040040000427800044f78000300370021010700c4
:1040140000427800044f78001e427800ea4f5200b4
:10402400100032001e427800ed4f52000d003200a5
:104034001e427800ae029000844a78002e0290005e
:104044000402e800240798001e0290000402e8001d
:10405400140798009e0290003e029000848f520044
:10406400e3ff3900ae0290000042eb00844a78007e
:104074001e029000040078000080fa000000060090
:104084000400fa00000f7800110798001e02900047
:104094000041eb00840078001e007800c6ff070092
:1040a40000027800040078000080fa000000060096
:1040b4000400fa00000f7800110798001e02900017
:1040c40012c0b300840078001e007800baff070015
:1040d40000027800040078000080fa000000060066
:1040e4000400fa00204798002e4290000482fb004e
:1040f4004422de00044f78001e427800e94f52004b
:104104000500360075c3b3001ec2420004407800a7
:1041140089ff07000400370005c3b3001ec2420034
:104124000440780084ff07002e4290006f4f620025
:104134001e427800e94f52000500360075c3b300f3
:104144001ec24200044078007bff070004003700d1
:1041540005c3b3001ec242000440780076ff070086
:104164000080fa00000006000200fa00004f780008
:10417400208a290082ff07001e407800d8ff07002c
:104184000080fa00000006000400fa0010079800fe
:10419400208a29007aff07001e0290004822de00d0
:1041a400044f78001e407800cdff07001e029000e7
:1041b400044f78001e407800c9ff07000080fa0011
:1041c400000006000600fa00100798002107980076
:1041d400208a29006aff07001e029000ae029000a8
:1041e400482ade0005002000044f78001e407800b5
:1041f400bbff07001e029000ae029000402ade00c2
:1042040005002000044f78001e407800b4ff07002a
:104214001e029000ae029000482bdd004822de0012
:1042240004027300c82ade00044f78001e407800a0
:10423400abff07001e029000044f78001e40780078
:10424400a7ff07000080fa00000006000a00fa0039
:10425400004f98000042eb00044f78000e4a900093
:104264001447980004c3b3002447980004c3b30060
:104274003447980004c3b300444798000042eb005d
:10428400544798009e42900074ccb30084cf5200ef
:10429400060036002e42900004c2e800244798002d
:1042a4001e4290008443b000144798009e42900040
:1042b40034c6b30084cf5200070036002e4290006b
:1042c4000442e800244798009e429000c4c9b30009
:1042d40004c24200144798000042eb00044f7800e7
:1042e400210037009e4278000582fb0005972900d3
:1042f400e5427a001e42900084cf520019003e002d
:104304009e4378000782fb004222de0004427800cc
:104314008482fb000503e8000482fb000402e80039
:104324000402470024429000844278009e437800af
:104334000782fb008797290067427a0004c2420083
:1043440086024700a44298009e4278000582fb0042
:104354000597290065427a009e42900004c25200eb
:10436400144798001e4fe8001e427800e74f5200a1
:10437400dcff36000042eb00544798000e82e80050
:1043840004007800fefe07000080fa00000006002a
:104394000c00fa00500798000042eb00044f78002c
:1043a4005e0290001407980004c3b30044479800c9
:1043b40004c3b3005447980004c3b300644798008f
:1043c40004c3b3007447980004c3b300044f9800b7
:1043d4000042eb00044f7800240037009e4278002e
:1043e4000582fb00840242004494290004824200b6
:1043f400940278001e029000848f52001a003e003e
:104404009e4378000782fb004222de0004427800cb
:104414000483fb000482fb00040247004442900032
:10442400844278009e4378000782fb0063026200a6
:10443400c796290067427a0004c2420086024700f8
:10444400c44298009e4278000582fb008402420028
:104454004494290004824200140278009e029000d1
:1044640004825200140798001e4fe8001e42780090
:10447400f34f5200d9ff36000042eb00144f98006e
:104484006402470004007800bdfe07000080fa00c3
:10449400000006000000fa0094408000e10f520082
:1044a40003003200e20f520004003200060037001d
:1044b400f10107000042780006003700640207009b
:1044c4000042780003003700508a2900abfc070043
:1044d4000042eb00044078000080fa00000006006f
:1044e4000200fa00ebff070000427800044f780056
:1044f4001e40780090fe07001e42780004407800b9
:104504000080fa00000006000000fa0094408000d9
:10451400e10f520003003200e20f520004003200a7
:1045240006003700cd01070000427800060037007e
:10453400400207000042780003003700408f290042
:104544008efc07000042eb00044078000080fa0073
:10455400000006000400fa00008fbe0014002000d2
:10456400944088001e00be00d00107000080fa00bd
:10457400000006000400fa00100798001e029000d4
:10458400050020000401be0000c429000100200031
:1045940084f607000002be00040f78001e027800b3
:1045a400650f5200f41f20009e027800848f520091
:1045b40002003600f41f2000040f78001e02780069
:1045c4002410880007e2a8000080fa00000006001a
:1045d4000200fa0004a6290074408800043a80000e
:1045e4004522de0061426200044f780040a7a80023
:1045f4000602a8000000000034108000610262007e
:10460400e00f5200fcff3a009e42780061c2620053
:104614000482fb00610262004522dd00063a80004c
:10462400f5fd2f008502630004827200043a8800bd
:104634000002eb00744088000080fa0000000600cd
:104644000200fa00b4a6290074408800043a8000ed
:104654004522de0061426200044f780040a7a800b2
:104664000622a800000000003410800062026200ec
:10467400e00f5200fcff3a009e42780061c26200e3
:104684000482fb00610262004522dd00063a8000dc
:10469400f5fd2f008502630004827200043a88004d
:1046a4000002eb00744088000080fa00000006005d
:1046b4000200fa0074a7290074408800043a8000bc
:1046c4004522de0061426200044f780040a7a80042
:1046d4000642a8000000000034108000640262005a
:1046e400e00f5200fcff3a009e42780061c2620073
:1046f4000482fb00610262004522dd00063a80006c
:10470400f5fd2f008502630004827200043a8800dc
:104714000002eb00744088000080fa0000000600ec
:104724000400fa002047980014a829007440880067
:10473400043a80004522de0061426200044f7800a2
:1047440040a7a8002e4290000482fb0014108800a9
:104754000000000045108000040024000482620070
:10476400e00f5200fbff3a009e42780061c26200f3
:104774000482fb00610262004522dd00063a8000eb
:10478400f5fd2f008502630004827200043a88005c
:104794000002eb00744088004510800004002800eb
:1047a40004826200e00f520002003200a0a8290037
:1047b400f2fb07000080fa00000006000400fa0083
:1047c4002047980014a8290074408800043a800007
:1047d4004522de0061426200044f780040a7a80031
:1047e4002e4290000482fb00141088000000000098
:1047f400451080000400240004826200e00f52008f
:10480400fbff3a009e42780061c262000482fb0012
:10481400610262004522dd00063a8000f5fd2f00aa
:104824008502630004827200043a88000002eb00ef
:1048340074408800441080004f22de000442780057
:10484400044078000080fa00000006000400fa002a
:104854002047980014aa290074408800043a800074
:104864004522de0061426200044f780040a7a800a0
:1048740000000000341080007f026200e00f52004c
:10488400fcff3a000662a80000000000441080000b
:1048940062026200e00f5200fcff32000060fe0082
:1048a40004108000144798000000000034108000b9
:1048b4007f026200e00f5200fcff3a002e4290009b
:1048c400614262000482fb00610262004522dd0055
:1048d40036108000f5fd2f0085026300048272000b
:1048e400341088000682a800000000003410800004
:1048f40070026200e00f5200fcff3a009e42780012
:1049040061c262000482fb00610262004522dd0094
:10491400063a8000f5fd2f008502630004827200d0
:10492400043a88000002eb00744088001e429000a4
:10493400044078000080fa00000006000200fa003b
:10494400004f78001147980021ff0700e4cfb3001f
:104954001e4262000440780071ff07001e40900070
:104964006fff070052ff07000080fa0000000600f6
:104974000400fa00004f780011479800224798007d
:1049840013ff0700e4cfb3001e4262000440780026
:1049940063ff07001e40900061ff07002e40900057
:1049a4005fff070042ff07000080fa0000000600d6
:1049b4000800fa0020479800210798003207980061
:1049c40003ff0700ae429000e4cfb30004c26200cc
:1049d4000440780052ff07000002eb00040f780047
:1049e400080037002e02900014427800044078003a
:1049f4004bff07002e0290000402e80024079800f1
:104a04001e0fe8003e0290009e027800848f520040
:104a1400f4ff390026ff07000080fa0000000600ba
:104a24000400fa00004f780011079800e8fe070020
:104a34001e4278000404a0000440780038ff0700f8
:104a440010c0b30081ff0700004278009e0290006e
:104a5400844a780016ff07000080fa000000060070
:104a64000600fa00004f780011079800220798000a
:104a7400d7fe07001e4278000404a000044078001a
:104a840027ff07000040eb0070ff0700004278009a
:104a94009e029000844a780010c0b3006bff0700a8
:104aa40000427800ae029000844a780000ff0700bc
:104ab4000080fa00000006000800fa002047980071
:104ac4002107980032079800c1fe07002e4290008b
:104ad4000404a0000440780011ff07000002eb006a
:104ae400040f7800130037003e0290000402e9002e
:104af4009e0f5200060032000040eb0053ff0700f7
:104b040000427800ae029000844a78000500370025
:104b140010c0b3004dff070000427800ae029000c1
:104b2400844a78002e0290000402e80024079800ca
:104b34001e0fe8003e0290009e027800848f52000f
:104b4400e9ff3900dafe07000080fa0000000600e1
:104b54000400fa00004f7800110798001e42780004
:104b6400e04f520002003a001e00900003fb0700d1
:104b74000080fa00000006000400fa00008fbe0066
:104b84001e00be00270207001e02be00c42bde006a
:104b9400cc28dd004423de0006837000044080003e
:104ba400154080000602420087824a0004408800c3
:104bb400154088000080fa00000006000200fa0098
:104bc4001411800068026200e00f520004003200f9
:104bd40034118000044f7800a0702900e7fa070020
:104be4001411800064026200e00f520004003200dd
:104bf40034118000044f7800e0712900dffa0700c7
:104c04001411800062026200e00f520003003200bf
:104c14002222a90030732900d8fa07000080fa0084
:104c2400000006000200fa00004f7800010037007f
:104c34009afa070015118000042020000482620003
:104c4400e00f5200faff3a009e4278000582fb0012
:104c5400241188000080fa00000006000000fa0019
:104c6400141180000442780061426200044078001c
:104c74000080fa00000006000000fa00010037007e
:104c840086fa07001411800061026200e00f5200ee
:104c9400fbff3200c9ff0700341180000442780092
:104ca400044078000080fa00000006000400fa00c6
:104cb400008fbe00c942a800cf42a9006a00a90023
:104cc4002535800004fe2f0004826200a400b30096
:104cd40024358800c962a900cf62a90069e0a9004f
:104ce40055368000f40f2e008482620004302000c8
:104cf40004827200543688000002eb00041188001c
:104d04001e02be000001eb0000a0250021262000a9
:104d140035fc0700000278004411880004002800d4
:104d240004118800044020001411880010c0b3004e
:104d3400743e2000050020001e03be00840f5300b3
:104d4400858f5b0001003e000040eb008174290068
:104d54007fff070000c429000100200086ff070030
:104d64002222a900010037003411800014118000b0
:104d740068026200e00f5200fbff3a001411800049
:104d840064026200e00f5200f7ff3a000080fa006c
:104d9400000006000200fa0094118000680262001c
:104da400e00f520004003200b4118000044f780078
:104db400f07a290071fa07009411800064026200fd
:104dc400e00f520004003200b4118000044f780058
:104dd400307c290069fa07009411800062026200a5
:104de400e00f5200030032003222a900807d290026
:104df40062fa07000080fa00000006000200fa00d0
:104e0400004f78000100370024fa07009511800054
:104e14000420200004826200e00f5200faff3a00ee
:104e24009e4278000582fb00a41188000080fa00ed
:104e3400000006000000fa0094118000044278008b
:104e440061426200044078000080fa00000006001d
:104e54000000fa000100370010fa070094118000e6
:104e640061026200e00f5200fbff3200c9ff07003d
:104e7400b411800004427800044078000080fa00f5
:104e8400000006000400fa00008fbe00c942a8001a
:104e9400cf42a9006a00a9003535800004fe2f0026
:104ea400048262009400b30034358800c962a9000a
:104eb400cf62a90069e0a9004536800004fe2f00f6
:104ec400048262005400b300443688000002eb0000
:104ed400841188001e02be000001eb0000a0250022
:104ee40021262000c0fb070000027800c4118800be
:104ef40004002800841188000440200094118800d4
:104f040010c0b300743e2000050020001e03be0044
:104f1400840f5300858f5b0001003e000040eb00ce
:104f2400d17e29000aff070000c4290001002000e7
:104f340011ff07003222a90001003700b4118000dc
:104f44009411800068026200e00f5200fbff3a00f7
:104f54009411800064026200e00f5200f7ff3a00ef
:104f64000080fa00000006000400fa00004f7800f8
:104f7400110798001e427800e04f520002003a00e8
:104f84001e009000fdf907000080fa0000000600f2
:104f94000000fa00910007000040280031002000c2
:104fa4006cfd070004402800350020000001eb00e0
:104fb40000a02500212620008bfb070000027800ba
:104fc400441188002062a9000080fa000000060055
:104fd4000000fa0046408000574080000082eb0049
:104fe4008082eb00840f5300858f5b001200320037
:104ff400444080005540800061024200e0824a0043
:105004004440880055408800464080005740800056
:10501400f4d3200035002000840f5300858f5b00fb
:1050240007003600daff070000982900d4fb0700c8
:105034009af90700feff3700000000000100370066
:10504400000000000080fa00000006000400fa00de
:105054002047980014c0b300ae429000e7cf52003e
:10506400010036000042eb00b19f290004407800a3
:10507400bdff0700ff3ffc00143a8000040f7800d6
:105084002e429000674262000482fb0067026200c5
:105094004822dd001e037800f58f2f00850263008f
:1050a40004827200040f78001e0278000400a0003d
:1050b400040f78000e02e800144278000483fb0019
:1050c40084072000a509200037742000844b780051
:1050d400854b7800864b78000e02780014427800e5
:1050e4000483fb006404200075052000277420005d
:1050f400844b7800854b7800864b78000000fc00d8
:105104006022b80044408800554088000100370000
:10511400afff0700143a800061026200e00f520002
:10512400fbff3a002e429000e14f5200060032008d
:105134002e429000e34f52000c003a000300370067
:10514400a3ff07000100370000000000153a8000ab
:105154000402200004826200e00f5200f8ff3200d3
:10516400030037009aff0700010037000000000029
:10517400143a80004c22de00674262008482fb0005
:105184002e4290000482fb00848f5200f5ff3a0007
:105194000080fa00000006000000fa000080fa0017
:1051a400000006000000fa0020c0b300a7ff0700bb
:1051b4000080fa00000006000000fa000040eb0046
:1051c400a2ff0700453a800004fc2f00048262001d
:1051d400443a88000080fa00000006000000fa004b
:1051e4000040eb0099ff0700453a800004fc2f00c3
:1051f40004826200443a8800253a800004fe2f00ad
:10520400048262007400b300243a8800353a8000b6
:1052140004e02f0084826200140c200004827200d7
:10522400343a8800243a80000460a1000470a1008c
:10523400243a880010c0b30084ff07000080fa00fd
:10524400000006000000fa000040eb007fff0700aa
:10525400253a800004fe2f00048262000420a0008e
:10526400243a8800353a800004e02f0084826200ea
:105274000408200004827200343a8800243a800032
:105284000460a1000470a100243a880030c0b30077
:105294006eff07000080fa00000006000000fa001c
:1052a4000040eb0069ff0700253a800004fe2f0050
:1052b40004826200243a8800353a800004e02f001a
:1052c400848262006402200004827200343a8800fe
:1052d400243a80000460a1000470a100243a8800ec
:1052e40030c0b30059ff07000080fa000000060038
:1052f4000000fa0020c0b30054ff07000080fa0049
:10530400000006000000fa000512800004042000da
:1053140004826200e00f52000300320040c2a90080
:1053240040ae290015f907000080fa0000000600cd
:105334000200fa00000f7800f2ff07008540a90080
:105344001e0278004412880001003700d3f80700d9
:10535400250480000440200004826200e00f520013
:10536400faff320044128000040078000080fa0042
:10537400000006000000fa00051380000404200069
:1053840004826200e00f52000300320060c2a900f0
:10539400b0af2900f9f807000080fa000000060009
:1053a4000200fa00000f7800f2ff07008820a9002d
:1053b4001e0278004413880001003700b7f8070084
:1053c4004404800062026200e00f5200fbff3200de
:1053d40044138000040078000080fa0000000600f6
:1053e4000000fa007dff07000080fa0000000600bc
:1053f4000000fa00faff070097f8070000402800b1
:105404003100200029fe0700004028003100200060
:105414009cfe070081f90700a0aa2900d8fa07001a
:04542400ffff37004f
:020000040000fa
:10542800f03fb1000180b10006003500ee0309002d
:1054380000000000403fb1000180b100fbff3d00cb
:105448001000b000203fb0000200350000800900c5
:08545800000000000000060046
:020000040000fa
:105460000808000004000000000000000008000020
:105470000800000000000000120800000200000008
:0c5480000200000001000000000000001d
:020000040000fa
:0200000401f009
:04000000ffff0000fe
:020000040000fa
:0200000401f009
:04000400ffff0000fa
:020000040000fa
:0200000401f009
:04000800ffff0000f6
:020000040000fa
:0200000401f009
:04000c0078ff000079
:020000040000fa
:0200000401f009
:040010005bff000092
:020000040000fa
:0200000401f009
:0400140079ff000070
:020000040000fa
:0200000401f009
:04001800fcff0000e9
:020000040000fa
:0200000401f009
:04001c00dfff000002
:00000001FF
