:020000040000fa
:080000000013040000000000e1
:020000040000fa
:1000080002100000061000000a1000000e10000088
:1000180012100000161000001a1000001e10000038
:1000280022100000261000002a1000002e100000e8
:1000380032100000361000003a1000003e10000098
:1000480042100000461000004a1000004e10000048
:1000580052100000561000005a1000005e100000f8
:1000680062100000661000006a1000006e100000a8
:1000780072100000761000007a1000007e10000058
:1000880082100000861000008a1000008e10000008
:1000980092100000961000009a1000009e100000b8
:1000a800a2100000a6100000aa100000ae10000068
:1000b800b2100000b6100000ba100000be10000018
:1000c800c2100000c6100000ca100000ce100000c8
:1000d800d2100000d6100000da100000de10000078
:1000e800e2100000e6100000ea100000ee10000028
:1000f800f2100000f6100000fa100000fe100000d8
:1001080002110000061100000a1100000e11000083
:1001180012110000161100001a1100001e11000033
:1001280022110000261100002a1100002e110000e3
:1001380032110000361100003a1100003e11000093
:1001480042110000461100004a1100004e11000043
:1001580052110000561100005a1100005e110000f3
:1001680062110000661100006a1100006e110000a3
:1001780072110000761100007a1100007e11000053
:1001880082110000861100008a1100008e11000003
:1001980092110000961100009a1100009e110000b3
:1001a800a2110000a6110000aa110000ae11000063
:1001b800b2110000b6110000ba110000be11000013
:1001c800c2110000c6110000ca110000ce110000c3
:1001d800d2110000d6110000da110000de11000073
:1001e800e2110000e6110000ea110000ee11000023
:1001f800f2110000f6110000fa110000fe110000d3
:1002080002120000061200000a1200000e1200007e
:1002180012120000161200001a1200001e1200002e
:1002280022120000261200002a1200002e120000de
:1002380032120000361200003a1200003e1200008e
:1002480042120000461200004a1200004e1200003e
:1002580052120000561200005a1200005e120000ee
:1002680062120000661200006a1200006e1200009e
:0c02780072120000761200007a120000e2
:020000040000fa
:1020000002000000f026040000000000f02604009a
:1020100000000000f026040000000000f02604008c
:1020200000000000f026040000000000f02604007c
:1020300000000000f026040000000000f02604006c
:1020400000000000f026040000000000f02604005c
:1020500000000000f026040000000000f02604004c
:1020600000000000f026040000000000f02604003c
:1020700000000000f026040000000000f02604002c
:1020800000000000f026040000000000f02604001c
:1020900000000000f026040000000000f02604000c
:1020a00000000000f026040000000000f0260400fc
:1020b00000000000f026040000000000f0260400ec
:1020c00000000000f026040000000000f0260400dc
:1020d00000000000f026040000000000f0260400cc
:1020e00000000000f026040000000000f0260400bc
:1020f00000000000f026040000000000f0260400ac
:1021000000000000f026040000000000f02604009b
:1021100000000000f026040000000000f02604008b
:1021200000000000f026040000000000f02604007b
:1021300000000000f026040000000000f02604006b
:1021400000000000f026040000000000f02604005b
:1021500000000000f026040000000000f02604004b
:1021600000000000f026040000000000f02604003b
:1021700000000000f026040000000000f02604002b
:1021800000000000f026040000000000f02604001b
:1021900000000000f026040000000000f02604000b
:1021a00000000000f026040000000000f0260400fb
:1021b00000000000f026040000000000f0260400eb
:1021c00000000000f026040000000000f0260400db
:1021d00000000000f026040000000000f0260400cb
:1021e00000000000f026040000000000f0260400bb
:1021f00000000000f026040000000000f0260400ab
:1022000000000000f026040000000000f02604009a
:1022100000000000f026040000000000f02604008a
:1022200000000000f026040000000000f02604007a
:1022300000000000f026040000000000f02604006a
:1022400000000000f026040000000000f02604005a
:1022500000000000f026040000000000f02604004a
:1022600000000000f026040000000000f02604003a
:1022700000000000f026040000000000f02604002a
:1022800000000000f026040000000000f02604001a
:1022900000000000f026040000000000f02604000a
:1022a00000000000f026040000000000f0260400fa
:1022b00000000000f026040000000000f0260400ea
:1022c00000000000f026040000000000f0260400da
:1022d00000000000f026040000000000f0260400ca
:1022e00000000000f026040000000000f0260400ba
:1022f00000000000f026040000000000f0260400aa
:1023000000000000f026040000000000f026040099
:1023100000000000f026040000000000f026040089
:1023200000000000f026040000000000f026040079
:1023300000000000f026040000000000f026040069
:1023400000000000f026040000000000f026040059
:1023500000000000f026040000000000f026040049
:1023600000000000f026040000000000f026040039
:1023700000000000f026040000000000f026040029
:1023800000000000f026040000000000f026040019
:1023900000000000f026040000000000f026040009
:1023a00000000000f026040000000000f0260400f9
:1023b00000000000f026040000000000f0260400e9
:1023c00000000000f026040000000000f0260400d9
:1023d00000000000f026040000000000f0260400c9
:1023e00000000000f026040000000000f0260400b9
:1023f00000000000f026040000000000f0260400a9
:1024000000000000f026040000000000f026040098
:1024100000000000f026040000000000f026040088
:1024200000000000f026040000000000f026040078
:1024300000000000f026040000000000f026040068
:1024400000000000f026040000000000f026040058
:1024500000000000f026040000000000f026040048
:1024600000000000f026040000000000f026040038
:1024700000000000f026040000000000f026040028
:1024800000000000f026040000000000f026040018
:1024900000000000f026040000000000f026040008
:1024a00000000000f026040000000000f0260400f8
:1024b00000000000f026040000000000f0260400e8
:1024c00000000000f026040000000000f0260400d8
:1024d00000000000f026040000000000f0260400c8
:1024e00000000000f026040000000000f0260400b8
:0c24f00000000000f026040000000000c6
:020000040000fa
:102600004f0121000eff24000e0188000000000091
:10261000000020000000e000020032000001200065
:10262000200288000c000700c02c230001002000bd
:102630000f000700000020000000e0000200320050
:1026400000000200000000009632020000000000be
:102650000040da000000fe00e09c20000000e000e6
:1026600002003200002020009001880000000600d7
:10267000a1028800800078000000eb001a003700fb
:10268000e280400054a0b4009101ba00e280400012
:1026900054a0b4009102ba00e280400054a0b400fb
:1026a0000002eb00472bde00f507b200a601880010
:1026b000602ce10008003a000049eb000201e8004c
:1026c000020039003420ec0002f0a0008301e90090
:1026d000f9ff3e00040037006128e10001003200ec
:1026e0000082eb00040007001101ba000200e000c4
:1026f000e3ff3a000000060004d0a300e20f490007
:102700001c003900810278003549ba000201e80056
:10271000020039003420ec0002f0a0008301e9003f
:102720000f0032002549ba000201e800020039001a
:102730003420ec0002f0a0008301e9000800320020
:102740000400e0000600320015c9ba000201e800ea
:10275000020039003420ec0002f0a0008301e900ff
:102760008180e80054a0b4000300e000e2ff3a00da
:10277000000006009102ba00055978008301e900c3
:10278000f7ff3200c82ade00055978008301e9000e
:10279000f3ff32000400e000f1ff320011d9ba006b
:1027a000eeff370003f0a200889fbe008a9fbe00a4
:1027b0008c1f7800040107000b0133006450e10016
:1027c0004f0032006420e1005200320003826c00ae
:1027d00007003b000905d0000306d000820f54001b
:1027e0000c065d0002003900020032008901780009
:1027f000030678008582550004003d000003fd00bb
:102800008103fd008502ea008b854200840f72007f
:1028100002003b0060001000e08018006011b8006a
:102820000005eb007a28e1000a0039000600780074
:10283000c75ddd00f707b200878075002d00370007
:10284000828171000a017800610560008180d100f9
:102850000080d3008502e900f9ff3b000604400038
:102860008784480002003b0060041400e0841c00e0
:102870000988a300070032008a81710082817100fb
:10288000610164008904d1000884d3008b05e8004d
:10289000170037000978a30013003a000b00e0008e
:1028a000130034008b05e9000804440089844c00bf
:1028b0000a4474000978a3000d003a000b00e00000
:1028c000070034008b05e9000804440089844c00ab
:1028d00001003a000b0020000978a300f7ff320046
:1028e0000001eb0002003700828171000a017800cc
:1028f0007a0007000cf0a70001f0a000c300370029
:102900006420e10002003a00838f6c00c3003300b2
:102910000801be000200be00bc003700889fbe0058
:102920008a9fbe008c1f7800a7000700ae0033000e
:1029300003866c006450e1002e0032006420e10048
:10294000330032006150e1002f0032006120e100cd
:102950003100320085855500eb07b00009002000ea
:1029600008042000050037000804440089844c0056
:102970000a0031000603430087834b000001530027
:1029800081815b00f8ff33000203be000800a00055
:102990000804440089844c00f6ff3900c639dd0084
:1029a0008301730001003200130020008904d1006c
:1029b0000884d3000998a300050032000800a7008e
:1029c0000300a0008904d1000884d3008b05e8002f
:1029d0008904d1000884d3000001eb000281d200f9
:1029e0003e00070001f0a1000cf0a70001f0a000dc
:1029f000860037006420e100880032000801be0034
:102a00000200be00f7ff37006120e10083003200c2
:102a10006000b800f3ff37000000200001f8270035
:102a2000f0ff3700839f68000100e00002003d00d6
:102a300060001000e08018000300e00002003d008c
:102a400060011100e0811900770007004f00e000ed
:102a500002003b0060001000e0801800000006004b
:102a600014002000800037000001be004100070074
:102a70000470a70003f0a10003f8a30013003a00bc
:102a80006509b10010003200090035006928e10035
:102a90000200350001002800000005000000400091
:102aa000818048008502e900fcff3a000000060032
:102ab000f88f4200050035008100d1000080d3006e
:102ac0008502e800fcff3a00000006008000eb00f1
:102ad000000005006011b8007e0037008100200072
:102ae000618055000b003d000b00200061fe2f00af
:102af0000100e1001d003400828171006101640069
:102b00008904d1000884d3000000e800faff3a00ed
:102b1000710020006100640003007000020060008a
:102b20000900320061044400e0844c000988a500db
:102b3000050032008b05e8006808e10002003a0059
:102b40008904d1000884d300f20f20000258e1006c
:102b500005003d00c75ddd00f907b2008980750002
:102b600008007800000006000bf827008b007800b2
:102b700000000500c70ade00f107b200f50fb20041
:102b800008003200e1cf4200020032000170a000d4
:102b900024000500810f70000100320004080500c8
:102ba00044000500810f700002003a001400050087
:102bb0008502e9000000400081c04800fcff3b00a6
:102bc0000170a000240005000004be00e9ff07001a
:102bd0000003be000405be000200be00e5ff0700c2
:102be000844f7500000006000200be006450e10042
:102bf000050036006420e100020036000968a300e9
:102c000001003a000800be000160a0004f067800f5
:102c10004f05be004f04be0000000600f0ff2f006d
:102c2000f1ff2700f9ff37006022b80006022000fc
:102c30000000d0008180d2000482d2008582d200c0
:102c40000000a0000202520083825a0003003100fb
:102c50000202420083824a000000a1000603e9004c
:102c6000f3ff3a0000000600889fbe008a9fbe0066
:102c7000841f7800d4ff07004f0078001100330054
:102c8000f0ff2f00838f6c0006003b0004056500f9
:102c90000a00a7000800370009f0a6001000200075
:102ca00008003700820f5400838f5c000300390056
:102cb0001000200001003e000000200009f0a700e5
:102cc0000000ea004f05be004f04be000000e00017
:102cd00000000600889fbe008a9fbe000082700030
:102ce0000402710004827100260032000004be005c
:102cf0000200be006011b8006b09200095022000a0
:102d00000182cf000a0039000541b1000082cf00e6
:102d1000070039000541b1000982cf0004003900e5
:102d20000541b1000882cf00010039000541b10022
:102d300005425200120032000a003b0082817100fd
:102d4000610164008100d1000080d3008984d30038
:102d50000884d3008b05e8000442e800f7ff3a003e
:102d6000070037000804440089844c000000480034
:102d7000818048008b05e9000442e900f9ff3a0030
:102d800056ff07004f05be004f04be0000000600be
:020000040000fa
:102d9000556e0000686100006e6400006c65000004
:102da00064200000696e000074650000727200000b
:102db00075700000742c000020000000756e00008b
:102dc0006b6e00006f7700006e00000064730000ff
:102dd00050490000433300003345000050310000eb
:102de000323800004750000035300000320000004b
:102df0004133000000440000657600006963000074
:102e00006520000049440000203d00002000000033
:102e100020280000002900002c200000726500001e
:102e200076690000736900006f6e000020000000ea
:102e3000290a0000000a00000a2a00002a2a0000cd
:102e40002a2a00002a2a00002a2a00002a2a000032
:102e50002a2a00002a2a00002a2a00002a2a000022
:102e60002a2a00002a2a00002a2a00002a2a000012
:102e70002a2a00002a2a00002a2a00002a2a000002
:102e80002a2a00002a2a00002a2a00002a2a0000f2
:102e90002a2a00002a2a00002a2a00002a2a0000e2
:102ea0002a2a00002a0a00002a20000057410000b8
:102eb000524e0000494e0000472000002d20000027
:102ec000746800006973000020700000726f0000d9
:102ed00067720000616d00002077000061730000e0
:102ee000206300006f6d0000706900006c650000d9
:102ef00064200000666f000072200000746800000b
:102f000065200000777200006f6e000067200000ef
:102f1000202a00000a2a00002063000068690000df
:102f2000702e00002054000068690000732000002b
:102f3000707200006f670000726100006d20000079
:102f40006d61000079200000707200006f64000065
:102f50007563000065200000756e00006578000054
:102f6000706500006374000065640000206200006a
:102f700065680000766900006f7200002120000083
:102f80002a0a00002a20000045640000697400003d
:102f90002074000068650000206800006561000082
:102fa0006465000072200000666900006c65000026
:102fb00073200000746f000020700000726f00002a
:102fc00070650000726c00007920000064650000ec
:102fd000666900006e6500002074000068690000ea
:102fe000732000006368000069700000202a000060
:102ff0000a2a0000206100006e64000020740000b6
:103000006f200000696e000073750000726500009b
:10301000206300006f72000072650000637400009e
:10302000206f00007065000072610000746900008c
:103030006f6e00002e2000002020000020200000e5
:103040002020000020200000202000002020000080
:103050002020000020200000202000002a0a00007c
:103060002a20000020200000202000002020000056
:103070002020000020200000202000002020000050
:103080002020000020200000202000002020000040
:103090002020000020200000202000002020000030
:1030a0002020000020200000202000002020000020
:1030b0002020000020200000202000002020000010
:1030c0002020000020200000202a00000a2a000002
:1030d000204e00004f540000453a000020490000f7
:1030e000662000007468000069730000207700000b
:1030f00061730000206300006f6d000070690000c4
:103100006c65000064200000666f00007220000003
:103110007468000065200000636f00007272000098
:10312000656300007420000063680000697000009f
:103130002c200000202000002a0a00002a20000085
:10314000616e0000642000006f6e00006c7900006a
:10315000206f0000636300007572000073200000a0
:1031600061740000207000006f770000657200003d
:103170002d6f00006e200000286e00006f740000ac
:103180002064000075720000696e00006720000076
:10319000612000004d4300004c5200002020000040
:1031a00020200000202a00000a2a000020720000cf
:1031b0006573000065740000292c00002076000073
:1031c00065720000696600007920000074680000e4
:1031d00061740000204100005644000044200000bb
:1031e000616e00006420000041560000535300004f
:1031f0002061000072650000206300006f6e000017
:103200006e65000063740000656400002e200000fd
:10321000202000002a0a00002a2000004f6e000033
:103220002074000068650000205000004943000041
:1032300032340000483300003247000050320000b2
:10324000303200002c2000006e6f0000742000005f
:10325000636f00006e6e000065630000746900001b
:103260006e6700002041000056440000442000002a
:10327000202000002020000020200000202000004e
:10328000202a00000a2a000020700000726f00004f
:10329000647500006365000073200000746800001e
:1032a00069730000206d0000657300007361000009
:1032b00067650000206f00006e6c00007920000040
:1032c00061740000207000006f77000065720000dc
:1032d0002d750000702e000020200000202000002e
:1032e00020200000202000002020000020200000de
:1032f0002a0a00002a2a00002a2a00002a2a00009e
:103300002a2a00002a2a00002a2a00002a2a00006d
:103310002a2a00002a2a00002a2a00002a2a00005d
:103320002a2a00002a2a00002a2a00002a2a00004d
:103330002a2a00002a2a00002a2a00002a2a00003d
:103340002a2a00002a2a00002a2a00002a2a00002d
:103350002a2a00002a2a00002a2a00002a2a00001d
:103360000a00000046610000737400002052000053
:10337000432000004f730000630a00000046000075
:10338000617300007420000052430000204f0000d1
:10339000736300002077000069740000682000005b
:1033a000504c00004c0a0000005000007269000000
:1033b0006d61000072790000204f0000736300000f
:1033c00020280000585400002c2000004853000022
:1033d0002c20000045430000290a00000050000096
:1033e000726900006d61000072790000204f0000da
:1033f0007363000020280000585400002c200000b7
:10340000485300002c200000454300002920000004
:103410007769000074680000205000004c4c0000e8
:103420000a00000053650000636f00006e64000036
:1034300061720000792000004f730000630a0000f1
:10344000004c00006f770000205000006f770000f4
:103450006572000020520000432000004f730000fe
:10346000630a000000460000617300007420000041
:1034700052430000204f0000736300002f31000012
:10348000360a00000046000061730000742000004e
:1034900052430000204f0000736300002f4e0000d5
:1034a0000a000000556e00006b6e00006f77000090
:1034b0006e2000006f730000636900006c6c0000f8
:1034c000617400006f7200002074000079700000c9
:1034d000652e0000000a00004465000076690000c7
:1034e0006365000020680000617300002062000036
:1034f000656500006e200000696e0000207300000a
:103500006c65000065700000206d00006f640000b5
:10351000650a0000000a00004465000076690000aa
:1035200063650000206800006173000020620000f5
:10353000656500006e200000696e000020690000d3
:10354000646c0000652000006d6f00006465000081
:103550000a0000000a520000657300006574000054
:103560002063000061750000736500003a200000d0
:10357000005000006f770000657200002d6f0000a2
:103580006e2e00000a000000536f000066740000f9
:103590007761000072650000205200006573000032
:1035a000657400002e0a00000057000061740000de
:1035b00063680000646f0000672000005469000029
:1035c0006d6500006f750000743a00002000000077
:1035d0000a0000004d4300004c5200002061000032
:1035e0007373000065720000746900006f6e000064
:1035f0002e0a000000420000726f0000776e00008b
:103600002d6f0000757400002e0a000000540000a9
:103610007261000070200000436f00006e660000c1
:103620006c690000637400002e0a0000004900006d
:103630006c6c000065670000616c000020430000b6
:103640006f6e000064690000746900006f6e000016
:103650002e0a0000004300006f6e00006669000043
:103660006775000072610000746900006f6e0000f1
:10367000204d0000697300006d610000746300005c
:10368000682e00000a000000556e00006b6e0000fe
:103690006f7700006e200000726500007365000007
:1036a000742e00000a00000045720000726f0000d6
:1036b00072200000747200006170000070650000ec
:1036c000643a00002000000050720000696f0000a2
:1036d00072690000747900003a200000002c00009c
:1036e0002056000065630000746f00007220000027
:1036f0006e7500006d620000657200003a200000e7
:10370000000a00000a00000045720000726f00000d
:1037100072200000696e0000204300003a2f000074
:10372000656300006533000037320000342f00006d
:103730007069000063320000346c000069620000b0
:103740005f6100006c6c00002f6c0000696200007b
:103750002f730000726300002f7000006963000087
:10376000323400005f750000746900006c2e0000a8
:10377000632000006c6900006e65000020340000ca
:10378000363900003a200000415300005345000044
:103790005254000028750000313600005f620000be
:1037a00072670000682000003c3d000020310000ee
:1037b0002920000066610000696c0000656400005b
:1037c0002e0a000000450000727200006f720000b7
:1037d000206900006e200000433a00002f650000c1
:1037e0006365000033370000323400002f700000a2
:1037f00069630000323400006c690000625f000001
:10380000616c00006c2f00006c690000622f0000ea
:1038100073720000632f00007069000063320000c3
:10382000345f000075740000696c00002e630000b6
:10383000206c0000696e0000652000003437000035
:10384000353a00002041000053530000455200006b
:1038500054280000665f00006272000067200000cc
:103860003c2000003635000035330000352e0000c6
:103870003529000020660000616900006c650000c9
:10388000642e00000a000000554100005254000060
:10389000312000007061000072690000747900003e
:1038a00020650000727200006f7200000a000000c4
:1038b00055410000525400003120000066720000a3
:1038c000616d0000696e00006720000065720000f5
:1038d000726f0000720a00000055000041520000a3
:1038e00054310000206f0000766500007272000005
:1038f000756e000020650000727200006f7200009b
:103900000a00000045720000726f00007220000083
:10391000696e0000204300003a2f0000656300003c
:103920006533000037320000342f0000706900005a
:1039300063320000346c0000696200005f610000c7
:103940006c6c00002f6c0000696200002f73000097
:10395000726300002f7000006963000032340000c1
:103960005f75000061720000742e0000632000008b
:103970006c6900006e6500002033000036310000e5
:103980003a2000004153000053450000525400000b
:1039900028750000333200005f620000617500008e
:1039a0006452000061740000652000003e3d00008c
:1039b0002031000030300000304c00002920000091
:1039c00066610000696c0000656400002e0a00005a
:1039d00000550000415200005432000020700000e9
:1039e00061720000697400007920000065720000b7
:1039f000726f0000720a0000005500004152000082
:103a00005432000020660000726100006d69000001
:103a10006e67000020650000727200006f72000087
:103a20000a000000554100005254000032200000fe
:103a30006f76000065720000727500006e20000055
:103a400065720000726f0000720a000000450000fd
:103a5000727200006f720000206900006e2000008a
:103a6000433a00002f650000636500003337000013
:103a7000323400002f70000069630000323400000f
:103a80006c690000625f0000616c00006c2f000038
:103a90006c690000622f000073720000632f000049
:103aa0007069000063320000345f0000756100003f
:103ab000727400002e630000206c0000696e00002c
:103ac0006520000037350000313a00002041000039
:103ad0005353000045520000542800007533000085
:103ae000325f0000626100007564000052610000f6
:103af00074650000203e00003d20000031300000d1
:103b0000303000004c290000206600006169000090
:103b10006c650000642e00000a0000004572000081
:103b2000726f000072200000696e000020430000e8
:103b30003a2f000065630000653300003732000053
:103b4000342f00007069000063320000346c000004
:103b5000696200005f6100006c6c00002f6c000067
:103b6000696200002f730000726300002f70000074
:103b700069630000323400005f730000657200006a
:103b8000696100006c2e0000632000006c69000079
:103b90006e65000020380000303a00002049000027
:103ba0006e760000616c0000696400002055000022
:103bb0004152000054000000307800000045000031
:103bc000727200006f720000206900006e20000019
:103bd000433a00002f6500006365000033370000a2
:103be000323400002f70000069630000323400009e
:103bf0006c690000625f0000616c00006c2f0000c7
:103c00006c690000622f000073720000632f0000d7
:103c10007069000063320000345f000073650000cb
:103c200072690000616c00002e630000206c0000cf
:103c3000696e00006520000032390000353a00004e
:103c4000204900006e760000616c0000696400008d
:103c50002055000041520000540000004572000051
:103c6000726f000072200000696e000020430000a7
:103c70003a2f000065630000653300003732000012
:103c8000342f00007069000063320000346c0000c3
:103c9000696200005f6100006c6c00002f6c000026
:103ca000696200002f730000726300002f70000033
:103cb00069630000323400005f7300006572000029
:103cc000696100006c2e0000632000006c69000038
:103cd0006e65000020330000333400003a200000fd
:103ce000496e0000766100006c69000064200000ed
:103cf00055410000525400000000000050c3000075
:103d000030750000204e00001027000088130000ce
:103d1000b80b0000d0070000e8030000f401000029
:103d20002c010000c8000000640000003200000008
:103d30001e000000140000000a0000000500000042
:103d40000300000002000000010000000503000065
:103d500002010000321e0000140a000005030000ea
:103d6000020100000503000002010000050300003d
:103d7000020100000a0a0000596f0000757200007d
:103d8000206300006c6f0000636b00002063000084
:103d9000686f000069630000652000006661000034
:103da000696c000065640000207400006f20000052
:103db000696e000069740000696100006c690000b0
:103dc0007a6500002e200000536500006520000089
:103dd000433a00002f6500006365000033370000a0
:103de000323400002f70000069630000323400009c
:103df0006c690000625f0000616c00006c2f0000c5
:103e00006c690000622f000073720000632f0000d5
:103e10007069000063320000345f0000636c0000d2
:103e20006f6300006b66000072650000712e000079
:103e3000632000006c6900006e6500002031000006
:103e400034360000206600006f720000206d000014
:103e50006f7200006520000064650000746100005e
:103e6000696c0000732e00000045000072720000b3
:103e70006f720000206900006e200000433a0000cd
:103e80002f65000063650000333700003234000006
:103e90002f70000069630000323400006c6900007c
:103ea000625f0000616c00006c2f00006c69000014
:103eb000622f000073720000632f00007069000021
:103ec00063320000345f0000636c00006f63000029
:103ed0006b66000072650000712e00006320000018
:103ee0006c6900006e650000203100003732000070
:103ef0003a20000041530000534500005254000096
:103f000028750000385f0000736f000075720000b4
:103f100063650000203c00002038000029200000dc
:103f200066610000696c0000656400002e0a0000f4
:103f3000000000004932000043310000205300001f
:103f400074610000727400000049000032430000f8
:103f500031200000525300007461000072740000b0
:103f6000004900003243000031200000537400007b
:103f70006f70000000490000324300003120000053
:103f800050750000740000004932000043500000ea
:103f900055540000312c0000204e0000414b000021
:103fa0002072000065740000757200006e650000ec
:103fb000642e000000490000324300003120000060
:103fc00047650000740000004932000043320000e1
:103fd000205300007461000072740000004900006a
:103fe0003243000032200000525300007461000090
:103ff00072740000004900003243000032200000cb
:10400000537400006f70000000490000324300004c
:10401000322000005075000074000000493200009a
:104020004350000055540000322c0000204e000088
:10403000414b0000207200006574000075720000a2
:104040006e650000642e000000490000324300004d
:104050003220000047650000740000000a2e0000b6
:104060002e2f00004e65000076650000725700009c
:10407000616e00006465000072420000616e000025
:10408000642e0000632c00002062000075690000af
:104090006c740000206f00006e2000004e6f000066
:1040a0007620000020360000203200003031000071
:1040b000342000006174000020310000373a000015
:1040c000303600003a350000300a000000000000e1
:1040d0005350000049310000205200006563000089
:1040e0006569000076650000204f000076650000dd
:1040f000726600006c6f0000770a00000053000039
:104100005049000032200000526500006365000045
:1041100069760000652000004f760000657200009f
:0c412000666c00006f7700000a000000d1
:020000040000fa
:10412c000400fa00100798001e0290000500200001
:10413c000401be00909e2e000100200036fa0700fc
:10414c000002be00040f78001e0fe900f41f2000cf
:10415c009e027800848f520002003600f41f20006b
:10416c00040f78001e0278002410880007e2a800d3
:10417c000080fa00000006000200fa00a4f92900f1
:10418c0074808800043a80004522de00614262009f
:10419c00044f780040a7a8000602a8000000000009
:1041ac003410800061026200e00f5200fcff3a0004
:1041bc009e42780061c262000482fb0061026200d0
:1041cc004522dd00063a8000f5fd2f0085026300d4
:1041dc0005027200043a88000002eb00748088002b
:1041ec000080fa00000006000200fa0054fa2900d0
:1041fc0074808800043a80004522de00614262002f
:10420c00044f780040a7a8000622a8000000000078
:10421c003410800062026200e00f5200fcff3a0092
:10422c009e42780061c262000482fb00610262005f
:10423c004522dd00063a8000f5fd2f008502630063
:10424c0005027200043a88000002eb0074808800ba
:10425c000080fa00000006000200fa0014fb29009e
:10426c0074808800043a80004522de0061426200be
:10427c00044f780040a7a8000642a80000000000e8
:10428c003410800064026200e00f5200fcff3a0020
:10429c009e42780061c262000482fb0061026200ef
:1042ac004522dd00063a8000f5fd2f0085026300f3
:1042bc0005027200043a88000002eb00748088004a
:1042cc000080fa00000006000400fa002047980065
:1042dc00b4fb290074808800043a80004522de007b
:1042ec0061426200044f780040a7a8002e42900063
:1042fc000482fb00141088000000000045108000b0
:10430c000400240004826200e00f5200fbff3a001c
:10431c009e42780061c262000482fb00610262006e
:10432c004522dd00063a8000f5fd2f008502630072
:10433c0005027200043a88000002eb0074808800c9
:10434c00451080000400280004826200e00f520037
:10435c000200320040fc2900b50207000080fa0080
:10436c00000006000400fa0020479800b4fb290066
:10437c0074808800043a80004522de0061426200ad
:10438c00044f780040a7a8002e4290000482fb0046
:10439c001410880000000000451080000400240068
:1043ac0004826200e00f5200fbff3a009e4278004c
:1043bc0061c262000482fb00610262004522dd00e2
:1043cc00063a8000f5fd2f0085026300050272009d
:1043dc00043a88000002eb007480880044108000ce
:1043ec004f22de0004427800044078000080fa007e
:1043fc00000006000400fa0020479800b4fd2900d4
:10440c0074808800043a80004522de00614262001c
:10441c00044f780040a7a800000000003410800072
:10442c007f026200e00f5200fcff3a000662a80017
:10443c00000000004410800062026200e00f520095
:10444c00fcff32000060fe0004108000144798004e
:10445c0000000000341080007f026200e00f520068
:10446c00fcff3a002e429000614262000482fb0085
:10447c00610262004522dd0036108000f5fd2f0040
:10448c008502630005027200341088000682a800c1
:10449c00000000003410800070026200e00f520037
:1044ac00fcff3a009e42780061c262000482fb006d
:1044bc00610262004522dd00063a8000f5fd2f0006
:1044cc008502630005027200043a88000002eb00ca
:1044dc00748088001e429000044078000080fa002e
:1044ec00000006000200fa00004f78001147980007
:1044fc0021ff0700e4cfb3001e42620004407800a5
:10450c0071ff07001e4090006fff070052ff07006d
:10451c000080fa00000006000400fa00004f78004a
:10452c00114798002247980013ff0700e4cfb3000f
:10453c001e4262000440780063ff07001e4090009a
:10454c0061ff07002e4090005fff070042ff07004d
:10455c000080fa00000006000800fa0020479800ce
:10456c00210798003207980003ff0700ae42900025
:10457c00e4cfb30004c262000440780052ff07008d
:10458c000002eb00040f7800080037002e029000a8
:10459c0014427800044078004bff07002e02900074
:1045ac000402e800240798001e0fe8003e02900069
:1045bc009e027800848f5200f4ff390026ff07001a
:1045cc000080fa00000006000400fa00004f78009a
:1045dc0011079800e8fe07001e4278000404a000b2
:1045ec000440780038ff070010c0b30081ff0700bb
:1045fc00004278009e029000844a780016ff070063
:10460c000080fa00000006000600fa00004f780057
:10461c001107980022079800d7fe07001e42780069
:10462c000404a0000440780027ff07000040eb00c2
:10463c0070ff0700004278009e029000844a7800c8
:10464c0010c0b3006bff070000427800ae02900070
:10465c00844a780000ff07000080fa000000060082
:10466c000800fa00204798002107980032079800ac
:10467c00c1fe07002e4290000404a0000440780004
:10468c0011ff07000002eb00040f78001300370045
:10469c003e0290000402e9009e0f52000600320018
:1046ac000040eb0053ff070000427800ae02900080
:1046bc00844a78000500370010c0b3004dff070096
:1046cc0000427800ae029000844a78002e029000de
:1046dc000402e800240798001e0fe8003e02900038
:1046ec009e027800848f5200e9ff3900dafe070041
:1046fc000080fa00000006000400fa001007980081
:10470c001e029000050020000401be00909e2e00a9
:10471c0001002000c0f807000002be00040f780062
:10472c001e0fe900f41f20009e027800848f5200b7
:10473c0002003600f41f2000040f78001e027800df
:10474c00a410880017e2a8000080fa000000060000
:10475c000200fa0044fe290074808800043a8000ac
:10476c004522de0061426200044f780040a7a80099
:10477c001602a80000000000b41080006102620064
:10478c00e00f5200fcff3a009e42780061c26200ca
:10479c000482fb00610262004522dd00063a8000c3
:1047ac00f5fd2f008502630005027200043a8800b3
:1047bc000002eb00748088000080fa000000060004
:1047cc000200fa00f4fe290074808800043a80008c
:1047dc004522de0061426200044f780040a7a80029
:1047ec001622a80000000000b410800062026200d3
:1047fc00e00f5200fcff3a009e42780061c262005a
:10480c000482fb00610262004522dd00063a800052
:10481c00f5fd2f008502630005027200043a880042
:10482c000002eb00748088000080fa000000060093
:10483c000200fa00b4ff290074808800043a80005a
:10484c004522de0061426200044f780040a7a800b8
:10485c001642a80000000000b41080006402620040
:10486c00e00f5200fcff3a009e42780061c26200e9
:10487c000482fb00610262004522dd00063a8000e2
:10488c00f5fd2f008502630005027200043a8800d2
:10489c000002eb00748088000080fa000000060023
:1048ac000400fa002047980054002a007480880005
:1048bc00043a80004522de0061426200044f780019
:1048cc0040a7a8002e4290000482fb0094108800a0
:1048dc0000000000c5108000040024000482620067
:1048ec00e00f5200fbff3a009e42780061c262006a
:1048fc000482fb00610262004522dd00063a800062
:10490c00f5fd2f008502630005027200043a880051
:10491c000002eb0074808800c510800004002800a1
:10492c0004826200e00f520002003200e0002a0014
:10493c003f0107000080fa00000006000400fa00a6
:10494c002047980054002a0074808800043a8000a4
:10495c004522de0061426200044f780040a7a800a7
:10496c002e4290000482fb0094108800000000008e
:10497c00c51080000400240004826200e00f520085
:10498c00fbff3a009e42780061c262000482fb0089
:10499c00610262004522dd00063a8000f5fd2f0021
:1049ac008502630005027200043a88000002eb00e5
:1049bc0074808800c41080004f22de00044278000e
:1049cc00044078000080fa00000006000400fa00a1
:1049dc002047980054022a0074808800043a800012
:1049ec004522de0061426200044f780040a7a80017
:1049fc0000000000b41080007f026200e00f520043
:104a0c00fcff3a001662a80000000000c4108000f1
:104a1c0062026200e00f5200fcff32000060fe00f8
:104a2c00841080001447980000000000b41080002f
:104a3c007f026200e00f5200fcff3a002e42900011
:104a4c00614262000482fb00610262004522dd00cb
:104a5c00b6108000f5fd2f00850263000502720080
:104a6c00b41088001682a80000000000b41080006a
:104a7c0070026200e00f5200fcff3a009e42780088
:104a8c0061c262000482fb00610262004522dd000b
:104a9c00063a8000f5fd2f008502630005027200c6
:104aac00043a88000002eb00748088001e429000db
:104abc00044078000080fa00000006000200fa00b2
:104acc00004f78001147980021ff0700e4cfb30096
:104adc001e4262000440780071ff07001e409000e7
:104aec006fff070052ff07000080fa00000006006d
:104afc000400fa00004f78001147980022479800f4
:104b0c0013ff0700e4cfb3001e426200044078009c
:104b1c0063ff07001e40900061ff07002e409000cd
:104b2c005fff070042ff07000080fa00000006004c
:104b3c000800fa00204798002107980032079800d7
:104b4c0003ff0700ae429000e4cfb30004c2620042
:104b5c000440780052ff07000002eb00040f7800bd
:104b6c00080037002e0290001442780004407800b0
:104b7c004bff07002e0290000402e8002407980067
:104b8c001e0fe8003e0290009e027800848f5200b7
:104b9c00f4ff390026ff07000080fa000000060031
:104bac000400fa00004f780011079800e8fe070097
:104bbc001e4278000404a0000440780038ff07006f
:104bcc0010c0b30081ff0700004278009e029000e5
:104bdc00844a780016ff07000080fa0000000600e7
:104bec000600fa00004f7800110798002207980081
:104bfc00d7fe07001e4278000404a0000440780091
:104c0c0027ff07000040eb0070ff07000042780010
:104c1c009e029000844a780010c0b3006bff07001e
:104c2c0000427800ae029000844a780000ff070032
:104c3c000080fa00000006000800fa0020479800e7
:104c4c002107980032079800c1fe07002e42900001
:104c5c000404a0000440780011ff07000002eb00e0
:104c6c00040f7800130037003e0290000402e900a4
:104c7c009e0f5200060032000040eb0053ff07006d
:104c8c0000427800ae029000844a7800050037009c
:104c9c0010c0b3004dff070000427800ae02900038
:104cac00844a78002e0290000402e8002407980041
:104cbc001e0fe8003e0290009e027800848f520086
:104ccc00e9ff3900dafe07000080fa000000060058
:104cdc000000fa00760407000080fa0000000600cd
:104cec000400fa00004f7800110798001e4278006b
:104cfc00e04f520002003a001e0090004c000700ea
:104d0c000080fa00000006000000fa0011eea90075
:104d1c0017eea9001beea9001deea90017eea800c6
:104d2c00a431220095002000248088003580880062
:104d3c006022b800048088001580880015eea90058
:104d4c00020007000080fa00000006000000fa00d4
:104d5c00048080001580800061024200e0824a00dd
:104d6c0004808800158088000680800017808000f1
:104d7c002480800035808000840f5300858f5b0079
:104d8c0004003600050007006022b800048088008b
:104d9c00158088000080fa00000006000000fa0070
:104dac00a47080000482ea004f22de0004427800e6
:104dbc000482fb004f22dd00a6708000f5ff270067
:104dcc008502630005027200a47088000080fa005e
:104ddc00000006003600f800809fbe00829fbe00d7
:104dec00849fbe00869fbe003200f8000020200089
:104dfc0090018800000000000000fa00040121006e
:104e0c0045468000050a7800806c290008000700e0
:104e1c000080fa003200f9004f03be004f02be00c2
:104e2c004f01be004f00be003600f90000400600e6
:104e3c000200fa00000f780064808000e00f52003e
:104e4c0003003a001e027800648088000000fe0017
:104e5c000080fa00000006000600fa001007980017
:104e6c00210798001e029000040f78001e0290008b
:104e7c00ae029000402ade0004027800a4028800f2
:104e8c001e0278001482ba0005002000c023dd0049
:104e9c00060020001e0278001402ba000500200053
:104eac0004027300858273000400be000080fa00c7
:104ebc00000006000e00fa0000002000f10f200098
:104ecc00e5ff07000002be00340798004507980074
:104edc0020002000f10f2000dfff07000002be00c1
:104eec00540798006507980014c0b300044f78006d
:104efc00e46d290014079800e46d2900240798003c
:104f0c003e039000ce039000d4e421000500200065
:104f1c00840f5300858f5b0003003a00646e2900f8
:104f2c0014079800020037000042eb00044f780091
:104f3c005e039000ee039000340024000500200076
:104f4c00840f5300858f5b0003003a00846f2900a7
:104f5c002407980000000000b06f2900a30107008f
:104f6c003e009000ce0090003102070080702900b6
:104f7c009e0107001e0090009c010700b0702900e4
:104f8c009a0107005e009000ee00900028020700d6
:104f9c0080702900950107002e00900093010700f6
:104fac0080712900910107001e427800e04f5200e9
:104fbc0002003a00b07129008c0107000080fa0051
:104fcc00000006000000fa00143a80004c22de00bb
:104fdc00674262000482fb00cfa2de007600200054
:104fec0007002000860f5200878f5a0021003e00d8
:104ffc000406010007003700090037000b003700da
:10500c000d0037000f003700110037001300370078
:10501c0015003700209b2900740107001800370089
:10502c00f09b29007101070015003700509d2900e5
:10503c006e01070012003700f09e29006b0107007b
:10504c000f00370020a12900680107000c00370071
:10505c0010a22900650107000900370030a32900c0
:10506c00620107000600370030a429005f01070029
:10507c000300370020a529006dff07000000000089
:10508c000080fa00000006000200fa000042eb006b
:10509c00044f7800043a800068026200e00f52006e
:1050ac0003003200b0a62900500107004067a90098
:1050bc00043a800064026200e00f520003003200e8
:1050cc00b0a82900490107004047a900a0aa29005f
:1050dc0046010700043a800061026200e00f5200b2
:1050ec000e00320014c0b300044f780090ab2900be
:1050fc003e0107004007a9004027a9000002eb0071
:10510c00648088000002eb00748088000401210098
:10511c008002eb00050a78004e003700053a80004b
:10512c000404200004826200e00f520006003200ea
:10513c0040ac29002d01070014c0b300044f7800c7
:10514c0040c7a90040e7a900043a80007002620041
:10515c00e00f52000e00320014c0b300044f780070
:10516c0050ad29002101070074808000e00f52002f
:10517c000300320074808000040078001b010700db
:10518c0080ae2900190107004087a90040e7a9005b
:10519c00053a80000408200004826200e00f5200ef
:1051ac000500320014c0b300044f7800a0ae2900f3
:1051bc000e01070040e7a900043a80006202620079
:1051cc00e00f52000500320014c0b300044f780009
:1051dc00b0af2900050107004027a900053a80005f
:1051ec000400280004826200e00f52000500320027
:1051fc0014c0b300044f780070b02900fb00070006
:10520c0041e7a900053a80000400240004826200f2
:10521c00e00f52000500320014c0b300044f7800b8
:10522c0070b12900f100070041c7a900053a8000c0
:10523c000420200004826200e00f520005003200be
:10524c0014c0b300044f7800b0b22900e700070087
:10525c004127a9001e427800e04f520002003a009c
:10526c0040b42900e100070064808000e00f520088
:10527c001d00320040b52900dc000700648080006e
:10528c0004007800d9000700040121001402780002
:10529c00e00f52000d00320040b62900d300070089
:1052ac00848080004822de006f4262000440780057
:1052bc0048010700f0b62900cc00070004012100ca
:1052cc0014427800044078004201070010b829000d
:1052dc00c60007000002eb00648088000401210076
:1052ec008002eb00050a7800f2fe070035ff07008c
:1052fc000080fa00000006000200fa00000f78009f
:10530c0081fe070072fe07000040280031002000db
:10531c002d0207005cff07001e007800b300070099
:10532c000080fa00000006000800fa00881f7800d0
:10533c0020079800310798002e009000be009000c6
:10534c00c6f507000002be00048fbe001e00be00a2
:10535c00ddf507000002be000401be002e00900027
:10536c00be0090000cf507000002be0018c0b30090
:10537c000200200003f023000400be00b5f5070076
:10538c0000027800e00f5200010035000044eb00f1
:10539c00e04f5400020032001e02be000400370031
:1053ac0016002000070020003e024300ae824b0096
:1053bc000400be004f0478000080fa0000000600d4
:1053cc000600fa00881f7800100798002107980043
:1053dc001e009000ae009000a0f507000002be0079
:1053ec00040f78001e027800050020000400be00a7
:1053fc00b5f507000002be000401be001e009000bf
:10540c00ae009000e4f407000002be0018c0b30028
:10541c000200200003f023000400be008df50700fd
:10542c0000027800e00f5200010035000044eb0050
:10543c00e04f5400020032001e02780001003700d9
:10544c001e02e800040078004f0478000080fa0087
:10545c00000006000e00fa00889fbe00200798008e
:10546c003107980042079800540798006507980088
:10547c0014c0b300ce029000e18f52000100360040
:10548c000042eb0041b829000440780014fe0700ec
:10549c004e029000e00f520018003a002e009000cf
:1054ac00be00900088f507000004be005e0090006e
:1054bc00ee00900084f507000002be000401be005f
:1054cc000800be0012f507000002be00020020001a
:1054dc00031824000400be000df507000002be00f6
:1054ec000200200003f823000400be00aaf4070009
:1054fc000002be00048fbe00170037002e00900083
:10550c00be00900070f507000004be005e00900025
:10551c00ee0090006cf507000002be000401be0016
:10552c000800be00faf407000002be0002002000d2
:10553c00030824000400be00f5f407000002be00be
:10554c000200200003f823000400be0092f40700c0
:10555c000002be00048fbe0018c0b30002f82f007a
:10556c00f37724001e00be003af507000002780015
:10557c00e00f5200010035000044eb0031be290061
:10558c0008407800d6fd07001e00be008cff070007
:10559c0000027800040078004f04be000080fa007e
:1055ac00000006000200fa00004f78009480800092
:1055bc00e10f520003003200e20f520004003200ef
:1055cc00060037001e407800ba02070005003700bd
:1055dc001e4078003003070002003700e0d8290095
:1055ec0013fe07000080fa00000006000200fa001b
:1055fc00000f7800050037001e0278001442780076
:10560c0004407800e7ff07001e0fe8001e02780038
:10561c0014427800e04f5200f7ff3a000080fa0085
:10562c00000006000a00fa002007980031079800d5
:10563c00024f98003e029000e00f520002003a0028
:10564c000002eb00260037000002eb001407980064
:10565c000002eb0014079800190037000e4a900066
:10566c00e04f5200040032003a010700004278007b
:10567c00044f780003003700230107000042780034
:10568c00044f78001e427800ea4f5200100032009e
:10569c001e427800ed4f52000d0032001e42780081
:1056ac00ae029000844a78002e0290000402e800ba
:1056bc00240798001e0290000402e80014079800ca
:1056cc009e0290003e029000848f5200e3ff39004e
:1056dc00ae0290000042eb00844a78001e0290005b
:1056ec00040078000080fa00000006000400fa00b4
:1056fc00000f7800110798001e0290000041eb008b
:10570c00840078001e007800c6ff070000027800b5
:10571c00040078000080fa00000006000400fa0083
:10572c00000f7800110798001e02900012c0b30001
:10573c00840078001e007800baff07000002780091
:10574c00040078000080fa00000006000400fa0053
:10575c00204798002e4290000482fb004422de0079
:10576c00044f78001e427800e94f520005003600c5
:10577c0075c3b3001ec242000440780089ff0700c5
:10578c000400370005c3b3001ec242000440780079
:10579c0084ff07002e4290006f4f62001e4278007b
:1057ac00e94f52000500360075c3b3001ec242001b
:1057bc00044078007bff07000400370005c3b300ea
:1057cc001ec242000440780076ff07000080fa00f9
:1057dc00000006000200fa00004f7800c0dd29002e
:1057ec0082ff07001e407800d8ff07000080fa00f7
:1057fc00000006000400fa0010079800c0dd290024
:10580c007aff07001e0290004822de00044f780049
:10581c001e407800cdff07001e029000044f780058
:10582c001e407800c9ff07000080fa000000060047
:10583c000600fa001007980021079800c0dd290027
:10584c006aff07001e029000ae029000482ade009c
:10585c00044f78001e407800bcff07001e02900029
:10586c00ae029000402ade00044f78001e40780003
:10587c00b6ff07001e029000ae029000482bdd0020
:10588c004822de0004027300c82ade00044f7800b0
:10589c001e407800adff07001e029000044f7800f8
:1058ac001e407800a9ff07000080fa0000000600e7
:1058bc000a00fa00004f98000042eb00044f7800f9
:1058cc000e4a90001447980004c3b3002447980074
:1058dc0004c3b3003447980004c3b3004447980092
:1058ec000042eb00544798009e42900074ccb300e9
:1058fc0084cf5200060036002e42900004c2e8000d
:10590c00244798001e4290008443b000144798002e
:10591c009e42900034c6b30084cf5200070036007c
:10592c002e4290000442e800244798009e429000ca
:10593c00c4c9b30004c24200144798000042eb00f3
:10594c00044f7800240037009e4278000582fb004b
:10595c00a5ea290004824200944278001e4290007d
:10596c0084cf52001b003e009e4378000782fb0050
:10597c004222de00044278008482fb000503e8002a
:10598c000482fb000402e8000482e8006e427a0004
:10599c00844278009e4378000782fb0027eb2900a5
:1059ac00048243001442780004c242008682e8005c
:1059bc0004f77a009e4278000582fb00a5ea2900d4
:1059cc0004824200144278009e42900004c25200ad
:1059dc00144798001e4fe8001e427800e74f520013
:1059ec00d9ff36000042eb00544798000e82e800c5
:1059fc0004007800fdfe07000080fa00000006009d
:105a0c000c00fa00500798000042eb00044f78009d
:105a1c005e0290001407980004c3b300444798003a
:105a2c0004c3b3005447980004c3b3006447980000
:105a3c0004c3b3007447980004c3b300044f980028
:105a4c000042eb00044f7800250037009e4278009e
:105a5c000582fb0084024200e4e729000482420034
:105a6c00940278001e029000848f52001b003e00ae
:105a7c009e4378000782fb004222de00044278003d
:105a8c000483fb000482fb00640242006e427a0035
:105a9c00844278009e4378000782fb006302620018
:105aac0067ea2900048243001442780004c24200d1
:105abc00e402430004f77a009e4278000582fb0062
:105acc0084024200e4e729000482420014027800b8
:105adc009e02900004825200140798001e4fe800aa
:105aec001e427800f34f5200d8ff36000042eb0004
:105afc00144f98006402470004007800bbfe0700b6
:105b0c000080fa00000006000000fa00948080007b
:105b1c00e10f520003003200e20f52000400320089
:105b2c0006003700780107000042780006003700b5
:105b3c00ee0107000042780003003700f0dd290079
:105b4c00bbfc07000042eb00044078000080fa0028
:105b5c00000006000200fa00ebff0700004278008c
:105b6c00044f78001e4078008efe07001e4278001d
:105b7c00044078000080fa00000006000000fa00e3
:105b8c0094808000e10f520003003200e20f5200bb
:105b9c000400320006003700540107000042780070
:105bac0006003700ca0107000042780003003700e6
:105bbc00e0e229009efc07000042eb000440780064
:105bcc000080fa00000006000400fa00008fbe00fe
:105bdc0014002000948088001e00be0057010700ae
:105bec000080fa00000006000400fa00004f780064
:105bfc00110798001e427800e04f520002003a0054
:105c0c001e0090008afc07000080fa0000000600cd
:105c1c000000fa00a6000700004028003100200018
:105c2c00e9ff070004402800350020000001eb00cc
:105c3c00007028003139200006fe070000027800b1
:105c4c00441188002062a9000080fa0000000600c0
:105c5c000000fa0046808000578080000082eb0034
:105c6c008082eb00840f5300858f5b0012003200a2
:105c7c00448080005580800061024200e0824a002e
:105c8c0044808800558088004680800057808000c2
:105c9c00f4d3200035002000840f5300858f5b0067
:105cac0007003600daff0700a0eb29004ffe0700c3
:105cbc0026fc0700feff3700000000000100370043
:105ccc00000000000080fa00000006000400fa004a
:105cdc002047980014c0b300ae429000e7cf5200aa
:105cec00010036000042eb0051f32900044078001b
:105cfc00bdff0700ff3ffc00143a8000040f780042
:105d0c002e429000674262000482fb006702620030
:105d1c004822dd001e037800f58f2f0085026300fa
:105d2c0005027200040f78001e0278000400a00027
:105d3c00040f78000e02e800144278000483fb0084
:105d4c0084072000a509200037742000844b7800bc
:105d5c00854b7800864b78000e0278001442780050
:105d6c000483fb00640420007505200027742000c8
:105d7c00844b7800854b7800864b78000000fc0043
:105d8c006022b800448088005580880001003700ec
:105d9c00afff0700143a800061026200e00f52006e
:105dac00fbff3a002e429000e14f520006003200f9
:105dbc002e429000e34f52000c003a0003003700d3
:105dcc00a3ff07000100370000000000153a800017
:105ddc000402200004826200e00f5200f8ff32003f
:105dec00030037009aff0700010037000000000095
:105dfc00143a80004c22de00674262008482fb0071
:105e0c002e4290000482fb00848f5200f5ff3a0072
:105e1c000080fa00000006000000fa000080fa0082
:105e2c00000006000000fa000040eb00a7ff07008e
:105e3c00453a800004fc2f0004826200443a88003a
:105e4c000080fa00000006000000fa000040eb00a1
:105e5c009eff0700453a800004fc2f00048262007c
:105e6c00443a8800253a800004fe2f000482620028
:105e7c007400b300243a8800353a800004e02f0007
:105e8c0084826200140c200005027200343a8800ef
:105e9c00243a80000460a1000470a100243a880018
:105eac0010c0b30089ff07000080fa000000060054
:105ebc000000fa000040eb0084ff0700453a800028
:105ecc0004fc2f0004826200443a8800253a8000ca
:105edc0004fe2f0004826200243a8800353a8000c8
:105eec0004e02f0084826200f4032000050272009b
:105efc00343a8800243a80000460a1000470a100a8
:105f0c00243a880010c0b30070ff07000080fa002c
:105f1c00000006000000fa000040eb006bff0700d9
:105f2c00453a800004fc2f0004826200443a880049
:105f3c00253a800004fe2f0004826200243a880077
:105f4c00353a800004e02f0084826200a404200013
:105f5c0005027200343a8800243a80000460a100e3
:105f6c000470a100243a880010c0b30057ff07004a
:105f7c000080fa00000006000000fa000040eb0070
:105f8c0052ff0700253a800004fe2f0004826200b5
:105f9c00243a8800353a800004e02f0084826200a5
:105fac006402200005027200343a8800243a800012
:105fbc000460a1000470a100243a880030c0b30032
:105fcc0042ff07000080fa00000006000000fa0003
:105fdc0020c0b3003dff07000080fa00000006005f
:105fec000400fa00004f7800110798001e42780058
:105ffc00e04f520002003a001e0090008cfb07009c
:10600c000080fa00000006000400fa00008fbe00b9
:10601c001e00be004f0107001e02be00c42bde0096
:10602c00cc28dd004423de00068370000480800051
:10603c00158080000602420087824a000480880096
:10604c00158088000080fa00000006000200fa00ab
:10605c001411800068026200e00f5200040032004c
:10606c0034118000044f780040c4290070fb0700f5
:10607c001411800064026200e00f52000400320030
:10608c0034118000044f780080c5290068fb07009c
:10609c001411800062026200e00f52000300320013
:1060ac002222a900d0c6290061fb07000080fa005b
:1060bc00000006000200fa00004f780001003700d3
:1060cc0022fb0700151180000420200004826200ce
:1060dc00e00f5200faff3a009e4278000582fb0066
:1060ec00241188000080fa00000006000000fa006d
:1060fc001411800004427800614262000440780070
:10610c000080fa00000006000000fa0001003700d1
:10611c000efb07001411800061026200e00f5200b8
:10612c00fbff3200c9ff07003411800004427800e5
:10613c00044078000080fa00000006000400fa0019
:10614c00008fbe00114ea800174ea9001b4ea900cf
:10615c001d4ea9002536800004f82f0084826200b1
:10616c00a40220000502720024368800116ea900da
:10617c00176ea9001b6ea9001d6ea9004534800086
:10618c00f40f2c00848262000410200005027200bf
:10619c00443488000002eb00041188001e02be008b
:1061ac000001eb0020722b0011392000a9fc070024
:1061bc0000027800441188000400280004118800b3
:1061cc00044021001411880010c0b300743e20005c
:1061dc00050020001e03be00840f5300858f5b005a
:1061ec0001003e000040eb0021c829007cff0700a5
:1061fc00909e2e000100200083ff07002222a900a0
:10620c000100370034118000141180006802620014
:10621c00e00f5200fbff3a00141180006402620090
:10622c00e00f5200f7ff3a000080fa000000060071
:10623c000200fa009411800068026200e00f520024
:10624c0004003200b4118000044f780090ce290075
:10625c00f7fa07009411800064026200e00f52000c
:10626c0004003200b4118000044f7800d0cf290014
:10627c00effa07009411800062026200e00f5200f6
:10628c00030032003222a90020d12900e8fa0700cd
:10629c000080fa00000006000200fa00004f7800af
:1062ac0001003700a9fa0700951180000420200096
:1062bc0004826200e00f5200faff3a009e4278001e
:1062cc000582fb00a41188000080fa000000060083
:1062dc000000fa00941180000442780061426200d0
:1062ec00044078000080fa00000006000000fa006c
:1062fc000100370095fa07009411800061026200da
:10630c00e00f5200fbff3200c9ff0700b411800000
:10631c0004427800044078000080fa000000060077
:10632c000400fa00008fbe000002eb00841188000c
:10633c001e02be000001eb0020722b001139200060
:10634c0044fc070000027800c411880004002800f7
:10635c0084118800044021009411880010c0b300ff
:10636c00743e2000050020001e03be00840f530065
:10637c00858f5b0001003e000040eb0071d22900cc
:10638c0017ff0700909e2e00010020001eff070043
:10639c003222a90001003700b41180009411800052
:1063ac0068026200e00f5200fbff3a00941180007b
:1063bc0064026200e00f5200f7ff3a000080fa001e
:1063cc00000006000000fa00051280000404200002
:1063dc0004826200e00f52000300320040c2a900a8
:1063ec0080062a0092fa07000080fa0000000600de
:1063fc000200fa00000f7800f2ff07002412800060
:10640c0061026200e00f52000b003a000148a90043
:10641c001e02780044128800010037004bfa070076
:10642c00054080000440200004826200e00f52000e
:10643c00faff3200090037001e027800441288006f
:10644c000100370041fa0700051280000402200009
:10645c0004826200e00f5200faff3a0044128000fe
:10646c00040078000080fa00000006000000fa002a
:10647c00051380000404200004826200e00f520027
:10648c000300320060c2a900f0072a0068fa070076
:10649c000080fa00000006000200fa00000f7800ed
:1064ac00f2ff07002413800061026200e00f52002b
:1064bc000a003a000428a9001e0278004413880040
:1064cc000100370021fa07002440800062026200bc
:1064dc00e00f5200fbff3200090037001e0278006b
:1064ec00441388000100370018fa070005138000d8
:1064fc000402200004826200e00f5200faff3a000e
:10650c0044138000040078000080fa0000000600ac
:10651c000000fa0066fe07000080fa00000006008a
:10652c000000fa00faff0700f7f907000040280006
:10653c003100200001ff070000402800310020003e
:10654c0077ff0700d0fa0700e0022a0027fc0700bb
:04655c00ffff370006
:020000040000fa
:10656000f03fb1000180b10006003500ee030900e4
:1065700000000000403fb1000180b100fbff3d0082
:106580001000b000203fb00002003500008009007c
:086590000000000000000600fd
:020000040000fa
:106598000810000004000000800000000010000047
:1065a8000800000080000000121000000200000037
:0c65b80082000000010000000000000054
:020000040000fa
:020000040002f8
:04afe000cfff00009f
:020000040000fa
:020000040002f8
:04afe400efff00007b
:020000040000fa
:020000040002f8
:04afe80079ff0000ed
:020000040000fa
:020000040002f8
:04afec005bff000007
:020000040000fa
:020000040002f8
:04aff00078ff0000e6
:020000040000fa
:020000040002f8
:04aff400ffff00005b
:00000001FF
