:020000040000fa
:08000000000e040000000000e6
:020000040000fa
:10000800020c0000060c00000a0c00000e0c000098
:10001800120c0000160c00001a0c00001e0c000048
:10002800220c0000260c00002a0c00002e0c0000f8
:10003800320c0000360c00003a0c00003e0c0000a8
:10004800420c0000460c00004a0c00004e0c000058
:10005800520c0000560c00005a0c00005e0c000008
:10006800620c0000660c00006a0c00006e0c0000b8
:10007800720c0000760c00007a0c00007e0c000068
:10008800820c0000860c00008a0c00008e0c000018
:10009800920c0000960c00009a0c00009e0c0000c8
:1000a800a20c0000a60c0000aa0c0000ae0c000078
:1000b800b20c0000b60c0000ba0c0000be0c000028
:1000c800c20c0000c60c0000ca0c0000ce0c0000d8
:1000d800d20c0000d60c0000da0c0000de0c000088
:1000e800e20c0000e60c0000ea0c0000ee0c000038
:1000f800f20c0000f60c0000fa0c0000fe0c0000e8
:10010800020d0000060d00000a0d00000e0d000093
:10011800120d0000160d00001a0d00001e0d000043
:10012800220d0000260d00002a0d00002e0d0000f3
:10013800320d0000360d00003a0d00003e0d0000a3
:10014800420d0000460d00004a0d00004e0d000053
:10015800520d0000560d00005a0d00005e0d000003
:10016800620d0000660d00006a0d00006e0d0000b3
:10017800720d0000760d00007a0d00007e0d000063
:10018800820d0000860d00008a0d00008e0d000013
:10019800920d0000960d00009a0d00009e0d0000c3
:1001a800a20d0000a60d0000aa0d0000ae0d000073
:1001b800b20d0000b60d0000ba0d0000be0d000023
:1001c800c20d0000c60d0000ca0d0000ce0d0000d3
:1001d800d20d0000d60d0000da0d0000de0d000083
:1001e800e20d0000e60d0000ea0d0000ee0d000033
:0801f800f20d0000f60d0000fd
:020000040000fa
:10020800020c0000060c00000a0c00000e0c000096
:10021800120c0000160c00001a0c00001e0c000046
:10022800220c0000260c00002a0c00002e0c0000f6
:10023800320c0000360c00003a0c00003e0c0000a6
:10024800420c0000460c00004a0c00004e0c000056
:10025800520c0000560c00005a0c00005e0c000006
:10026800620c0000660c00006a0c00006e0c0000b6
:10027800720c0000760c00007a0c00007e0c000066
:10028800820c0000860c00008a0c00008e0c000016
:10029800920c0000960c00009a0c00009e0c0000c6
:1002a800a20c0000a60c0000aa0c0000ae0c000076
:1002b800b20c0000b60c0000ba0c0000be0c000026
:1002c800c20c0000c60c0000ca0c0000ce0c0000d6
:1002d800d20c0000d60c0000da0c0000de0c000086
:1002e800e20c0000e60c0000ea0c0000ee0c000036
:1002f800f20c0000f60c0000fa0c0000fe0c0000e6
:10030800020d0000060d00000a0d00000e0d000091
:10031800120d0000160d00001a0d00001e0d000041
:10032800220d0000260d00002a0d00002e0d0000f1
:10033800320d0000360d00003a0d00003e0d0000a1
:10034800420d0000460d00004a0d00004e0d000051
:10035800520d0000560d00005a0d00005e0d000001
:10036800620d0000660d00006a0d00006e0d0000b1
:10037800720d0000760d00007a0d00007e0d000061
:10038800820d0000860d00008a0d00008e0d000011
:10039800920d0000960d00009a0d00009e0d0000c1
:1003a800a20d0000a60d0000aa0d0000ae0d000071
:1003b800b20d0000b60d0000ba0d0000be0d000021
:1003c800c20d0000c60d0000ca0d0000ce0d0000d1
:1003d800d20d0000d60d0000da0d0000de0d000081
:1003e800e20d0000e60d0000ea0d0000ee0d000031
:0803f800f20d0000f60d0000fb
:020000040000fa
:10180000020000000a270400000000000a2704006c
:10181000000000000a270400000000000a2704005e
:10182000000000000a270400000000000a2704004e
:10183000000000000a270400000000000a2704003e
:10184000000000000a270400000000000a2704002e
:10185000000000000a270400000000000a2704001e
:10186000000000000a270400000000000a2704000e
:10187000000000000a270400000000000a270400fe
:10188000000000000a270400000000000a270400ee
:10189000000000000a270400000000000a270400de
:1018a000000000000a270400000000000a270400ce
:1018b000000000000a270400000000000a270400be
:1018c000000000000a270400000000000a270400ae
:1018d000000000000a270400000000000a2704009e
:1018e000000000000a270400000000000a2704008e
:1018f000000000000a270400000000000a2704007e
:10190000000000000a270400000000000a2704006d
:10191000000000000a270400000000000a2704005d
:10192000000000000a270400000000000a2704004d
:10193000000000000a270400000000000a2704003d
:10194000000000000a270400000000000a2704002d
:10195000000000000a270400000000000a2704001d
:10196000000000000a270400000000000a2704000d
:10197000000000000a270400000000000a270400fd
:10198000000000000a270400000000000a270400ed
:10199000000000000a270400000000000a270400dd
:1019a000000000000a270400000000000a270400cd
:1019b000000000000a270400000000000a270400bd
:1019c000000000000a270400000000000a270400ad
:1019d000000000000a270400000000000a2704009d
:1019e000000000000a270400000000000a2704008d
:1019f000000000000a270400000000000a2704007d
:101a0000000000000a270400000000000a2704006c
:101a1000000000000a270400000000000a2704005c
:101a2000000000000a270400000000000a2704004c
:101a3000000000000a270400000000000a2704003c
:101a4000000000000a270400000000000a2704002c
:101a5000000000000a270400000000000a2704001c
:101a6000000000000a270400000000000a2704000c
:101a7000000000000a270400000000000a270400fc
:101a8000000000000a270400000000000a270400ec
:101a9000000000000a270400000000000a270400dc
:101aa000000000000a270400000000000a270400cc
:101ab000000000000a270400000000000a270400bc
:101ac000000000000a270400000000000a270400ac
:101ad000000000000a270400000000000a2704009c
:101ae000000000000a270400000000000a2704008c
:101af000000000000a270400000000000a2704007c
:101b0000000000000a270400000000000a2704006b
:101b1000000000000a270400000000000a2704005b
:101b2000000000000a270400000000000a2704004b
:101b3000000000000a270400000000000a2704003b
:101b4000000000000a270400000000000a2704002b
:101b5000000000000a270400000000000a2704001b
:101b6000000000000a270400000000000a2704000b
:101b7000000000000a270400000000000a270400fb
:101b8000000000000a270400000000000a270400eb
:101b9000000000000a270400000000000a270400db
:101ba000000000000a270400000000000a270400cb
:101bb000000000000a270400000000000a270400bb
:101bc000000000000a270400000000000a270400ab
:101bd000000000000a270400000000000a2704009b
:101be000000000000a270400000000000a2704008b
:041bf00000000000f1
:020000040000fa
:101c00000fc520000eff20000e018800000000001c
:101c100000012000200288000c000700a0492300da
:101c20000100200011000700000020000000e0007b
:101c300002003200000002000000000076390200bd
:101c4000000000000040da000000fe004440a9004f
:101c500060e320000000e0000300320000002000ec
:101c6000a00188004440a8000000060091018800ff
:101c7000800078000000eb0015003700e280400093
:101c800032a0b4009101ba00e280400032a0b4005a
:101c90009102ba00e280400032a0b4000002eb00e2
:101ca000472bde00f507b200602ce10004003a008b
:101cb0000059eb008301e900fdff3e0004003700fe
:101cc0006128e100010032000082eb0004000700ff
:101cd0001101ba000200e000e8ff3a00000006002f
:101ce0003159ba008301e9000c0032002159ba00d1
:101cf0008301e900080032000400e00003003a001c
:101d0000e280400032a0b400f5ff370011d9ba00dc
:101d10008301e900faff3a008100e800e180400019
:101d200032a0b40000000600000000000000000027
:101d3000000000000000000003f0a200889fbe0029
:101d40008a9fbe008c1f7800040107000b0133003e
:101d50006450e1004f0032006420e1005200320084
:101d600003826c0007003b000905d0000306d00089
:101d7000820f54000c065d000200390002003200a0
:101d800089017800030678008582550004003d0033
:101d90000003fd008103fd008502ea008b854200ff
:101da000840f720002003b0060001000e080180009
:101db0006011b8000005eb007a28e1000a00390044
:101dc00006007800c75ddd00f707b2008780750068
:101dd0002d003700828171000a01780061056000e2
:101de0008180d1000080d3008502e900f9ff3b002b
:101df000060440008784480002003b006004140091
:101e0000e0841c000988a300070032008a81710069
:101e100082817100610164008904d1000884d300cb
:101e20008b05e800170037000978a30013003a007b
:101e30000b00e000130034008b05e90008044400a7
:101e400089844c000a4474000978a3000d003a000c
:101e50000b00e000070034008b05e9000804440093
:101e600089844c0001003a000b0020000978a3008f
:101e7000f7ff32000001eb000200370082817100a1
:101e80000a0178007a0007000cf0a70001f0a0001a
:101e9000c30037006420e10002003a00838f6c0029
:101ea000c30033000801be000200be00bc003700c2
:101eb000889fbe008a9fbe008c1f7800a700070085
:101ec000ae00330003866c006450e1002e00320047
:101ed0006420e100330032006150e1002f00320045
:101ee0006120e1003100320085855500eb07b0002c
:101ef0000900200008042000050037000804440001
:101f000089844c000a0031000603430087834b009c
:101f10000001530081815b00f8ff33000203be0023
:101f20000800a0000804440089844c00f6ff390032
:101f3000c639dd0083017300010032001300200068
:101f40008904d1000884d3000998a3000500320059
:101f50000800a7000300a0008904d1000884d30072
:101f60008b05e8008904d1000884d3000001eb0050
:101f70000281d2003e00070001f0a1000cf0a70092
:101f800001f0a000860037006420e10088003200e4
:101f90000801be000200be00f7ff37006120e1002b
:101fa000830032006000b800f3ff3700000020001b
:101fb00001f82700f0ff3700839f68000100e00070
:101fc00002003d0060001000e08018000300e00007
:101fd00002003d0060011100e08119007700070058
:101fe0004f00e00002003b0060001000e08018009d
:101ff0000000060014002000800037000001be0031
:10200000410007000470a70003f0a10003f8a3003b
:1020100013003a006509b1001000320009003500d4
:102020006928e100020035000100280000000500d9
:1020300000004000818048008502e900fcff3a0072
:1020400000000600f88f4200050035008100d10035
:102050000080d3008502e800fcff3a000000060083
:102060008000eb00000005006011b8007e00370022
:1020700081002000618055000b003d000b00200016
:1020800061fe2f000100e1001d003400828171001b
:10209000610164008904d1000884d3000000e800d5
:1020a000faff3a0071002000610064000300700034
:1020b000020060000900320061044400e0844c002a
:1020c0000988a500050032008b05e8006808e100da
:1020d00002003a008904d1000884d300f20f2000e6
:1020e0000258e10005003d00c75ddd00f907b200c0
:1020f0008980750008007800000006000bf82700b2
:102100008b00780000000500c70ade00f107b2006e
:10211000f50fb20008003200e1cf420002003200a9
:102120000170a00024000500810f70000100320042
:102130000408050044000500810f700002003a0009
:10214000140005008502e9000000400081c048003d
:10215000fcff3b000170a000240005000004be004d
:10216000e9ff07000003be000405be000200be0038
:10217000e5ff0700844f7500000006000200be0066
:102180006450e100050036006420e10002003600e2
:102190000968a30001003a000800be000160a00029
:1021a0004f0678004f05be004f04be000000060039
:1021b000f0ff2f00f1ff2700f9ff37006022b80081
:1021c000060220000000d0008180d2000482d200ec
:1021d0008582d2000000a0000202520083825a00d1
:1021e000030031000202420083824a000000a10085
:1021f0000603e900f3ff3a0000000600889fbe00d6
:102200008a9fbe00841f7800d4ff07004f0078002b
:1022100011003300f0ff2f00838f6c0006003b009d
:10222000040565000a00a7000800370009f0a600b1
:102230001000200008003700820f5400838f5c00dc
:10224000030039001000200001003e0000002000c3
:1022500009f0a7000000ea004f05be004f04be00d1
:102260000000e00000000600889fbe008a9fbe00bc
:1022700000827000040271000482710026003200a6
:102280000004be000200be006011b8006b0920000f
:10229000950220000182cf000a0039000541b100fb
:1022a0000082cf00070039000541b1000982cf004c
:1022b000040039000541b1000882cf000100390057
:1022c0000541b10005425200120032000a003b00f5
:1022d00082817100610164008100d1000080d3001f
:1022e0008984d3000884d3008b05e8000442e80009
:1022f000f7ff3a00070037000804440089844c00c7
:1023000000004800818048008b05e9000442e90094
:10231000f9ff3a0056ff07004f05be004f04be000c
:10232000000006000002780002003700015a780021
:102330000201e900e00f5100fcff3a000000060036
:020000040000fa
:10234000556e0000686100006e6400006c6500005e
:1023500064200000696e0000746500007272000065
:1023600075700000742c000020000000756e0000e5
:102370006b6e00006f7700006e0000005049000097
:1023800043320000344800004a3300003247000066
:1023900050320000303200000041000032000000e6
:1023a00041330000004100003400000041350000ce
:1023b000004100003600000044650000766900001e
:1023c0006365000020490000442000003d2000001b
:1023d0000020000028000000292c000020720000ce
:1023e0006576000069730000696f00006e200000d0
:1023f000002900000a0000000a0a00002a2a000042
:102400002a2a00002a2a00002a2a00002a2a00007c
:102410002a2a00002a2a00002a2a00002a2a00006c
:102420002a2a00002a2a00002a2a00002a2a00005c
:102430002a2a00002a2a00002a2a00002a2a00004c
:102440002a2a00002a2a00002a2a00002a2a00003c
:102450002a2a00002a2a00002a2a00002a2a00002c
:102460002a2a00002a2a00000a2a00002057000019
:10247000415200004e4900004e470000202d000050
:102480002074000068690000732000007072000072
:102490006f670000726100006d200000776100002e
:1024a00073200000636f00006d700000696c000015
:1024b00065640000206600006f7200002074000058
:1024c0006865000020770000726f00006e670000f2
:1024d000202000002a0a00002a2000006368000073
:1024e000697000002e20000054680000697300002d
:1024f00020700000726f000067720000616d0000c4
:10250000206d00006179000020700000726f0000f3
:102510006475000063650000207500006e650000b2
:10252000787000006563000074650000642000009e
:102530006265000068760000696f0000722100008b
:10254000202a00000a2a00002045000064690000db
:1025500074200000746800006520000068650000b9
:10256000616400006572000020660000696c000074
:1025700065730000207400006f200000707200007e
:102580006f700000657200006c790000206400002c
:1025900065660000696e0000652000007468000038
:1025a000697300002063000068690000702000006b
:1025b0002a0a00002a200000616e0000642000004a
:1025c000746f0000206900006e73000075720000d7
:1025d00065200000636f00007272000065630000f8
:1025e000742000006f7000006572000061740000cc
:1025f000696f00006e2e00002020000020200000e7
:1026000020200000202000002020000020200000ca
:10261000202000002020000020200000202a0000b0
:102620000a2a0000202000002020000020200000b6
:10263000202000002020000020200000202000009a
:10264000202000002020000020200000202000008a
:10265000202000002020000020200000202000007a
:10266000202000002020000020200000202000006a
:10267000202000002020000020200000202000005a
:102680002020000020200000202000002a0a000056
:102690002a2000004e4f0000544500003a20000060
:1026a0004966000020740000686900007320000083
:1026b0007761000073200000636f00006d70000000
:1026c000696c000065640000206600006f72000005
:1026d0002074000068650000206300006f72000035
:1026e00072650000637400002063000068690000e8
:1026f000702c000020200000202a00000a2a000080
:10270000206100006e640000206f00006e6c00000d
:10271000792000006f630000637500007273000091
:102720002061000074200000706f000077650000d9
:10273000722d00006f6e0000202800006e6f0000f8
:102740007420000064750000726900006e6700006c
:1027500020610000204d0000434c0000522000008a
:1027600020200000202000002a0a00002a2000006b
:102770007265000073650000742900002c200000c1
:102780007665000072690000667900002074000020
:1027900068610000742000004156000044440000bd
:1027a000206100006e6400002041000056530000cc
:1027b000532000006172000065200000636f00007c
:1027c0006e6e00006563000074650000642e0000fa
:1027d00020200000202a00000a2a0000204f0000cc
:1027e0006e20000074680000652000005049000061
:1027f00043320000344800003332000047500000ec
:1028000032300000322c0000206e00006f74000097
:10281000206300006f6e00006e65000063740000ae
:10282000696e00006720000041560000444400002b
:102830002020000020200000202000002020000098
:10284000202000002a0a00002a20000070720000e8
:102850006f64000075630000657300002074000061
:1028600068690000732000006d650000737300004c
:1028700061670000652000006f6e00006c79000049
:102880002061000074200000706f00007765000078
:10289000722d0000757000002e2000002020000026
:1028a0002020000020200000202000002020000028
:1028b000202a00000a2a00002a2a00002a2a0000f2
:1028c0002a2a00002a2a00002a2a00002a2a0000b8
:1028d0002a2a00002a2a00002a2a00002a2a0000a8
:1028e0002a2a00002a2a00002a2a00002a2a000098
:1028f0002a2a00002a2a00002a2a00002a2a000088
:102900002a2a00002a2a00002a2a00002a2a000077
:102910002a2a00002a2a00002a2a00002a2a000067
:102920002a0a0000004600006173000074200000c5
:1029300052430000204f0000736300000a000000b3
:102940004661000073740000205200004320000024
:102950004f73000063200000776900007468000076
:10296000205000004c4c00000a0000005072000093
:10297000696d000061720000792000004f73000053
:102980006320000028580000542c0000204800005c
:10299000532c000020450000432900000a000000dd
:1029a00050720000696d0000617200007920000023
:1029b0004f7300006320000028580000542c0000d2
:1029c00020480000532c000020450000432900004f
:1029d000207700006974000068200000504c00005f
:1029e0004c0a000000530000656300006f6e000099
:1029f0006461000072790000204f000073630000e2
:102a00000a0000004c6f000077200000506f0000ab
:102a1000776500007220000052430000204f000044
:102a2000736300000a000000466100007374000038
:102a300020520000432000004f730000632f00006d
:102a4000313600000a000000466100007374000087
:102a500020520000432000004f730000632f00004d
:102a60004e0a0000005500006e6b00006e6f000003
:102a7000776e0000206f000073630000696c000037
:102a80006c610000746f0000722000007479000017
:102a9000706500002e0000000a440000657600000a
:102aa0006963000065200000686100007320000079
:102ab00062650000656e0000206900006e20000065
:102ac000736c000065650000702000006d6f0000f1
:102ad000646500000a0000000a44000065760000fa
:102ae0006963000065200000686100007320000039
:102af00062650000656e0000206900006e20000025
:102b0000696400006c650000206d00006f640000c7
:102b1000650a0000000a00005265000073650000ad
:102b2000742000006361000075730000653a0000c6
:102b300020000000506f000077650000722d00003b
:102b40006f6e00002e0a0000005300006f66000048
:102b5000747700006172000065200000526500007b
:102b600073650000742e00000a0000005761000029
:102b700074630000686400006f6700002054000068
:102b8000696d0000656f0000757400003a20000058
:102b9000000a0000004d0000434c000052200000dd
:102ba000617300007365000072740000696f0000bb
:102bb0006e2e00000a000000427200006f770000d5
:102bc0006e2d00006f750000742e00000a000000da
:102bd0005472000061700000204300006f6e00001e
:102be000666c000069630000742e00000a0000009b
:102bf000496c00006c650000676100006c200000fb
:102c0000436f00006e64000069740000696f00008b
:102c10006e2e00000a000000436f00006e66000088
:102c2000696700007572000061740000696f000040
:102c30006e2000004d690000736d0000617400009b
:102c4000636800002e0a0000005500006e6b000053
:102c50006e6f0000776e0000207200006573000048
:102c6000657400002e0a000000450000727200002a
:102c70006f7200002074000072610000707000002c
:102c8000656400003a2000000050000072690000f6
:102c90006f72000069740000793a000020000000a3
:102ca0002c20000056650000637400006f72000065
:102cb000206e0000756d000062650000723a000031
:102cc000200000000a0a00000045000072720000a7
:102cd0006f720000206900006e200000433a00007f
:102ce0002f650000636500003337000032340000b8
:102cf0002f70000069630000323400006c6900002e
:102d0000625f0000616c00006c2f00006c690000c5
:102d1000622f000073720000632f000070690000d2
:102d200063320000345f000075740000696c0000bd
:102d30002e630000206c0000696e0000652000001a
:102d400034360000393a000020410000535300009f
:102d5000455200005428000075310000365f000025
:102d60006272000067680000203c00003d20000007
:102d70003129000020660000616900006c650000d8
:102d8000642e00000a00000045720000726f00000f
:102d900072200000696e0000204300003a2f0000fe
:102da000656300006533000037320000342f0000f7
:102db0007069000063320000346c0000696200003a
:102dc0005f6100006c6c00002f6c00006962000005
:102dd0002f730000726300002f7000006963000011
:102de000323400005f750000746900006c2e000032
:102df000632000006c6900006e6500002034000054
:102e0000373500003a2000004153000053450000d0
:102e100052540000286600005f62000072670000e4
:102e2000203c00002036000035350000333500001e
:102e30002e3500002920000066610000696c00004a
:102e4000656400002e0a0000000000000000000081
:102e500000000000003e00005b4f00005b3e0000f1
:102e60003e6b00004f6b00003e1c00003e7c0000eb
:102e70003e1c0000183c00007e3c0000181c0000b6
:102e8000577d0000571c00001c5e00007f5e0000a4
:102e90001c000000183c000018000000ffe70000c4
:102ea000c3e70000ff000000182400001800000025
:102eb000ffe70000dbe70000ff300000483a0000b9
:102ec000060e000026290000792900002640000097
:102ed0007f05000005070000407f00000525000079
:102ee0003f5a00003ce700003c5a00007f3e0000d3
:102ef0001c1c0000080800001c1c00003e7f000095
:102f0000142200007f220000145f00005f00000018
:102f10005f5f0000060900007f0100007f000000e5
:102f200066890000956a0000606000006060000033
:102f300060940000a2ff0000a294000008040000ba
:102f40007e04000008100000207e00002010000019
:102f5000080800002a1c0000080800001c2a0000c5
:102f6000080800001e10000010100000100c0000e7
:102f70001e0c00001e0c0000303800003e3800001f
:102f8000300600000e3e00000e06000000000000ab
:102f90000000000000000000005f000000000000d2
:102fa0000007000000070000001400007f1400006c
:102fb0007f140000242a00007f2a00001223000052
:102fc000130800006462000036490000562000002b
:102fd000500000000807000003000000001c000073
:102fe0002241000000000000412200001c000000ff
:102ff0002a1c00007f1c00002a080000083e000078
:103000000808000000800000703000000008000088
:1030100008080000080800000000000060600000d0
:103020000020000010080000040200003e510000d3
:10303000494500003e000000427f000040000000c3
:103040007249000049490000462100004149000042
:103050004d33000018140000127f000010270000fc
:1030600045450000453900003c4a00004949000040
:10307000314100002111000009070000364900001d
:10308000494900003646000049490000291e000059
:1030900000000000140000000000000040340000a8
:1030a000000000000008000014220000411400008d
:1030b0001414000014140000004100002214000049
:1030c0000802000001590000090600003e4100000e
:1030d0005d5900004e7c000012110000127c0000bf
:1030e0007f49000049490000363e00004141000090
:1030f000412200007f410000414100003e7f00006e
:1031000049490000494100007f0900000909000009
:10311000013e000041410000517300007f080000a3
:10312000080800007f000000417f0000410000000f
:1031300020400000413f0000017f00000814000013
:10314000224100007f40000040400000407f00001e
:10315000021c0000027f00007f0400000810000035
:103160007f3e000041410000413e00007f09000019
:1031700009090000063e000041510000215e0000e8
:103180007f09000019290000462600004949000077
:1031900049320000030100007f010000033f0000ee
:1031a00040400000403f00001f2000004020000081
:1031b0001f3f000040380000403f00006314000043
:1031c00008140000630300000478000004030000fa
:1031d00061590000494d0000430000007f4100009c
:1031e000414100000204000008100000200000001f
:1031f00041410000417f0000040200000102000084
:103200000440000040400000404000000003000077
:10321000070800000020000054540000784000001f
:103220007f28000044440000383800004444000077
:103230004428000038440000442800007f38000083
:103240005454000054180000000800007e090000db
:1032500002180000a4a400009c7800007f08000071
:103260000404000078000000447d000040000000dd
:1032700020400000403d0000007f000010280000ba
:1032800044000000004100007f400000007c00007e
:1032900004780000047800007c08000004040000aa
:1032a000783800004444000044380000fc18000056
:1032b00024240000181800002424000018fc00003a
:1032c0007c0800000404000008480000545400007a
:1032d00054240000040400003f440000243c00008b
:1032e00040400000207c00001c2000004020000026
:1032f0001c3c000040300000403c0000442800001e
:1033000010280000444c000090900000907c0000c9
:1033100044640000544c00004400000008360000e3
:1033200041000000000000007700000000000000e5
:103330004136000008000000020100000204000005
:10334000023c000026230000263c00001ea10000d5
:10335000a1610000123a000040400000207a000005
:103360003854000054550000592100005555000004
:1033700079410000225400005478000042210000ee
:10338000555400007840000020540000557900009a
:10339000400c00001e52000072120000395500005f
:1033a000555500005939000054540000545900008c
:1033b000395500005454000058000000004500003a
:1033c0007c41000000020000457d0000420000003a
:1033d000014500007c4000007d1200001112000039
:1033e0007df000002825000028f000007c5400003b
:1033f0005545000000200000545400007c5400009b
:103400007c0a0000097f00004932000049490000a1
:10341000493200003a440000444400003a320000bf
:103420004a480000483000003a41000041210000b5
:103430007a3a00004240000020780000009d000021
:10344000a0a000007d3d000042420000423d00007f
:103450003d400000404000003d3c000024ff0000d3
:1034600024240000487e000049430000662b000031
:103470002ffc00002f2b0000ff09000029f60000a0
:1034800020c00000887e00000903000020540000d6
:103490005479000041000000004400007d4100001c
:1034a00030480000484a0000323800004040000028
:1034b000227a0000007a00000a0a0000727d0000f3
:1034c0000d190000317d000026290000292f000081
:1034d0002826000029290000292600003048000085
:1034e0004d400000203800000808000008080000d7
:1034f0000808000008080000382f000010c800006d
:10350000acba00002f10000028340000fa000000c0
:10351000007b000000000000081400002a140000d6
:1035200022220000142a000014080000aa00000053
:1035300055000000aaaa000055aa000055aa0000e4
:103540000000000000ff000000100000101000004c
:10355000ff0000001414000014ff00000010000021
:1035600010ff000000ff000010100000f01000002d
:10357000f014000014140000fc00000014140000fb
:10358000f7000000ff00000000ff000000ff000047
:1035900014140000f4040000fc14000014170000d0
:1035a000101f0000101000001f1000001f1400006a
:1035b000141400001f0000001010000010f00000a4
:1035c00000000000000000001f10000010100000ac
:1035d000101f00001010000010100000f01000007c
:1035e0000000000000ff000010100000101000009c
:1035f000101000001010000010ff0000100000006c
:1036000000000000ff14000000000000ff000000a8
:10361000ff000000001f0000101700000000000065
:10362000fc040000f4140000141700001017000040
:1036300014140000f4040000f400000000ff000077
:1036400000f700001414000014140000141400000b
:1036500014f7000000f70000141400001417000015
:1036600014100000101f0000101f000014140000b0
:1036700014f400001410000010f0000010f000001e
:10368000000000001f1000001f00000000000000ec
:103690001f1400000000000000fc000014000000e7
:1036a00000f0000010f0000010100000ff100000fb
:1036b000ff14000014140000ff140000101000009c
:1036c000101f00000000000000000000f0100000cb
:1036d000ffff0000ffff0000fff00000f0f000001f
:1036e000f0f00000ffff0000ff00000000000000fd
:1036f00000000000ffff00000f0f00000f0f000090
:103700000f3800004444000038440000fc4a000028
:103710004a4a0000347e0000020200000606000053
:10372000027e0000027e0000026300005549000096
:103730004163000038440000443c000004400000a5
:103740007e2000001e200000060200007e02000015
:1037500002990000a5e70000a59900001c2a0000be
:10376000492a00001c4c000072010000724c00004d
:10377000304a00004d4d0000303000004878000015
:1037800048300000bc6200005a4600003d3e000088
:1037900049490000490000007e01000001010000cd
:1037a0007e2a00002a2a00002a2a00004444000041
:1037b0005f44000044400000514a000044400000c3
:1037c000404400004a5100004000000000ff00009b
:1037d00001030000e0800000ff000000000800007e
:1037e000086b00006b080000361200003624000051
:1037f000360600000f0900000f0600000000000060
:103800001818000000000000001000001000000068
:1038100030400000ff010000010000001f01000017
:10382000011e0000001900001d170000120000001a
:103830003c3c00003c3c0000000000000000000098
:103840000000000045720000726f0000722000004e
:10385000696e0000204300003a2f000065630000fd
:103860006533000037320000342f0000706900001b
:1038700063320000346c0000696200005f61000088
:103880006c6c00002f6c0000696200002f73000058
:10389000726300002f700000696300003234000082
:1038a0005f73000065720000696100006c2e00000b
:1038b000632000006c6900006e6500002038000085
:1038c000303a0000204900006e760000616c000074
:1038d00069640000205500004152000054000000bf
:1038e0003078000000450000727200006f72000026
:1038f000206900006e200000433a00002f650000a0
:103900006365000033370000323400002f70000080
:1039100069630000323400006c690000625f0000df
:10392000616c00006c2f00006c690000622f0000c9
:1039300073720000632f00007069000063320000a2
:10394000345f00007365000072690000616c000064
:103950002e630000206c0000696e000065200000ee
:1039600032390000353a0000204900006e76000030
:10397000616c0000696400002055000041520000a5
:103980005400000045720000726f000072200000b9
:10399000696e0000204300003a2f000065630000bc
:1039a0006533000037320000342f000070690000da
:1039b00063320000346c0000696200005f61000047
:1039c0006c6c00002f6c0000696200002f73000017
:1039d000726300002f700000696300003234000041
:1039e0005f73000065720000696100006c2e0000ca
:1039f000632000006c6900006e6500002033000049
:103a0000333400003a200000496e00007661000067
:103a10006c69000064200000554100005254000011
:103a20000000000050c3000030750000204e000070
:103a30001027000088130000b80b0000d00700001a
:103a4000e8030000f40100002c010000c8000000a1
:103a500064000000320000001e000000140000009e
:103a60000a00000005000000030000000200000042
:103a7000010000000503000002010000321e0000ea
:103a8000140a000005030000020100000503000005
:103a90000201000005030000020100000a0a000004
:103aa000596f000075720000206300006c6f000009
:103ab000636b000020630000686f00006963000012
:103ac0006520000066610000696c0000656400000c
:103ad000207400006f200000696e0000697400000f
:103ae000696100006c6900007a6500002e2000000a
:103af0005365000065200000433a00002f65000078
:103b00006365000033370000323400002f7000007e
:103b100069630000323400006c690000625f0000dd
:103b2000616c00006c2f00006c690000622f0000c7
:103b300073720000632f00007069000063320000a0
:103b4000345f0000636c00006f6300006b66000070
:103b500072650000712e0000632000006c69000097
:103b60006e65000020310000343600002066000041
:103b70006f720000206d00006f7200006520000071
:103b80006465000074610000696c0000732e000021
:103b900000450000727200006f7200002069000092
:103ba0006e200000433a00002f65000063650000ae
:103bb00033370000323400002f70000069630000ca
:103bc000323400006c690000625f0000616c00002c
:103bd0006c2f00006c690000622f000073720000ff
:103be000632f00007069000063320000345f000042
:103bf000636c00006f6300006b660000726500007c
:103c0000712e0000632000006c6900006e650000ea
:103c100020310000373200003a20000041530000fc
:103c2000534500005254000028750000385f000022
:103c3000736f00007572000063650000203c000097
:103c4000203800002920000066610000696c000037
:103c5000656400002e0a00000000000055410000cd
:103c600052540000312000007061000072690000b1
:103c70007479000020650000727200006f7200000d
:103c80000a0000005541000052540000312000009d
:103c900066720000616d0000696e00006720000020
:103ca00065720000726f0000720a0000005500008b
:103cb0004152000054310000206f00007665000082
:103cc00072720000756e00002065000072720000c4
:103cd0006f7200000a00000045720000726f000061
:103ce00072200000696e0000204300003a2f00009f
:103cf000656300006533000037320000342f000098
:103d00007069000063320000346c000069620000da
:103d10005f6100006c6c00002f6c000069620000a5
:103d20002f730000726300002f70000069630000b1
:103d3000323400005f75000061720000742e0000d4
:103d4000632000006c6900006e65000020330000f5
:103d5000353200003a200000415300005345000076
:103d60005254000028750000333200005f620000ea
:103d7000617500006452000061740000652000005d
:103d80003e3d00002031000030300000304c00008b
:103d90002920000066610000696c00006564000075
:103da0002e0a0000000000000a2e00002e2f000046
:103db0004e6500007665000072570000616e0000dd
:103dc0006465000072420000616e0000642e000015
:103dd000632c000020620000756900006c74000014
:103de000206f00006e2000004f6300007420000070
:103df0003231000020320000303100003420000059
:103e00006174000020310000353a000035350000b3
:103e10003a320000350a0000004c000061740000d6
:103e20006974000075640000653a0000200000001d
:103e30004c6f00006e67000069740000756400003c
:103e4000653a000020000000546900006d65000024
:103e50003a20000000000000493200004331000019
:103e600020530000746100007274000000490000db
:103e70003243000031200000525300007461000002
:103e8000727400000049000032430000312000003d
:103e9000537400006f7000000049000032430000be
:103ea000312000005075000074000000493200000d
:103eb0004350000055540000312c0000204e0000fb
:103ec000414b000020720000657400007572000014
:103ed0006e650000642e00000049000032430000bf
:103ee00031200000476500007400000024500000ed
:103ef0004d5400004b330000313400002c300000e2
:103f00002c3100002c3000002c3000002c30000040
:103f10002c3000002c3000002c3000002c30000031
:103f20002c3000002c3000002c3000002c30000021
:103f30002c3000002c3000002c3000002c30000011
:103f40002c3000002c3000002a320000390d000017
:103f50000a000000245000004d5400004b320000c5
:103f6000323000002c31000030300000302a0000d8
:103f7000314600000d0a0000000000005350000010
:103f800049310000205200006563000065690000af
:103f900076650000204f0000766500007266000024
:0c3fa0006c6f0000770a000000000000b9
:020000040000fa
:103fac000400fa00008fbe001e00be002f0e07009a
:103fbc001e02be00c42bde00cc28dd004423de0034
:103fcc0006837000e4618000f56180000602420007
:103fdc0087824a00e4618800f56188000080fa005d
:103fec00000006000000fa00e41320001412880000
:103ffc003536800004fe2f00048262007400b3008a
:10400c003436880035368000f40f2e00848262002e
:10401c00048020000482720034368800c8a2a900f3
:10402c00cea2a9006b60a900cca2a8002ca3a8006a
:10403c00c862a900ce62a90068e0a900cc62a80001
:10404c0041e2a8000080fa00000006000000fa001f
:10405c00e4ff07000002eb00846088000002eb0024
:10406c00946088000002eb00a46088000002eb0062
:10407c00b460880014c0b3000440780018ecb7009a
:10408c0014c0b3000440780019ecb70004082000f9
:10409c00d460880004042000e4608800d4c3b3001a
:1040ac00044078001eecb700cca2a90000a82100a7
:1040bc0061002000baff0700cca2a8002c83a80046
:1040cc00c842a900ce42a90068c0a9006410220011
:1040dc00e00a20000400010064102200500d2000b2
:1040ec0004000100641022000008200004000100fc
:1040fc0064102200800a20000400010064102200d9
:10410c00f00320000400010064102200300d200098
:10411c0004000100641022000000eb000400010008
:10412c00641022000004200004000100641022002e
:10413c00d00820000400010064102200400120007f
:10414c0004000100641022000002200004000100a1
:10415c00641022000000eb00040001006410220037
:10416c00100a20000400010064102200800c2000c2
:10417c000400010064102200a00d200004000100c6
:10418c0064102200200120000400010064102200b1
:10419c00100820000400010064102200f00c200024
:1041ac000400010064102200900d200004000100a6
:1041bc0064102200100f2000040001006410220083
:1041cc00b00d200004000100641022000004200047
:1041dc000400010064102200400a200004000100c9
:1041ec0064102200600a2000040001006410220008
:1041fc00f00a2000040001000080fa000000060014
:10420c000200fa00004f7800cc62a800cc42a90052
:10421c00cc62a9009e4278000582fb000400780065
:10422c00810d0700cc62a8000080fa000000060097
:10423c000200fa00004f7800cc62a800cc42a80023
:10424c00cc62a9009e4278000582fb000400780035
:10425c00750d0700cc62a8000080fa000000060073
:10426c000200fa0010c2b300e5ff07000040eb00ab
:10427c00e3ff0700f0c7b300e1ff070020c2b30063
:10428c00dfff07000040eb00ddff070070c0b3004c
:10429c00dbff0700cc62a800cc42a800cc62a900ce
:1042ac000002eb00040f78000700370004802000a8
:1042bc001e024200144278000482fb0004007800c5
:1042cc00590d07001e0fe800f43f20009e027800f5
:1042dc00848f5200f5ff3600cc62a8000080fa00f3
:1042ec00000006000200fa00004f78001e42780021
:1042fc00e04f5200020032001e42780001003700ed
:10430c0014c0b3000440780018ecb7000080fa0029
:10431c00000006000200fa00000f78001e02780070
:10432c00b4608800b4608000a46088000080fa004b
:10433c00000006000400fa00000f78001107980036
:10434c001e027800846088001e0290009460880031
:10435c000080fa00000006000000fa000240200075
:10436c008000eb0000802000ebf707000080fa00d3
:10437c00000006000200fa00881f7800004f780049
:10438c001e427800ea4f5200030032001e427800b1
:10439c00ea4f52000a003a009560800084c1200068
:1043ac00144278000482fb004322dd0004824200a8
:1043bc00946088000002eb008460880035003700b0
:1043cc001e427800ed4f5200320032001e4278003f
:1043dc00ed4f52002f0032004853220084c12000c0
:1043ec00144278008482fb00b4608000a1608000dd
:1043fc001e4378000680fb0097608000866080007a
:10440c0081017800000178008700780006007800b0
:10441c00080001008660800084c1200014427800ee
:10442c000482fb006622b9000402780004024300f7
:10443c008460880094c1200014427800e04f520040
:10444c001400320086608000d760800084c1200098
:10445c00144278008482fb00a4ff2f0004aab90048
:10446c000402780004824300840f530009003400d6
:10447c009560800084c12000144278000482fb0007
:10448c004322dd0004824200946088000002eb00ad
:10449c00846088004f0478000080fa000000060059
:1044ac000400fa00100798000042eb00044f78005b
:1044bc000a0037009e4278000582fb009e029000a5
:1044cc000482420094427800154798001e429000e6
:1044dc0004407800a7ff07001e4fe8009e427800ba
:1044ec000582fb009e029000048242001442780078
:1044fc00e04f5200efff3a000080fa000000060087
:10450c001200fa0050079800610798007207980093
:10451c00030f98005e029000e00f5200c7003500b8
:10452c00de029000f4072000848f5200c5003c008e
:10453c006e029000e00f520006003d00fe0290005b
:10454c006e02900004824200740798000002eb0097
:10455c0064079800ee0290007e0290008482420074
:10456c0004042000848f5200040034000504200051
:10457c006e02900004825200740798007e02900034
:10458c00e00f5200b10034006e02900054479800c6
:10459c007e029000044f78000480200014079800dd
:1045ac005e4290000482fb004322de00044278004d
:1045bc000482fb004722dd009e0290000482420030
:1045cc00140798005e0290009e0290000482420044
:1045dc00140798005e42900067426200644798009e
:1045ec006e429000e04f52004200320085c0b30092
:1045fc006e42900004c25200644798006e429000d4
:10460c008482fb0004c020000482420094427800a3
:10461c00454798006e4290009e42780084cf52002d
:10462c000b0031006e4290008482fb001e43780028
:10463c000682fb0004825200f50f200004aade0063
:10464c00844278004e42900004c2620044479800b5
:10465c000e0a9000e10f520005003200e10f5200eb
:10466c000a003900e20f5200110032001700370027
:10467c001e029000944278004e42900004c27200d8
:10468c009e029000844a7800100037001e029000b1
:10469c0014427800844278004e42900004c2ea0032
:1046ac0004c262009e029000844a78000700370022
:1046bc001e029000944278004e42900004c26a00a0
:1046cc009e029000844a7800000000006e42900028
:1046dc009e42780084cf52005e0039009e427800e2
:1046ec006e42900004cf52001e0290000408b000ed
:1046fc00140798001e427800e74f52002300360042
:10470c000e0a9000e20f52000e003a001e029000ba
:10471c001442780004c2ea009e029000844a780099
:10472c001e0290000408b000140798001e42780086
:10473c00684f52001e427800e74f5200f3ff3e00d4
:10474c00120037000e0a9000e10f520002003a00ee
:10475c0000c2eb00010037000042eb0074479800e8
:10476c001e029000fe429000054a78001e02900046
:10477c000408b000140798001e437800684f5300db
:10478c001e427800e74f5200f5ff3e001e427800b3
:10479c00e04f5200300032009e42780067c2620047
:1047ac00644798006e4290008482fb0084c0200015
:1047bc000482420014437800064f98000e0a9000c1
:1047cc00e10f520005003200e10f52000a003900df
:1047dc00e20f5200110032001f0037001e02900041
:1047ec00944278000e4a900004c272009e0290001f
:1047fc00844a7800180037001e029000144278009a
:10480c00844278000e4a900004c2ea0004c262009e
:10481c009e029000844a78000f0037001e02900020
:10482c00944278000e4a900004c26a009e029000e6
:10483c00844a7800000000000700370000000000e8
:10484c0005003700000000000300370000000000e6
:10485c0001003700000000000080fa000000060094
:10486c000c00fa00100798002107980032079800f6
:10487c0043079800540798001e029000040f78001c
:10488c0006003700de0190004e019000ae00900053
:10489c001e0078001aff07001e0fe8009e02900011
:1048ac003e029000048242009e0f5200f5ff3c0035
:1048bc000080fa00000006000600fa00000f7800e5
:1048cc0011079800220798001e027800e00f520092
:1048dc0059003500d46080009e0f520058003400ff
:1048ec001e029000e00f520057003500e56080007a
:1048fc001e029000848f5200550034002e0290004e
:10490c00e10f520005003200e10f52001a0039008d
:10491c00e20f5200300032004e0037009e02900031
:10492c0084002000110009008402d80000027800e5
:10493c00c722dd001e8342004722dd009e0242009a
:10494c0004802000048242001442780084427800e3
:10495c001e0290006702620017002000043add007e
:10496c000442780004c272000580200085024300d6
:10497c00844a7800370037009e02900084002000a3
:10498c00110009008402d80000027800c722dd0063
:10499c001e8342004722dd009e024200048020005c
:1049ac000482420014427800844278001e02900077
:1049bc006702620017002000043add000442780010
:1049cc0004c2ea0004c26200058020008502430094
:1049dc00844a78001f0037009e029000840020005b
:1049ec00110009008402d80000027800c722dd0003
:1049fc001e8342004722dd009e02420004802000fc
:104a0c000482420014427800844278001e02900016
:104a1c006702620017002000043add0004427800af
:104a2c0004c26a000580200085024300844a780095
:104a3c0000000000070037000000000005003700f0
:104a4c0000000000030037000000000001003700e8
:104a5c00000000000080fa00000006001000fa00c0
:104a6c002007980031079800024f980053079800d0
:104a7c0064079800654f9800d56080002e02900066
:104a8c00848f520096003400e56080003e02900056
:104a9c00848f5200940034006e4a90000482fb0014
:104aac006622b900840278002e0290000482420033
:104abc000402e900e00f52008d0035006e4a9000b0
:104acc000482fb00c322dd003e02900004824200ff
:104adc000402e900e00f5200870035000042eb00b1
:104aec00044f78007a0037001e427800e54f5200e0
:104afc0003003a000042eb00144798000b0037000b
:104b0c000e4a90000482fb006522b9000402780072
:104b1c00840278001e02fb00848242006472290029
:104b2c000482420094427800154798000042eb0042
:104b3c0024479800620037001e4290000482fb005c
:104b4c006102620004427800e04f520029003200fa
:104b5c006e4a9000e14f52000c003a002e42900039
:104b6c008402fb003e029000848242001e03fb0084
:104b7c002e029000040243005e0190008500780034
:104b8c00040078004cff0700460037006e4a900086
:104b9c000480fb006e4a90008483fb002e42900040
:104bac008402fb006e4a90000482fb0004aab90048
:104bbc00840278003e029000048342009e02fb00b7
:104bcc006e4a90000482fb0004aab90084027800ab
:104bdc002e029000848242005e02900080017800d8
:104bec000701780086007800050078001cff07009c
:104bfc002c003700ee0290005e029000848f520071
:104c0c00280032006e4a9000e14f52000c003a002e
:104c1c002e4290008402fb003e02900084824200ef
:104c2c001e03fb002e029000040243006e01900054
:104c3c0085007800040078001fff0700190037007a
:104c4c006e4a90000480fb006e4a90008483fb0047
:104c5c002e4290008402fb006e4a90000482fb00fe
:104c6c0004aab900840278003e029000048342003a
:104c7c009e02fb006e4a90000482fb0004aab9005d
:104c8c00840278002e029000848242006e02900012
:104c9c008001780007017800860078000500780014
:104cac00effe07001e4290000482fb000402d100bc
:104cbc00144798002e4290000442e80024479800c4
:104ccc002e429000e74f52009bff34001e4fe8002d
:104cdc001e427800e54f520083ff34000700370076
:104cec000000000005003700000000000300370042
:104cfc000000000001003700000000000080fa00f6
:104d0c00000006000000fa00160907000080fa00f7
:104d1c00000006000400fa00004f7800110798000c
:104d2c001e427800e04f520002003a001e00900034
:104d3c004b0007000080fa00000006000000fa009b
:104d4c002d23a800c9e2a900cfe2a9006960a9003f
:104d5c00cfe2a80004a821006500200004628800ae
:104d6c00156288006022b800e4618800f561880053
:104d7c00cde2a900020007000080fa000000060046
:104d8c000000fa00e4618000f561800061024200dd
:104d9c00e0824a00e4618800f5618800e6618000e9
:104dac00f76180000462800015628000840f53005c
:104dbc00858f5b0004003600050007006022b800f8
:104dcc00e4618800f56188000080fa0000000600ac
:104ddc000000fa00641680000482ea004f22de0014
:104dec00044278000482fb004f22dd00661680002e
:104dfc00f5ff2700850263000482720064168800a8
:104e0c000080fa00000006003600f800809fbe000b
:104e1c00829fbe00849fbe00869fbe003400f800b7
:104e2c0000002000a00188000000fa00c4c420008b
:104e3c0005078000050a7800001a29000800070001
:104e4c000080fa003400f9004f03be004f02be0090
:104e5c004f01be004f00be003600f90000400600b6
:104e6c000200fa00000f780044628000e00f52004c
:104e7c0003003a001e027800446288000000fe0025
:104e8c000080fa00000006000600fa0010079800e7
:104e9c00210798001e009000000f78001e02900061
:104eac00ae029000402ade0005002000044278008b
:104ebc000440780032e0b7001e0278001482ba0079
:104ecc0005002000c023dd00060020001e02780033
:104edc001402ba00050020000402730085827300de
:104eec000400be000080fa00000006000e00fa006c
:104efc0000002000f10f2000e3ff07000002be00bd
:104f0c00340798004507980020002000f10f20007e
:104f1c00ddff07000002be005407980065079800eb
:104f2c0014c0b300044f7800641b290014079800c8
:104f3c00641b2900240798003e039000ce039000c8
:104f4c00d4f1200005002000840f5300858f5b00f6
:104f5c0003003a00e41b29001407980002003700f4
:104f6c000042eb00044f7800f4ff2c00f5ff2f00fb
:104f7c005e039000ee0390000602420087824a0016
:104f8c005600200007002000860f5200878f5a0021
:104f9c0016003e00046001000500370007003700d2
:104fac0012003700080037000a0037000c003700e9
:104fbc00d41c2900240798000c003700041d29007c
:104fcc002407980009003700341d29002407980095
:104fdc0006003700641d29002407980003003700e1
:104fec00941d29002407980000000000c01d290012
:104ffc00650307003e009000ce009000f30307000d
:10500c00901e2900600307001e0090005e0307003d
:10501c00c01e29005c0307005e009000ee009000ab
:10502c00ea030700901e2900570307002e0090008a
:10503c0055030700901f2900530307001e427800f8
:10504c00e04f520002003a00c01f29004e03070037
:10505c000080fa00000006000000fa00143a8000fc
:10506c004c22de00674262000482fb00cfa2de000d
:10507c007600200007002000860f5200878f5a0010
:10508c0021003e00046001000700370009003700d2
:10509c000b0037000d0037000f00370011003700f0
:1050ac00130037001500370030492900360307007c
:1050bc0018003700004a2900330307001500370099
:1050cc00604b29003003070012003700004d290007
:1050dc002d0307000f003700304f29002a0307006b
:1050ec000c00370020502900270307000900370067
:1050fc0040512900240307000600370040522900c4
:10510c0021030700030037003053290054ff070028
:10511c00000000000080fa00000006000200fa0007
:10512c000042eb00044f7800043a800068026200f1
:10513c00e00f520003003200c05429001203070094
:10514c004067a900043a800064026200e00f52003c
:10515c0003003200c05629000b0307004047a9008a
:10516c00b058290008030700043a8000610262006d
:10517c00e00f52000e00320014c0b300044f780050
:10518c00a0592900000307004007a9004027a900e7
:10519c000002eb00446288000002eb0054628800bd
:1051ac00c4c420008002eb00050a78004e003700d2
:1051bc00053a80000404200004826200e00f5200d3
:1051cc0006003200505a2900ef02070014c0b30049
:1051dc00044f780040c7a90040e7a900043a8000ba
:1051ec0070026200e00f52000e00320014c0b300d7
:1051fc00044f7800605b2900e302070054628000d2
:10520c00e00f52000300320054628000040078006a
:10521c00dd020700905c2900db0207004087a90033
:10522c0040e7a900053a80000408200004826200cf
:10523c00e00f52000500320014c0b300044f780098
:10524c00b05c2900d002070040e7a900043a8000b6
:10525c0062026200e00f52000500320014c0b3007d
:10526c00044f7800c05d2900c70207004027a90041
:10527c00053a80000400280004826200e00f52000e
:10528c000500320014c0b300044f7800805e290082
:10529c00bd02070041e7a900053a80000400240084
:1052ac0004826200e00f52000500320014c0b3000b
:1052bc00044f7800805f2900b302070041c7a900a2
:1052cc00053a80000420200004826200e00f5200a6
:1052dc000500320014c0b300044f7800c0602900f0
:1052ec00a90207004127a9001e427800e04f520096
:1052fc0002003a0050622900a302070044628000b9
:10530c00e00f52001d003200506329009e0207007e
:10531c0044628000040078009b020700c4c4200093
:10532c0014027800e00f52000d0032005064290086
:10533c0095020700646280004822de006f42620022
:10534c00044078000a030700006529008e0207005c
:10535c00646280000474a100044078000403070018
:10536c0020662900880207000002eb0044628800d6
:10537c00c4c420008002eb00050a7800dbfe0700a5
:10538c0035ff07000080fa00000006000200fa005a
:10539c00000f780069fe07005afe07000040280045
:1053ac0031002000e10307005cff07001e007800bd
:1053bc00750207000080fa00000006000800fa00e1
:1053cc00881f780020079800310798002e00900065
:1053dc00be00900006f307000002be00048fbe0062
:1053ec001e00be001df307000002be000401be003b
:1053fc002e009000be0090004cf207000002be0090
:10540c0018c0b3000200200003f023000400be000b
:10541c00f5f2070000027800e00f520001003500a1
:10542c000044eb00e04f5400020032001e02be00ac
:10543c000400370016002000070020003e02430045
:10544c00ae824b000400be004f0478000080fa00ce
:10545c00000006000600fa00881f7800100798006c
:10546c00210798001e009000ae009000e0f20700ab
:10547c000002be00040f78001e0278000500200018
:10548c000400be00f5f207000002be000401be00dd
:10549c001e009000ae00900024f207000002be0037
:1054ac0018c0b3000200200003f023000400be006b
:1054bc00cdf2070000027800e00f52000100350029
:1054cc000044eb00e04f5400020032001e02780052
:1054dc00010037001e02e800040078004f04780039
:1054ec000080fa00000006000e00fa00889fbe0043
:1054fc00200798003107980042079800540798003d
:10550c006507980014c0b300ce029000e18f5200e2
:10551c00010036000042eb0051662900044078007f
:10552c00fcfd07004e029000e00f520018003a00fc
:10553c002e009000be009000c8f207000004be00d0
:10554c005e009000ee009000c4f207000002be0066
:10555c000401be000800be0052f207000002be00ab
:10556c0002002000031824000400be004df20700c6
:10557c000002be000200200003f823000400be005d
:10558c00eaf107000002be00048fbe0017003700ce
:10559c002e009000be009000b0f207000004be0088
:1055ac005e009000ee009000acf207000002be001e
:1055bc000401be000800be003af207000002be0063
:1055cc0002002000030824000400be0035f207008e
:1055dc000002be000200200003f823000400be00fd
:1055ec00d2f107000002be00048fbe0018c0b30049
:1055fc0002f82f00f37724001e00be007af2070099
:10560c0000027800e00f5200010035000044eb006e
:10561c00416c290008407800befd07001e00be004a
:10562c008cff070000027800040078004f04be00d5
:10563c000080fa00000006000600fa00100798002f
:10564c004147980024c0b300144798001e029000f4
:10565c000402e800144f7800110037001e4290003d
:10566c000482fb009e029000048242009442780067
:10567c00a4c2b30084cf52000e0032001e42900030
:10568c000482fb009e0290000482420014427800c7
:10569c001e4f6a001e4290000442e8001447980016
:1056ac009e4290004e42900084cf5200ebff360099
:1056bc0001003700000000001e4278000440780012
:1056cc000080fa00000006000200fa00000f7800cb
:1056dc001e02e8009442780074c4b30084cf5200d8
:1056ec0019003a001e82e8009442780004c5b30009
:1056fc0084cf520014003a009e027800638242006c
:10570c009442780024c5b30084cf52000e003a00b6
:10571c009e0278006482420094427800d4c4b300a4
:10572c0084cf520008003a009e0278006582420045
:10573c009442780034c4b30084cf520002003a0083
:10574c000002eb0001003700240020000400780068
:10575c000080fa00000006001400fa0080027800b5
:10576c00010f98000e0a9000670242001442780064
:10577c006a23b90006027800044378000e0a9000f0
:10578c006802420014427800044243007042520006
:10579c00244798000e0a90006902420014427800d7
:1057ac006a23b90006027800044378000e0a9000c0
:1057bc006a024200144278000442430070425200d4
:1057cc00344798000e0a90006b0242001442780095
:1057dc006a23b90006027800044378000e0a900090
:1057ec006c024200144278000442430070425200a2
:1057fc00444798000e0a900072024200144378004d
:10580c0014c4b30004426b000482fb000402e900e0
:10581c004f22de0004427800544798005e4290000c
:10582c00e04f520017003a000042eb00644798002a
:10583c000042eb00744798000042eb00044f9800c4
:10584c000042eb00144f98000042eb00244f9800ec
:10585c000042eb00344f98000042eb00444f98009c
:10586c000042eb00544f98000002eb0074079800c4
:10587c006200470006000900b01a7800e500b1008c
:10588c00b30037000e0a90007e02420014437800e9
:10589c00e4c4b30004426b000482fb000402e90080
:1058ac004f22de0004427800644798000e0a9000f4
:1058bc0074024200144278006a23b9000602780090
:1058cc00044378000e0a90007502420014427800de
:1058dc000442430070425200744798000e0a900034
:1058ec0076024200144278006a23b900060278005e
:1058fc00044378000e0a90007702420014427800ac
:10590c000442430070425200044f98000e0a90006b
:10591c0079024200144278006623b900060278002e
:10592c0004427800245798000e0a90007a02420034
:10593c00144278000402fb006623b90006027800ca
:10594c0006ee2f0004034300a40020001100090000
:10595c000403d8000002780004427800ae53900093
:10596c0004c3430004ceb30004424300144f980018
:10597c000e0a9000b402b0001443780054c4b30073
:10598c0004426b000482fb000402e9004f22de009b
:10599c0004427800244f98000e0a90000402b000d4
:1059ac00144278004606200006a3b90006027800cf
:1059bc00044078000e0a90001402b00014427800e3
:1059cc006a23b900060278000442780004434000c0
:1059dc000e0a90002402b0001442780004424300e6
:1059ec000443b000344f98000e0a90003402b0000b
:1059fc00144278006a23b900060278000443780048
:105a0c000e0a90004402b000144278000442430095
:105a1c0070425200444f98000e0a90006402b0008d
:105a2c00144278006623b90006027800044278001c
:105a3c00245798000e0a90007402b00014427800ab
:105a4c000402fb006623b9000602780006ee2f0064
:105a5c0004034300a4002000110009000403d80033
:105a6c000002780004427800ae53900004c3430057
:105a7c0004ceb30004424300544f9800d4c2b30088
:105a8c00044f7800090037001e4078000082fb00ac
:105a9c000e0b90000402430014437800c4c2b30000
:105aac00844f5300050032001e4fe8001e42780060
:105abc00e14f4200f4ff3a00010037000000000003
:105acc001e4fe8000002eb00740798001700370027
:105adc009e4078000182fb000e0b900004024300f4
:105aec0014437800e4c2b300844f53001300320017
:105afc007e0290006a23b9000602780074079800b1
:105b0c007e0390009e4378000782fb008e0b900072
:105b1c0004824300144278000402fb000402430098
:105b2c000403b100740798001e4fe8001e42780071
:105b3c00e14f4200e6ff3a00010037000000000090
:105b4c006200470006000900b01a7800e500b100b9
:105b5c00050078000080fa00000006000400fa003e
:105b6c0064f72900040f7800a4fa290014079800a0
:105b7c001e007800840007001e00900082000700c1
:105b8c000080fa00000006000200fa00000f780006
:105b9c000042eb000440780032ecb700f4702200b5
:105bac009e027800848f52001000360024c320001f
:105bbc00144278008483fb001e03780005712200d8
:105bcc00110009000583d800800278008542780016
:105bdc000543b00036c3200006834300054b780014
:105bec000442e8000440780032ecb700743e200018
:105bfc009e027800848f52001000360024c32000cf
:105c0c00144278008483fb001e037800853e20003c
:105c1c00110009000583d8008002780085427800c5
:105c2c000543b00036c3200006834300054b7800c3
:105c3c000442e8000440780032ecb700340620003f
:105c4c009e027800848f52001000360024c320007e
:105c5c00144278008483fb001e0378004506200064
:105c6c00110009000583d800800278008542780075
:105c7c000543b00036c3200006834300054b780073
:105c8c000442e8000440780032ecb7001e027800b1
:105c9c00e90f52001500360024c32000144278008e
:105cac008483fb001e0378004506200011000900c8
:105cbc000583d8008102780005037800a500200038
:105ccc00110009000583d800800278008542780015
:105cdc000543b00036c3200006834300054b780013
:105cec000442e8000440780032ecb70024c32000e2
:105cfc00144278008483fb001e037800a50020006a
:105d0c00110009000583d8008102780085427800d3
:105d1c000543b00036c3200006834300054b7800d2
:105d2c000442e8000440780032ecb70024c32000a1
:105d3c00144278008482fb0034c320008482420029
:105d4c000042eb00844a780034c320000400780041
:105d5c000080fa00000006000200fa00004f7800f4
:105d6c0074628000e10f520003003a001e4078007c
:105d7c00460607000200370020c2290038fc070045
:105d8c000080fa00000006000200fa00000f780004
:105d9c00050037001e027800144278000440780099
:105dac00edff07001e0fe8001e0278001442780079
:105dbc00e04f5200f7ff3a000080fa0000000600a6
:105dcc000a00fa002007980031079800024f98004b
:105ddc003e029000e00f520002003a000002eb007d
:105dec00260037000002eb00140798000002eb00bd
:105dfc0014079800190037000e4a9000e04f52002b
:105e0c00040032003201070000427800044f780091
:105e1c00030037002101070000427800044f78008e
:105e2c001e427800ea4f5200100032001e427800e9
:105e3c00ed4f52000d0032001e427800ae02900071
:105e4c00844a78002e0290000402e800240798008f
:105e5c001e0290000402e800140798009e029000b5
:105e6c003e029000848f5200e3ff3900ae02900096
:105e7c000042eb00844a78001e0290000400780077
:105e8c000080fa00000006000400fa00000f780001
:105e9c00110798001e0290000041eb00840078006e
:105eac001e007800c6ff070000027800040078008e
:105ebc000080fa00000006000400fa00000f7800d1
:105ecc00110798001e02900012c0b30084007800e5
:105edc001e007800baff070000027800040078006a
:105eec000080fa00000006000400fa002047980029
:105efc002e4290000482fb004422de00044f780006
:105f0c001e427800e94f52000500360075c3b300fd
:105f1c001ec24200044078008fff070004003700c7
:105f2c0005c3b3001ec24200044078008aff07007c
:105f3c002e4290006f4f62001e427800e94f5200d3
:105f4c000500360075c3b3001ec242000440780041
:105f5c0081ff07000400370005c3b3001ec24200d6
:105f6c00044078007cff07000080fa000000060067
:105f7c000200fa00004f780000c7290082ff0700da
:105f8c001e407800d8ff07000080fa0000000600d1
:105f9c000400fa001007980000c729007aff0700d8
:105fac001e0290004822de00044f78001e4078004c
:105fbc00cdff07001e029000044f78001e407800b1
:105fcc00c9ff07000080fa00000006000600fa0076
:105fdc00100798002107980000c729006aff0700e6
:105fec001e029000ae029000482ade000500200040
:105ffc00044f78001e407800bbff07001e02900083
:10600c00ae029000402ade0005002000044f78000c
:10601c001e407800b4ff07001e029000ae029000f4
:10602c00482bdd004822de0004027300c82ade0083
:10603c00044f78001e407800abff07001e02900052
:10604c00044f78001e407800a7ff07000080fa007c
:10605c00000006000a00fa00004f98000042eb0016
:10606c00044f78000e4a90001447980004c3b30004
:10607c002447980004c3b3003447980004c3b3000a
:10608c00444798000042eb00544798009e42900011
:10609c0074ccb30084cf5200060036002e42900020
:1060ac0004c2e800244798001e4290008443b000cc
:1060bc00144798009e42900034c6b30084cf52001f
:1060cc00070036002e4290000442e8002447980056
:1060dc009e429000c4c9b30004c242001447980009
:1060ec000042eb00044f7800210037009e427800fc
:1060fc000582fb00e5d32900e5427a001e429000a0
:10610c0084cf520019003e009e4378000782fb00aa
:10611c004222de00044278008482fb000503e80082
:10612c000482fb000402e8000402470024429000b1
:10613c00844278009e4378000782fb0067d42900d4
:10614c0067427a0004c2420086024700a4429800cb
:10615c009e4278000582fb00e5d3290065427a0057
:10616c009e42900004c25200144798001e4fe80053
:10617c001e427800e74f5200dcff36000042eb0075
:10618c00544798000e82e80004007800fefe0700d9
:10619c000080fa00000006000c00fa00500798007e
:1061ac000042eb00044f78005e0290001407980048
:1061bc0004c3b3004447980004c3b3005447980089
:1061cc0004c3b3006447980004c3b3007447980039
:1061dc0004c3b300044f98000042eb00044f780056
:1061ec00240037009e4278000582fb0084024200a6
:1061fc0024d1290004824200940278001e029000ef
:10620c00848f52001a003e009e4378000782fb00e8
:10621c004222de00044278000483fb000482fb006f
:10622c000402470044429000844278009e43780068
:10623c000782fb0063026200a7d3290067427a0041
:10624c0004c2420086024700c44298009e42780075
:10625c000582fb008402420024d129000482420002
:10626c00140278009e0290000482520014079800d9
:10627c001e4fe8001e427800f34f5200d9ff360043
:10628c000042eb00144f98006402470004007800b1
:10629c00bdfe07000080fa00000006000000fa00b6
:1062ac0074628000e10f520003003a000c050700f5
:1062bc00004278000300370030c72900e8fa0700d5
:1062cc000042eb00044078000080fa000000060059
:1062dc000200fa00f1ff070000427800044f78003a
:1062ec001e4078009cfe07001e4278000440780097
:1062fc000080fa00000006000000fa0074628000c2
:10630c00e10f520003003a00ee040700004278004f
:10631c000300370020cc2900d1fa07000042eb0023
:10632c00044078000080fa00000006000400fa0027
:10633c00008fbe0014002000746288001e00be0096
:10634c00f40407000080fa00000006000400fa00c4
:10635c00100798001e029000050020000401be00ea
:10636c0000c429000100200010ef07000002be004d
:10637c00040f78001e027800650f5200f41f2000f5
:10638c009e027800848f520002003600f41f200019
:10639c00040f78001e0278002410880007e2a80081
:1063ac000080fa00000006000200fa00c4f2290086
:1063bc0054628800043a80004522de00614262008b
:1063cc00044f780040a7a8000602a80000000000b7
:1063dc003410800061026200e00f5200fcff3a00b2
:1063ec009e42780061c262000482fb00610262007e
:1063fc004522dd00063a8000f5fd2f008502630082
:10640c0004827200043a88000002eb005462880097
:10641c000080fa00000006000200fa0074f3290064
:10642c0054628800043a80004522de00614262001a
:10643c00044f780040a7a8000622a8000000000026
:10644c003410800062026200e00f5200fcff3a0040
:10645c009e42780061c262000482fb00610262000d
:10646c004522dd00063a8000f5fd2f008502630011
:10647c0004827200043a88000002eb005462880027
:10648c000080fa00000006000200fa0034f4290033
:10649c0054628800043a80004522de0061426200aa
:1064ac00044f780040a7a8000642a8000000000096
:1064bc003410800064026200e00f5200fcff3a00ce
:1064cc009e42780061c262000482fb00610262009d
:1064dc004522dd00063a8000f5fd2f0085026300a1
:1064ec0004827200043a88000002eb0054628800b7
:1064fc000080fa00000006000400fa002047980013
:10650c00d4f4290054628800043a80004522de004d
:10651c0061426200044f780040a7a8002e42900010
:10652c000482fb001410880000000000451080005d
:10653c000400240004826200e00f5200fbff3a00ca
:10654c009e42780061c262000482fb00610262001c
:10655c004522dd00063a8000f5fd2f008502630020
:10656c0004827200043a88000002eb005462880036
:10657c00451080000400280004826200e00f5200e5
:10658c000200320060f5290035fa07000080fa009d
:10659c00000006000400fa0020479800d4f42900fb
:1065ac0054628800043a80004522de006142620099
:1065bc00044f780040a7a8002e4290000482fb00f4
:1065cc001410880000000000451080000400240016
:1065dc0004826200e00f5200fbff3a009e427800fa
:1065ec0061c262000482fb00610262004522dd0090
:1065fc00063a8000f5fd2f008502630004827200cc
:10660c00043a88000002eb005462880044108000b9
:10661c004f22de0004427800044078000080fa002b
:10662c00000006000400fa0020479800d4f6290068
:10663c0054628800043a80004522de006142620008
:10664c00044f780040a7a800000000003410800020
:10665c007f026200e00f5200fcff3a000662a800c5
:10666c00000000004410800062026200e00f520043
:10667c00fcff32000060fe000410800014479800fc
:10668c0000000000341080007f026200e00f520016
:10669c00fcff3a002e429000614262000482fb0033
:1066ac00610262004522dd0036108000f5fd2f00ee
:1066bc008502630004827200341088000682a800f0
:1066cc00000000003410800070026200e00f5200e5
:1066dc00fcff3a009e42780061c262000482fb001b
:1066ec00610262004522dd00063a8000f5fd2f00b4
:1066fc008502630004827200043a88000002eb00f9
:10670c00546288001e429000044078000080fa0019
:10671c00000006000200fa00004f780011479800b4
:10672c0021ff0700e4cfb3001e4262000440780052
:10673c0071ff07001e4090006fff070052ff07001b
:10674c000080fa00000006000400fa00004f7800f8
:10675c00114798002247980013ff0700e4cfb300bd
:10676c001e4262000440780063ff07001e40900048
:10677c0061ff07002e4090005fff070042ff0700fb
:10678c000080fa00000006000800fa00204798007c
:10679c00210798003207980003ff0700ae429000d3
:1067ac00e4cfb30004c262000440780052ff07003b
:1067bc000002eb00040f7800080037002e02900056
:1067cc0014427800044078004bff07002e02900022
:1067dc000402e800240798001e0fe8003e02900017
:1067ec009e027800848f5200f4ff390026ff0700c8
:1067fc000080fa00000006000400fa00004f780048
:10680c0011079800e8fe07001e4278000404a0005f
:10681c000440780038ff070010c0b30081ff070068
:10682c00004278009e029000844a780016ff070010
:10683c000080fa00000006000600fa00004f780005
:10684c001107980022079800d7fe07001e42780017
:10685c000404a0000440780027ff07000040eb0070
:10686c0070ff0700004278009e029000844a780076
:10687c0010c0b3006bff070000427800ae0290001e
:10688c00844a780000ff07000080fa000000060030
:10689c000800fa002047980021079800320798005a
:1068ac00c1fe07002e4290000404a00004407800b2
:1068bc0011ff07000002eb00040f780013003700f3
:1068cc003e0290000402e9009e0f520006003200c6
:1068dc000040eb0053ff070000427800ae0290002e
:1068ec00844a78000500370010c0b3004dff070044
:1068fc0000427800ae029000844a78002e0290008c
:10690c000402e800240798001e0fe8003e029000e5
:10691c009e027800848f5200e9ff3900dafe0700ee
:08692c000080fa0000000600e3
:020000040000fa
:10693400440c000004000000000000003c0c0000b7
:106944000800000000000000220c000010000000fd
:1069540000000000320c00000a00000000000000eb
:10696400100c0000120000000000000000080000ed
:1069740010040000020000000000000000000000fd
:106984000000000000000000000000000000000003
:1069940000000000000000000000000000000000f3
:1069a40000000000000000000000000000000000e3
:1069b40000000000000000000000000000000000d3
:1069c4000000000000000000000000008080800043
:1069d40000000000000000000000000000000000b3
:1069e400000000008080c000c00000000000000023
:1069f4000000000000000000000000000000000093
:106a04000000000000000000000000000000000082
:106a14000000000000000000000000000000000072
:106a24000000000000000000000000000000000062
:106a34000000000000000000000000000080c00012
:106a4400e0f0f800fcf8e0000000000000000000a6
:106a540000000000000000000000000000008000b2
:106a640080808000800080008000000000008000a2
:106a7400808080008000ff00ffff00000000000015
:106a84008080800080000000808000000080ff0083
:106a9400ff808000008080000080800080800000f3
:106aa40080800000000000000080800000008c0056
:106ab4008e8400000080f800f8f8800000000000d8
:106ac40000000000000000000000000000f0f000e2
:106ad400f0f0f000f0f0f000f0f0f000f0e0e00092
:106ae400c0800000e0fcfe00ffffff007fffff000e
:106af400ffffff0000000000000000000000000095
:106b0400000000000000fe00ffc7010001010100b9
:106b140083ffff0000007c00fec7010001010100ab
:106b240083ffff00ff003800fec78300010101005e
:106b340083c7ff00ff00000001ffff000101000008
:106b4400ffff07000101010000007f00ff8000003b
:106b54000000ff00ff7f000000ffff00ff000000b7
:106b640001ffff00ff010000000000000000000022
:106b74000000000000000000030f3f007f7fff00c3
:106b8400ffffff00ffffff00e7c7c7008f8f9f00d5
:106b9400bfffff00c3c0f000ffffff00fffffc00ca
:106ba400fcfcfc00fcfcfc00fcf8f800f0f0e0004d
:106bb400c0000100030303000303010003030000fa
:106bc40000000000010303000303010001030100ae
:106bd400000000000103030003030100010303009c
:106be4000000000003030000000003000300000095
:106bf4000000000000000100030303000303010080
:106c04000000000001030100000000000303010074
:106c14000000000000000000000000000000000070
:106c24000000000000008000c0e0f000f9ffff0059
:106c3400ffffff003f1f0f0087c7f700ffff1f0084
:106c44001f3dfc00f8f8f800f87c7d00ffffff0012
:106c5400ffffff00ffff7f003f0f07000030300001
:106c64000000000000000000000000000000000020
:106c740000000000000000000000000000fefe0014
:106c8400fc00000000000000000000000000000004
:106c94000000000000000000000000000000e00010
:106ca400c000000000000000000000000000000020
:106cb4003030000000000000000000000000000070
:106cc4000000000000000000000000000000c00000
:106cd400feffff00ffffff00ffffff00ff7f7f00bd
:106ce4003f1f0f00071f7f00fffff800f8ffff00a2
:106cf400ffffff00fef8e0000000000001000000bc
:106d04000000000000000000fefe00000000fc0087
:106d1400fefc0c0006060e00fcf8000000f0f80073
:106d24001c0e060006060c00ffffff000000fe001c
:106d3400fe0000000000fc00fefc0000183c7e0089
:106d440066e6ce008400000006ffff000606fc0095
:106d5400fefc0c00060606000000fe00fe0000001b
:106d6400c0f8fc004e464600464e7c0078401800b1
:106d74003c76e600cecc800000000000000000005d
:106d840000000000000000000000000000000000ff
:106d940000000100070f1f001f3f3f003f3f1f007f
:106da4000f030000000000000000000000000000cd
:106db40000000f000f000000000f0f000f00000084
:106dc40000000f000f00000003070e000c1818004d
:106dd4000c060f000f0f000000010f000e0c18002e
:106de4000c0f0700010004000e0c18000c0f070024
:106df400000000000f0f0000000f0f000f00000044
:106e040000000000000f0f000000000007070c0046
:106e14000c181c000c06060000040e000c180c00d4
:106e24000f07000000000000000000000000000048
:106e3400000000000000000000000000000000004e
:106e4400000000000000000000000000000000003e
:106e5400000000000000000000000000000000002e
:106e6400000000000000000000000000000000001e
:106e7400000000000000000000000000000000000e
:106e840000000000000000000000000000000000fe
:106e940000000000000000000000000000000000ee
:106ea40000000000000000000000000000000000de
