:020000040000fa
:08000000000e040000000000e6
:020000040000fa
:10000800020c0000060c00000a0c00000e0c000098
:10001800120c0000160c00001a0c00001e0c000048
:10002800220c0000260c00002a0c00002e0c0000f8
:10003800320c0000360c00003a0c00003e0c0000a8
:10004800420c0000460c00004a0c00004e0c000058
:10005800520c0000560c00005a0c00005e0c000008
:10006800620c0000660c00006a0c00006e0c0000b8
:10007800720c0000760c00007a0c00007e0c000068
:10008800820c0000860c00008a0c00008e0c000018
:10009800920c0000960c00009a0c00009e0c0000c8
:1000a800a20c0000a60c0000aa0c0000ae0c000078
:1000b800b20c0000b60c0000ba0c0000be0c000028
:1000c800c20c0000c60c0000ca0c0000ce0c0000d8
:1000d800d20c0000d60c0000da0c0000de0c000088
:1000e800e20c0000e60c0000ea0c0000ee0c000038
:1000f800f20c0000f60c0000fa0c0000fe0c0000e8
:10010800020d0000060d00000a0d00000e0d000093
:10011800120d0000160d00001a0d00001e0d000043
:10012800220d0000260d00002a0d00002e0d0000f3
:10013800320d0000360d00003a0d00003e0d0000a3
:10014800420d0000460d00004a0d00004e0d000053
:10015800520d0000560d00005a0d00005e0d000003
:10016800620d0000660d00006a0d00006e0d0000b3
:10017800720d0000760d00007a0d00007e0d000063
:10018800820d0000860d00008a0d00008e0d000013
:10019800920d0000960d00009a0d00009e0d0000c3
:1001a800a20d0000a60d0000aa0d0000ae0d000073
:1001b800b20d0000b60d0000ba0d0000be0d000023
:1001c800c20d0000c60d0000ca0d0000ce0d0000d3
:1001d800d20d0000d60d0000da0d0000de0d000083
:1001e800e20d0000e60d0000ea0d0000ee0d000033
:0801f800f20d0000f60d0000fd
:020000040000fa
:10020800020c0000060c00000a0c00000e0c000096
:10021800120c0000160c00001a0c00001e0c000046
:10022800220c0000260c00002a0c00002e0c0000f6
:10023800320c0000360c00003a0c00003e0c0000a6
:10024800420c0000460c00004a0c00004e0c000056
:10025800520c0000560c00005a0c00005e0c000006
:10026800620c0000660c00006a0c00006e0c0000b6
:10027800720c0000760c00007a0c00007e0c000066
:10028800820c0000860c00008a0c00008e0c000016
:10029800920c0000960c00009a0c00009e0c0000c6
:1002a800a20c0000a60c0000aa0c0000ae0c000076
:1002b800b20c0000b60c0000ba0c0000be0c000026
:1002c800c20c0000c60c0000ca0c0000ce0c0000d6
:1002d800d20c0000d60c0000da0c0000de0c000086
:1002e800e20c0000e60c0000ea0c0000ee0c000036
:1002f800f20c0000f60c0000fa0c0000fe0c0000e6
:10030800020d0000060d00000a0d00000e0d000091
:10031800120d0000160d00001a0d00001e0d000041
:10032800220d0000260d00002a0d00002e0d0000f1
:10033800320d0000360d00003a0d00003e0d0000a1
:10034800420d0000460d00004a0d00004e0d000051
:10035800520d0000560d00005a0d00005e0d000001
:10036800620d0000660d00006a0d00006e0d0000b1
:10037800720d0000760d00007a0d00007e0d000061
:10038800820d0000860d00008a0d00008e0d000011
:10039800920d0000960d00009a0d00009e0d0000c1
:1003a800a20d0000a60d0000aa0d0000ae0d000071
:1003b800b20d0000b60d0000ba0d0000be0d000021
:1003c800c20d0000c60d0000ca0d0000ce0d0000d1
:1003d800d20d0000d60d0000da0d0000de0d000081
:1003e800e20d0000e60d0000ea0d0000ee0d000031
:0803f800f20d0000f60d0000fb
:020000040000fa
:101800000200000036310400000000003631040000
:1018100000000000363104000000000036310400f2
:1018200000000000363104000000000036310400e2
:1018300000000000363104000000000036310400d2
:1018400000000000363104000000000036310400c2
:1018500000000000363104000000000036310400b2
:1018600000000000363104000000000036310400a2
:101870000000000036310400000000003631040092
:101880000000000036310400000000003631040082
:101890000000000036310400000000003631040072
:1018a0000000000036310400000000003631040062
:1018b0000000000036310400000000003631040052
:1018c0000000000036310400000000003631040042
:1018d0000000000036310400000000003631040032
:1018e0000000000036310400000000003631040022
:1018f0000000000036310400000000003631040012
:101900000000000036310400000000003631040001
:1019100000000000363104000000000036310400f1
:1019200000000000363104000000000036310400e1
:1019300000000000363104000000000036310400d1
:1019400000000000363104000000000036310400c1
:1019500000000000363104000000000036310400b1
:1019600000000000363104000000000036310400a1
:101970000000000036310400000000003631040091
:101980000000000036310400000000003631040081
:101990000000000036310400000000003631040071
:1019a0000000000036310400000000003631040061
:1019b0000000000036310400000000003631040051
:1019c0000000000036310400000000003631040041
:1019d0000000000036310400000000003631040031
:1019e0000000000036310400000000003631040021
:1019f0000000000036310400000000003631040011
:101a00000000000036310400000000003631040000
:101a100000000000363104000000000036310400f0
:101a200000000000363104000000000036310400e0
:101a300000000000363104000000000036310400d0
:101a400000000000363104000000000036310400c0
:101a500000000000363104000000000036310400b0
:101a600000000000363104000000000036310400a0
:101a70000000000036310400000000003631040090
:101a80000000000036310400000000003631040080
:101a90000000000036310400000000003631040070
:101aa0000000000036310400000000003631040060
:101ab0000000000036310400000000003631040050
:101ac0000000000036310400000000003631040040
:101ad0000000000036310400000000003631040030
:101ae0000000000036310400000000003631040020
:101af0000000000036310400000000003631040010
:101b000000000000363104000000000036310400ff
:101b100000000000363104000000000036310400ef
:101b200000000000363104000000000036310400df
:101b300000000000363104000000000036310400cf
:101b400000000000363104000000000036310400bf
:101b500000000000363104000000000036310400af
:101b6000000000003631040000000000363104009f
:101b7000000000003631040000000000363104008f
:101b8000000000003631040000000000363104007f
:101b9000000000003631040000000000363104006f
:101ba000000000003631040000000000363104005f
:101bb000000000003631040000000000363104004f
:101bc000000000003631040000000000363104003f
:101bd000000000003631040000000000363104002f
:101be000000000003631040000000000363104001f
:041bf00000000000f1
:020000040000fa
:101c00002fc520000eff20000e01880000000000fc
:101c100000012000200288000c000700a0f3230030
:101c20000100200011000700000020000000e0007b
:101c30000200320000000200000000006c2a0200d6
:101c4000000000000040da000000fe004440a9004f
:101c500060e320000000e0000300320000002000ec
:101c6000a00188004440a8000000060091018800ff
:101c7000800078000000eb0015003700e280400093
:101c800032a0b4009101ba00e280400032a0b4005a
:101c90009102ba00e280400032a0b4000002eb00e2
:101ca000472bde00f507b200602ce10004003a008b
:101cb0000059eb008301e900fdff3e0004003700fe
:101cc0006128e100010032000082eb0004000700ff
:101cd0001101ba000200e000e8ff3a00000006002f
:101ce0003159ba008301e9000c0032002159ba00d1
:101cf0008301e900080032000400e00003003a001c
:101d0000e280400032a0b400f5ff370011d9ba00dc
:101d10008301e900faff3a008100e800e180400019
:101d200032a0b40000000600000000000000000027
:101d3000000000000000000003f0a200889fbe0029
:101d40008a9fbe008c1f7800ac010700b3013300ee
:101d50006450e1004f0032006420e1005200320084
:101d600003826c0007003b000905d0000306d00089
:101d7000820f54000c065d000200390002003200a0
:101d800089017800030678008582550004003d0033
:101d90000003fd008103fd008502ea008b854200ff
:101da000840f720002003b0060001000e080180009
:101db0006011b8000005eb007a28e1000a00390044
:101dc00006007800c75ddd00f707b2008780750068
:101dd0002d003700828171000a01780061056000e2
:101de0008180d1000080d3008502e900f9ff3b002b
:101df000060440008784480002003b006004140091
:101e0000e0841c000988a300070032008a81710069
:101e100082817100610164008904d1000884d300cb
:101e20008b05e800170037000978a30013003a007b
:101e30000b00e000130034008b05e90008044400a7
:101e400089844c000a4474000978a3000d003a000c
:101e50000b00e000070034008b05e9000804440093
:101e600089844c0001003a000b0020000978a3008f
:101e7000f7ff32000001eb000200370082817100a1
:101e80000a017800220107000cf0a70001f0a00071
:101e90006b0137006420e10002003a00838f6c0080
:101ea0006b0133000801be000200be006401370070
:101eb000889fbe008a9fbe008c1f78004f010700dc
:101ec0001002200002003b007062880053013700be
:101ed0008a0062006408e10002003a007062880033
:101ee0005b0137006108e100fcff32000800be0022
:101ef000030478007200070001f0a1000900070048
:101f000008f0a600040037000001be009104240080
:101f1000b0fd200088ff070009f0a70001f0a20033
:101f200047013700889fbe008a9fbe008c9fbe007d
:101f30000004be001c0107000800be0089067800ee
:101f40006420e10008003900040032000160a000b4
:101f500012022000726288005300370091fc2300b7
:101f6000b0fd20004e0037000006eb0009f0a10094
:101f700003f82300020020000800be00a1000700b3
:101f80000600340001f82300000020000801be0014
:101f90004b0007000004be002c0020000800be001b
:101fa00093e82300320a2300960007001200340051
:101fb0000801be00d1fd2300703d2b005fff07002c
:101fc0000005be00b3f32300f27a26000800be002d
:101fd0002201070003f823000200200056ff07003b
:101fe0000801be0055ff07000a01be0034000700cb
:101ff0000004be000c06e8000800be0001f0a100cd
:1020000002002000039823007e0007000800be00a5
:10201000160035000801be00100107000005be00d3
:1020200032cd2c0043fb230044ff0700809fbe00fd
:102030001269280003d52b000a00be000701070023
:10204000620f210013ef2b003cff07000a01be00c6
:10205000020107004f01be00190007000801be0081
:10206000fe0007000801be0034ff07000c00e0007e
:102070000b0032000c10a70001f0a200b2fd2000fe
:1020800093fc23006260e1000400320022a92000da
:1020900063f023000c10a70063f8230027ff07005c
:1020a0000df0a70001f0a2004f06be004f05be00d4
:1020b0004f04be00000006000081eb001b0137004a
:1020c000889fbe008a9fbe008c1f7800cb0007004f
:1020d000d200330003866c006450e1002e00320011
:1020e0006420e100330032006150e1002f00320033
:1020f0006120e1003100320085855500eb07b0001a
:1021000009002000080420000500370008044400ee
:1021100089844c000a0031000603430087834b008a
:102120000001530081815b00f8ff33000203be0011
:102130000800a0000804440089844c00f6ff390020
:10214000c639dd0083017300010032001300200056
:102150008904d1000884d3000998a3000500320047
:102160000800a7000300a0008904d1000884d30060
:102170008b05e8008904d1000884d3000001eb003e
:102180000281d2006200070001f0a1000cf0a7005c
:1021900001f0a000aa0037006420e100ac0032008a
:1021a0000801be000200be00f7ff37006120e10019
:1021b000a70032006000b800f3ff370000002000e5
:1021c00001f82700f0ff3700839f68000100e0005e
:1021d00002003d0060001000e08018000300e000f5
:1021e00002003d0060011100e08119006f0107004d
:1021f0004f00e00002003b0060001000e08018008b
:102200000000060014002000780137000001be0025
:10221000650007000470a70003f0a1006509b10084
:10222000160032000d0035006828e1000600350078
:10223000f0ff2f00f1ff27000300e00013003b0038
:1022400001002800000005000000400081804800d7
:102250008502e900fcff3a0008003700f88f4200d1
:1022600002003c008000eb00000005008100d1006e
:102270000080d3008502e800fcff3a000300e00084
:1022800002003b0060001000e08018000000060023
:102290000001be00440007000470a70003f0a10085
:1022a00003f8a30013003a006509b10010003200e2
:1022b000090035006928e10002003500010028000e
:1022c0000000050000004000818048008502e90010
:1022d000fcff3a0000000600f88f420005003500c0
:1022e0008100d1000080d3008502e800fcff3a00a5
:1022f000000006008000eb00000005004f89de00b2
:1023000082017800540137006011b8006201370083
:1023100081002000618055000b003d000b00200073
:1023200061fe2f000100e1001d0034008281710078
:10233000610164008904d1000884d3000000e80032
:10234000faff3a0071002000610064000300700091
:10235000020060000900320061044400e0844c0087
:102360000988a500050032008b05e8006808e10037
:1023700002003a008904d1000884d300f20f200043
:102380000258e10005003d00c75ddd00f907b2001d
:102390008980750008007800000006000bf827000f
:1023a0008b00780000000500c70ade00f107b200cc
:1023b000f50fb20008003200e1cf42000200320007
:1023c0000170a00024000500810f700001003200a0
:1023d0000408050044000500810f700002003a0067
:1023e000140005008502e9000000400081c048009b
:1023f000fcff3b000170a000240005000004be00ab
:10240000e9ff07000003be000405be000200be0095
:10241000e5ff0700844f7500000006000200be00c3
:102420006450e100050036006420e100020036003f
:102430000968a30001003a000800be000160a00086
:102440004f0678004f05be004f04be000000060096
:10245000f0ff2f00f1ff2700f9ff3700889fbe0033
:102460008a9fbe008c1f7800e4ff0700ebff33005b
:1024700003866c006450e100240032006420e10017
:10248000270032006150e100220032006120e100ab
:10249000210032008b854200eb07b1000134b80007
:1024a000003ab8000804420089844a00013ab800a2
:1024b0000030b8008880400009014a000400330061
:1024c0000000400081804800020149008b05e900be
:1024d000c909dd00830170000100320013002000f3
:1024e000c814de004814dd004709de001200b20007
:1024f000c808de000884700085ff070001f0a10015
:102500000cf0a70001f0a000cdff37006120e10032
:10251000cfff32000801be000200be00f7ff370007
:102520006150e100fcff3a00c9ff3700889fbe0000
:102530008a9fbe008c9fbe00820578000004be000a
:1025400099ff07000800be006420e1000700390081
:1025500002003a00f1ff2700f0ff2f000160a00009
:102560001202200072628800550037006120e100ed
:1025700003003a000b00a70001f8230050003700c9
:1025800001f0a10002002100936424001dff070058
:102590000800be0004003500b2fd2000930c2400aa
:1025a000ec0007000004be000005eb000b00a600d5
:1025b0004f0dde0001f0a1000004be0032982f0094
:1025c00023ea2300a5ff07000001eb0003f023002e
:1025d0000b00a70003f82300d8fd07000bff07003e
:1025e0000000a7000a00a20044ff07000b00e00063
:1025f000030032000200200003f02300cefd07009c
:1026000001f0a2000006be00020020009304240096
:1026100092ff07000801be00c8fd0700809fbe00b2
:102620000c00be0022a22a00d3a723008bff0700c4
:102630004f01be00c1fd07000004be0001f0a10073
:102640000200200003982300eefe07000800be00f1
:10265000190035000001be0080ff07000006be0023
:10266000b2c52900e36223007cff070022222b0071
:10267000f3942b00b1fd07000c01be0077ff0700ab
:10268000e273280083c02300acfd07000c01be00ec
:1026900072ff070042aa2a00a3e22b00a7fd070051
:1026a0000c01be006dff07000801be006bff0700b4
:1026b0000801be00a1fd07000a00a70001f0a2006a
:1026c0004f06be004f05be004f04be0000000600ce
:1026d0000001eb0095ff3700889fbe008a9fbe0077
:1026e0008c1f78000004be002fff07000478a300b1
:1026f00026003a006120e1002500320009f8a3001d
:1027000025003a006420e10021003200f507b10005
:102710000508a3000200320000004000818048004c
:102720006044b800031020000200200000004000b8
:10273000818048000805440089854c000a05410055
:102740008b8549000a0550008b8558000300330033
:102750000a00be0002047400838474008301d10067
:102760000281d300830f7100f0ff3a008904d10089
:102770000884d3006001490082017800c1adde0009
:10278000fb07b000e2fe07002dff37000960a00044
:102790000800be002aff3700120220007262880083
:1027a000f0ff2f00f1ff270025ff37006022b8005f
:1027b000060220000000d0008180d2000482d200f6
:1027c0008582d2000000a0000202520083825a00db
:1027d000030031000202420083824a000000a1008f
:1027e0000603e900f3ff3a0000000600889fbe00e0
:1027f0008a9fbe00841f780000ff07004f0078000a
:1028000011003300f0ff2f00838f6c0006003b00a7
:10281000040565000a00a7000800370009f0a600bb
:102820001000200008003700820f5400838f5c00e6
:10283000030039001000200001003e0000002000cd
:1028400009f0a7000000ea004f05be004f04be00db
:102850000000e00000000600881f780003047800f4
:102860000300e00007003d0060001000e080180059
:1028700060011900e081190002003b0001f02d0009
:10288000030037000400070008f0a70001f0a000d3
:102890004f04780000000600889fbe008a9fbe009b
:1028a0000082700004027100048271002600320070
:1028b0000004be000200be006011b8006b092000d9
:1028c000950220000182cf000a0039000541b100c5
:1028d0000082cf00070039000541b1000982cf0016
:1028e000040039000541b1000882cf000100390021
:1028f0000541b10005425200120032000a003b00bf
:1029000082817100610164008100d1000080d300e8
:102910008984d3000884d3008b05e8000442e800d2
:10292000f7ff3a00070037000804440089844c0090
:1029300000004800818048008b05e9000442e9005e
:10294000f9ff3a0072fe07004f05be004f04be00bb
:10295000000006000400200000003700889fbe0031
:102960008a9fbe008c1f78004f26dd00a3fe070063
:10297000aafe33006120e100430032006250e10012
:1029800041003e003e0039006420e1003c0032007e
:10299000058255000f003b000402e80038003a00b1
:1029a000800f5300818f5b00350034000800be00ab
:1029b00003f0a10001f0a60003f0a0000cf0a700b6
:1029c000defc07009efe37000603430087834b00b2
:1029d0000c4646000005530081855b000200330071
:1029e0000a03be000c00a0000402e900f6ff3b0051
:1029f000850578000602430087824b0004003a00f8
:102a00006000b80009f0a70001f0a0008cfe3700bc
:102a10000002520081825a000704e00004003300e3
:102a20000603430087834b008b05e900faff37005c
:102a3000090578000604be000203be006011b8005c
:102a400033fe0700e00f5200e08f5a000700350008
:102a500002003c000c08a300040032000601be0086
:102a600003f0a0000cf0a700b4fc07000a85680082
:102a700001f0a1000af0a70001f0a00070fe3700ed
:102a80000800be006efe3700100220000cf0a60009
:102a9000706288006efe3700000278000200370086
:102aa000015a78000201e900e00f5100fcff3a00f2
:042ab000000006001c
:020000040000fa
:102ab400556e0000686100006e6400006c650000e3
:102ac40064200000696e00007465000072720000ea
:102ad40075700000742c000020000000756e00006a
:102ae4006b6e00006f7700006e000000504900001c
:102af40043320000344800004a33000032470000eb
:102b0400503200003032000000410000320000006a
:102b14004133000000410000340000004135000052
:102b240000410000360000004465000076690000a2
:102b34006365000020490000442000003d2000009f
:102b44000020000028000000292c00002072000052
:102b54006576000069730000696f00006e20000054
:102b6400002900000a0000000a0a00002a2a0000c6
:102b74002a2a00002a2a00002a2a00002a2a000001
:102b84002a2a00002a2a00002a2a00002a2a0000f1
:102b94002a2a00002a2a00002a2a00002a2a0000e1
:102ba4002a2a00002a2a00002a2a00002a2a0000d1
:102bb4002a2a00002a2a00002a2a00002a2a0000c1
:102bc4002a2a00002a2a00002a2a00002a2a0000b1
:102bd4002a2a00002a2a00000a2a0000205700009e
:102be400415200004e4900004e470000202d0000d5
:102bf40020740000686900007320000070720000f7
:102c04006f670000726100006d20000077610000b2
:102c140073200000636f00006d700000696c000099
:102c240065640000206600006f72000020740000dc
:102c34006865000020770000726f00006e67000076
:102c4400202000002a0a00002a20000063680000f7
:102c5400697000002e2000005468000069730000b1
:102c640020700000726f000067720000616d000048
:102c7400206d00006179000020700000726f000078
:102c84006475000063650000207500006e65000037
:102c94007870000065630000746500006420000023
:102ca4006265000068760000696f00007221000010
:102cb400202a00000a2a0000204500006469000060
:102cc400742000007468000065200000686500003e
:102cd400616400006572000020660000696c0000f9
:102ce40065730000207400006f2000007072000003
:102cf4006f700000657200006c79000020640000b1
:102d040065660000696e00006520000074680000bc
:102d140069730000206300006869000070200000ef
:102d24002a0a00002a200000616e000064200000ce
:102d3400746f0000206900006e730000757200005b
:102d440065200000636f000072720000656300007c
:102d5400742000006f700000657200006174000050
:102d6400696f00006e2e000020200000202000006b
:102d7400202000002020000020200000202000004f
:102d8400202000002020000020200000202a000035
:102d94000a2a00002020000020200000202000003b
:102da400202000002020000020200000202000001f
:102db400202000002020000020200000202000000f
:102dc40020200000202000002020000020200000ff
:102dd40020200000202000002020000020200000ef
:102de40020200000202000002020000020200000df
:102df4002020000020200000202000002a0a0000db
:102e04002a2000004e4f0000544500003a200000e4
:102e14004966000020740000686900007320000007
:102e24007761000073200000636f00006d70000084
:102e3400696c000065640000206600006f72000089
:102e44002074000068650000206300006f720000b9
:102e5400726500006374000020630000686900006c
:102e6400702c000020200000202a00000a2a000004
:102e7400206100006e640000206f00006e6c000092
:102e8400792000006f630000637500007273000016
:102e94002061000074200000706f0000776500005e
:102ea400722d00006f6e0000202800006e6f00007d
:102eb4007420000064750000726900006e670000f1
:102ec40020610000204d0000434c0000522000000f
:102ed40020200000202000002a0a00002a200000f0
:102ee4007265000073650000742900002c20000046
:102ef40076650000726900006679000020740000a5
:102f04006861000074200000415600004444000041
:102f1400206100006e640000204100005653000050
:102f2400532000006172000065200000636f000000
:102f34006e6e00006563000074650000642e00007e
:102f440020200000202a00000a2a0000204f000050
:102f54006e200000746800006520000050490000e5
:102f64004332000034480000333200004750000070
:102f740032300000322c0000206e00006f7400001c
:102f8400206300006f6e00006e6500006374000033
:102f9400696e0000672000004156000044440000b0
:102fa400202000002020000020200000202000001d
:102fb400202000002a0a00002a200000707200006d
:102fc4006f640000756300006573000020740000e6
:102fd40068690000732000006d65000073730000d1
:102fe40061670000652000006f6e00006c790000ce
:102ff4002061000074200000706f000077650000fd
:10300400722d0000757000002e20000020200000aa
:1030140020200000202000002020000020200000ac
:10302400202a00000a2a00002a2a00002a2a000076
:103034002a2a00002a2a00002a2a00002a2a00003c
:103044002a2a00002a2a00002a2a00002a2a00002c
:103054002a2a00002a2a00002a2a00002a2a00001c
:103064002a2a00002a2a00002a2a00002a2a00000c
:103074002a2a00002a2a00002a2a00002a2a0000fc
:103084002a2a00002a2a00002a2a00002a2a0000ec
:103094002a0a00000046000061730000742000004a
:1030a40052430000204f0000736300000a00000038
:1030b40046610000737400002052000043200000a9
:1030c4004f730000632000007769000074680000fb
:1030d400205000004c4c00000a0000005072000018
:1030e400696d000061720000792000004f730000d8
:1030f4006320000028580000542c000020480000e1
:10310400532c000020450000432900000a00000061
:1031140050720000696d00006172000079200000a7
:103124004f7300006320000028580000542c000056
:1031340020480000532c00002045000043290000d3
:10314400207700006974000068200000504c0000e3
:103154004c0a000000530000656300006f6e00001d
:103164006461000072790000204f00007363000066
:103174000a0000004c6f000077200000506f000030
:10318400776500007220000052430000204f0000c9
:10319400736300000a0000004661000073740000bd
:1031a40020520000432000004f730000632f0000f2
:1031b400313600000a00000046610000737400000c
:1031c40020520000432000004f730000632f0000d2
:1031d4004e0a0000005500006e6b00006e6f000088
:1031e400776e0000206f000073630000696c0000bc
:1031f4006c610000746f000072200000747900009c
:10320400706500002e0000000a440000657600008e
:1032140069630000652000006861000073200000fd
:1032240062650000656e0000206900006e200000e9
:10323400736c000065650000702000006d6f000075
:10324400646500000a0000000a440000657600007e
:1032540069630000652000006861000073200000bd
:1032640062650000656e0000206900006e200000a9
:10327400696400006c650000206d00006f6400004c
:10328400650a0000000a0000526500007365000032
:10329400742000006361000075730000653a00004b
:1032a40020000000506f000077650000722d0000c0
:1032b4006f6e00002e0a0000005300006f660000cd
:1032c4007477000061720000652000005265000000
:1032d40073650000742e00000a00000057610000ae
:1032e40074630000686400006f67000020540000ed
:1032f400696d0000656f0000757400003a200000dd
:10330400000a0000004d0000434c00005220000061
:10331400617300007365000072740000696f00003f
:103324006e2e00000a000000427200006f77000059
:103334006e2d00006f750000742e00000a0000005e
:103344005472000061700000204300006f6e0000a2
:10335400666c000069630000742e00000a0000001f
:10336400496c00006c650000676100006c2000007f
:10337400436f00006e64000069740000696f000010
:103384006e2e00000a000000436f00006e6600000d
:10339400696700007572000061740000696f0000c5
:1033a4006e2000004d690000736d00006174000020
:1033b400636800002e0a0000005500006e6b0000d8
:1033c4006e6f0000776e00002072000065730000cd
:1033d400657400002e0a00000045000072720000af
:1033e4006f720000207400007261000070700000b1
:1033f400656400003a20000000500000726900007b
:103404006f72000069740000793a00002000000027
:103414002c20000056650000637400006f720000e9
:10342400206e0000756d000062650000723a0000b5
:10343400200000000a0a000000450000727200002b
:103444006f720000206900006e200000433a000003
:103454002f6500006365000033370000323400003c
:103464002f70000069630000323400006c690000b2
:10347400625f0000616c00006c2f00006c6900004a
:10348400622f000073720000632f00007069000057
:1034940063320000345f000075740000696c000042
:1034a4002e630000206c0000696e0000652000009f
:1034b40034360000393a0000204100005353000024
:1034c400455200005428000075310000365f0000aa
:1034d4006272000067680000203c00003d2000008c
:1034e4003129000020660000616900006c6500005d
:1034f400642e00000a00000045720000726f000094
:1035040072200000696e0000204300003a2f000082
:10351400656300006533000037320000342f00007b
:103524007069000063320000346c000069620000be
:103534005f6100006c6c00002f6c00006962000089
:103544002f730000726300002f7000006963000095
:10355400323400005f750000746900006c2e0000b6
:10356400632000006c6900006e65000020340000d8
:10357400373500003a200000415300005345000055
:1035840052540000286600005f6200007267000069
:10359400203c0000203600003535000033350000a3
:1035a4002e3500002920000066610000696c0000cf
:1035b400656400002e0a0000000000000000000006
:1035c40000000000003e00005b4f00005b3e000076
:1035d4003e6b00004f6b00003e1c00003e7c000070
:1035e4003e1c0000183c00007e3c0000181c00003b
:1035f400577d0000571c00001c5e00007f5e000029
:103604001c000000183c000018000000ffe7000048
:10361400c3e70000ff0000001824000018000000a9
:10362400ffe70000dbe70000ff300000483a00003d
:10363400060e00002629000079290000264000001b
:103644007f05000005070000407f000005250000fd
:103654003f5a00003ce700003c5a00007f3e000057
:103664001c1c0000080800001c1c00003e7f000019
:10367400142200007f220000145f00005f0000009d
:103684005f5f0000060900007f0100007f0000006a
:1036940066890000956a00006060000060600000b8
:1036a40060940000a2ff0000a2940000080400003f
:1036b4007e04000008100000207e0000201000009e
:1036c400080800002a1c0000080800001c2a00004a
:1036d400080800001e10000010100000100c00006c
:1036e4001e0c00001e0c0000303800003e380000a4
:1036f400300600000e3e00000e0600000000000030
:103704000000000000000000005f00000000000056
:103714000007000000070000001400007f140000f0
:103724007f140000242a00007f2a000012230000d6
:1037340013080000646200003649000056200000af
:10374400500000000807000003000000001c0000f7
:103754002241000000000000412200001c00000083
:103764002a1c00007f1c00002a080000083e0000fc
:10377400080800000080000070300000000800000d
:103784000808000008080000000000006060000055
:103794000020000010080000040200003e51000058
:1037a400494500003e000000427f00004000000048
:1037b40072490000494900004621000041490000c7
:1037c4004d33000018140000127f00001027000081
:1037d40045450000453900003c4a000049490000c5
:1037e40031410000211100000907000036490000a2
:1037f400494900003646000049490000291e0000de
:10380400000000001400000000000000403400002c
:103814000000000000080000142200004114000011
:1038240014140000141400000041000022140000cd
:103834000802000001590000090600003e41000092
:103844005d5900004e7c000012110000127c000043
:103854007f49000049490000363e00004141000014
:10386400412200007f410000414100003e7f0000f2
:1038740049490000494100007f090000090900008e
:10388400013e000041410000517300007f08000028
:10389400080800007f000000417f00004100000094
:1038a40020400000413f0000017f00000814000098
:1038b400224100007f40000040400000407f0000a3
:1038c400021c0000027f00007f04000008100000ba
:1038d4007f3e000041410000413e00007f0900009e
:1038e40009090000063e000041510000215e00006d
:1038f4007f090000192900004626000049490000fc
:1039040049320000030100007f010000033f000072
:1039140040400000403f00001f2000004020000005
:103924001f3f000040380000403f000063140000c7
:10393400081400006303000004780000040300007e
:1039440061590000494d0000430000007f41000020
:1039540041410000020400000810000020000000a3
:1039640041410000417f0000040200000102000008
:1039740004400000404000004040000000030000fc
:1039840007080000002000005454000078400000a4
:103994007f280000444400003838000044440000fc
:1039a4004428000038440000442800007f38000008
:1039b4005454000054180000000800007e09000060
:1039c40002180000a4a400009c7800007f080000f6
:1039d4000404000078000000447d00004000000062
:1039e40020400000403d0000007f0000102800003f
:1039f40044000000004100007f400000007c000003
:103a040004780000047800007c080000040400002e
:103a1400783800004444000044380000fc180000da
:103a240024240000181800002424000018fc0000be
:103a34007c080000040400000848000054540000fe
:103a440054240000040400003f440000243c00000f
:103a540040400000207c00001c20000040200000aa
:103a64001c3c000040300000403c000044280000a2
:103a740010280000444c000090900000907c00004e
:103a840044640000544c0000440000000836000068
:103a9400410000000000000077000000000000006a
:103aa400413600000800000002010000020400008a
:103ab400023c000026230000263c00001ea100005a
:103ac400a1610000123a000040400000207a00008a
:103ad4003854000054550000592100005555000089
:103ae4007941000022540000547800004221000073
:103af400555400007840000020540000557900001f
:103b0400400c00001e5200007212000039550000e3
:103b14005555000059390000545400005459000010
:103b240039550000545400005800000000450000be
:103b34007c41000000020000457d000042000000be
:103b4400014500007c4000007d12000011120000bd
:103b54007df000002825000028f000007c540000bf
:103b64005545000000200000545400007c5400001f
:103b74007c0a0000097f0000493200004949000026
:103b8400493200003a440000444400003a32000044
:103b94004a480000483000003a410000412100003a
:103ba4007a3a00004240000020780000009d0000a6
:103bb400a0a000007d3d000042420000423d000004
:103bc4003d400000404000003d3c000024ff000058
:103bd40024240000487e000049430000662b0000b6
:103be4002ffc00002f2b0000ff09000029f6000025
:103bf40020c00000887e000009030000205400005b
:103c04005479000041000000004400007d410000a0
:103c140030480000484a00003238000040400000ac
:103c2400227a0000007a00000a0a0000727d000077
:103c34000d190000317d000026290000292f000005
:103c44002826000029290000292600003048000009
:103c54004d4000002038000008080000080800005b
:103c64000808000008080000382f000010c80000f1
:103c7400acba00002f10000028340000fa00000045
:103c8400007b000000000000081400002a1400005b
:103c940022220000142a000014080000aa000000d8
:103ca40055000000aaaa000055aa000055aa000069
:103cb4000000000000ff00000010000010100000d1
:103cc400ff0000001414000014ff000000100000a6
:103cd40010ff000000ff000010100000f0100000b2
:103ce400f014000014140000fc0000001414000080
:103cf400f7000000ff00000000ff000000ff0000cc
:103d040014140000f4040000fc1400001417000054
:103d1400101f0000101000001f1000001f140000ee
:103d2400141400001f0000001010000010f0000028
:103d340000000000000000001f1000001010000030
:103d4400101f00001010000010100000f010000000
:103d54000000000000ff0000101000001010000020
:103d6400101000001010000010ff000010000000f0
:103d740000000000ff14000000000000ff0000002d
:103d8400ff000000001f00001017000000000000ea
:103d9400fc040000f41400001417000010170000c5
:103da40014140000f4040000f400000000ff0000fc
:103db40000f7000014140000141400001414000090
:103dc40014f7000000f7000014140000141700009a
:103dd40014100000101f0000101f00001414000035
:103de40014f400001410000010f0000010f00000a3
:103df400000000001f1000001f0000000000000071
:103e04001f1400000000000000fc0000140000006b
:103e140000f0000010f0000010100000ff1000007f
:103e2400ff14000014140000ff1400001010000020
:103e3400101f00000000000000000000f01000004f
:103e4400ffff0000ffff0000fff00000f0f00000a3
:103e5400f0f00000ffff0000ff0000000000000081
:103e640000000000ffff00000f0f00000f0f000014
:103e74000f3800004444000038440000fc4a0000ad
:103e84004a4a0000347e00000202000006060000d8
:103e9400027e0000027e000002630000554900001b
:103ea4004163000038440000443c0000044000002a
:103eb4007e2000001e200000060200007e0200009a
:103ec40002990000a5e70000a59900001c2a000043
:103ed400492a00001c4c000072010000724c0000d2
:103ee400304a00004d4d000030300000487800009a
:103ef40048300000bc6200005a4600003d3e00000d
:103f040049490000490000007e0100000101000051
:103f14007e2a00002a2a00002a2a000044440000c5
:103f24005f44000044400000514a00004440000047
:103f3400404400004a5100004000000000ff00001f
:103f440001030000e0800000ff0000000008000002
:103f5400086b00006b0800003612000036240000d5
:103f6400360600000f0900000f06000000000000e4
:103f740018180000000000000010000010000000ed
:103f840030400000ff010000010000001f0100009c
:103f9400011e0000001900001d170000120000009f
:103fa4003c3c00003c3c000000000000000000001d
:103fb4000000000045720000726f000072200000d3
:103fc400696e0000204300003a2f00006563000082
:103fd4006533000037320000342f000070690000a0
:103fe40063320000346c0000696200005f6100000d
:103ff4006c6c00002f6c0000696200002f730000dd
:10400400726300002f700000696300003234000006
:104014005f73000065720000696100006c2e00008f
:10402400632000006c6900006e6500002038000009
:10403400303a0000204900006e760000616c0000f8
:104044006964000020550000415200005400000043
:104054003078000000450000727200006f720000aa
:10406400206900006e200000433a00002f65000024
:104074006365000033370000323400002f70000005
:1040840069630000323400006c690000625f000064
:10409400616c00006c2f00006c690000622f00004e
:1040a40073720000632f0000706900006332000027
:1040b400345f00007365000072690000616c0000e9
:1040c4002e630000206c0000696e00006520000073
:1040d40032390000353a0000204900006e760000b5
:1040e400616c00006964000020550000415200002a
:1040f4005400000045720000726f0000722000003e
:10410400696e0000204300003a2f00006563000040
:104114006533000037320000342f0000706900005e
:1041240063320000346c0000696200005f610000cb
:104134006c6c00002f6c0000696200002f7300009b
:10414400726300002f7000006963000032340000c5
:104154005f73000065720000696100006c2e00004e
:10416400632000006c6900006e65000020330000cd
:10417400333400003a200000496e000076610000ec
:104184006c69000064200000554100005254000096
:104194000000000050c3000030750000204e0000f5
:1041a4001027000088130000b80b0000d00700009f
:1041b400e8030000f40100002c010000c800000026
:1041c40064000000320000001e0000001400000023
:1041d4000a000000050000000300000002000000c7
:1041e400010000000503000002010000321e00006f
:1041f400140a00000503000002010000050300008a
:104204000201000005030000020100000a0a000088
:10421400596f000075720000206300006c6f00008d
:10422400636b000020630000686f00006963000096
:104234006520000066610000696c00006564000090
:10424400207400006f200000696e00006974000093
:10425400696100006c6900007a6500002e2000008e
:104264005365000065200000433a00002f650000fc
:104274006365000033370000323400002f70000003
:1042840069630000323400006c690000625f000062
:10429400616c00006c2f00006c690000622f00004c
:1042a40073720000632f0000706900006332000025
:1042b400345f0000636c00006f6300006b660000f5
:1042c40072650000712e0000632000006c6900001c
:1042d4006e650000203100003436000020660000c6
:1042e4006f720000206d00006f72000065200000f6
:1042f4006465000074610000696c0000732e0000a6
:1043040000450000727200006f7200002069000016
:104314006e200000433a00002f6500006365000032
:1043240033370000323400002f700000696300004e
:10433400323400006c690000625f0000616c0000b0
:104344006c2f00006c690000622f00007372000083
:10435400632f00007069000063320000345f0000c6
:10436400636c00006f6300006b6600007265000000
:10437400712e0000632000006c6900006e6500006f
:1043840020310000373200003a2000004153000081
:10439400534500005254000028750000385f0000a7
:1043a400736f00007572000063650000203c00001c
:1043b400203800002920000066610000696c0000bc
:1043c400656400002e0a0000000000005541000052
:1043d4005254000031200000706100007269000036
:1043e4007479000020650000727200006f72000092
:1043f4000a00000055410000525400003120000022
:1044040066720000616d0000696e000067200000a4
:1044140065720000726f0000720a0000005500000f
:104424004152000054310000206f00007665000006
:1044340072720000756e0000206500007272000048
:104444006f7200000a00000045720000726f0000e5
:1044540072200000696e0000204300003a2f000023
:10446400656300006533000037320000342f00001c
:104474007069000063320000346c0000696200005f
:104484005f6100006c6c00002f6c0000696200002a
:104494002f730000726300002f7000006963000036
:1044a400323400005f75000061720000742e000059
:1044b400632000006c6900006e650000203300007a
:1044c400353200003a2000004153000053450000fb
:1044d4005254000028750000333200005f6200006f
:1044e40061750000645200006174000065200000e2
:1044f4003e3d00002031000030300000304c000010
:104504002920000066610000696c000065640000f9
:104514002e0a0000000000000a2e00002e2f0000ca
:104524004e6500007665000072570000616e000061
:104534006465000072420000616e0000642e000099
:10454400632c000020620000756900006c74000098
:10455400206f00006e2000004e6f000076200000e7
:1045640020360000203200003031000034200000ea
:104574006174000020310000313a00003230000044
:104584003a300000300a0000004c00006174000062
:104594006974000075640000653a000020000000a2
:1045a4004c6f00006e6700006974000075640000c1
:1045b400653a000020000000546900006d650000a9
:1045c4003a2000000000000049320000433100009e
:1045d4002053000074610000727400000049000060
:1045e4003243000031200000525300007461000087
:1045f40072740000004900003243000031200000c2
:10460400537400006f700000004900003243000042
:104614003120000050750000740000004932000091
:104624004350000055540000312c0000204e00007f
:10463400414b000020720000657400007572000098
:104644006e650000642e0000004900003243000043
:104654003120000047650000740000002450000071
:104664004d5400004b330000313400002c30000066
:104674002c3100002c3000002c3000002c300000c5
:104684002c3000002c3000002c3000002c300000b6
:104694002c3000002c3000002c3000002c300000a6
:1046a4002c3000002c3000002c3000002c30000096
:1046b4002c3000002c3000002a320000390d00009c
:1046c4000a000000245000004d5400004b3200004a
:1046d400323000002c31000030300000302a00005d
:1046e400314600000d0a0000000000005350000095
:1046f4004931000020520000656300006569000034
:1047040076650000204f00007665000072660000a8
:0c4714006c6f0000770a0000000000003d
:020000040000fa
:104720000400fa00008fbe001e00be00da10070071
:104730001e02be00c42bde00cc28dd004423de00b8
:1047400006837000e4618000f5618000060242008b
:1047500087824a00e4618800f56188000080fa00e1
:10476000000006000000fa00e41320001412880084
:104770003536800004fe2f00048262007400b3000e
:104780003436880035368000f40f2e0084826200b3
:10479000048020000482720034368800c8a2a90078
:1047a000cea2a9006b60a900cca2a8002ca3a800ef
:1047b000c862a900ce62a90068e0a900cc62a80086
:1047c00041e2a8000080fa00000006000000fa00a4
:1047d000e4ff07000002eb00846088000002eb00a9
:1047e000946088000002eb00a46088000002eb00e7
:1047f000b460880014c0b3000440780018ecb7001f
:1048000014c0b3000440780019ecb700040820007d
:10481000d460880004042000e4608800d4c3b3009e
:10482000044078001eecb700cca2a90000a821002b
:1048300061002000baff0700cca2a8002c83a800ca
:10484000c842a900ce42a90068c0a900044c2200b9
:10485000e00a200004000100044c2200500d20005a
:1048600004000100044c22000008200004000100a4
:10487000044c2200800a200004000100044c2200a5
:10488000f003200004000100044c2200300d200041
:1048900004000100044c22000000eb0004000100b1
:1048a000044c22000004200004000100044c2200fb
:1048b000d008200004000100044c22004001200028
:1048c00004000100044c220000022000040001004a
:1048d000044c22000000eb0004000100044c220004
:1048e000100a200004000100044c2200800c20006b
:1048f00004000100044c2200a00d2000040001006f
:10490000044c22002001200004000100044c22007d
:104910001008200004000100044c2200f00c2000cc
:1049200004000100044c2200900d2000040001004e
:10493000044c2200100f200004000100044c22004f
:10494000b00d200004000100044c220000042000ef
:1049500004000100044c2200400a20000400010071
:10496000044c2200600a200004000100044c2200d4
:10497000f00a2000040001000080fa000000060098
:104980000200fa00004f7800cc62a800cc42a900d7
:10499000cc62a9009e4278000582fb0004007800ea
:1049a0002c100700cc62a8000080fa00000006006e
:1049b0000200fa00004f7800cc62a800cc42a800a8
:1049c000cc62a9009e4278000582fb0004007800ba
:1049d00020100700cc62a8000080fa00000006004a
:1049e0000200fa0010c2b300e5ff07000040eb0030
:1049f000e3ff0700f0c7b300e1ff070020c2b300e8
:104a0000dfff07000040eb00ddff070070c0b300d0
:104a1000dbff0700cc62a800cc42a800cc62a90052
:104a20000002eb00040f780007003700048020002c
:104a30001e024200144278000482fb000400780049
:104a4000041007001e0fe800f43f20009e027800cb
:104a5000848f5200f5ff3600cc62a8000080fa0077
:104a6000000006000200fa00004f78001e427800a5
:104a7000e04f5200020032001e4278000100370071
:104a800014c0b3000440780018ecb7000080fa00ae
:104a9000000006000200fa00000f78001e027800f5
:104aa000b4608800b4608000a46088000080fa00d0
:104ab000000006000400fa00000f780011079800bb
:104ac0001e027800846088001e02900094608800b6
:104ad0000080fa00000006000000fa0002402000fa
:104ae0008000eb0000802000ebf707000080fa0058
:104af000000006000200fa00881f7800004f7800ce
:104b00001e427800ea4f5200030032001e42780035
:104b1000ea4f52000a003a009560800084c12000ec
:104b2000144278000482fb004322dd00048242002c
:104b3000946088000002eb00846088003500370034
:104b40001e427800ed4f5200320032001e427800c3
:104b5000ed4f52002f003200e88e220084c1200069
:104b6000144278008482fb00b4608000a160800061
:104b70001e4378000680fb009760800086608000fe
:104b80008101780000017800870078000600780035
:104b9000080001008660800084c120001442780073
:104ba0000482fb006622b90004027800040243007c
:104bb0008460880094c1200014427800e04f5200c5
:104bc0001400320086608000d760800084c120001d
:104bd000144278008482fb00a4ff2f0004aab900cd
:104be0000402780004824300840f5300090034005b
:104bf0009560800084c12000144278000482fb008c
:104c00004322dd0004824200946088000002eb0031
:104c1000846088004f0478000080fa0000000600dd
:104c20000400fa00100798000042eb00044f7800df
:104c30000a0037009e4278000582fb009e02900029
:104c40000482420094427800154798001e4290006a
:104c500004407800a7ff07001e4fe8009e4278003e
:104c60000582fb009e0290000482420014427800fc
:104c7000e04f5200efff3a000080fa00000006000b
:104c80001200fa0050079800610798007207980018
:104c9000030f98005e029000e00f5200c70035003d
:104ca000de029000f4072000848f5200c5003c0013
:104cb0006e029000e00f520006003d00fe029000e0
:104cc0006e02900004824200740798000002eb001c
:104cd00064079800ee0290007e02900084824200f9
:104ce00004042000848f52000400340005042000d6
:104cf0006e02900004825200740798007e029000b9
:104d0000e00f5200b10034006e029000544798004a
:104d10007e029000044f7800048020001407980061
:104d20005e4290000482fb004322de0004427800d1
:104d30000482fb004722dd009e02900004824200b4
:104d4000140798005e0290009e02900004824200c8
:104d5000140798005e429000674262006447980022
:104d60006e429000e04f52004200320085c0b30016
:104d70006e42900004c25200644798006e42900058
:104d80008482fb0004c02000048242009442780028
:104d9000454798006e4290009e42780084cf5200b2
:104da0000b0031006e4290008482fb001e437800ad
:104db0000682fb0004825200f50f200004aade00e8
:104dc000844278004e42900004c26200444798003a
:104dd0000e0a9000e10f520005003200e10f520070
:104de0000a003900e20f52001100320017003700ac
:104df0001e029000944278004e42900004c272005d
:104e00009e029000844a7800100037001e02900035
:104e100014427800844278004e42900004c2ea00b6
:104e200004c262009e029000844a780007003700a6
:104e30001e029000944278004e42900004c26a0024
:104e40009e029000844a7800000000006e429000ac
:104e50009e42780084cf52005e0039009e42780066
:104e60006e42900004cf52001e0290000408b00071
:104e7000140798001e427800e74f520023003600c6
:104e80000e0a9000e20f52000e003a001e0290003f
:104e90001442780004c2ea009e029000844a78001e
:104ea0001e0290000408b000140798001e4278000b
:104eb000684f52001e427800e74f5200f3ff3e0059
:104ec000120037000e0a9000e10f520002003a0073
:104ed00000c2eb00010037000042eb00744798006d
:104ee0001e029000fe429000054a78001e029000cb
:104ef0000408b000140798001e437800684f530060
:104f00001e427800e74f5200f5ff3e001e42780037
:104f1000e04f5200300032009e42780067c26200cb
:104f2000644798006e4290008482fb0084c0200099
:104f30000482420014437800064f98000e0a900045
:104f4000e10f520005003200e10f52000a00390063
:104f5000e20f5200110032001f0037001e029000c5
:104f6000944278000e4a900004c272009e029000a3
:104f7000844a7800180037001e029000144278001e
:104f8000844278000e4a900004c2ea0004c2620023
:104f90009e029000844a78000f0037001e029000a5
:104fa000944278000e4a900004c26a009e0290006b
:104fb000844a78000000000007003700000000006d
:104fc000050037000000000003003700000000006b
:104fd00001003700000000000080fa000000060019
:104fe0000c00fa001007980021079800320798007b
:104ff00043079800540798001e029000040f7800a1
:1050000006003700de0190004e019000ae009000d7
:105010001e0078001aff07001e0fe8009e02900095
:105020003e029000048242009e0f5200f5ff3c00b9
:105030000080fa00000006000600fa00000f780069
:1050400011079800220798001e027800e00f520016
:1050500059003500d46080009e0f52005800340083
:105060001e029000e00f520057003500e5608000fe
:105070001e029000848f5200550034002e029000d2
:10508000e10f520005003200e10f52001a00390012
:10509000e20f5200300032004e0037009e029000b6
:1050a00084002000110009008402d800000278006a
:1050b000c722dd001e8342004722dd009e0242001f
:1050c0000480200004824200144278008442780068
:1050d0001e0290006702620017002000043add0003
:1050e0000442780004c2720005802000850243005b
:1050f000844a7800370037009e0290008400200028
:10510000110009008402d80000027800c722dd00e7
:105110001e8342004722dd009e02420004802000e0
:105120000482420014427800844278001e029000fb
:105130006702620017002000043add000442780094
:1051400004c2ea0004c26200058020008502430018
:10515000844a78001f0037009e02900084002000df
:10516000110009008402d80000027800c722dd0087
:105170001e8342004722dd009e0242000480200080
:105180000482420014427800844278001e0290009b
:105190006702620017002000043add000442780034
:1051a00004c26a000580200085024300844a78001a
:1051b0000000000007003700000000000500370075
:1051c000000000000300370000000000010037006d
:1051d000000000000080fa00000006001000fa0045
:1051e0002007980031079800024f98005307980055
:1051f00064079800654f9800d56080002e029000eb
:10520000848f520096003400e56080003e029000da
:10521000848f5200940034006e4a90000482fb0098
:105220006622b900840278002e02900004824200b7
:105230000402e900e00f52008d0035006e4a900034
:105240000482fb00c322dd003e0290000482420083
:105250000402e900e00f5200870035000042eb0035
:10526000044f78007a0037001e427800e54f520064
:1052700003003a000042eb00144798000b0037008f
:105280000e4a90000482fb006522b90004027800f7
:10529000840278001e02fb008482420004ae2900d2
:1052a0000482420094427800154798000042eb00c7
:1052b00024479800620037001e4290000482fb00e1
:1052c0006102620004427800e04f5200290032007f
:1052d0006e4a9000e14f52000c003a002e429000be
:1052e0008402fb003e029000848242001e03fb0009
:1052f0002e029000040243005e01900085007800b9
:10530000040078004cff0700460037006e4a90000a
:105310000480fb006e4a90008483fb002e429000c4
:105320008402fb006e4a90000482fb0004aab900cc
:10533000840278003e029000048342009e02fb003b
:105340006e4a90000482fb0004aab900840278002f
:105350002e029000848242005e029000800178005c
:105360000701780086007800050078001cff070020
:105370002c003700ee0290005e029000848f5200f5
:10538000280032006e4a9000e14f52000c003a00b3
:105390002e4290008402fb003e0290008482420074
:1053a0001e03fb002e029000040243006e019000d9
:1053b00085007800040078001fff070019003700ff
:1053c0006e4a90000480fb006e4a90008483fb00cc
:1053d0002e4290008402fb006e4a90000482fb0083
:1053e00004aab900840278003e02900004834200bf
:1053f0009e02fb006e4a90000482fb0004aab900e2
:10540000840278002e029000848242006e02900096
:105410008001780007017800860078000500780098
:10542000effe07001e4290000482fb000402d10040
:10543000144798002e4290000442e8002447980048
:105440002e429000e74f52009bff34001e4fe800b1
:105450001e427800e54f520083ff340007003700fa
:1054600000000000050037000000000003003700c6
:105470000000000001003700000000000080fa007a
:10548000000006000000fa008c0c07000080fa0003
:10549000000006000400fa00008fbe001e00be00df
:1054a0007d0d07001e02be00c42bde00cc28dd00ef
:1054b0004423de0006837000e4618000f561800013
:1054c0000602420087824a00e4618800f561880094
:1054d0000080fa00000006003a01fa00e9ff070028
:1054e0002f0307000058220001002000e2080700f7
:1054f000e0282a0077070700eb060700b3fc070047
:1055000062024700752c2a000a000900355a78000b
:105510006d024700252d2a000b000900355a78003e
:1055200079024700e52d2a0006000900355a780067
:10553000040220000e02420036f4260057272700fe
:10554000068abe006402420036272700a703220015
:10555000068abe00640242008042eb00054a7800e1
:105560000402e80094022000040f4700100020000d
:1055700048fd070010c0b3003afd07008006200078
:105580005cfd070016fd070053fd07008000eb00df
:105590000000eb0047fd070095022000050f4700c3
:1055a000011020001e0078008a0707001e00780006
:1055b0005e05070000027800e00f520006003a0086
:1055c000a41220000e0242009e0078000400780021
:1055d0007a05070001003700000000000e82e80095
:1055e000040078008efd07007e6a92000482fb00b2
:1055f00004007800b7060700000278000400780075
:1056000087fd0700700a20003afd07000002200015
:1056100038fd07000e7292000482fb00040078003f
:10562000ac06070000027800040078007cfd07004b
:10563000000620002ffd0700000220002dfd0700be
:10564000200220002bfd0700a000200029fd0700fc
:105650006d0247000400780071fd07004e72920051
:105660000482fb00040078009a060700000278001c
:10567000040078006afd0700700a20001dfd070085
:10568000000220001bfd07005e7292000482fb00f6
:10569000040078008f0607000002780004007800fc
:1056a0005ffd07000006200012fd07000002200039
:1056b00010fd0700200220000efd0700a0002000c2
:1056c0000cfd0700790247000400780054fd070034
:1056d0002e6a92000482fb00040078007d06070019
:1056e00000027800040078004dfd0700a0032000b0
:1056f00000fd07003e6a92000482fb00040078006f
:1057000074060700000278000400780044fd0700da
:10571000a0032000f7fc07004e6a92000482fb0001
:10572000040078006b06070000027800040078008f
:105730003bfd0700a0002000eefc07000402200053
:105740000e0242000400780035fd07004e1a910059
:10575000040078005f06070000027800040078006b
:105760002ffd07009efc070000a82100610020001b
:1057700048ff070084ff37002800fa00700f9800e8
:1057800001179800121798002317980034179800f3
:105790000002eb00040f78000002eb0014079800f1
:1057a0006022b80024079800350798000002eb003b
:1057b000440798000002eb00540798006022b800ec
:1057c00064079800750798000002eb00040f98002a
:1057d0007e5a90008482fb001ef297000482fb0038
:1057e000048f52000e6290008482fb002ef297001c
:1057f0000482fb0004825200140798001e6290008d
:105800000482fb00c822dd002e6290000482fb00af
:105810000482420005002000240798003507980004
:105820003ef297000482fb00c822dd004ef2970092
:105830000482fb0004824200040f98000e0a9000cc
:10584000050020002e039000be03900004025300c8
:1058500085825b0024079800350798009e02780037
:10586000c403200004aab900040278009e0290003c
:1058700004824200140798001e029000cfa2de00ae
:105880000677210006abb900060378006020b90056
:105890008003780007034300840278000477210026
:1058a000042ab80005034300860278002e03900006
:1058b000be0390000602420087824a002407980037
:1058c000350798004e6290008482fb006ef29700cc
:1058d0000482fb0004825200440798005e6290003c
:1058e0008482fb007ef297000482fb000482520057
:1058f000540798006e6290000482fb00c822dd000d
:105900007e6290000482fb000482420005002000b9
:1059100064079800750798000efa97000482fb0050
:10592000c822dd001efa97000482fb0004824200b8
:10593000040f98000e0a9000050020006e039000ee
:10594000fe0390000402530085825b006407980008
:1059500075079800ce029000c403200004aab90085
:1059600004027800de02900004824200540798008e
:105970005e029000cfa2de000677210006abb900e0
:10598000060378006020b900800378000703430015
:105990008402780004772100042ab800050343003c
:1059a000860278006e039000fe039000060242001b
:1059b00087824a0064079800750798006022b80043
:1059c000140f9800250f98006022b800340f98003b
:1059d000450f98006022b800540f9800650f98009a
:1059e0002e029000be029000e00f5200e08f5a009d
:1059f00002003d0060021200e0821a00140f9800bd
:105a0000250f98006e029000fe029000e00f5200f9
:105a1000e08f5a0002003d0060021200e0821a008e
:105a2000340f9800450f98001e089000ae089000b3
:105a300035f207000002be0092282d00e3e92300a2
:105a40000400be0085f207000002be000400be0094
:105a50000ff207000002be00140f9800250f9800f7
:105a60003e089000ce08900027f207000002be001a
:105a7000c274230093e823000400be0077f20700fd
:105a80000002be000400be0001f207000002be00da
:105a9000340f9800450f9800ce0a90003e0a9000ff
:105aa00004aab900040278004e0b9000be0a9000d0
:105ab00005b3b90086027800050242003e0b900053
:105ac000be0a90000533b800070242008403780044
:105ad000ae0a90001e0a900004aab90004007800e3
:105ae000ae0a90001e0a900004aab90004027800d1
:105af000040040009e0a90001e0a9000042ab8008c
:105b000005004000800278000602420087824a00b9
:105b1000540f9800650f98005e089000ee08900002
:105b2000f9f107000002be000400be00eaf207001f
:105b30000002be000400be00d5f107000002be0056
:105b4000540f9800650f98005e0a900004007800da
:105b50000080fa00000006002e00fa00889fbe00b8
:105b60008a9fbe00201798003117980042179800ae
:105b700053179800641798000002eb00040f780098
:105b80000002eb00140798006022b8002407980078
:105b9000350798000002eb00440798000002eb0074
:105ba000540798006022b8006407980075079800b1
:105bb0000002eb00040f98005e6290008482fb00fc
:105bc0001ef297000482fb00048f52006e62900068
:105bd0008482fb002ef297000482fb0004825200b4
:105be000140798007e6290000482fb00c822dd004a
:105bf0000e6a90000482fb0004824200050020002f
:105c000024079800350798003ef297000482fb00b5
:105c1000c822dd004ef297000482fb00048242009d
:105c2000040f98000e0a9000050020002e0390003b
:105c3000be0390000402530085825b002407980095
:105c4000350798009e027800c403200004aab9001a
:105c5000040278009e02900004824200140798001b
:105c60001e029000cfa2de000677210006abb9002d
:105c7000060378006020b900800378000703430022
:105c80008402780004772100042ab8000503430049
:105c9000860278002e039000be03900006024200a8
:105ca00087824a0024079800350798002e6a9000e2
:105cb0008482fb006ef297000482fb000482520093
:105cc000440798003e6a90008482fb007ef29700b1
:105cd0000482fb0004825200540798004e6a900030
:105ce0000482fb00c822dd005e6a90000482fb0093
:105cf00004824200050020006407980075079800a0
:105d00000efa97000482fb00c822dd001efa9700fd
:105d10000482fb0004824200040f98000e0a9000e7
:105d2000050020006e039000fe0390000402530063
:105d300085825b006407980075079800ce0290008a
:105d4000c403200004aab90004027800de02900017
:105d500004824200540798005e029000cfa2de0049
:105d60000677210006abb900060378006020b90071
:105d70008003780007034300840278000477210041
:105d8000042ab80005034300860278006e039000e1
:105d9000fe0390000602420087824a0064079800d2
:105da000750798006e009000fe00900053f1070008
:105db0000002be0002802c00f38a24000400be0012
:105dc000bff007000002be00b2fd200093042400d3
:105dd0000400be00a1f107000002be000200200086
:105de000433324000400be00b5f007000002be00eb
:105df000140f9800250f98005e6290000482fb004b
:105e0000050020000400be003ff107000004be00b2
:105e10006e6290000482fb00050020000400be00ba
:105e200039f107000002be00020020000327240011
:105e30000400be00a2f007000002be000401be0084
:105e40000800be00bdef07000002be000404be0053
:105e50007e6290000482fb004822dd0005002000e5
:105e60000400be0028f107000005be000e6a900085
:105e70000482fb00cfa2de000400be001ff1070079
:105e80000002be000401be000a00be00abef070026
:105e90000002be0002802c00f38a24000400be0031
:105ea00087f007000002be000401be000800be002b
:105eb000a2ef07000002be00b2fd20009304240000
:105ec0000400be0065f107000002be0002002000d1
:105ed000433324000400be0079f007000002be0036
:105ee000340f9800450f98001ef297000482fb00c3
:105ef000050020000400be0003f107000004be00fe
:105f00002ef297000482fb00050020000400be0072
:105f1000fdf007000002be0002002000032724005d
:105f20000400be0066f007000002be000401be00cf
:105f30000800be0081ef07000002be000404be009e
:105f40003ef297000482fb004822dd00050020009d
:105f50000400be00ecf007000005be004ef2970002
:105f60000482fb00cfa2de000400be00e3f00700c5
:105f70000002be000401be000a00be006fef070071
:105f80000002be0002802c00f38a24000400be0040
:105f90004bf007000002be000401be000800be0076
:105fa00066ef07000002be00b2fd2000930424004b
:105fb0000400be0029f107000002be00020020001c
:105fc000433324000400be003df007000002be0081
:105fd000540f9800650f98004e629000e04f5200f9
:105fe00004003a003e0a9000ce0a900005f0a2009c
:105ff000020037003e0a9000ce0a9000340f98004d
:10600000450f98000ef29700e04f520004003a004e
:106010005e0a9000ee0a900005f0a2000200370030
:106020005e0a9000ee0a9000540f9800650f9800e9
:106030003e089000ce0890001ff007000004be004c
:106040005e089000ee089000a1f107000002be007b
:106050000401be000800be0000f107000002be00ff
:106060000404be003e089000ce08900098f107009e
:106070000005be005e089000ee0890000ef00700dc
:106080000002be000401be000a00be00f3f00700db
:106090000002be000405be001e089000ae0890007d
:1060a00005f007000002be000401be000a00be00a9
:1060b000eaf007000002be000401be000800be00b6
:1060c0001def07000002be000404be001e08900081
:1060d000ae0890007ef107000005be005e0890004b
:1060e000ee089000f4ef07000002be000401be00bd
:1060f0000a00be00d9f007000002be000801be0081
:106100000400be006aef07000002be00740f980092
:106110000517980002002000433324007e089000f9
:106120008e109000cdf007000002be00b2fd2000ee
:10613000930424000400be00e1ef07000002be004b
:106140000400be0031f007000002be0014179800e2
:106150001e129000040078004f05be004f04be00e0
:106160000080fa00000006000000fa005309070052
:106170000080fa00000006000400fa00004f7800da
:10618000110798001e427800e04f520002003a00ca
:106190001e0090004b0007000080fa00000006007f
:1061a0000000fa002d23a800c9e2a900cfe2a9004f
:1061b0006960a900cfe2a80004a8210065002000c2
:1061c00004628800156288006022b800e4618800db
:1061d000f5618800cde2a900020007000080fa0006
:1061e000000006000000fa00e4618000f561800014
:1061f00061024200e0824a00e4618800f5618800a3
:10620000e6618000f7618000046280001562800012
:10621000840f5300858f5b000400360005000700e3
:106220006022b800e4618800f56188000080fa000f
:10623000000006000000fa00641680000482ea00f4
:106240004f22de00044278000482fb004f22dd0072
:1062500066168000f5ff2700850263000482720045
:10626000641688000080fa00000006003600f8007e
:10627000809fbe00829fbe00849fbe00869fbe009e
:106280003400f80000002000a00188000000fa009f
:10629000c4c4200005078000050a7800a055290025
:1062a000080007000080fa003400f9004f03be0028
:1062b0004f02be004f01be004f00be003600f90085
:1062c000004006000200fa00000f780044628000df
:1062d000e00f520003003a001e027800446288007a
:1062e0000000fe000080fa00000006000600fa0030
:1062f00010079800210798001e009000000f7800fa
:106300001e029000ae029000402ade000500200030
:10631000044278000440780032e0b7001e027800a2
:106320001482ba0005002000c023dd000600200012
:106330001e0278001402ba00050020000402730057
:10634000858273000400be000080fa000000060091
:106350000e00fa0000002000f10f2000e3ff07000c
:106360000002be0034079800450798002000200076
:10637000f10f2000ddff07000002be005407980067
:106380006507980014c0b300044f78000457290033
:106390001407980004572900240798003e03900032
:1063a000ce039000d4f1200005002000840f53009c
:1063b000858f5b0003003a0084572900140798007a
:1063c000020037000042eb00044f7800f4ff2c007d
:1063d000f5ff2f005e039000ee03900006024200de
:1063e00087824a005600200007002000860f5200d6
:1063f000878f5a0016003e00046001000500370038
:106400000700370012003700080037000a00370085
:106410000c00370074582900240798000c0037003e
:10642000a45829002407980009003700d4582900ef
:106430002407980006003700045929002407980013
:106440000300370034592900240798000000000099
:10645000605929009f0307003e009000ce00900085
:106460002d040700305a29009a0307001e009000ef
:1064700098030700605a2900960307005e00900009
:10648000ee00900024040700305a29009103070011
:106490002e0090008f030700305b29008d0307005a
:1064a0001e427800e04f520002003a00605b290073
:1064b000880307000080fa00000006000000fa00d0
:1064c000143a80004c22de00674262000482fb0026
:1064d000cfa2de007600200007002000860f5200c9
:1064e000878f5a0021003e0004600100070037003a
:1064f000090037000b0037000d0037000f00370090
:10650000110037001300370015003700d084290030
:106510007003070018003700a08529006d030700ed
:1065200015003700008729006a03070012003700b2
:10653000a0882900670307000f003700d08a2900d0
:10654000640307000c003700c08b290061030700bb
:1065500009003700e08c29005e03070006003700c1
:10656000e08d29005b03070003003700d08e29006f
:1065700054ff0700000000000080fa000000060041
:106580000200fa000042eb00044f7800043a800059
:1065900068026200e00f52000300320060902900a0
:1065a0004c0307004067a900043a800064026200bf
:1065b000e00f5200030032006092290045030700fb
:1065c0004047a9005094290042030700043a800084
:1065d00061026200e00f52000e00320014c0b300ee
:1065e000044f7800409529003a0307004007a900ae
:1065f0004027a9000002eb00446288000002eb0083
:1066000054628800c4c420008002eb00050a7800b0
:106610004e003700053a8000040420000482620026
:10662000e00f520006003200f09529002903070010
:1066300014c0b300044f780040c7a90040e7a90088
:10664000043a800070026200e00f52000e00320037
:1066500014c0b300044f7800009729001d03070001
:1066600054628000e00f5200030032005462800048
:10667000040078001703070030982900150307006d
:106680004087a90040e7a900053a800004082000df
:1066900004826200e00f52000500320014c0b30013
:1066a000044f7800509829000a03070040e7a9002a
:1066b000043a800062026200e00f520005003200de
:1066c00014c0b300044f780060992900010307004b
:1066d0004027a900053a80000400280004826200d7
:1066e000e00f52000500320014c0b300044f7800e0
:1066f000209a2900f702070041e7a900053a800027
:106700000400240004826200e00f52000500320001
:1067100014c0b300044f7800209b2900ed0207004d
:1067200041c7a900053a80000420200004826200cd
:10673000e00f52000500320014c0b300044f78008f
:10674000609c2900e30207004127a9001e4278004f
:10675000e04f520002003a00f09d2900dd020700e0
:1067600044628000e00f52001d003200f09e2900bc
:10677000d80207004462800004007800d5020700b8
:10678000c4c4200014027800e00f52000d00320053
:10679000f09f2900cf020700646280004822de00db
:1067a0006f4262000440780044030700a0a0290063
:1067b000c8020700646280000474a10004407800ed
:1067c0003e030700c0a12900c20207000002eb003f
:1067d00044628800c4c420008002eb00050a7800ef
:1067e000dbfe070035ff07000080fa00000006000e
:1067f0000200fa00000f780069fe07005afe070049
:1068000000402800310020001b0407005cff070047
:106810001e007800af0207000080fa0000000600aa
:106820000800fa00881f78002007980031079800b8
:106830002e009000be00900095ee07000002be0002
:10684000048fbe001e00be00afee07000002be00b7
:106850000401be002e009000be00900036ed07003f
:106860000002be0018c0b3000200200003f02300a5
:106870000400be0063ee070000027800e00f520043
:10688000010035000044eb00e04f540002003200ec
:106890001e02be0004003700160020000700200082
:1068a0003e024300ae824b000400be004f0478005d
:1068b0000080fa00000006000600fa00881f780039
:1068c00010079800210798001e009000ae0090006d
:1068d0006fee07000002be00040f78001e02780071
:1068e000050020000400be0087ee07000002be0085
:1068f0000401be001e009000ae0090000eed0700e7
:106900000002be0018c0b3000200200003f0230004
:106910000400be003bee070000027800e00f5200ca
:10692000010035000044eb00e04f5400020032004b
:106930001e027800010037001e02e8000400780003
:106940004f0478000080fa00000006000e00fa00f4
:10695000889fbe00200798003107980042079800e2
:10696000540798006507980014c0b300ce02900049
:10697000e18f5200010036000042eb00f1a1290036
:1069800004407800fcfd07004e029000e00f52002a
:1069900018003a002e009000be0090005aee07004a
:1069a0000004be005e009000ee00900056ee07006e
:1069b0000002be000401be000800be00c0ed0700da
:1069c0000002be0002002000031824000400be00e4
:1069d000bbed07000002be000200200003f8230008
:1069e0000400be00d4ec07000002be00048fbe000d
:1069f000170037002e009000be00900042ee070006
:106a00000004be005e009000ee0090003eee070025
:106a10000002be000401be000800be00a8ed070091
:106a20000002be0002002000030824000400be0093
:106a3000a3ed07000002be000200200003f82300bf
:106a40000400be00bcec07000002be00048fbe00c4
:106a500018c0b30002f82f00f37724001e00be0018
:106a6000e8ed070000027800e00f52000100350059
:106a70000044eb00e1a7290008407800befd0700b4
:106a80001e00be008cff07000002780004007800a2
:106a90004f04be000080fa00000006000600fa0065
:106aa000100798004147980024c0b300144798008d
:106ab0001e0290000402e800144f78001100370015
:106ac0001e4290000482fb009e029000048242005d
:106ad00094427800a4c2b30084cf52000e0032006a
:106ae0001e4290000482fb009e029000048242003d
:106af000144278001e4f6a001e4290000442e800d3
:106b0000144798009e4290004e42900084cf52005d
:106b1000ebff360001003700000000001e42780045
:106b2000044078000080fa00000006000200fa002d
:106b3000000f78001e02e8009442780074c4b3008d
:106b400084cf520019003a001e82e8009442780077
:106b500004c5b30084cf520014003a009e027800ae
:106b6000638242009442780024c5b30084cf52006f
:106b70000e003a009e02780064824200944278003f
:106b8000d4c4b30084cf520008003a009e027800bb
:106b9000658242009442780034c4b30084cf52002e
:106ba00002003a000002eb00010037002400200040
:106bb000040078000080fa00000006001a00fa00c5
:106bc00080027800310f98000002eb001407980053
:106bd0000002eb00240798003e0a90006702420082
:106be000144278006a23b900060278000443780052
:106bf0003e0a9000680242001442780004424300ba
:106c000070425200644798003e0a900069024200b8
:106c1000144278006a23b900060278000443780021
:106c20003e0a90006a024200144278000442430087
:106c300070425200744798003e0a90006b02420076
:106c4000144278006a23b9000602780004437800f1
:106c50003e0a90006c024200144278000442430055
:106c600070425200044f98003e0a900072024200a7
:106c70001443780014c4b30004426b000482fb0088
:106c80000402e9004f22de0004427800144f98000d
:106c90001e4a9000e04f52001b003a000042eb00f9
:106ca000244f98000042eb00344f98000042eb0064
:106cb000444f98000042eb00544f98000042eb0014
:106cc000644f98000042eb00744f98000042eb00c4
:106cd000045798000042eb00145798000042eb0064
:106ce000245798000042eb00345798000002eb0054
:106cf000240f98006600470007000900b01a7800ca
:106d00000501b100e50037003e0a90007e02420016
:106d100014437800e4c4b30004426b000482fb0017
:106d20000402e9004f22de0004427800244f98005c
:106d30003e0a900074024200144278006a23b900af
:106d400006027800044378003e0a90007502420073
:106d5000144278000442430070425200344f9800bd
:106d60003e0a900076024200144278006a23b9007d
:106d700006027800044378003e0a90007702420041
:106d8000144278000442430070425200444f98007d
:106d90003e0a900079024200144278000403fb008e
:106da0008425200004b3b9000603780004f8280005
:106db000040043003e0a90007a0242001442780028
:106dc0000403fb00c403200004b3b90006037800e9
:106dd000044c2f0004024300040040003e0a9000cf
:106de0007b024200144278000402fb006623b900d3
:106df000060278000412b10004024000440f98001b
:106e00003e0a90007c024200144278000402fb001b
:106e10006623b9000602780006ee2f000403430043
:106e2000a4002000110009000403d800000278002b
:106e30004e0b900004024300140798001e029000bd
:106e40004822de0004427800544f98001e02900051
:106e500004427800644f98003e0a9000b402b000eb
:106e60001443780054c4b30004426b000482fb0056
:106e70000402e9004f22de0004427800744f9800bb
:106e80003e0a90000402b00014427800460620003a
:106e900006a3b90006027800044078003e0a90007c
:106ea0001402b000144278006a23b9000602780088
:106eb00004427800044340003e0a90002402b000df
